S31508000000E85C00204D020008550200085702000867
S31508000010590200085B0200085D02000800000000A3
S315080000200000000000000000000000005F02000859
S31508000030610200080000000063020008C5340008D9
S3150800004067020008670200086702000867020008DE
S3150800005067020008670200086702000867020008CE
S3150800006067020008670200086702000867020008BE
S3150800007067020008670200086702000867020008AE
S31508000080670200086702000867020008670200089E
S31508000090670200086702000867020008670200088E
S315080000A0670200086702000867020008670200087E
S315080000B0670200086702000867020008670200086E
S315080000C0670200086702000867020008670200085E
S315080000D0670200086702000867020008670200084E
S315080000E0670200086702000867020008670200083E
S315080000F0670200086702000867020008670200082E
S31508000100670200086702000867020008670200081D
S31508000110670200086702000867020008670200080D
S3150800012067020008670200086702000867020008FD
S3150800013067020008670200086702000867020008ED
S3150800014067020008670200086702000867020008DD
S3150800015067020008670200086702000867020008CD
S3150800016067020008670200086702000867020008BD
S31508000170670200086702000867020008000000001E
S31508000180670200086702000867020008670200089D
S31508000190670200086702000867020008670200088D
S315080001A067020008670200086702000800F002F804
S315080001B000F03CF80AA090E8000C82448344AAF1B7
S315080001C00107DA4501D100F031F8AFF2090EBAE8B5
S315080001D00F0013F0010F18BFFB1A43F0010318476D
S315080001E0DC760000FC760000103A24BF78C878C197
S315080001F0FAD8520724BF30C830C144BF04680C601F
S31508000200704700000023002400250026103A28BF66
S3150800021078C1FBD8520728BF30C148BF0B6070476A
S315080002201FB507F0D1F91FBD10B510BD00F0BCF918
S315080002301146FFF7F5FF04F097FF00F0DAF903B46B
S31508000240FFF7F2FF03BC00F0E1F900000948804718
S3150800025009480047FEE7FEE7FEE7FEE7FEE7FEE79A
S31508000260FEE7FEE7FEE7FEE704480549054A064BB2
S3150800027070470000C9340008AD010008E8560020A0
S31508000280E85C0020E8580020E858002053EA020CF1
S3150800029000F069802DE9F04B4FF00006002B1FBFD8
S315080002A0B3FA83F503FA05F424FA05F65E4012BF9D
S315080002B01643B2FA82F502FA05F4C5F120051EBF07
S315080002C022FA05FC44EA0C04203556EA044C4FEAA7
S315080002D0144418BF641C4FF000084FF00009904200
S315080002E071EB030C39D3002919BFB1FA81F701FA6A
S315080002F007F6B0FA80F700FA07F6C7F120071EBF1F
S3150800030020FA07FC46EA0C062037B6FBF4FCA7EBF6
S315080003100507103F07F01F0BCBF120062CFA06F64F
S315080003200CFA0BFB44BFB3460026202FA4BF5E463B
S315080003304FF0000B5BEA060C08BF4FF0010B19EBF8
S315080003400B0948EB0608ABFB027C06FB02CC0BFB51
S3150800035003CCC01B71EB0C01C1E70B4602464146B4
S315080003604846BDE8F08B13B5084318BF4FF0FF3079
S315080003700146AFF30080BDE81C40704740EA010320
S3150800038010B59B070FD1042A0DD310C808C9121F30
S315080003909C42F8D020BA19BA884201D9012010BD6A
S315080003A04FF0FF3010BD1AB1D30703D0521C07E037
S315080003B0002010BD10F8013B11F8014B1B1B07D19B
S315080003C010F8013B11F8014B1B1B01D1921EF1D10C
S315080003D0184610BD10B5431C02E010F8011B71B198
S315080003E08107FAD14FF0013202C88C1A8C4314EAFD
S315080003F0C211F9D0C01A0A0603D0C01E10BDC01A11
S3150800040010BD0A0401D0801E10BD0902FCD0401E92
S3150800041010BD032A40F2308010F0030C00F015805E
S3150800042011F8013BBCF1020F624498BF11F801CBE9
S3150800043000F8013B38BF11F8013BA2F1040298BF4E
S3150800044000F801CB38BF00F8013B11F0030300F0B8
S315080004507980083AC0F0088051F8043B083A51F808
S3150800046004CBA0E80810F5E7121D5CBF51F8043B61
S3150800047040F8043BAFF30080D20724BF11F8013BD4
S3150800048011F801CB48BF11F8012B24BF00F8013B36
S3150800049000F801CB48BF00F8012B704702F0FF03B4
S315080004A043EA032242EA024200F024B84FF000026F
S315080004B00429C0F0128010F0030C00F01B80CCF168
S315080004C0040CBCF1020F18BF00F8012BA8BF20F8D6
S315080004D0022BA1EB0C0100F00DB85FEAC17C24BF2A
S315080004E000F8012B00F8012B48BF00F8012B7047D4
S315080004F04FF0000200B5134694469646203922BFAF
S31508000500A0E80C50A0E80C50B1F12001BFF4F7AFF9
S31508000510090728BFA0E80C5048BF0CC05DF804EBDB
S31508000520890028BF40F8042B08BF704748BF20F849
S31508000530022B11F0804F18BF00F8012B7047704747
S315080005407047704710B5203AC0F00B80B1E81850D4
S31508000550A0E81850B1E81850A0E81850203ABFF49F
S31508000560F5AF5FEA027C24BFB1E81850A0E818503E
S3150800057044BF18C918C0BDE810405FEA827C24BF92
S3150800058051F8043B40F8043B08BF7047D20728BF20
S3150800059031F8023B48BF11F8012B28BF20F8023B6F
S315080005A048BF00F8012B7047754600F02BF8AE4699
S315080005B005006946534620F00700854618B020B561
S315080005C0FFF752FEBDE820404FF000064FF0000747
S315080005D04FF000084FF0000BAC46ACE8C009ACE899
S315080005E0C009ACE8C009ACE8C00921F007018D468E
S315080005F0704710B50446AFF300802046BDE81040AA
S31508000600FFF71DBE00487047E0000020014918208A
S31508000610ABBEFEE726000200704700F0B6F9FCE71D
S3150800062010B500F03FF901280CD0184C20780128A5
S3150800063008D102F057FFD4E90112114401F5FA7105
S31508000640884200D210BD00202070BDE8104000F09E
S31508000650B5B900BF0D484068704700BF80B50B4864
S315080006600121017000F004F8BDE88040FFF7D8BF0B
S3150800067010B5064C2078012802D102F033FFA0609D
S3150800068010BD00BF01494860704700BF70010020D7
S3150800069080B500F07EF900F073F902F029FF02F048
S315080006A0D9FC00F0EDF8BDE88040FFF7D7BF80B56C
S315080006B000F06BF902F074FF00F0FCF8BDE880402A
S315080006C0FFF7AEBFF0B58BB001A802F0C3FA0399E5
S315080006D04FF47A702D4A00244FF4FA7E4FF0FF3C0F
S315080006E00026B1FBF0F0122E14D002EB460112F8E8
S315080006F016704D78E91911FB0EE3B0FBF3F101FB17
S3150800070013032BB91CFA81F30C46B3F5806F0AD391
S315080007100136E8E720A0B521FFF77FFF1C482146F0
S3150800072000F5702205E01A481A4A00EB055002EB5C
S315080007300742424C224B0025012689B2C4E904200F
S315080007402046C4E90856C4E90A55C4E90031C4E993
S315080007500255C4E9065500F0F5FE0E200896CDE9C7
S3150800076006550595CDE90960042004904FF6E0701A
S31508000770CDE902504CF6E040019001A9204600F070
S3150800078015FE204600F05AFF0BB0F0BD2076000893
S315080007900000F0FF0000FFFF2E2E2F2E2E2F2E2EEC
S315080007A02F2E2E2F536F757263652F41524D434D71
S315080007B0345F53544D333246342F63616E2E6300D3
S315080007C000640040B0B588B003461C480C4601AA30
S315080007D00021002500F050FE58B9019940F26760E3
S315080007E0814201D1039808B1002502E00598012548
S315080007F02070284608B0B0BDB0B588B002460020C3
S315080008000691CDE9040040F2E17002900B4802A976
S3150800081001AB00F08BFD78B902F064FE074C00F1DD
S3150800082032050199204600F0F9FE28B100F0ADF82E
S3150800083002F058FEA842F4D908B0B0BDD00B00208B
S3150800084080B502F01DFB4D4804210160BDE88040DB
S31508000850FFF70EBF02F0BCBE484801688120022996
S3150800086008BF0820032908BF3F207047434801688E
S315080008708120022908BF0820032908BF3F207047A6
S3150800088010B502F05BFFFFF71DFF3C4C022020600D
S3150800089002F020FD0020206002F0A6FE0320206062
S315080008A010BD00BF80B502F053FF002818BF012015
S315080008B080BD0000E0B51E480DF10701FFF782FF75
S315080008C0012807D12D48022101609DF80710184814
S315080008D002F046FF16480DF1070102F01BFD01283C
S315080008E007D12648002101609DF80710104802F03C
S315080008F037FF0F480DF1070102F0BCFE012807D1AA
S315080009001E48032101609DF80710094802F028FFD8
S3150800091007480DF1070102F0FBFA012807D117482D
S31508000920042101609DF80710014802F019FF8CBDEB
S315080009309203002070B5114E04460D463068022811
S3150800094004D1E9B22046FFF757FF306820B9E9B26B
S31508000950204602F033FD3068032804D1E9B2204668
S3150800096002F0C0FE3068042803D1E9B2204602F03E
S3150800097043FBBDE8704003F019B800BF8C000020A7
S31508000980AFF30080642002F013BAAFF3008002F0E0
S3150800099013BAAFF3008072B6704762B6704770B587
S315080009A014460D460646200408BF70BD15F8010B0F
S315080009B0013C06F8010BFFF7E8FFF4E710B502F073
S315080009C04BFBA0B100F01CF888B1FFF743FF00F01D
S315080009D059FE02F0C7FD02F03BFB074908400749EC
S315080009E0086002F035FB4468FFF7D7FFA047BDE86B
S315080009F01040FFF725BF00BF80FFFF1F08ED00E08E
S31508000A0080B506484FF4005101F0DEFB012804BF0B
S31508000A10002080BD02F0C6F9012080BD0008024012
S31508000A20BCB50446002041F21805019020684159DA
S31508000A3041F4801141514059019002F06CFB206845
S31508000A4001994151BCBD0020704702F04BBD000022
S31508000A5080B50E4801F0FCF8002080BD80B513462D
S31508000A600A460146094801F08CF8002818BF4FF0DD
S31508000A70FF3080BD80B513460A460146034801F09B
S31508000A8096F9002818BF4FF0FF3080BD080C0020EB
S31508000A902DE9F043D0F8289000EB8904A04658F8D1
S31508000AA0185F2E68002E78D4E46A002C75D18E68FB
S31508000AB041F6FF77D6E9004CAC606C68BC4344EA63
S31508000AC00C046C600C68E70707D0D1F814C02F68CF
S31508000AD027F4400747EA0C072F60A70605D50969DA
S31508000AE02F6827F0406739432960610703D52968CD
S31508000AF041F0800129602968002A41F6FF7C4F46AB
S31508000B0041F080512960114618BF01214FEA817EC4
S31508000B1001212C68B668002E42D024F000542C60BF
S31508000B202C6824F0804444EA0E042C607C1C032CB8
S31508000B3088BFFC1E00EB8407BD692B68002B2AD4EE
S31508000B40FB6A43BB2B68013123F080532B60D6E93F
S31508000B500037AB606B6823EA0C033B4327466B60A0
S31508000B60BFF35F8F2B6843F000432B60D1E7D8F8BB
S31508000B700020BFF35F8F136823F00043136009F169
S31508000B800102032A88BFA9F1030200EB82039146FA
S31508000B9003F1180801390029E9D10220BDE8F083DC
S31508000BA024F08043002A18BF03F180432B602A688B
S31508000BB000EB870342F000522A60D8F80020BFF302
S31508000BC05F8F8762C46BDC62136843F0004313606F
S31508000BD0EFF31082012383F31088036C1944016430
S31508000BE0002082F31088BDE8F0830000F8B50446BB
S31508000BF0006841F2180C234B01F10C070D4650F81A
S31508000C000C20C9691A40C8CF42EA4662002B08BFC1
S31508000C1042F08062AB6A002B08BF42F4801242EAB7
S31508000C20475211436A6A41EAC211EA6A41EA8211E5
S31508000C302A6B11436A6B41EA820140F80C1050F89E
S31508000C400C6002F068FA206800F580518E6195E81C
S31508000C504C00296AAF6946EA43631943D5E90E355C
S31508000C60394341EAC31141EA85014FF480551143DE
S31508000C7041F400014151465902F04DFA20684651A7
S31508000C80F8BD00BF233FDEF82DE9F0418046006835
S31508000C900D462E4A0168D5E9056CD5E90774114059
S31508000CA0D5E9012341EA4661002F05F1280608BF68
S31508000CB001F500011943002C08BF41F48001EB6BD4
S31508000CC041EA034158CE1943AB6B002B08BF41F4E8
S31508000CD0005141EA0631214341EA82212A6C002A61
S31508000CE008BF41F400716A6C41EACC111143AA6C41
S31508000CF041EA02110160046802F00DFAD8F8000012
S31508000D004FF6417205F16C0704608169D5F8805089
S31508000D101140DCCF41EA02412143002B08BF41F0D4
S31508000D208001012F08BF41F00801012D08BF41F0DD
S31508000D300401012E08BF41F002018161846902F0B5
S31508000D40EAF9D8F800008461BDE8F0810F8120FD3A
S31508000D502DE9F843814600206D46D9E91A860090A8
S31508000D60012009EB88018C6C46B3074630B3206A2C
S31508000D7040B9284600F030FF009900200029F3D03A
S31508000D80A1602162D9F85810D9F8140000294FF447
S31508000D90804104BF44F20001C8F2000108436060C4
S31508000DA0206840F00040206008F10100032888BF51
S31508000DB0A8F103008046013E3846D2E7D9F86C0010
S31508000DC0B04212D0BFF35F8FA8F1010202F003020E
S31508000DD0D9F81010D9F8000002EB820201EBC20123
S31508000DE041F208028150C9E91A86BDE8F883000075
S31508000DF0524A0329136823F4407313604FF440736F
S31508000E0038BF0B0211681943C3001160116821F03D
S31508000E10F801116020210B2888BF01EBC003106878
S31508000E20184340F002001060106840F480301060EB
S31508000E30704700BF1348016889050FD5016821F47A
S31508000E4000710160016841F400610160016821F4E4
S31508000E5000610160016841F400710160016849059B
S31508000E600FD5016821F480610160016841F4805161
S31508000E700160016821F480510160016841F48061D4
S31508000E8001607047003C02402C4A0129136823F48C
S31508000E90407313604FF4004308BF0423032908BFB7
S31508000EA048F20403116819431160116841EA0020E9
S31508000EB040F4803010607047204A136823F440736A
S31508000EC0136013681360136843F00103136001701D
S31508000ED0704700BF10B519490C6824F440740C60BB
S31508000EE00C6844F440740C600C6844F001040C600F
S31508000EF00260BFF36F8F436010BD00BF0F4A1368CF
S31508000F0023F440731360136843F480731360136803
S31508000F1043F0010313600180704700BF074A136856
S31508000F2023F440731360136843F400731360136863
S31508000F3043F0010313600160704700BF103C024094
S31508000F4033480168C90606D53049CA6942F0100215
S31508000F50CA61102101600168890606D52B49CA694C
S31508000F6042F00802CA61202101600168490606D5D7
S31508000F702649CA6942F00402CA6140210160016833
S31508000F80090606D52149CA6942F00202CA618021CA
S31508000F9001600168C90507D51C49CA6942F0010202
S31508000FA0CA614FF4807101600168890706D517493F
S31508000FB0CA6942F02002CA6102210160704700BF77
S31508000FC0F8B5044611480021114EC16101F006F931
S31508000FD00546671C3068C00309D5002FFAD024B12E
S31508000FE001F0FCF8401BA042F4D90320F8BD306894
S31508000FF0C0071CBF01203060306810F4F97F04BFB9
S315080010000020F8BDFFF79CFF0120F8BDA4000020D2
S315080010100C3C02402DE9F843814640F2FF101C467D
S315080010201546884621EA0007D9F80000411C06D172
S315080010304846394600F0D0F848B3D9F80000B84217
S3150800104006D04846394600F0D7F800B30768814607
S31508001050A8EB07004844071DA7EB0900061FFFF782
S3150800106094FCB6F5007F09D3D9F8000000F50071A5
S31508001070484600F0C1F850B18146071D15F8010B26
S31508001080013C07F8010BE7D10120BDE8F8830020F1
S31508001090BDE8F88380B5A3480068013003D0A148AD
S315080010A000F002F948B17F480068013003D07D4856
S315080010B000F0FAF808B1012080BD002080BD00BF0D
S315080010C02DE9F04F87B0054674484E1E401B8642F0
S315080010D052D8284600F05CF80446701900F058F813
S315080010E0FF2C49D000268346FF2846D001965C454A
S315080010F04FF0000098BF0120022C3ED3BBF1170F1A
S315080011003BD85C4539D80090022006900020029012
S315080011100120059000F004FF294E0DF1040AE7B2FC
S315080011205F452ED8002000F10C01B1F58A7F19D051
S315080011303044007AB8420846F5D170184FF00009D5
S3150800114050E903504FEA9008C84513D05FEA096092
S3150800115008BFFFF71AFC55F82900013002D109F13A
S315080011600109F1E7FFF711FC049702A8514600F0C0
S3150800117043FE40B90134D2E70026304607B0BDE841
S31508001180F08F009E00E0002600F080FEF5E700BF25
S31508001190F8B50B4E04460025B5F5847F04BFFF203D
S315080011A0F8BD7759FFF7F1FBA74204D870194168D3
S315080011B03944A14201D80C35EEE7007AF8BD00BFE4
S315080011C0587700082248704756484FF0FF310160AB
S315080011D034480160704700BF80B5CA051CBF0020AF
S315080011E080BD02688A4204D002C04FF40072FFF73D
S315080011F0D6FB012080BD000070B54A4D0C46A842BA
S315080012000AD006461248844207D0304600F04CF809
S31508001210354610B9002070BD224D28462146FFF7F5
S31508001220DBFF002818BF284670BD00BFF0B5084888
S3150800123090E8FE00D0F8AC01114419442144294431
S31508001240314439440844B0FA80F04009F0BD00BF83
S3150800125000800008F8B5064610484F1E801B8742D6
S3150800126019D8304615460C46FFF792FFFF2812D0CC
S31508001270B819FFF78DFFFF280DD0094831462A46D1
S315080012802346B0EB562F0CBF2648064801B0BDE8EA
S31508001290F040FFF7BFBE0020F8BD00BFFFFF1F08E4
S315080012A040000400C80700202DE9F843814600F0F5
S315080012B037FE09F1040800240025B4F5007F13D091
S315080012C058F80460D9F800002718FFF75EFB0220DB
S315080012D039463246002300F0E1FD30B93868043457
S315080012E0B042EAD0002500E0012500F0CFFD2846EF
S315080012F0BDE8F8837CB50B480168013104BF0120BD
S315080013007CBD061DC0697ECE11441944214429447A
S3150800131031440844042140420190034801AAFFF7DA
S3150800132099FF7CBDCC090020AC81000870B5046823
S31508001330066B013EA568012E0DD815F0E05F0DD0AD
S31508001340C5F30160012585401D608B6863B14D6852
S3150800135043EAC5030AE001F033FF23E000F1340154
S3150800136001204FF400121DE00B685B0504EB00102A
S31508001370D1E90345496923430129C0F88031C0F8FA
S31508001380845105D100F5C2710B6843F480730B6074
S315080013905168C0F88C1111680122C0F8881100F54F
S315080013A0C07100200B681A430A6070BDF0B5026B65
S315080013B0013A012A27D82F48026842F00102026042
S315080013C0026822F47C5202604C69CD694A6A036855
S315080013D043EA02220123026004F01F0203FA02F222
S315080013E0C3699343C361D343012D12D025BBC56896
S315080013F01D40C56000EBC405CE688F8847EA0646DF
S315080014002E640D4611E0416B41F4802141630120B1
S31508001410F0BDC5681543C56000EBC4050E688F8826
S3150800142047EA06462E6401F10C058E682D8800EB06
S31508001430C40445EA0645656444688F690E69096A05
S3150800144044EA0205002F08BF04EA03054560002E9A
S31508001450446944EA020508BF04EA0305012945610F
S3150800146002D1C1691143C161016821F0010101601E
S315080014700020F0BD0066004070B5046B013C012CED
S3150800148003D8046821B1256903E001F099FE55E007
S31508001490E568AD0748D004EB0114D4F8B05115F04F
S315080014A00405956004F5D875D4F8B06119BFF60837
S315080014B05660760D16602D6805F00205D56004F5B0
S315080014C0DA75D4F8B46136075ABF2E6806F00F06E7
S315080014D0082616612E68C6F3072696612D682D0C18
S315080014E05561D4F8B8211A7001F00FFE120A5A7025
S315080014F001F00BFE120C9A7001F007FE120EDA705C
S3150800150001F0AEFD1A7101F0ABFD120A5A7101F035
S31508001510A7FD120C9A7101F0A3FD120EDA7100688C
S3150800152041B100F1100107E000F1340101204FF448
S31508001530001203E000F10C01002020220B681A4378
S315080015400A6070BDB0B590B10446006B10B920466C
S3150800155000F073F801F014FE054620684168C907D3
S3150800156007D100F03BFE401B0B28F6D311E0012003
S31508001570B0BD016821F00201016000F02FFE0546AA
S315080015802068416889070BD500F028FE401B0B2808
S31508001590F6D3606B052140F40030606301203BE020
S315080015A0A169026822F08002012908BF8032026020
S315080015B0E169026822F04002012908BF4032026050
S315080015C0216A026822F02002012908BF203202603F
S315080015D0616A026822F01002012918BF10320260FF
S315080015E0A16A026822F00802012908BF08320260CF
S315080015F0E16A026822F00402012908BF0432026087
S31508001600251D2ECD1A4363692A4301391A4311430E
S31508001610C1610020012160632163B0BD026B013AFC
S31508001620012A84BF002070470068806800EA81604C
S31508001630B0EB816018BF012070477047B0B504460B
S31508001640006B012815D1022020632068016821F06B
S315080016500101016000F0C2FD054620684068C00728
S315080016600DD000F0BBFD401B0B28F6D301F0CEFDD4
S3150800167003E0606B40F4002060630120B0BD0020E9
S315080016806063B0BD80B50A480A490B4A016100216A
S3150800169001614261094A41610260C12201604260FA
S315080016A0012241608260816000F0D2FD002080BD89
S315080016B010380240FFC9FEF633797704FF17E02297
S315080016C0B0B5044600F08AFD05460548611C406829
S315080016D018BF044400F082FD401BA042FAD3B0BDF7
S315080016E04000002002460120002951D012681368E4
S315080016F0C3F300138B64136803F060034B64136829
S3150800170020EA53230B641368C3F30043CB631368BF
S3150800171020EA53338B631368C3F300330B631368F0
S3150800172003F40063CB62136803F480438B62136887
S3150800173020EA93530B62136820EAD353CB611368EC
S31508001740C3F3C0138B61136803F460238B601368BB
S31508001750C3F380234B601368C3F340634B619369FB
S31508001760C3F340038B67936920EAD310086790692F
S3150800177000F0300048679069000CC8669069C0F3AD
S315080017808000C1F880009069C0F3C000C8670020D7
S31508001790704700002DE9F041B6B0D0B38046D0F8C6
S315080017A0840028B92020C8F88400404600F0EAF8EA
S315080017B000204FF4805610906E48016841F480412D
S315080017C00160006800F48040109010986A4801682B
S315080017D021F400010160D8F80010D8F80820036841
S315080017E01A4302600068885940F00100885100F0E9
S315080017F0F5FC0546D8F800008059C0070BD000F064
S31508001800EDFC401BB0F5FA7FF4D90120E021042352
S31508001810A8E00120AAE04FF40060002501261B90ED
S315080018204FF48040CDE91766CDE91E651C95CDE9D4
S3150800183011652295CDE92055CDE91565CDE92B55DC
S31508001840CDE92D55CDE92F551A9010A94046FFF739
S315080018501BFA4FF480006946CDE903660D96CDE97B
S315080018600B55CDE9095607950596CDE90E65009500
S3150800187008904FF48030CDE901604FF4005006908F
S315080018804046FFF7B3F9D8F80C2008F118000021F4
S31508001890A02915D0531855505D609D60DD6008C0BD
S315080018A07829565846F480165650164618BF03F13E
S315080018B02806DE60535843F4400353502831E7E7BF
S315080018C0D8F800E0D8E9041641F2100308F14805F3
S315080018D04FF000474EF8032041F20C02002346F46D
S315080018E080460EEB020C0022C8F82830A02A15D034
S315080018F088188B5043608360C3608F504660C0E988
S315080019000833782A446824F0004444600C4601C52C
S3150800191018BF00F12804C4602832E7E70023174AF5
S31508001920C8E91A33C8E91633C8F86030CCF800108D
S31508001930D8F8040081881160114900685060DEF803
S315080019403C0040F40270CEF83C00DEF80C01084377
S315080019501021CEF80C01DEF8100140F40310CEF881
S3150800196010010020C8F88830C8F8841036B0BDE8E1
S31508001970F08100BF443802400438014040800240EC
S31508001980600002002DE9F04786B0006834498842B5
S3150800199063D1002633484FF00B084FF003094FF088
S315080019A0020A314D314F0196016841F0007101601C
S315080019B0016801F0007101F071FB41F0806101607E
S315080019C0016801F0806101F069FB41F00061016086
S315080019D0016801F0006101F061FB41F0040101605A
S315080019E0016801F0040101F059FB41F001010160B1
S315080019F0016801F0010101F051FB41F002010160AB
S31508001A00016801F0020101F049FB41F04001016063
S31508001A10006800F0400001900198CDF81480CDE9E7
S31508001A200369CDF808A03220019001AC05F50060E5
S31508001A302146B847862001F071FB2846B8474FF47F
S31508001A40005001F06BFB05F58060B8474FF4205055
S31508001A5001F064FB05F5C050B84706B0BDE8F0874D
S31508001A600080024030380240000002401D20000875
S31508001A702DE9FE4F0546002966D0D5F88400402892
S31508001A807CD105F18000EF6D05F17C064FF0000A68
S31508001A904FF000084FF0000900910190E86EC0F180
S31508001AA00400029005EB8700B9F1000FD0F848B0A2
S31508001AB0DBF800004FD1029988454CD200284AD459
S31508001AC0DBF80000C00505D5DBF81C00A867DBF8C5
S31508001AD018006867DBF80000800501D4306880B319
S31508001AE0DBF80000800504D500204FF0000A2866C0
S31508001AF06866DBF80000DBF80010C90551BF4FF037
S31508001B000009DBF8001029674FF00109C0F30D44FE
S31508001B103046DBF8082001992346CBF8202000F050
S31508001B2077F8D5E91801CBF820A001302144C5E99A
S31508001B301801781C08F10108032888BFF81E074613
S31508001B40B0E74FF00009F4E7D5F8880040F0010047
S31508001B50C5F8880012E0E86E10EB0800E86602D0C7
S31508001B602846FFF7F5F8B9F1010FEF6506D1306899
S31508001B700099086000203060BDE8FE8F0120BDE8AE
S31508001B80FE8F2DE9F04105464FF4F860984600EAC5
S31508001B90821061F3CF2029680A6902F01C021044FA
S31508001BA0441C0C6100F01AFB06460027E00708D023
S31508001BB000F014FB801BB7EB104F0AD128680469A4
S31508001BC0F4E72868406980B2C8F800000020BDE83C
S31508001BD0F0810120BDE8F08170B50C4A0A4900245D
S31508001BE001251368A1F5C061082C09D005FA04F689
S31508001BF0013401F5C4611E42F6D13343136000E097
S31508001C000021016070BD00BFC00C0020B80C002088
S31508001C1010B5002442F8204DD4800468938014B18E
S31508001C200C68226000E002600A60006818B1C1888A
S31508001C301944C180F9E710BD80B539B1D0F88420C0
S31508001C40102A03D1FFF720F8002080BD012080BDAF
S31508001C50B0B504460068006920F01C0500F054FD84
S31508001C600C49884202D845F008050FE00A4988421F
S31508001C7002D845F00C0509E00849884206D3084908
S31508001C8088428CBF45F0100545F0040520680561BB
S31508001C90B0BD00BFBF0E1602FF86930300E1F5052F
S31508001CA07FD1F008B0B50446D0F8840010281CBFD0
S31508001CB00120B0BD0420E066202001F0AEFA2068BD
S31508001CC0016841F0080101F0D1F920680560016852
S31508001CD041F0040101F0CAF901F059FA206841F20D
S31508001CE0180101F073FA4020C4F884000020B0BD42
S31508001CF02DE9F843044671B1D4F88400402810D180
S31508001D00154620460022FEF7C3FE68B1D4F88800BF
S31508001D1040F0020003E0D4F8880040F00100C4F85F
S31508001D2088000120BDE8F883BFF34F8F04F118023D
S31508001D30A16A20684B1C52F82170032B88BFCB1E62
S31508001D40A36252F8231041F20402815000F046FAC9
S31508001D50814641F214086E1C3868B0F1FF3F18DC62
S31508001D60206850F80810890416D4002EF4D000F024
S31508001D7035FAA0EB0900A84201D8002DECD1D4F819
S31508001D80880040F00400C4F888004FF040503860DE
S31508001D90C7E70020BDE8F883D4F88810404441F02E
S31508001DA00801C4F888100068C4F88C00B9E7F8B5CB
S31508001DB0044600689BB2056943614FF4F86303EA79
S31508001DC0821261F3CF2205F01C011144CF1C076172
S31508001DD000F004FA05460026F80704BF0020F8BDFF
S31508001DE000F0FCF9401BB6EB104F1CBF0120F8BDF4
S31508001DF020680769F0E700002DE9F843DFF8188145
S31508001E000546D8F81800012801D102263AE0012033
S31508001E108946C8F8180001F02EF9064678BB4FF037
S31508001E20FF303E4CC9F80000286801280CD16968C3
S31508001E30287CFFF729F801F01EF90646206848F2C3
S31508001E4004018843206018E0A8680746E968084442
S31508001E5087420ED2297C3846FEF7CAFF01F00BF9F5
S31508001E600646206820F0FA00206026B9A8680137DF
S31508001E70ECE7002601E0C9F80070FEF7DBFF00205A
S31508001E80C8F818003046BDE8F88300BF2348016843
S31508001E9041F0004101600020704700BF2DE9F04184
S31508001EA0DFF874800746D8F81800012804BF022016
S31508001EB0BDE8F08101201E4614460D46C8F81800F4
S31508001EC04CF25030FFF77CF808BB022F07D0012FE1
S31508001ED00AD077B9E1B22846FEF7EEFF0EE02846AB
S31508001EE02146FFF71BF809E0A1B22846FFF706F8D6
S31508001EF004E0284622463346FEF7ECFF4CF2503003
S31508001F00FFF75EF805490A6822F001020A60002117
S31508001F10C8F81810BDE8F081A4000020103C024063
S31508001F200648C168B1F1FF3FC4BF002070470449A5
S31508001F30016004490160C068C00F7047043C024054
S31508001F4023016745AB89EFCD2DE9F84F984A0A2456
S31508001F504FF0000A4FF000099042964A08BF09243C
S31508001F6002444FEAB223092B38BF4FEAB224924AF9
S31508001F70009401230F240027A2F57E7B102F08BFAB
S31508001F80BDE8F88F03FA07F20A4240D00AF00C0CB3
S31508001F90D24304FA0CF8BC085BF824E0009B0EEA6E
S31508001FA0080503FA0CF6B54213D1834B834E1D6818
S31508001FB015401D605D6815405D60356815403560E3
S31508001FC09D6815409D605BF8245025EA08054BF886
S31508001FD024500323056803FA09F40F23A543056073
S31508001FE00AF01C0503FA05F56FF0030303EA570622
S31508001FF00644336AAB433362C368A343C36043688A
S315080020001A40012342608268A2430F2482600AF1C3
S31508002010040A09F102090137B0E700BF2DE9FC4FB0
S31508002020634A0A244FF0010B4FF000094FF0000AEB
S315080020309042604A08BF092402444FEAB223092B9A
S3150800204038BF4FEAB22400940023202B08BFBDE80E
S31508002050FC8F0F680BFA0AF6374200F0A2804F6829
S3150800206007F00308A8F10104012C18D80322856893
S315080020704FEA4A0E02FA03F425EA040CCD689D409D
S3150800208045EA0C058560C7F3001505FA0AFC45689C
S31508002090B54345EA0C056FEA040C45600BE00324DA
S315080020A09E469C406FEA040CB8F1030F03D19E4686
S315080020B04FF0030820E0C4688D6804EA0C0405FAAA
S315080020C00EF52C43B8F1020FC46015D109F01C04B3
S315080020D00F2202FA04F86FF0030202EA5A070744CD
S315080020E03D6A25EA08080D6905FA04F444EA080475
S315080020F03C624F6807F00308056808FA0EF405EA1B
S315080021000C052C4317F4403F04604AD000222AF0FD
S31508002110030701922A4A146844F480441460146838
S315080021200F2204F48044019409F00C0402FA04FC1A
S31508002130214A019D96461744224ABD589046009A60
S3150800214025EA0C0502FA04F42C4347F80840DEF8A1
S3150800215008404F68FA0244EA0605184A58BF24EAB6
S315080021600605CEF80850BD029446126842EA0604EF
S3150800217058BF22EA0604CCF80040BD03DEF8042066
S3150800218042EA060458BF22EA0604CEF80440FD03D4
S31508002190DEF8002042EA060458BF22EA0604CEF812
S315080021A0004009F1040902330AF1010A4DE700BFAC
S315080021B0002402400000FEBF003C01400C3C0140E8
S315080021C04438024008FCFFFF0069084018BF012098
S315080021D07047002A08BF09048161704701F082B977
S315080021E080B50B48016841F400710160016841F44B
S315080021F080610160016841F480710160032000F08C
S3150800220049F9002000F006F800F078F8002080BDB3
S31508002210003C024070B50D4E04464FF47A71706862
S31508002220B1FBF0F0E7490968B1FBF0F000F034FCC7
S3150800223001250F2C08D838B94FF0FF302146002267
S31508002240002500F001F93460284670BD40000020E2
S31508002250F8B500F0B9F97A4C8021002204F58065BA
S315080022602846FFF7B6FF244E28468021B04704F5D6
S3150800227000604FF40051B04720464FF40061B04764
S3150800228020464FF48051B0476C4F4FF48071786800
S3150800229020F0800078602846B04728464FF4007141
S315080022A0B047386904F540644FF4807120F0007037
S315080022B038612046B04720464FF40071B047386968
S315080022C020F480203861386820F0080038603868C3
S315080022D020F004003860386820F00200386038685A
S315080022E020F001003860386920F08050386178693C
S315080022F020F480407861F8BD491F00082DE9F04FA9
S3150800230087B000244D4F0DF1080A4E4D02945146F0
S31508002310386940F080503861386900F08050029082
S315080023200298029400F001FF00F0BDFE40F00100A3
S315080023303860386800F0010000F0B5FE40F0020091
S315080023403860386800F0020000F0ADFE40F0040086
S315080023503860386800F0040000F0A5FE40F0080078
S315080023603860386800F0080000F09DFE40F0400034
S315080023703860386800F04000029002980294386984
S3150800238040F480203861386900F480200290029871
S315080023900294386940F000703861386900F00070BE
S315080023A002900298CDE9044401200390802002900F
S315080023B0234800F5806680463046A8473046802187
S315080023C00022FFF706FF4FF400505146CDE90344BB
S315080023D0029008F50060A8470720A9464FF00308B1
S315080023E002254FF4407B514606901548CDE904482E
S315080023F00395CDF808B000F54060C8470920514656
S31508002400CDE90448CDE902B506903046C8470A200A
S315080024105146CDE90354CDE905804FF4C0500290EA
S315080024200748C847786840F080007860019400F053
S315080024307CFE0190019807B0BDE8F08F3038024065
S31508002440000002401D200008F0B5184B4FF0FF367B
S315080024501C68C4F30224E51E84F0070438BF00256F
S3150800246006FA05F7BA43042C28BF042406FA04F42E
S31508002470A14300F00F04A940043C11432344044A35
S3150800248009010C33B0F1FF3FC8BF83181970F0BDBE
S3150800249000E400E005494FF6FF030A681A4060F3B6
S315080024A00A22034810430860704700BF0CED00E09D
S315080024B00000FA05704770472DE9F041002857D00B
S315080024C08D4B04468846D3F8000400F00F00884276
S315080024D004D283F8008400F0D2FD49D12068810730
S315080024E011D5410703D5996841F4E0519960010770
S315080024F003D5996841F460419960A1689A6822F009
S31508002500F00211439960C0072BD100F0B8FD04D939
S3150800251083F8008400F0B3FD2AD12068410705D569
S31508002520E1689A6822F4E05211439960000706D5DB
S315080025302069996821F4604141EAC00098601C4608
S3150800254000F0E8F8A1681E4AC1F30311515CC840BF
S315080025506F4908606B480068FFF75CFE0020BDE81D
S31508002560F0816068811E022905D21968890107D49D
S315080025700120BDE8F08101281DD119688903F7D526
S3150800258099681D4621F0030108439860FFF726FE67
S31508002590064641F288376068A9682B4601F00C01A7
S315080025A0B1EB800FB1D0FFF719FE801BB842F2D904
S315080025B00320BDE8F08119688907D9D5E0E700BF8F
S315080025C0E4750008880000202DE9F041FFF706FEB3
S315080025D0494E0446306840F0010030603068800794
S315080025E005D4FFF7FBFD001B0228F7D94EE030683B
S315080025F040F080003060FFF7F1FD0546002041F20B
S315080026008838B060B768FFF7E9FD044617F00C0F85
S3150800261003D0601B4045F5D938E0306820F45020D7
S31508002620306030688703FFF7D9FD0546002F03D5CC
S31508002630281B6428F5D929E0306820F080703060BE
S3150800264030688701FFF7CAFD0446002F03D5601BD3
S315080026500228F5D91AE0306820F0806030603068CA
S315080026600701FFF7BBFD0546002F03D5281B0228E7
S31508002670F5D90BE0306820F0805030603068800073
S3150800268007D5FFF7ABFD401B0228F7D90320BDE8A5
S31508002690F0811A48344970601948C6F88400C6F8AB
S315080026A08800F06820F4F850F060F06820F40050D4
S315080026B0F060F06820F48040F060F06840F41F0095
S315080026C0F060F06840F40010F060F06840F48000B4
S315080026D0F060706F20F001007067706F40F08070D6
S315080026E070670B48016007480068FFF793FD0028EC
S315080026F018BF0120BDE8F081003802401030000400
S31508002700003000244000002001480068704700BFE0
S315080027108800002010B5134C606800F00C011248C0
S31508002720082903D004291CD1104810BD2168236844
S3150800273001F03F0221685B02C1F3881105D4A1FBB1
S3150800274000010023FDF7A2FD03E008484843B0FB5B
S31508002750F2F021680222C1F3014102EB4101B0FB0C
S31508002760F1F010BD043802400024F40000127A008B
S315080027702DE9FC4100285FD004460078C24EC00708
S315080027800BD0B06800F00C00042840F08E8030684A
S31508002790800302D5606800284ED02078800718D5B7
S315080027A0B06810F00C0F07D000F0F6FC40F09580EA
S315080027B07068400200F191803068800702D5E068B1
S315080027C0012839D12069316821F0F80141EAC000B1
S315080027D030602078000732D42078400742D4A769B1
S315080027E03FB300F0D9FC40F0A980012F24D0E1695D
S315080027F0706800F480028A421ED1216A00F03F0206
S315080028008A4219D147F6C071626A0140B1EB821F4C
S3150800281012D1A16A9F4A02EBC13100F440326FF32C
S315080028200F018A4208D1E16A00F07060B0EB016FCF
S3150800283002D10020BDE8FC810120BDE8FC81616968
S31508002840924800296AD00121C0F8801EFFF7C6FC0D
S315080028500546706F8007BFD4FFF7C0FC401B0228EF
S31508002860F7D9C9E0306C10F080580AD100200190E1
S31508002870306C40F080503064306C00F0805001902D
S315080028800198834F3868C0053AD4386840F4807098
S315080028903860FFF7A3FC05463868C00530D4FFF753
S315080028A09DFC401B0228F7D9A6E000F075FC03D171
S315080028B0706840023FF56BAF6068B0F5803F07D09F
S315080028C0B0F5A02F40F08280306840F48020306058
S315080028D0306840F48030306082E0E06800284CD0F0
S315080028E06A4801210160FFF779FC054630688007D0
S315080028F03FF568AFFFF772FC401B0228F6D97BE06C
S31508002900A068012805D0052848D1306F40F004009A
S315080029103067306F40F00100306749E00021C0F8A9
S31508002920801EFFF75BFC0546706F80077FF554AF86
S31508002930FFF754FC401B0228F6D95DE053490020F6
S3150800294088460866FFF74AFC0546022F0AD147461D
S315080029503068800153D5FFF741FC411B032002294B
S31508002960F6D967E7306880017FF563AFFFF736FC75
S31508002970411B03200229F5D95CE744480021016080
S31508002980FFF72CFC0546306880077FF522AFFFF776
S3150800299025FC411B03200229F5D94BE7316F002896
S315080029A021F001013167316F21F00401316744D00C
S315080029B0FFF714FC054641F28837306F80074BD481
S315080029C0FFF70CFC401BB842F7D915E03168002820
S315080029D021F480313160316821F48021316044D09E
S315080029E0FFF7FCFB0546306880033FF5D6AEFFF7D8
S315080029F0F5FB401B6428F6D90320BDE8FC811C348E
S31508002A001FCC0843234940EA821001EBC33140EA50
S31508002A1004606FF30F010843706001203866FFF702
S31508002A20DDFB0446306880013FF503AFFFF7D6FBB0
S31508002A30011B03200229F5D9FCE6FFF7CFFB054663
S31508002A4041F28837306F800706D5FFF7C7FB411B71
S31508002A500320B942F6D9EDE6B8F1000F7FF4BFAE10
S31508002A60306C20F080503064B9E6FFF7B7FB0546B6
S31508002A70306880037FF591AEFFF7B0FB411B03205A
S31508002A806429F5D9D6E600BF00380240000047425F
S31508002A90007000400000FFFF411E0020B0EB116FE0
S31508002AA01CBF01207047044AF023516003490B708C
S31508002AB0072190601160704710E000E023ED00E008
S31508002AC01CB504460020012101902068636901AA0B
S31508002AD0984700283AD42068636901AA01219847D3
S31508002AE0002833D49DF8040040075CBF01201CBDB4
S31508002AF02068636901AA00219847002826D401980E
S31508002B00C10408D400F48071800421D4042000296B
S31508002B1008BF05201CBD2068636901AA1F219847C4
S31508002B20002813D40198C1045CBF06201CBD00F020
S31508002B301C00182804BF02201CBD142804BF04204A
S31508002B401CBD082814BF052003201CBD00F047BB88
S31508002B500220002908BF03201CBDF8B50446002042
S31508002B600090606860B1A06980470546A069804703
S31508002B70401BB0F5FA6FF9D901200025606023E003
S31508002B80A06800B18047202000266F4600252060F7
S31508002B90202E10D06369304612213A4698470028FD
S31508002BA005D4009800F01F00864202D105E06FF0B8
S31508002BB004050136ECE7266801E0266000251F2E8D
S31508002BC088BF6FF002050DB12846F8BD2369304667
S31508002BD000214FF40042984700281ED420686369F4
S31508002BE06A460021984700281AD4A06980470646F5
S31508002BF06F466FF004059DF801000006B3D5A0697D
S31508002C008047801BB0F5FA7F0DD8206863690021DC
S31508002C103A4698470028EED5D6E76FF00305D3E77E
S31508002C206FF00405D0E76FF00105CDE710B570B178
S31508002C30CA6862B18B6853B10C6944B1C0E9043201
S31508002C40D1E900218461C0E90221002010BD4FF0BE
S31508002C50FF3010BD10B5044600F008FB0B49206094
S31508002C600B4B0A68C2F303129A5C0A4BD0406060A9
S31508002C700A68C2F382229A5C20FA02F2A260096804
S31508002C80C1F34231595CC840E06010BD08380240C3
S31508002C90E4750008F4750008F0B585B00446C06808
S31508002CA0800456D40D46E06849F20C6105F1040C1F
S31508002CB0AF6988439CE84E100843184330433843AD
S31508002CC0E060206920F4405010432061606920F4D8
S31508002CD0407040EA0C00606101AE3046FFF7BAFF6B
S31508002CE02848844217D02848844214D0274884426A
S31508002CF011D0274884420ED0264884420BD0264855
S31508002D00844208D02548844202D02548844220D1EE
S31508002D1006F10C0001E006F108000068C8B12B684E
S31508002D20BBB1AA691921A0FB0101B2F5004F13D165
S31508002D305A00DB0FFDF7AAFA00F0A7F903EBC0006B
S31508002D404FF4F873B0FBF1F000F0070103EA400016
S31508002D5010E0012005B0F0BD9A009B0FFDF796FA2A
S31508002D6000F093F903EB0010B0FBF1F000F00F014F
S31508002D7000F0F00000EB021080B20844A0600020CA
S31508002D80E8E700BF0044004000480040004C00400F
S31508002D900050004000780040007C004000140140CC
S31508002DA000100140104880210022FFF712BA00BF28
S31508002DB00C494880704700BF10B500F093FB094CDA
S31508002DC0616888420CD32078802180F00102064889
S31508002DD02270FFF7FEF900F085FB61880844606001
S31508002DE010BD00BF6801002000040240B0B591483C
S31508002DF0214D0468287841062FD4C1071CBF00213D
S31508002E0084F8A91041070AD594F8A910012906D112
S31508002E10B4F8A61004F1200004F032F92878010766
S31508002E2011D594F8A81001290DD1002184F8A8100D
S31508002E30B4F8A61039B1012084F8A90004F12000DD
S31508002E4004F01EF92878800706D566480088852884
S31508002E5002D894F8A91031B1B0BD0020C4F8A60074
S31508002E600120E061B0BD0438C1B2044800680430EE
S31508002E70BDE8B04000F074BCE4010020FC0100206D
S31508002E806B4801210170407800B17047AFF30080AC
S31508002E90B0B5674D2878012832D102F0DDF900F087
S31508002EA021FB00F5FA70686000F01CFB42F2107115
S31508002EB00844A86003F0D6FB1248002101601248B6
S31508002EC00160124801604EF6030003F0E9FB02F0C8
S31508002ED023FA05F10C04204602F0B0F92046062133
S31508002EE001F0C2FD01F0D8FDFDF7B4FB42F20F7107
S31508002EF0884203D842F21070FDF7C4FB01206870BF
S31508002F00B0BD00BF08020020AA500020A050002033
S31508002F10F8B5474C6078012862D102F00BFA00B385
S31508002F20304D314E2880B7894FF4006002F00CF915
S31508002F30874207D1012003F0C5FB288888B103F032
S31508002F40AFFA0AE0B68940F6060002F0FDF88642B6
S31508002F5007D103F05FFA288818B102F02BFA00208F
S31508002F60288000F0BFFA616888421FD331481F4A9B
S31508002F70026001F5FA706060022003F0A3FB194DA8
S31508002F80288828B103F08CFA02F014FA0020288069
S31508002F90174818490160052003F094FB288828B1D2
S31508002FA003F07EFA02F006FA0020288000F09AFA6A
S31508002FB0A168884205D342F210700844A06003F065
S31508002FC0E5FA1C4809490160032003F07BFB054C20
S31508002FD0208828B103F064FA02F0ECF9002020807A
S31508002FE00020F8BDF0010020004A0020F44F002020
S31508002FF0040200200C02002070B50D4A5278012AFE
S3150800300015D10C4A0D461268D36902F124041362DD
S315080030102DB110F8016B013D04F8016BF8E70120AA
S3150800302082F8A800081DA2F8A600581CD06170BD39
S315080030307C010020F801002080B5FEF75BF918B185
S31508003040BDE88040FEF726B8002080BDFEF738B8F8
S31508003050FEF7B8B8FEF7B8B8FEF7E8B8FEF7FAB85C
S31508003060026802EB0112D2F8BC21704701600568BC
S315080030700120FEF725BB4CF25030FDF7A1BFD3F86F
S31508003080000400F00F004045704764216FF06303A9
S31508003090B0FBF1F202FB030032237047019101995C
S315080030A00196016870470290029802943868704742
S315080030B0FF203070201D00F03FBB296905F108008C
S315080030C002F062BA8AF80000AC200BFB001000215F
S315080030D081767047487002F0FD00B2886FF3DF22F0
S315080030E0A2F50072B2FA82F2520940EA420008706A
S315080030F0284670475846DBF80000C00770478DF829
S31508003100090001988DF808007047026802EB011261
S31508003110D2F8B82170470120FEF7D2BA2146CDE988
S315080031200498CDE902A601907047786940F480407A
S315080031307861786900F4804070476078D6F888101E
S315080031400844C6F88800704705F1080002F010BA6E
S3150800315090F82C1001F0FD0180F82C1090F82C1036
S3150800316001F0FE0180F82C107047CAF81400DAF84E
S31508003170180040F40060CAF81800DAF80808704722
S315080031802068016841F001010160FFF727B820684F
S3150800319005602046FDF744BCB06800F00C0008281E
S315080031A07047DBF800005946C007704707208DF8BE
S315080031B0090000988DF8080000208DF80D0070476A
S315080031C000F1340101204FF480227047425842F43E
S315080031D000524250425842F00202425070476FF085
S315080031E004001CBD01F00F0004EB400000EBD114F5
S315080031F014F82C0FC007704704F00F01E20900EB22
S31508003200411303EB02104489002C7047606B40F4AD
S3150800321000306063052020637047C4F884002046A8
S31508003220FDF796BD207800F0FE002070207800F0AB
S31508003230FB00207070470C464FF0000804F09AB85F
S315080032409DF800009DF80110424602F0A7BC7C6874
S315080032508DF801002878B8F1000F8DF80000704746
S31508003260416801200847416800200847B8480068B7
S3150800327000F00C00082804D004280CBF14480248A3
S315080032807047082000F002B80024F4000F49082807
S315080032900A681CBF0020704750020D485CBF42F206
S315080032A00040C0F2F4000A6802F03F02B0FBF2F0F8
S315080032B00A680968C2F38812C1F301415043022221
S315080032C002EB4101B0FBF1F0704700BF0438024041
S315080032D000127A0010B588B00D4C0C21206820F435
S315080032E000502060002005914FF46141CDE90600A9
S315080032F0CDE9020004900191A4F10C0001A9FFF7A1
S31508003300CBFC206840F40050206008B010BD00BF18
S315080033100C480040F8B51D4E0D462749727862B133
S3150800332032780B689B061CD400F0DCF87168002420
S31508003330C831884288BF747026E0086880060ED5B2
S315080033404868134908704FF0FF3151FA80F0802819
S3150800335005D800F0C7F870604FF4807030800024FC
S3150800336012E00B4B4C68511C31701A441F7854708C
S31508003370CAB20024BA4207D13170591CFDF70FFBB7
S3150800338030787470012428702046F8BD900100201A
S3150800339054050020B0B5084C606000F0A3F800F1B1
S315080033A00A052068000605D4FDF7EFFA00F09AF83A
S315080033B0A842F6D9B0BD00BF00480040B0B50C46DB
S315080033C00546822903D308A08621FDF726F920465B
S315080033D0FFF7E0FF3CB1FDF7D8FA15F8010BFFF748
S315080033E0D9FF013CF6E7B0BD2E2E2F2E2E2F2E2EFE
S315080033F02F2E2E2F536F757263652F41524D434DF5
S31508003400345F53544D333246342F72733233322E6F
S31508003410630000002A4801680A0E52FA81F252FA3D
S3150800342091F252FAA1F104223C2A04D0835C0132BB
S3150800343013FA81F1F8E7484280B2704780B500F088
S3150800344027F800B180BD1E481949002201600421F1
S315080034503C2902D042540131FAE7BDE8804000F029
S3150800346029B800BF70B500260C460546382838BF6F
S31508003470012600F00DF830402146002C18BF012126
S315080034800840012803D10E4929440979217070BDE5
S3150800349010B50B4C06492068884206D1FFF7BAFFDB
S315080034A0A18F884204BF012010BD002010BD00BFB7
S315080034B0A2E742CE80B5FFF7ADFF0149888780BDF8
S315080034C000000020704700000548D0F8801041F43D
S315080034D07001C0F880104FF000610160704700BFAE
S315080034E008ED00E080B500F05BF83648406880BD1E
S315080034F018B517480124C16B41F00101C163C16BBE
S3150800350001F00101009100991249096802680368EF
S31508003510114804604FF6FF74C2F34232C4620224B3
S3150800352013F4604F0D4B08BF01249A5CD1400C4A36
S315080035306143B1FBF2F1002201398162416941F030
S31508003540010141611F494A60406A088018BD00BFF1
S31508003550083802408800002000000140F475000881
S31508003560A08601000B48016841F00101016001686D
S3150800357021F001010160016A21F00101016206489A
S31508003580002101604160816004484FF000710160CC
S31508003590704700BF2438024010E000E004ED00E068
S315080035A00848094A01881268521A92B2642A08D34E
S315080035B06423B2FBF3F212FB031101804168114444
S315080035C04160704798010020240001407047704709
S315080035D080B502F0DBFA1A484FF0A0410160BDE859
S315080035E08040FEF767BF00BFE0B515484FF0A04121
S315080035F00160FEF760FF1348016841F002010160AF
S315080036001148016841F400110160016821F40021A4
S315080036100160016821F4802101600020694601905B
S3150800362001200090002002F0BFFAFDF713F8000908
S315080036307C2803D84FF4FA60FDF724F88CBD00BF48
S31508003640B05000200408005038000050704710B5EC
S315080036500446002002F06EFE48B1002021460122F1
S3150800366002F072FE0138B0FA80F0400910BD002061
S3150800367010BD0000F8B5054600200C4600F03CFEDB
S315080036804FF0FF30002102F0FBFA154F7878B8B1F9
S31508003690387838440330FFF7DAFF01281CD1387828
S315080036A0B97800260130C2B238708A4215D1F91CA1
S315080036B02846FDF774F938787E70012620700CE0EC
S315080036C0B81CFFF7C4FF012806D1B87801383E2890
S315080036D09CBF4FF48070388000263046F8BD00BF86
S315080036E0A00100201CB5044640298DF8071003D315
S315080036F010489F21FCF791FF0DF1070100200122D8
S3150800370002F02EFE012803D00A48A321FCF785FF04
S315080037109DF807200020214602F022FE9DF807109A
S31508003720884203D00348A621FCF777FF002002F061
S3150800373025FE1CBD8A780008006870479E4800214F
S31508003740A0F88610C0F88810C0F88110704700BF2E
S31508003750994890F88100002818BF0120704700BFDB
S31508003760F8B504460078FF2826D1934C0120A4F822
S3150800377081000020A07041F2FF002080FDF76CF860
S31508003780E070FDF773F82071FDF770F80821000A5C
S31508003790A4F8861040F201116071E180FFF75AFC27
S315080037A0854890F88410012929D1022141F2FE02A8
S315080037B0A0F88610028026E07F4E96F8811001292F
S315080037C029D1A0F1F1010D2926D8DFE801F04444FA
S315080037D0074A56684444446D44787D8AFFF768FC76
S315080037E0D6F8887004460025002C00F07E8017F86D
S315080037F0010B013C2844C5B2FDF7C7F8F4E7B0F958
S315080038008610012907DB012289B280F88420BDE8E9
S31508003810F840FDF78FB8F8BDC93809281BD8DFE886
S3150800382000F0051A1ABC1A1A71798593D6F88850C9
S31508003830FDF712F8411E621C2846FFF70FFC002808
S3150800384000F08F80FF203070FDF706F8D6F8881054
S315080038500844013825E00220A6F8860042F2FE0058
S31508003860A0E06578FCF7F8FFA84248D9201DFFF7C5
S3150800387063FF0146C6F8880006E06578FCF7ECFFAA
S31508003880A8423CD9D6F888106278701CFDF787F8EC
S31508003890FFF753FCFF2030706078013065E0FFF7D2
S315080038A007FCC6F888004DE03F480821A6F88610B0
S315080038B00721C6F88800FF20C6E9000170E7022044
S315080038C0A6F88600FE206DE0FF2030800620A6F8C8
S315080038D0860000207071A6F8030096F88200B07082
S315080038E05EE70020A6F881000EE001210020357170
S315080038F0A6F801100821F071A6F805002DE042F29D
S31508003900FE2030E0FDF75AF80120A6F88600FF20D1
S31508003910307045E76578FCF79FFF0238A84227DA3A
S315080039200220A6F8860042F2FE203BE0D6F8885030
S31508003930201DFFF701FF01462846FFF787FB80B1E8
S31508003940FF203070012010E00024FF20B470308082
S31508003950FCF782FF0721B471B480F070A6F88610D0
S315080039601EE743F2FE1030800220A6F8860017E70D
S315080039700120A6F88600FF206178307041B1D6F89C
S315080039808800A21CFFF76AFB38B1FFF7D6FB07E7EA
S31508003990FFF752FB00287FF403AF0220A6F8860043
S315080039A043F2FE103080FBE6B27800080248002198
S315080039B080F88410704700BF985500201CB504464F
S315080039C09008030403D008C901382360F9E712F008
S315080039D0030206D00020019001A8FCF71AFD019801
S315080039E020601CBD1CB593081C0403D00C68013B61
S315080039F010C0F9E712F0030204D00968019101A981
S31508003A00FCF707FD1CBD70B5D41A858838BF04EBD2
S31508003A104504260417D0A6B2AE4205D92B469542D0
S31508003A2098BF5B42134443815A1B9EB2AE4213466B
S31508003A30FAD2C288036808466FF3DF3202FB063300
S31508003A401946FCF7E6FCA0B2002818BF012070BD95
S31508003A502DE9FE4F8E460C999246814680885A1A61
S31508003A6038BF02EB4002140440D094B2844207D90E
S31508003A7001469842024698BF49421944A9F80A10D5
S31508003A80DDF834C00D184F420B462D1A091A0744A3
S31508003A909EB28642F8D2B9F80640D9F800B06FF35C
S31508003AA0DF3404FB06B196B2564538BF9246C21AB1
S31508003AB0AAEB020004FB02F8BCF1010F04FB00F3B9
S31508003AC01FFA8AF015D0BCF1000F63D192B290426A
S31508003AD039D91FFA88F2704674461D46FCF799FCD8
S31508003AE0D9F8001014FA88F0AAB22FE04FF0000AAD
S31508003AF050E092B290422CD94FF6FC76704601936C
S31508003B00CDF800E008EA0602FFF758FF18F00303AD
S31508003B1037D001980021C3F1040CADB2029182B2EC
S31508003B20624504FB07F238BF8446324004FB05228F
S31508003B300BEB020402AA00981D060FD0655C013B38
S31508003B4055540131F8E704FB00F27046FCF761FCB6
S31508003B5020E004FB0AF082B2704619E0D9F800307A
S31508003B60002465462F0605D01E5D17190134013D50
S31508003B707E54F7E7029901601919019BA3EB0C0320
S31508003B8003E0D9F80010DDE900031A0402D09AB25E
S31508003B90FFF714FF1FFA8AF0BDE8FE8FBCB504468E
S31508003BA005894089CDE9000320462B46FFF750FFDB
S31508003BB00546A08861892A4600F0C6F8608128462D
S31508003BC0BCBD2DE9FE4F002A64D0B0F808A0B0F9B4
S31508003BD006808C46868841891F4615460446B8F1F4
S31508003BE0000F0ED4BAEB010038BF00EB460080B2D6
S31508003BF08642014688BF3146081A81B2A9421FD9B2
S31508003C0021E0AE4212D9BAEB010038BF00EB4600FC
S31508003C1015FA80F0B0EB460F15D3701BE14682B259
S31508003C20304600F091F8CC4682460CE04246A81B86
S31508003C308A466FF3DF32002F08BF00FB02CC3046FE
S31508003C400104054626D052461046921B81B2B1425F
S31508003C50FAD222686FF3DF38301A1FFA85F900FBAB
S31508003C6008F601FB082B291A01FB08F3012F13D0CC
S31508003C70002F60D180B2814537D9B2B25846614625
S31508003C8067469846FCF7C5FB206817FA86F11FFABF
S31508003C9088F22EE0002554E080B281452CD94FF6F3
S31508003CA0FC7061460193E04606EA000758463A4624
S31508003CB0FFF798FE16F0030232D0D8F80000DDF8B8
S31508003CC004E0C2F1040C0BEB0703414602901FFA0D
S31508003CD08EF0604538BFF44602A8160612D010F8D2
S31508003CE0016B013A03F8016BF7E709FB08F258463E
S31508003CF06146FCF78EFB1EE005FB08F0614682B2C2
S31508003D00584616E0226800236646370604D0C75C84
S31508003D10013ED7540133F8E7D018AEEB0C0E03E09A
S31508003D202068DDF804E041465FEA0E4203D01FFA38
S31508003D308EF2FFF757FEA08851464A4600F004F86F
S31508003D402081A8B2BDE8FE8F11448AB28A4202D108
S31508003D50B2EB400F01D3A1EB400188B27047B0B572
S31508003D608B18013A013B99420AD231F8024B2404D6
S31508003D7024BA204485B2AC4288BF0130023AF2E741
S31508003D803AB9197800EB012082B2B2EB012F38BF9D
S31508003D90013080B2B0BDFFF7A5BB00002DE9F041A8
S31508003DA0164DDFF89C840446002600276878411CD7
S31508003DB0C9B28F420DD2874203D2A868A8B130444F
S31508003DC001E0404611D1C1682046884724360137AC
S31508003DD0ECE705F10C002C21FCF78AFB05F1100035
S31508003DE01C21FF22FCF75AFB03E081480068C00744
S31508003DF001D1BDE8F08100BEBDE8F08118030020BE
S31508003E0070B5044640F20110134A2080002004F1E0
S31508003E101C069169E07060612061A0614FF40000A2
S31508003E20A0603046A1700D4961600D490968E160DE
S31508003E30D2E905152A46FCF7ECFA7019C5F1100106
S31508003E40FCF734FB04F12C00C021FCF72FFB0548D6
S31508003E50C4F8EC0070BD00BFC03D0020ADDE1223E3
S31508003E60080200206382536370B5134D0446E8893F
S31508003E70A9890E1AB0B2402828BF402695F9000035
S31508003E80B0F1FF3F01DD002109E0300406D0A96842
S31508003E9081B105F11400B2B2FCF7BBFA8021B3B2C6
S31508003EA020461A46002B18BF05F11402BDE87040DB
S31508003EB003F02CBA002070BDB0020020012888BF8C
S31508003EC00020554900010858D0F8041821F00201CD
S31508003ED0C0F80418704700BF012888BF00204E4963
S31508003EE000010858D0F8041841F00201C0F8041877
S31508003EF0704700BF704700008022474B8A4301F095
S31508003F000F01012888BF00200001185800EB820025
S31508003F1000EB4110D0F8001921F40011C0F800197F
S31508003F20D0F8001941F08051C0F80019704700BF59
S31508003F302DE9F04180460020002503F01BFAE948E8
S31508003F40B8F1010FE849474E4FF001128571404616
S31508003F5088BF002001230001085801EB081191F8D9
S31508003F6008C000F51264C0F81C28634514D23A2725
S31508003F7022461A2F0CD01168B1F1FF3F03DC1168F5
S31508003F8041F090411160F55302F50072103FF0E7D9
S31508003F90203420360133E8E74FF484610161016972
S31508003FA08906FCD4102101610169C906FCD4404682
S31508003FB000F00AFC0020BDE8F04103F0E9B900BFB3
S31508003FC070B50D4689780646AA886FF3DF2200F099
S31508003FD099FB044620B13046294600F087FE04E0E6
S31508003FE0C2480068C00700D000BE204670BD00BFAA
S31508003FF0F0ED00E0B0B501220D46044600F0C4FE1F
S31508004000012C88BF0024280700D0B0BDB64920017E
S315080040100858806CB0BD00BF447600082DE9F84307
S31508004020814600201E461746FFF705F90D48FFF79B
S31508004030E3F80DD015010681C0F804805F51037BB3
S31508004040437311B9A74820F81260484600F000FFEC
S31508004050002003F09DF9002C18BF01242046BDE876
S31508004060F88300BF245600202DE9FE430546407814
S3150800407088460238052800F29680DFE800F0030F2C
S3150800408029323C416D48017B01F0FE010173017B39
S3150800409001F0FD0101730021417327E0674FDFF846
S315080040A0A091002600247878411CC9B28C423DD2E2
S315080040B0844203D2B86840B1304401E0484604D18E
S315080040C0026A12B169682878904724360134EAE70B
S315080040D05A48017BC90700F0AF80017B41F0040113
S315080040E007E05648017BC90700F0A680017B01F06E
S315080040F0FB01017357E0514801780131017052E024
S31508004100297911F00F004ED04C4ACB0902EB40003A
S31508004110C618537896F82000834228D99268002A50
S3150800412041D000EBC00002EB800422E0387B400758
S3150800413061D5387B00F0FB0038730020CDE901001B
S315080041400520FFF784F802D13E48FFF78CF8201DBA
S31508004150694601F036FC0646B8F1000F02D1394827
S31508004160FFF77EF8002E41D0FFF76AF843E01AD130
S31508004170334CE069B8B116F82C0F00F0FE00307029
S31508004180307800F0FB003070AB6828786A79E4690B
S31508004190A047002850D1307840F0010030703078C0
S315080041A040F0040030702548B8F1000F446802D189
S315080041B02448FFF758F8201D294601F002FC064658
S315080041C0B8F1000F02D11F48FFF74AF83EB1287828
S315080041D06978424603B0BDE8F04301F0DFBC4348C6
S315080041E00068C00728D000BEBDE8FE833F480068C7
S315080041F0C00700D000BEF87BC0071DD00320FFF71C
S3150800420026F86868019002D10E48FFF72CF8201DA1
S31508004210694601F0D6FB0546B8F1000F02D10948F8
S31508004220FFF71EF81DB1FFF70BF8BDE8FE832F4810
S315080042300068C00700D000BEBDE8FE831803002052
S31508004240FC75000874000020F8B5044625480021CE
S31508004250012CC0E900112046234988BF002000012F
S315080042600D580121284600F0E1FC0746A86C0022FB
S315080042702046394600F016FC064660B1D5F8000817
S315080042807FB1A96C20F0030001F0C001802908BFA6
S3150800429040F4804007E015480068C00720D000BEFB
S315080042A01EE040F0030040F00400C5F80008204670
S315080042B0FFF712FEE868022161F35E700C49E860B8
S315080042C0286840F0C00020F010002860A86908435C
S315080042D0A861A86840F08000A8602046FFF7EEFDB8
S315080042E03046F8BD0803002044760008F0ED00E0EB
S315080042F004300080704770472DE9F04F85B00146BD
S315080043000128019088BF0020E249000151F800A069
S31508004310DAF81800DAF8141001EA00095FEAC94069
S3150800432075D54FF48050CAF81400012003F022F81E
S31508004330D94EDAF84840C0213046FCF7D9F8D748B4
S315080043400021C180C4F383200AF53061013002469A
S3150800435032B10B68013A43F0006341F8203BF7E7B6
S315080043600AF5106150B10A68B2F1FF3F03DC0A682A
S3150800437042F090420A6001382031F3E74FF001100D
S31508004380CAF81C080920CAF81408CAF810084FF415
S315080043908460CAF81000DAF810008006FBD41020F2
S315080043A0CAF81000DAF81000C006FBD4019800F02D
S315080043B00BFADAF8000820F4FE60CAF80008DAF802
S315080043C0000920F00300CAF80009DAF8000B20F00B
S315080043D00300CAF8000BDAF80009CAF80009DAF887
S315080043E0000BCAF8000BDAF84800DAF8100B40F0B0
S315080043F0C040CAF8100B402070837081DAF81800A4
S3150800440040F4E010CAF81800012002F0C1FF5FEA84
S31508004410894017D54FF400500121CAF814004FF40B
S315080044200060FEF7A2FE8DF8091001998DF80810B4
S3150800443000F006009AA151F810000121039002A885
S31508004440FFF712FE5FEA095010D54FF4006001210C
S31508004450CAF81400DAF8180020F40060CAF8180040
S315080044600420FEF74CFE02A8FFF7FEFDB9F1FF3F58
S3150800447010DC4FF000400121CAF81400DAF81800E1
S3150800448040F40060CAF818000520FEF738FE02A8B6
S31508004490FFF7EAFD5FEA49700CD5DAF804406007D1
S315080044A006D502200121FEF72AFE02A8FFF7DCFD49
S315080044B0CAF804405FEA097015D508207749FEF75F
S315080044C054FEC979C0F30D2029B9DAF8181021F07D
S315080044D00801CAF81810039003200121FEF70FFE01
S315080044E002A8FFF7C1FD5FEAC96056D5DAF81800D9
S315080044F0DFF8A481694D0AF5805620F01000CAF845
S315080045001800DAF82010C1F3434001F00F0402281E
S3150800451008D0042812D0062835D130683168C5E994
S31508004520020130E0C1F30A17F7B108EB44104068FE
S3150800453068B131463A4601F06EFA15E00AEB4410C6
S31508004540D0F8101B41F0C041C0F8101B1BE04FEA21
S31508004550441B50463A4658F80B1000F059F958F8DB
S315080045600B00384448F80B0008EB441041898F4289
S3150800457009D20AEB4411D1F8101B0289511A01819C
S315080045800CB900202880DAF81400C006B9D4DAF885
S31508004590180040F01000CAF818005FEA093003D581
S315080045A00198002100F01EFD5FEA493003D5019805
S315080045B0012100F017FD5FEAC92002D405B0BDE865
S315080045C0F08F4FF480103A4C4FF4F071324E4FF0A2
S315080045D000084FF00009CAF81400DAF8080804F5CC
S315080045E0002BC0F3002C4FF48050BCF1000F08BF1D
S315080045F04FF400500090DAF8480001EA501000F134
S3150800460020054545DAD00AEB0800D0F8001901EA7A
S315080046100B02A24238D1C1F30042624534D106EBFF
S315080046200802537FA3B1013B0F0C5377538B128BB0
S31508004630D418013CB4FBF3F31D4C63F3DC42C0F819
S315080046401029009A3A43C1EA0241C0F800191BE052
S31508004650019F69F07F0400226646E1B2384600F001
S3150800466093FB00208DF80C40114C8DF80870012141
S31508004670049007208DF8090001208DF80D0002A886
S31508004680FFF7F2FCB446044E08F1200809F10109C7
S31508004690B7E700BF44760008245600200803002028
S315080046A002000000000000000100000000000000F9
S315080046B00000048002460128534B88BF00221201DD
S315080046C09A58D2F8003823F4FE6343EA011100230E
S315080046D0C2F8001880210022FFF7A0BC4B4A012827
S315080046E0D17188BF0020484A0001105829B1082115
S315080046F04161816941F0080102E0816921F0080100
S3150800470081617047F0B5404F0128034601F00F0458
S3150800471088BF002307EB00152E7AB4421AD21B0174
S31508004720033249B2FB5800291BD447F6FE70596A72
S3150800473000EA520000EB4600103080B281423ED2B9
S3150800474032498988884227D91E480068C00706D09A
S3150800475000BE04E01B480068C00700D000BE002069
S31508004760F0BD022806D329486D7A8179A9421FD25D
S315080047700131817199689008012222EAD111884095
S31508004780596A451821498A88954207D90D4800680B
S31508004790C007E4D000BEE2E7586210E0121AC2EA87
S315080047A000408A8054B103EB8401C1F8000106E099
S315080047B004480068C007D2D000BED0E7986201203E
S315080047C0F0BD00BFF0ED00E010B5014601280E4A25
S315080047D088BF002130240901515802EB0012137AD0
S315080047E0D26804EB4303094C4B629308C2F38F0269
S315080047F0A380C3EA02428C6CCA6580214022BDE8C8
S315080048001040FFF77FBF00BF44760008080300206A
S3150800481010B5930800F580501C0403D00468013BCA
S3150800482010C1F9E712F0030209D00068012A0870DE
S3150800483005D0030A4B70032A04BF000C887010BD0C
S3150800484010B500EB0130990800F580500C0403D030
S3150800485010CA01390460F9E713F003030BD0117885
S31508004860012B07D05478032B41EA042104BF927820
S3150800487041EA0241016010BD70B5864D40F26B11E8
S31508004880288888426FD040F20F1188421CD0B0F5B4
S31508004890887F1CD040F2251188422BD0B0F5937F33
S315080048A02BD040F25511884244D0B0F5AB7F44D0A6
S315080048B0B0F5B57F54D0002840F0BA804FF47A702E
S315080048C028610120A8708FE04FF4887028805A4C20
S315080048D02078800707D4FEF737FC002800F0AA8066
S315080048E0207880076CD500F0A5FD022868D1022043
S315080048F0A8706FE04FF4937028804F4C207880079B
S3150800490007D4FEF721FC002800F094802078800761
S3150800491003D500F08FFD052834D0286942F21071BE
S31508004920884200F3858000F57A702861A878032804
S315080049302AD052E04FF4AB702880FEF705FC002819
S3150800494078D04FF47A70002128610220A870544864
S31508004950016000F0DDFDFEF7B0FB4FF4B57068E0CE
S3150800496040F26B102880344C2078800706D4FEF776
S31508004970EBFB00285ED0207880074DD500F05AFD65
S31508004980052849D10320A87000F05EF8288C00F0AD
S31508004990DBFB0446688C00F0D7FB40EA04404FF482
S315080049A07A714008414305F10800B1F1FF3FD8BFCD
S315080049B06FF00041296100F0E7FD40F2551038E03C
S315080049C028694EF65F218842DCBF40002861A87836
S315080049D0022809D14FF47A70286100F099FDFEF794
S315080049E06CFB40F2251024E0144E34682046FFF78D
S315080049F007FAFF2084F8F8001148C4F8F4001148B3
S31508004A00C4F8F0003068211AF93102F039FBFEF7D4
S31508004A1054FB40F20F100CE0286942F210718842EC
S31508004A2006DC00F57A702861A878032891D1ABE7EF
S31508004A300020288070BD00BFE4010020FC01002092
S31508004A4003010306350101371248154BD0E909124F
S31508004A50006B196002490A6002490860704700BF86
S31508004A60AA500020A0500020BCB50A4C0025C4E975
S31508004A7005014FF0FF30A5704FF48641019001A85B
S31508004A8002F02CFB606010B14FF4884181802580CC
S31508004A90BCBD00BFC03D0020014800210160704731
S31508004AA0080200202DE9F041012888BF0020904621
S31508004AB04FA2000114584FF6FF72206C9043544AD7
S31508004AC0904205D0534A904202D0534A90422ED182
S31508004AD0A06820F00100A060E06879B1A16C226DA1
S31508004AE0C9B202F4404702228E09B2EB911F2AD1BD
S31508004AF04C49084000F11005E5602CE040F04005FF
S31508004B00E560A06B40F48030A0634448844204D139
S31508004B104348016821F080410160204600F0D6FC38
S31508004B200520002160F38D252046E56026E03E48F5
S31508004B300168C90700D000BE0068C00700D000BEE3
S31508004B400020BDE8F08120F05805002F18BF083571
S31508004B50002EE5603ED0A06B20F48030A06320468E
S31508004B6000F0B4FC4FF4A050002F25F4705108BF94
S31508004B704FF4105008443146E060204600F060F8D3
S31508004B80E06840F00700E060D4F8000E20F00F005F
S31508004B90C4F8000E4FF48460206120698006FCD4B6
S31508004BA0102020612069C006FCD44FF0FF306061F8
S31508004BB060600020B8F1000FA06104D0A06840F042
S31508004BC02600A06003E0A06940F01000A061012063
S31508004BD0BDE8F081A06B40F48030A0630F488442A2
S31508004BE0BDD10F48016821F080410160B7E700BFD9
S31508004BF0000000504300000004000000000500000B
S31508004C00000004404D0000000600000000100000EF
S31508004C100000544F00003155000032550000044092
S31508004C205038024027FFC5FFF0ED00E0012904BF18
S31508004C3000207047806C10F0C00018BF0120704734
S31508004C4001B170471F490A681F498A4202D94FF4C1
S31508004C50C05130E01D498A4202D94FF4E0512AE09A
S31508004C601B498A4202D94FF4005124E019498A4265
S31508004C7002D94FF410511EE017498A4202D94FF45F
S31508004C80205118E015498A4202D94FF4305112E0F2
S31508004C9013498A4202D94FF440510CE011498A421D
S31508004CA002D94FF4505106E00F4B4FF470519A4217
S31508004CB088BF4FF46051C26822F470521143C16034
S31508004CC0704700BF88000020FF47E801DF9DA30169
S31508004CD0FF356E013FA44C01FF2C31019F491A0193
S31508004CE07F730601FF23F400BFE1E4002DE9F041DC
S31508004CF08B78B94C8E790128B84D4FF0010C03F02A
S31508004D000F024FEAD31EA6F1010804EB421404EB86
S31508004D100E178C886FF3DF247C8188BF0020000182
S31508004D202858D0F8085815F0060F08BF0CFA08F6E8
S31508004D303E73C9780C2505EA810501F003010129AE
S31508004D4018BF05F58055BCEBD31F08BF45EA821589
S31508004D5044EA0541BEF1010401F5004118BF0124EA
S31508004D60BCEBD31F00EB442404EB4214C4F800192F
S31508004D7018BF10320CFA02F1D0F81C281143C0F8FB
S31508004D801C18BDE8F08100BF70B54EB20023EB4C8D
S31508004D90B6F1FF3FC8BF0123012888BF00200001E4
S31508004DA02058002A00EB432401F00F0304EB4314B8
S31508004DB0D4F8005918BF4FF4001204F51061B6F183
S31508004DC0FF3F04DDB5F1FF3F09DD0B4622E00E6823
S31508004DD0002D23D4324342F000620A6030E0002BF3
S31508004DE0F3D0D0F8043843F40073C0F8043800F65A
S31508004DF0040345692D06FCD50868104340F0804039
S31508004E00086004F6081001688907FCD502214FF4EA
S31508004E108062016018681043186017E046F0006564
S31508004E2004F608140D6025686D06FCD50D682A433E
S31508004E3042F080420A6021688907FCD50221216078
S31508004E4099012031016101698906FCD470BD00BF52
S31508004E502DE9F0411546013A0C460146B74B18BFF5
S31508004E600122012888BF0021090153F8018094B165
S31508004E70B44901EB441101EB05114B890989CF1897
S31508004E80013FB7FBF3F7284B03EAC7433F0408BFC4
S31508004E904FF400230BE0AA4B33F81570402F394620
S31508004EA028BF40217F1A23F815704FF4002308EB1A
S31508004EB042220B4302EB4412C2F81039D2F80039E9
S31508004EC002F5106203F44027B7F5802F0AD1D8F807
S31508004ED008681F0CF6054FF4144658BF4FF42446CD
S31508004EE0374303E04FF4044747EA1347D8F84860C6
S31508004EF0C3EA0743012D136013D191B1214600F08F
S31508004F0015F874B18F4901EB441101EB05110989B4
S31508004F10814206D90120D8F83418A0400843C8F8B9
S31508004F203408BDE8F08100BF0000F81F2DE9F04FF6
S31508004F3085B0844A4FF0000A4FF0000B02EB41128D
S31508004F4002F1140302F110041A32049203930128A1
S31508004F5088BF0020794A0001125802EB0130CDE9DA
S31508004F60002100F58050029002EB411000F618155A
S31508004F7000F51168D0F81009C0F3C9491FFA8AF07C
S31508004F80814523D9D8F80000049A168881B28E4242
S31508004F9088BF064628681249B7B201EA8000B842B7
S31508004FA014D30398006820B102993A4600F0F8FC39
S31508004FB008E02268DDE900013B46FFF741FC20686E
S31508004FC038442060B3440AF1010AD7E71FFA8BF088
S31508004FD005B0BDE8F08F00BF2456002044760008CF
S31508004FE0FCFF03002DE9F04F85B00246012800902A
S31508004FF088BF00204FF0000B4FF000084F4A000111
S315080050001758B86C0191481E18BF012007EB4021BC
S315080050104FEA001AB86C01F608164FF4F07101EA67
S31508005020501000F120045C4500F08580D7F8181868
S315080050300AEB080021FA00F0C00777D056F80B9063
S3150800504046F80B900198012814D15FEAC97049D037
S31508005050BBF1000F3DD03B4801215844008B04901A
S3150800506048F080008DF80C00FEF7A0F802A8FEF7BD
S31508005070FBFF37E05FEA097011D448F2210000EA25
S315080050800900012852D1BBF1000F46D02D488DF8F2
S315080050900C80584400890490FEF788F814E0D7F885
S315080050A00009B0F1FF3F04DC009880210022FFF7D9
S315080050B06BFE06208DF8090000988DF80800204838
S315080050C0D0E90201CDE9030102A80121FEF7CCFFD0
S315080050D02CE01B4840880028BDD0009800210122FA
S315080050E0FFF7B6FE5FEA096020D5012000FA08F549
S315080050F0D7F83408284219D000985FFA88F1FFF7E4
S3150800510015FF07EB0B00D0F8100940030ED1D7F8AE
S315080051103408A843C7F8340808E009480088002876
S31508005120B4D0009800210022FFF792FE0BF1200B65
S3150800513008F1010877E705B0BDE8F08F4476000866
S31508005140080300202456002040BA704770B506466A
S31508005150486914460D4602F009F86B693046012184
S315080051602246BDE87040184794B000248DF80740E1
S31508005170FDF736F8CDE90C44CDE90A4403A8142115
S31508005180FBF7B6F92A4802940225016841F08051D6
S315080051900160006800F08050029002980294254849
S315080051A0016841F440410160006800F44040029003
S315080051B00720129513904FF4A870119008201090AC
S315080051C04FF48000CDE90E504FF4A020099001203D
S315080051D00890029808A8FDF7CBFA18B11648972147
S315080051E0FBF71BFA4FF48050CDE9045405210790CC
S315080051F04FF4A05006900F20039003A8FDF75CF922
S3150800520018B10D48A621FBF708FAFEF717F9FBF7C0
S315080052103FFA0DF107010020FEF724F99DF8070073
S31508005220012808BFFBF70CFBFBF741FAFCE700BFB8
S315080052304038024000700040807800083B490A78F0
S3150800524002704A7842708A788270CA78C2700A797F
S315080052500271497941717047F0B5A7B001A8982144
S31508005260FBF746F91F4C44F25B50214A214B224E6C
S315080052704FF4C0614FF40005A0801B4820601B480E
S31508005280C0E90064C0E90253C0E90421FCF782FAC8
S3150800529008341A492046FDF7C9FC2046FDF75DFC8F
S315080052A02046FDF70DFC0338022806D814A151F84C
S315080052B0206016A151F8207003E04FF480464FF4A1
S315080052C000670A4C01AD29462046FCF70BFA204632
S315080052D02946CDE90B67FCF7AFFC2046FCF7E2FC54
S315080052E027B0F0BD4001002008002769080C0020FF
S315080052F014040020B404002000800240900000201E
S31508005300004000000000000000000000000000004F
S3150800531000080000000000000448054A0188D0F88B
S3150800532002001180C2F80200704700BF4001002049
S31508005330A45000202DE9F8433D480024694600940E
S31508005340FCF796FB70BB009D65B3184E184FDFF847
S31508005350DC9000244FF0010825B3AA8872B1E888CA
S3150800536060B1824298BFB0F5BE6F07D809EB04005A
S3150800537005F12001FBF74DF8A8880444A81B00F5A1
S31508005380C4614FF0FF3007280AD0B1F5C46100F1B7
S315080053900100F8D1396808FA00F021EA00003860FF
S315080053A02D68D9E72046BDE8F88300BFC00C002069
S315080053B0B80C0020F0B591B003A828210C30FBF7F3
S315080053C097F81848184E00210122A0F5C0643068E5
S315080053D0022925D002FA01F7013104F5C064074213
S315080053E0F6D13843114930603748058820462A46A1
S315080053F0FBF70FF800204FF44001CDE90045109463
S31508005400FA2202900790684608912121CDE90450B6
S315080054100748039103A9FCF76BFC3068B843306072
S3150800542011B0F0BD003E0020F43D0020004A0020E7
S31508005430080C0020B0B547480568287802280BD123
S3150800544068682049884207D1444C05F11C00D4E914
S315080054500512FAF793FF10B10020C0B2B0BD286953
S3150800546005F1F002606218480088111800208A4287
S31508005470F3D21378012B0CD0032B0ED0062B10D0A9
S31508005480332B12D0352B14D0362B14D0FF2B15D135
S31508005490E3E7D2F80230A36210E0D2F802302363C1
S315080054A00CE0D2F80230E36208E0D2F80230236258
S315080054B004E0907802E0D2F80230E36153781A44A7
S315080054C00232D4E7ADDE1223F00100200169B1F102
S315080054D0FF3FFBDC016C026942F0010202614FF6F4
S315080054E0FE72114044F20A22914203D20169C907A9
S315080054F0FCD108E001698900FCD5016941F0005139
S3150800550021F0010101610169B1F1FF3FFBDC704740
