S01900006F70656E626C745F73746D3332663432392E73726563FA
S31508000000685A0020857900089D790008A1790008BA
S31508000010A5790008A9790008AD7900080000000054
S31508000020000000000000000000000000B179000890
S31508000030B579000800000000B97900084B420008AD
S31508000040BD790008C1790008C5790008C979000892
S31508000050CD790008D1790008D5790008D979000842
S31508000060DD790008E1790008E5790008E9790008F2
S31508000070ED790008F1790008F5790008F9790008A2
S31508000080FD790008017A0008057A0008097A00084F
S315080000900D7A0008117A0008157A0008197A0008FE
S315080000A01D7A0008217A0008257A0008297A0008AE
S315080000B02D7A0008317A0008357A0008397A00085E
S315080000C03D7A0008417A0008457A0008497A00080E
S315080000D04D7A0008517A0008557A0008597A0008BE
S315080000E05D7A0008617A0008657A0008697A00086E
S315080000F06D7A0008717A0008757A0008797A00081E
S315080001007D7A0008817A0008857A0008897A0008CD
S315080001108D7A0008917A0008957A0008997A00087D
S315080001209D7A0008A17A0008A57A0008A97A00082D
S31508000130AD7A0008B17A0008B57A0008B97A0008DD
S31508000140BD7A0008C17A0008C57A0008C97A00088D
S31508000150CD7A0008D17A0008D57A0008D97A00083D
S31508000160DD7A0008E17A0008E57A0008E97A0008ED
S31508000170ED7A0008F17A0008F57A00080000000018
S31508000180F97A0008FD7A0008017B0008057B00085B
S31508000190097B00080D7B0008117B0008157B000809
S315080001A0197B00081D7B0008217B000800F0010070
S315080001B0704780B5DFF8241A887801F02DF80120F9
S315080001C002BD00002DE9F843DFF8106A8046B078D2
S315080001D0FF280C4658D1002CDFF8047A04D1386879
S315080001E0C2074CD500BE4AE02C21DFF8EC0901F025
S315080001F0BDFB0020307006F1100001F00FFE06F17D
S315080002000C00B060701C01F00FFE70607078401C26
S31508000210B0F5807F04DB3868C10730D500BE2EE014
S315080002200025DFF8489A01E080476D1C7078421C6B
S31508000230E9B2D2B2914216D2814205D27068EBB2C7
S3150800024024214B43184404E0281AC0B2002805D1DB
S31508000250484600281CBF40680028E5D13868C10711
S315080002600DD500BE0BE086F802802146404600F018
S3150800027061FF002805D13868C10700D500BE0020F7
S3150800028003E0404600F0A6FF0120BDE8F283000027
S31508000290F8B504460025DFF8D469DFF8407903E0AD
S315080002A0C968204688476D1C7878421CE9B2D2B2E4
S315080002B0914213D2814205D27868EBB224214B438E
S315080002C0C11804E0281AC0B2002802D13146002914
S315080002D0E6D100F07DFC14D500BEF1BDDFF8F84884
S315080002E02C21204601F042FBFF221021201D01F09F
S315080002F09FFD04F11400BDE8F840FF220C2101F02F
S3150800030097BDF1BD80B5FFF7C3FFBDE8014001F019
S3150800031046BE00007FB5DFF8C458A878FF2817D175
S315080003207FBD9DF80110DFF8B868DFF8AC48491EB4
S31508000330072900F2BA80DFE801F0041AB19AA4216D
S315080003405DAA9DF80000FFF7DDFF9DF80400A07088
S315080003500020AC68216888476946201D01F022FD07
S315080003600646216801208847002EDAD17FBD9DF810
S315080003700000FFF7C7FF01F02DFFE9E728780028FE
S3150800038033D029784A1E2A7028780028E0D12178A7
S3150800039041F00101217001A994F8200000F0FE0047
S315080003A084F8200094F8200000F0FB0084F8200070
S315080003B094F8210000F0FE0084F8210094F821004A
S315080003C000F0FB0084F821009DF8000000F080F89A
S315080003D00028BDD19DF80000002100F0DDFF9DF842
S315080003E00000802100F0D8FFB2E73068C10797D532
S315080003F000BE7FBD9DF8041001F00F0004EB400419
S3150800040004EBD11212F8203F03F0FE03137092F8A2
S3150800041000C00CF0FB0C82F800C09DF80520029B7A
S3150800042020B99DF8000001F0CDFD91E704EBD1104D
S3150800043090F814C06878844506D26868242414FBAA
S315080004400CFC00EB0C0406E0ACEB0000C0B2002884
S3150800045008D1DFF89448002C04D09DF80000A46960
S31508000460A04775E73068C10700D500BE7FBD207874
S31508000470C10705D52078C00800F0010001F0ADFEDF
S3150800048066E72078C107FBD501F0A9FE60E7019869
S315080004900028FBD002980199884759E7E078C107F8
S315080004A0FBD5019801F09FFE52E73068C107FBD5DE
S315080004B000BE4DE770B50D4604466869164601F05C
S315080004C072FD6B6932462046BDE870400121184727
S315080004D02DE9F84380460E46002001F064FD327887
S315080004E0DFF8FC56C2F34110022804DD2868C1076C
S315080004F040D500BE3EE009D1DFF86C0801F053FD97
S3150800050032460121404601F075FE4DE0DFF8CCE6A3
S31508000510DFF85817DEF80430DFF8BC7612F01F0053
S315080005204FF0240C05D0022800F0C680C0F09B804E
S315080005301DE1C2F34110012816D13079102819D2CD
S315080005403A1D105C9EF80120904204D21CFB00FC68
S3150800055003EB0C0102E0801AC0B258B951B1324619
S315080005604046FFF7A7FF1FE0002805D02868C10707
S3150800057000D500BE002017E07178387809296DD8B3
S31508000580DFE801F0605A6C536C054C6C141E30465B
S3150800059001F00CFD7188C9B2404600F01DFE38789E
S315080005A040F0020038700120BDE8F28378788DF8B3
S315080005B0000001236A463146404601F0B7FCF2E7DF
S315080005C074887978E2B2914223D0787868B10021AC
S315080005D0404600F02FFE404600F056FE97F802907F
S315080005E04046FFF755FE87F802907C70E0B210B9D6
S315080005F001F0F0FD0DE0E1B2404600F0BDF800283C
S3150800060005D178702968C807B4D500BEB2E701F0ED
S31508000610DEFD3146404601F04EFCC4E73146404611
S3150800062000F04EF90028BED1BEE771880129A1D194
S3150800063040F008003870ECE7718801299AD100F07B
S31508000640F700F7E7410901F00101C0F3C00008B15E
S3150800065041F00201ADF800100223ABE72868C10794
S3150800066000D500BE86E730791028FBD23A1D105C0B
S315080006709EF80120904204D21CFB00FC03EB0C01FF
S3150800068003E0821AD2B2002AECD10029EAD0324617
S315080006904046FFF70FFF0028C5D13078C0F3411058
S315080006A0002806D101F07FFC71780A2902D00B29AF
S315080006B0AFD05FE700207AE7B08800F00F04062C79
S315080006C004D32868C10700D500BE53E707EB4404E6
S315080006D04FEA006904EBD97494F814909EF801E087
S315080006E00024F14504D21CFB09FC03EB0C0404E0CE
S315080006F0A9EB0E03DBB203B90C46C2F3411121B1D3
S31508000700002CE2D0324621462AE77278110004D03E
S31508000710012A18BF032A09D024E0C1B2404600F0D6
S3150800072017FB00B10120ADF8000095E7718841B9C3
S31508000730012AC1B2404602D100F0EBFA01E000F00E
S31508000740D5FA002C3FF42FAF324621464046FFF734
S31508000750B1FE002001F027FC97F82100C1073FF5FC
S3150800076022AF56E72868C10700D500BE02E7286809
S31508000770C107FBD500BEFDE62DE9F84F8246481EA7
S31508000780C0B201F033FD0028DFF8545402D0417896
S31508000790022904D02868C10700D500BE8BE0DFF81F
S315080007A03814C3790A78DFF8C4B4DFF830445B0933
S315080007B002F0EF0203F0010342EA03120A7002F0A4
S315080007C0DF02C3799B0903F0010342EA43120A7068
S315080007D000F10906418808440090009886426CD2C8
S315080007E070780B284FF0010903D196F803903078FA
S315080007F006447178042905D10098801BD046002745
S31508000800824612E02868C10755D500BE53E01B6929
S315080008101FFA8AF23146404698470146092903D30A
S315080008201FFA8AF088421ADA7F1C6078421CF9B2ED
S31508000830D2B2914234D2814205D26068FBB22421F9
S315080008404B43034404E0381AC0B2002802D15B4681
S31508000850002BDCD12868C1072DD500BE2BE0DFF8B8
S315080008607803C24600228846031D01E05F54521CE5
S31508000870D1B249450CDAB1785118C9B213F801C09A
S31508000880BCF1FF0FF2D02868C10714D500BE12E0EC
S31508000890FBB242463146143001F0BBFD464400E047
S315080008A0C2466078401CFFB2C0B2874295D3296819
S315080008B0C80700D500BE002000E00120BDE8F28F81
S315080008C070B50D4604466888DFF81463010A0129E5
S315080008D00AD0022919D0032929D006292CD007299C
S315080008E013D00F290CD032E001F07EFC0246002A14
S315080008F004D13068C1072AD500BE28E0122320E0BB
S3150800090001F076FC002823D00EE00229C0B208D1F7
S3150800091001F06CFC002807D13068C10717D500BE66
S3150800092015E001F0C5FE98B1811C0B8808E0A9887E
S31508000930C0B201F080FC01E001F0BCFE40B10378D2
S31508000940024629462046BDE8704001F0EFBA00206D
S3150800095070BD00002DE9FE4F04460D466078DFF8AD
S315080009608062DFF80873DFF87492DFF80024801ECF
S3150800097005284FF0240816D8DFE800F0031F0E16E6
S31508000980A2A8117801F0FE0111700021107800F07C
S31508000990FD00107051700BE01178C80706D5117864
S315080009A041F004011170CEE01078C10740F1E980EA
S315080009B0107800F0FB001070C5E04FF0000A16E052
S315080009C0AAEB0000C0B280B9384606E08142F7D2E9
S315080009D0D9F8040018FB01F1084400281CBF026A74
S315080009E0002A02D06168207890470AF1010A99F82E
S315080009F00100421C5FFA8AF1D2B29142E6D3DFF8CF
S31508000A006C733878C0F3800080B397F800C00FF293
S31508000A106C310CF0FB0C87F800C0684691E80C4076
S31508000A2080E80C402078D9F808808DF80000280066
S31508000A3003D1D8F8001000208847694608F1040059
S31508000A4001F0C4F98246280003D1D8F80010012025
S31508000A508847BAF1000F04D13068C10706D500BE31
S31508000A6004E000F0BFF82A4601F026FEF878C00731
S31508000A7020D50FF2143191E88C00684680E88C0086
S31508000A8020788DF800006068D9F8084001902800A1
S31508000A9002D12168002088476946201D01F096F991
S31508000AA00746280002D1216801208847002F04D173
S31508000AB03068C10765D500BE63E000F093F85DE0D5
S31508000AC099F80000401C89F800003CE0217911F0F3
S31508000AD00F004FEAD11A36D002EB400B0BEB0A0097
S31508000AE099F80120007D904206D2D9F8042018FB17
S31508000AF000F802EB080702E0801AC0B218BB002F04
S31508000B001CBFF86900281ED00BEB0A0010F8202F2E
S31508000B1002F0FE0202700BEB0A0010F8203F03F009
S31508000B20FB0303706279A3682078FF69B84740BB66
S31508000B300BEB0A0000F0E7F80BEB0A0010F8202F81
S31508000B4042F0040202702800D9F8087002D1396808
S31508000B50002088472146381D01F038F980462800CC
S31508000B6002D1396801208847B8F1000F04D13068EE
S31508000B70C10706D500BE04E0617820782A4601F050
S31508000B809BFDBDE8F78FDFF8E8118978002808464D
S31508000B9018BF00F01FBB00F01EBB10B5DFF8D4412C
S31508000BA0002801BF60680028216888476068401CE3
S31508000BB0606010BDDFF8BC21516841B1491E516023
S31508000BC0002808BF002902D111680120084770478C
S31508000BD003480168CA077047C8550020A8030020C3
S31508000BE0F0ED00E09DF801109DF800007047000048
S31508000BF070B55F48604E84780D46A87800F00F00FF
S31508000C00062804DB3068C1070DD500BE0BE0574B3C
S31508000C1099780022284601F0B5FB002805D13068EE
S31508000C20C10700D500BE002070BD29462046BDE894
S31508000C30704000F017BB38B500F00DF8BDE8344039
S31508000C40002101F075BB38B500F005F8BDE8344061
S31508000C50002101F086BB454A084600F00F0302EB67
S31508000C60430404EBD01505F1200070478878000886
S31508000C70F8B500F02BF80AD400F010F800F05DFB88
S31508000C8050B900F014F800D500BE0020F2BD306857
S31508000C90C107FAD500BEF8E70120F2BD281910F8F9
S31508000CA0207F47F001070770314FB8787047281939
S31508000CB010F8201F01F0FE01017028192030027873
S31508000CC002F0FB0202703068C107704701F00F009E
S31508000CD0264DCC0905EB400505EB0400264E90F899
S31508000CE02070F807704700008878000838B500F0CB
S31508000CF020F800F051FB00F022F842F002020A70D8
S31508000D0000F001F831BD10F8201F41F00101017013
S31508000D10704738B500F00DF800F050FB00F00FF8FA
S31508000D2002F0FD020A7010F8201F01F0FE010170A2
S31508000D3031BD0F4A907801F00F04CD0970470B4971
S31508000D4001EB4400431903F1200128440A7870474F
S31508000D50064801F00F0200EB420303EBD11191F8AC
S31508000D6020004008FFF722BAF5210008C8550020E0
S31508000D70A8030020C4030020F0ED00E000050000F1
S31508000D800000000000000000000300000000000052
S31508000D9000000000F0B50446022CA8BF00200FF69C
S31508000DA0A035000105EB04162B58377ADFF8584BA7
S31508000DB001F00F00B84204DB2068C10733D500BE36
S31508000DC031E0D21C9208C909DFF8405B12D1C2F3A0
S31508000DD00D02BA1852001032586A92B2904230D2B6
S31508000DE0A988914204DA2068C1071CD500BE1AE01A
S31508000DF05A6226E0717A49B1AE798E4204D32068E8
S31508000E00C10710D500BE0EE0761CAE7199680E06B5
S31508000E1058BF5200A9885F6ABF18B94205D2206830
S31508000E20C10700D500BE0020F0BD891AA980002898
S31508000E3089B241EA02410EBF996203EB8000C0F80D
S31508000E4000110120F0BD01460A46022AA8BF00216A
S31508000E500FF6EC23090103EB02125958137A5B00CB
S31508000E6030334B628B6CD268920893B243EA0343E1
S31508000E70CB658021DFF8943A9A8040228AE7F0B55C
S31508000E800228A8BF00200FF6B8228F880001C7F3F2
S31508000E900A0713588878DFF8782A00F00F04C00983
S31508000EA002EB441202EB001C03F60806ACF80A70C3
S31508000EB00127326891F806E0C2F341021AB9AEF189
S31508000EC0010207FA02FE0FF698228CF80CE0CD789C
S31508000ED01268DFF8401A1140BCF80A201143AA0428
S31508000EE002F44022114305F0030541F4004E012D9A
S31508000EF018BF4EF0805E00281DBF2EF0707141EAC3
S31508000F00845E00214FF40071194401EB4411C1F8C5
S31508000F1000E900B91034706907FA04F404437461EF
S31508000F20F0BD30B50228A8BF00200FF61423000133
S31508000F301B5801F00F00C90914BF00244FF40074B0
S31508000F401C4404EB401404F510640AB14FF4001273
S31508000F500029216820D0002905D421680A4342F0D7
S31508000F600062226010E0256845F000652560A168EA
S31508000F704D06FCD521680A4342F080422260A168EA
S31508000F808A07FCD50221A160800140F02000186183
S31508000F9018698206FCD430BD002900D518B9216825
S31508000FA00A43226030BDD3F8040840F40070C3F841
S31508000FB0040858690106FCD52068024342F08042BD
S31508000FC02260A0688107FCD50220A060D3F8041827
S31508000FD041F48061C3F8041830BD2DE9F84F0228A2
S31508000FE0A8BF00200FF6581200018A4652F8009052
S31508000FF0DFF8242909EB4A1303F5106702EB4A14B4
S315080010003D69ED0000220026884617E022685B4607
S315080010104146484601F0A9FC23685B4423600BE07F
S3150800102060685A4400280092F0D009EB0A315A4603
S3150800103001F5805100F0C8FE009A761CB0B2B0EBFC
S31508001040955F0EDAD7F810B060891FFA8BFB8345D7
S3150800105088BF8346B869DFF8C41801EA8001594594
S31508001060DED290B2BDE8F28FF8B50346012BC8BFB1
S3150800107000230C460FF6C801DFF894581B0105EB50
S315080010804415CF58134605EB0315012A0CBF002655
S315080010904FF400763E4406EB441101F5106C21002E
S315080010A00CD1DFF8686836F813E07146402988BF26
S315080010B04021AEEB010E26F813E008E029896B897A
S315080010C05E18761EB6FBF3F39EB2002E00D10123FE
S315080010D00FF69006366861F3120663F3DC46CCF821
S315080010E0106007F60806DCF800E04EF0044ECEF372
S315080010F08143012B08D13368C3F30023002B14BFA7
S315080011004EF0805E4EF0005EBB6CCCF800E0012A23
S315080011100FD171B12146FFF760FF210009D0298957
S31508001120081A002805DDF06A012101FA04F40443CF
S31508001130F462F1BD70B504460228A8BF00200FF678
S315080011400001DFF8C82700010D580020C2E9000099
S315080011500121284601F038FB0646A86C00223146D4
S31508001160204601F03BFB002805D100F0DBF800D54E
S3150800117000BE002070BDD5F80008800880003EB18A
S31508001180A96CC1F38111022904D140F4804001E021
S3150800119040F0030040F00400C5F80008204600F0BF
S315080011A03BF8E968022060F35E71E960286820F080
S315080011B0100040F0C0002860A969DFF86407014301
S315080011C0A9612046A96841F08001A96000F018F8D5
S315080011D0012070BD704770470246022AA8BF002248
S315080011E00FF25C7312019A58D2F8003823F4FE63A2
S315080011F043EA0113C2F800380022002380219CE04C
S315080012000228A8BF00200FF2387100010858D0F84C
S31508001210041821F002010AE00228A8BF00200FF2F4
S31508001220207100010858D0F8041841F00201C0F8EE
S31508001230041870470228A8BF00200FF20472DFF8CE
S31508001240CC3600011058D97131B108214161826943
S3150800125042F0080282617047816921F008018161C4
S315080012607047000038B50D460446AA88A978C2F327
S315080012700A02FFF78FFD002805D100F053F800D5C4
S3150800128000BE002032BD52E0F8B5044622460128C9
S31508001290C8BF00220FF2A86112018D5801EB001198
S315080012A000200E7AFFF779FCDFF8600600218171CD
S315080012B04FF00112C5F81C2801201EE0002105EB9D
S315080012C0401303EB412303F51063D3F800C0BCF1C8
S315080012D0000F05D5D3F800C04CF0904CC3F800C0F9
S315080012E04F42DFF82C3603EB401303EB0712491C79
S315080012F0002301295383E2DD401CB042DEDB4FF4B4
S315080013008460286128698106FCD410202861286930
S31508001310C106FCD42046FFF796FDBDE8F240002042
S31508001320FFF748BCDFF8E0050168CA077047294699
S315080013302046FFF7A4FD012032BD2DE9F04701F054
S315080013400F089A46CD09DFF8C8150446A94601EBE9
S315080013504813164603EB09170020FFF71EFC788989
S3150800136008B9002412E03E6000207860A7F808A0BB
S315080013705FEA0801387B787304BFDFF8900520F828
S3150800138019A02A462046FFF76FFE01240020FFF722
S3150800139011FC2046BDE8F08738B505460C46022DF7
S315080013A0A8BF00250122FFF7BCFD14F00F0F04D1DA
S315080013B00FF28C502D014159886C31BD0228A8BF07
S315080013C000200FF27C520001CB09105883F001036C
S315080013D000EB432201F00F0102EB411000F510600B
S315080013E0016821F400110160026842F0805202602F
S315080013F070472DE9F84F024686B0012AC8BF002279
S315080014000FF23C5312019B589A6C9A6C920A02F09E
S315080014100F02521C012907BF0025A84610254FF4C4
S315080014200078984408F5106B0027DFF8E0448DF83B
S31508001430001080460593049223E00722DFF8E404AF
S315080014408DF804808DF805208DF80870415A0391AF
S3150800145000208DF80900012101A8FFF77BFA0FE0AB
S3150800146048F221021640012E0AD1F8B20028E4D12A
S3150800147020880028E1D0002200214046FFF7F4FD2D
S315080014807F1C0498F9B281427CDA059BD3F81808C8
S315080014907A19D040C307F3D549010BF108020BF1BD
S315080014A00800565846509DF80020012A48D1404663
S315080014B00128C8BF00200FF28842000152F80090A8
S315080014C0DFF84C0409EB01030844F20703F5106A38
S315080014D000F110011BD5F8B238B9608828B101228D
S315080014E000214046FFF7C0FD11E009890391072254
S315080014F0002147F080038DF809108DF805208DF836
S3150800150008308DF80480012101A8FFF723FAC6F3F5
S31508001510C0100028B4D0D9F83408F840C107AFD5B0
S31508001520F9B24046FFF759FDDAF810004103A7D192
S31508001530D9F834080121B9408843C9F834089FE727
S31508001540C6F3C00000288BD040460128C8BF00203B
S315080015500FF2EC3100010858D0F80019002904D51B
S31508001560002280214046FFF7DCFC06218DF8051095
S3150800157002A804F108018DF80480D1E90023C0E926
S31508001580002368E707B0BDE8F08F2DE9F04F85B076
S31508001590814601900128C8BF00200FF2A43BDFF85E
S315080015A0708300015BF80060B76970690740F90449
S315080015B078D54FF4805272610120FFF7EEFA01994F
S315080015C048460129C8BF00200001C0215BF8004039
S315080015D0D4F848A04FEA9A2000F00F00451C404670
S315080015E000F0C4F9C9480022C280002004F5306121
S315080015F005E04201401C8B5843F000638B50A8421B
S31508001600F7DB002004F5106209E002EB41110B68D4
S31508001610002B03D50B6843F090430B60401CC1B206
S31508001620A942F2DB04F500604FF00111C1610922FD
S315080016304261092101614FF48460206120698106B5
S31508001640FCD4102020612069C106FCD44846FFF767
S31508001650FAFB04F50060016821F4FE610160D4F824
S31508001660000980088000C4F8000904F530600168A4
S315080016708908890001604021D4F80029C4F80029A6
S3150800168003680360A8F80A10A8F81A10A16C026982
S3150800169042F0C0420261A06940F4E010A061012056
S315080016A0FFF788FAB8044FF4006422D54FF40051C6
S315080016B071617461B06940F40060B061484601998F
S315080016C00129C8BF002000015BF80000D0F808080F
S315080016D0400810F0030004D002280CBF01210021A5
S315080016E000E0022101228DF80C108DF8092000F087
S315080016F020F9380506D574610421B06920F4006024
S3150800170000F014F9002F08D54FF00041716105214A
S31508001710B06940F4006000F009F9780706D57468E6
S31508001720600702D5022100F002F97460380716D561
S3150800173008217161B069754A40F40060B061D6F855
S315080017400808C0F30D21D07918B9B06920F008004F
S31508001750B061032203918DF8092000F0EAF8F80633
S315080017605AD5B16921F01001B1618DF8009001993F
S315080017709DF800000129C8BF002000015BF8003071
S315080017801A6A02F00F094FEA491003F530652C185A
S31508001790550C05F00F05022D03F5805104D0042DD4
S315080017A027D0062D2AD02EE0C2F30A1ABAF1000F66
S315080017B008EB00050FD008F104021058002852461D
S315080017C002D000F029FB06E02968184601F0B2F8B5
S315080017D02868504428606A89924514D22989206964
S315080017E0091AB9F1000F29810DD14849002008804E
S315080017F009E0206940F0C040206104E043480A68D7
S3150800180082600968C1607069C106B0D49DF800900D
S31508001810B06940F01000B061380303D5002148468E
S31508001820FFF7E7FD780303D501214846FFF7E1FDF9
S31508001830F80265D54FF4801171614846019A012A6C
S31508001840C8BF0020000100245BF800600FF2181AD8
S31508001850D6F80808B76CBF0AC0F3002007F00F07D0
S31508001860CB467F1C814619E044F080050022E9B288
S315080018705846FFF756FB07218DF801100122002173
S3150800188002918DF805208DF800B08DF804500121DD
S315080018906846FFF75FF800E00A60641CBC422FDA6E
S315080018A006F5106101EB44110A68D00FF5D0C2F3B2
S315080018B08140012804BFC2F300404845EDD108F134
S315080018C0100000EB4413587B0028CDD0401E5873F7
S315080018D05D89DAF800001B8900F0604018432B4444
S315080018E05B1EB3FBF5F3104D05EAC34318430861C5
S315080018F0B9F1000F14BF42F0805242F00052CBE714
S3150800190005B0BDE8F08F0000F0ED00E01C560020A1
S31508001910EC5000200078F3FFFC500020FCFF030089
S3150800192004300080F45000200000F81FB0618DF8E4
S3150800193009108DF80890012102A8FFF70BB80000DE
S3150800194000000050430000000400000000050000ED
S31508001950000004404D0000000600000000100000D2
S31508001960000000000000000000000000002200F057
S3150800197063BA30B548F20105AA4201DB002030BD42
S31508001980039C016082800022C18863F30E01C18036
S31508001990C17901F07F0141EAC411C1710021418179
S315080019A00281012030BD1CB5930802E00C6840F89E
S315080019B0044B1C46631EA4B2002CF7D112F0030296
S315080019C004D00B680093694600F0FEFF13BD1CB5F2
S315080019D00446900802E051F8043B23600346581E6B
S315080019E09BB2002BF7D112F0030205D0009368468C
S315080019F000F0EAFF0099216013BD521893B28B429A
S31508001A0003D391B2B1EB400F03DB4FF6FE7110FB27
S31508001A10012290B2704738B50C469A422FBFD11AA8
S31508001A208188C3EB4101511889B209B9002032BD3A
S31508001A3085888D4207DAAA422CBF521BAA18428112
S31508001A40134600E05B1B99B2A942FBD2C188006825
S31508001A50C1F30E019BB20A464B43C118204600F05B
S31508001A60B3FF012032BD2DE9FC470A9CA6B2054604
S31508001A70B3422FBF1E1BAF88C4EB47069E19B0B2F0
S31508001A80002800F08A80B5F804C0B7B2BC4507D272
S31508001A9063452CBFA3EB0C0363446B811C46664667
S31508001AA0B6B2964203D9164601E0A4EB0C04A2B2DC
S31508001AB06245FAD20B98EB88D5F800E0ACEB040245
S31508001AC0A4B292B2A6EB0208C3F30E0318FB03F9FD
S31508001AD05C43C0B203FB02F70EEB04080028BFB252
S31508001AE00C4647D0012857D1B24204DB16FB03F255
S31508001AF092B241463AE04FF6FC7000EA070A5246AF
S31508001B0041462046FFF763FF17F0030708EB0A0173
S31508001B1026D03846C0F104001FFA89F280B2824204
S31508001B2088BF0246D0B2A9EB000900230093684695
S31508001B3003E011F8013B00F8013B3B465F1EDBB2B0
S31508001B40002BF6D1296803E011F8013B00F8013BA8
S31508001B5013465A1EDBB2002BF6D10098206000E02F
S31508001B6029681FFA89F0B8B11FFA89F22046FFF7EB
S31508001B702EFF11E0B24204DB03FB06F24146204683
S31508001B8008E03A464146204600F01EFF29681FFA3B
S31508001B9089F2E01900F018FF3046BDE8F6872DE90E
S31508001BA0F84F170008BF002000F0BC8004468B469B
S31508001BB0B4F80880B4F80AC0E079A588C009A8EB8B
S31508001BC00C011E4619D1E0452EBF8C46CCEB450CC0
S31508001BD0C4441FFA8CF0A842B4BFA5EB000C4FF022
S31508001BE0000C1FFA8CF18F4204D36746B8B200285E
S31508001BF000F09780A08843461FE0AF420AD3300022
S31508001C0005D1E088521BC0F30E00424393442F4689
S31508001C10E046EBE7E0453CBFCCEB4501414412FA10
S31508001C2081F0B0EB450FE5DBEA1B92B26146284628
S31508001C30FFF7E3FE8046DDE71B1A9AB28242FBD223
S31508001C40E188C01A80B2C1F30E0101FB00F21FFA47
S31508001C5082F93A1A12FB01F522689BB24B4302EB52
S31508001C60030A002EBBB244D0012E54D1984205DB9C
S31508001C7017FB01F292B25946504637E04FF6FC760A
S31508001C8006EA0906324659465046FFF78CFE19F011
S31508001C9003090AEB060124D04846C0F10400AAB29B
S31508001CA080B2824288BF0246DBF800300093D0B289
S31508001CB02D1A6B4603E013F8010B01F8010B484691
S31508001CC0A0F10109C0B20028F5D1206811464A1EC4
S31508001CD0C9B200291CBF13F8011B00F8011BF5D176
S31508001CE000E02068A9B2B1B1AAB25946FFF75BFE77
S31508001CF011E0984204DB01FB03F25946504608E01E
S31508001D004A465946504600F05FFE2068AAB20BEBD9
S31508001D10090100F059FEA088BAB24146FFF76DFEE8
S31508001D202081B8B2BDE8F28F3EB5044660890193BA
S31508001D30009020462389FFF796FE00F03EF8608162
S31508001D4028463EBD014648890A89898882422EBFAF
S31508001D50101AC0EB4100101880B2884288BF0846A6
S31508001D607047418902898388104688422EBF511AD6
S31508001D70C1EB4301511889B299428041C043C00F53
S31508001D807047014648890A89898882422EBF101AF7
S31508001D90C0EB4100101880B28842B4BF081A002070
S31508001DA080B2704738B5044663892289FFF733FE47
S31508001DB000F003F86081284632BD61890546A0888F
S31508001DC02A461AE60023AFE70123ADE770B50446B5
S31508001DD00D462689FFF7C5FF10B1E079C00918D06E
S31508001DE0A188304600E0401A82B28A42FBD2E388D4
S31508001DF02946256880B2C3F30E0358431A46284479
S31508001E0000F0E2FDA08801223146FFF7F6FD2081A9
S31508001E10012070BD0023C2E60123C0E600214181EE
S31508001E2000220281012070470021017000207047BE
S31508001E3062F30F2262F31F4200B500BF13009646F5
S31508001E409446103928BFA0E80C50FAD85FEA417CBE
S31508001E5028BF0CC048BF40F8042BC90728BF20F884
S31508001E60022B48BF00F8012B00BD30B50168846815
S31508001E704218416802EB5103C90703D54C4401E0F7
S31508001E80491C08D19A4218BF12F9011B01D10C301E
S31508001E9030BD12F8015B002904F8015BF0D4491E35
S31508001EA0F7D5EFE70978C90981F001010023002277
S31508001EB0C901FEF7DDBEF8B504466E4E0D4630463E
S31508001EC0082200F081FD0027B760F7602946204602
S31508001ED0BDE8F440E6E7F8B5664EB4890546F089EC
S31508001EE0241AA4B2402C88BF402430780027C009A1
S31508001EF00ED0802784B12200B1680AD009B1412AE0
S31508001F0001D30020F2BD06F1140000F05DFD00E0EB
S31508001F1014B106F1140200E0002223463946284689
S31508001F2001B0BDE8F040FEF7A3BE00002DE9F84376
S31508001F30804614464F4D0E461F462846082200F096
S31508001F4043FDAC604FF00009A5F80E90F088874273
S31508001F5088BF0746AF81F088474D88B137B1002C56
S31508001F6004D12868C10715D500BE13E04046FFF71F
S31508001F70B2FF002810D12868C1070BD500BE09E0BA
S31508001F8031464046FFF78EFF002805D12868C1076D
S31508001F9000D500BE002000E00120BDE8F283142130
S31508001FA03448FFF7E3BC33490861704738B5014642
S31508001FB0304C2046082200F007FD0025A560E560A4
S31508001FC031BD0000F8B52B4E2B4F05463078C009B9
S31508001FD0C90981421C4612D0002C04D03868C107B2
S31508001FE045D500BE43E03146284600F0F9FC336982
S31508001FF01BB132460321284698470120F2BD30B965
S31508002000B068A0B3224606F1140100F0DDFCF089A1
S31508002010B168F2882018F081214480B28242B1600A
S3150800202001D0402C1AD2336923B132460221284600
S31508002030984750B131462846FFF734FF0028DCD1CF
S315080020403868C10713D500BE11E000212846FFF7FE
S31508002050A3F980212846FFF79FF9CEE72846FFF720
S315080020603AFF0028C9D13868C10700D500BE00204C
S31508002070F2BD000090540020F0ED00E010B547488E
S315080020804FF0A044046000F0ACFC4548016841F0FC
S3150800209002010160A06B00BF52A140F40010A063CA
S315080020A0A06B20F40020A063A06B20F48020A0631E
S315080020B00020FEF787F800F0BAFCB0F5FA6F05D2F3
S315080020C0BDE810404FF4FA6000F0AEBC10BD80B514
S315080020D0FEF76FF831484FF0A0410160BDE80240B5
S315080020E000F0B4BC32B5402905462E4C03DB9F21CF
S315080020F0204600F0ACFC01226946002000F0C7FC2F
S31508002100012803D0A321204600F0A1FC9DF8002059
S315080021102946002000F0BBFC9DF80010884203D039
S31508002120A621204600F093FC002000F0B8FC31BD43
S3150800213070B505460E460020FFF727FA00214FF036
S31508002140FF30FEF7E7F8184C607870B9201D00F0EC
S315080021502DF8012807D1207928B1402803DA012073
S31508002160002160702170002070BD2178601D084430
S3150800217000F01CF80128F6D122782179521CD0B239
S3150800218088422270EFD1D2B2611D284600F0A6FD22
S315080021900020217860703170012070BDD44600207F
S315080021A0040800509C770008E454002038B504461B
S315080021B0002000F05DFC002538B1012221460020F0
S315080021C000F05DFC012808BF0125284632BD012024
S315080021D000F0ABBD002000F0A8BD00F0A7BD00F0E0
S315080021E0A6BD00000100704744A0704748A070478C
S315080021F03E4870471CB50129144601D0012016BD7A
S315080022002178C1F34111022901BF61780129A1880A
S3150800221007290ED1364A02F108010B788DF80030ED
S315080022204B788DF801302146BDF80030FFF77EFE69
S3150800223016BD002016BDF8B52E4C217884B00022B4
S3150800224039BB2D490B68019301234D6802958968AE
S3150800225003912370002101AD6D5C2E0905F00F0571
S315080022608DF801508DF8006000251DF805600A2ECE
S3150800227034BF30363736271DD3B2521C6D1CFE5478
S31508002280022DF2D3491C0C29E5D3231DD2B2002115
S315080022909954010008D1206E027804F122010A70CF
S315080022A042784A70022019E0042828BF00201BD271
S315080022B004F1600151F82050284600F039FDC0B2FB
S315080022C02028A8BF1F20002104F1220303E06A5C2E
S315080022D023F81120491C8142F9DB4000801C40F498
S315080022E04070208404F1200005B0F0BD6478000831
S315080022F00876000838030020107AFF1F1201010231
S3150800230000000040501DAC600001010203010000FE
S3150800231009022000010100804B0904000002FF00A9
S315080023200000070501024000000705810240000081
S3150800233001460878C20712D40878C0F3800070B93D
S315080023400878C2070BD40878800800F0010090F0DE
S31508002350010003D00B7843F004030B70704700208C
S31508002360704701460878C0F3800000281EBF087829
S3150800237000F0010090F0010003D00B7803F0FB0396
S315080023800B70704770B5C6788388DFF8004306F08F
S315080023900306012EC3F30A034FF4806504D036D32F
S315080023A0032E2BD00BD332E0022918BF40F2FF359B
S315080023B09D4214D22068C10729D500BE27E002290C
S315080023C007D1B3F5007F0AD02068C1071FD500BE24
S315080023D01DE032B1B3F5007F03D140218180012091
S315080023E070BD082B18BF102BF9D0202B18BF402B17
S315080023F0F5D02068C1070AD500BE08E0022918BF33
S3150800240040259D42EBD22068C10700D500BE0020BA
S3150800241070BD70B50A440BE04C78052C06D18C7853
S3150800242004F00F0500EB4506E40933550C78214402
S315080024309142F1D370BDF8B505462F780698079AEC
S31508002440089E099C07F0FE07394329700093014648
S31508002450012392B205F10800FFF78BFA6E606C80D3
S315080024600120F2BD0120704770B50D460446287854
S3150800247081074CBF40F2FF113F212B8A6E8AB34277
S3150800248019D1C2B10A4216D1C20714D469782046B6
S31508002490FEF7D1FB00280ED02878C10707D4697843
S315080024A0002300222046FEF7E3FB002805D100F0B2
S315080024B03AF800D500BE002070BD012070BD0000AE
S315080024C070B504460D4605F10800FFF73BFC48B316
S315080024D02878C10725D469782046FEF7ACFB00B3F7
S315080024E06A88696805F10800FFF76CFC06462878D3
S315080024F0002E10D0C00707D46A686978334620468C
S31508002500FEF7B6FB002804D100F00DF809D500BE89
S3150800251007E0304670BDC00703D469782046FEF749
S3150800252092FB002070BD59480168CA077047000031
S31508002530F8B51C0005460E46174625D0B08928BBB7
S315080025403178CA0720D471782846FEF774FBD8B1CB
S315080025507088844288BF044670682246394600F06F
S3150800256033FA3078C1070BD4A0B2002814BF7268BA
S3150800257000227178A3B22846FEF77AFB00281FD1FD
S31508002580FFF7D1FF00D500BE0020F2BDA2B2394642
S3150800259006F10800FFF73EFC0446307881074CBF79
S315080025A04FF40077402706F10800FFF7CBFBB84247
S315080025B002D2B089B84203D231462846FFF780FFD7
S315080025C02046F2BD2DE9F0410D468046A8892F4EDA
S315080025D0E8B92978CA0756D469784046FEF72BFB2E
S315080025E0002850D028786B88C10709D4180014BF72
S315080025F06A68002269784046FEF73AFB002804D14B
S315080026003068C1073FD500BE3DE068883CE02878C1
S3150800261081074CBF4FF40074402405F10800FFF70A
S31508002620B0FBA0422FD32878C1072CD4697840463E
S31508002630FEF701FB38B305F10800FFF7A2FB29787E
S31508002640A042074619D36A88601E8743974288BF07
S315080026501746C9070AD4380014BF6A680022697881
S315080026603B464046FEF704FB002804D13068C10704
S3150800267009D500BE07E0384606E0C80703D46978DE
S315080026804046FEF7E0FA0020BDE8F081F0ED00E0F4
S3150800269070B50D46044611469AB205F10800FFF7D3
S315080026A091FB064629462046FFF78CFF304670BD4B
S315080026B00020704700207047704709040029816B85
S315080026C00BD18B4A41F480319042816308D1894805
S315080026D0016821F080410160704721F480318163EF
S315080026E0704700293DD18449844A0968914228BF28
S315080026F04FF4C05130D2824A914228BF4FF4E0517C
S315080027002AD2804A914228BF4FF4005124D27E4AE9
S31508002710914228BF4FF410511ED27C4A914228BFDD
S315080027204FF4205118D27A4A914228BF4FF43051BB
S3150800273012D2784A914228BF4FF440510CD2764AB9
S31508002740914228BF4FF4505106D2744A91422CBF89
S315080027504FF460514FF47051C26822F4705211431D
S31508002760C160704701690029FCD5016C026942F015
S315080027700102026189B244F20A22914203D2016936
S31508002780CA07FCD408E001698A00FCD50169490832
S31508002790490041F00051016101690029FCD57047E3
S315080027A0006C5F49000C000488421FBF5D4A9042D6
S315080027B05D49884206D05D480268D10700D500BE4B
S315080027C00020704701207047012901D10020704779
S315080027D0806CC0F3811000B1012070472DE9F041EB
S315080027E00E4614460228A8BF002000BF6EA10001AD
S315080027F00D582846FFF7D4FF002806D14B48016834
S31508002800CA0700D500BE002070E0A868400840004E
S31508002810A860002EEE6831D0D5F84880286DC0F340
S315080028208130002814BF10270827C8F38110022812
S3150800283026F0400604D13E48064046F0100607E05A
S3150800284026F01006102F0CBF46F0080626F00806DC
S31508002850EE60C8F381112846FFF730FF2846FFF7D8
S3150800286081FF26F47056102F0CBF4FF4A0504FF47A
S3150800287010500643EE60C8F381110EE046F040069C
S31508002880EE6000212846FFF719FF2846FFF76AFF82
S31508002890052060F38D26EE6000212846FFF721FF0C
S315080028A0E86840F00700E8604FF48461D5F8000E48
S315080028B000090001C5F8000E296128698106FCD4C3
S315080028C0102028612869C106FCD44FF0FF306861E2
S315080028D068600020A86124B1A86840F02600A860B6
S315080028E003E0A86940F01000A8610120BDE8F08166
S315080028F00000044050380240340300200048E80134
S31508002900E09DA30100366E0140A44C01002D310163
S31508002910A0491A01807306010024F400C0E1E4000E
S315080029200000544F0000315500003255F0ED00E02C
S3150800293077FFC5FF30B593084FF4805402E0055978
S3150800294041F8045B1D466B1EADB2002DF7D112F09F
S31508002950030209D000590870012AC4BF030A4B7044
S31508002960022AC4BF000C887030BD10B500EB0130D8
S3150800297000F58050990802E052F8044B04600C46B2
S31508002980611EA4B2002CF7D113F003030BD0117803
S31508002990012BC4BF547841EA0421022BC4BF9278A4
S315080029A041EA0241016010BD0000005043000000EA
S315080029B00400000000050000000004404D0000006F
S315080029C006000000001000004AB1000011F8013BA3
S315080029D0521E00F8013B1CBF11F8013BF8E770478F
S315080029E07047704710B5184C0120207000F008FA9F
S315080029F06060BDE8104010B500F09BFA012812D0BF
S31508002A00114C207801280ED100F0FAF9A268616805
S31508002A108A1802F5FA72904205D300202070BDE8A4
S31508002A20104000F039B910BD07498860704706485C
S31508002A308068704710B5044C2078012802D100F050
S31508002A40DFF9606010BD00002C560020704780B585
S31508002A5000F086FAFCE7000008B1002070478849B4
S31508002A6091F85900002806BF4879002801207047C8
S31508002A70002804BF8348FFF765B90020704713464E
S31508002A8008B1002070470A467F49FFF701BE08B122
S31508002A900020704793B20A467C49FFF749BD0028D3
S31508002AA004BF7A49FFF70CBD002070471FB5744C68
S31508002AB0AC212046FEF75AFF402204F1AC0304F18C
S31508002AC06C010392029301920091002300220021D7
S31508002AD004F15800FFF7AFFC402004F1EC0104F1C3
S31508002AE0180303900291019000930122002300210C
S31508002AF0201DFFF7A0FC1FBD10B5614C04F158005E
S31508002B00FFF7B0FC201DFFF7ADFC012010BD10B586
S31508002B105B4C01212046FEF729FF04F16000FFF710
S31508002B207DF9002084F8590004F10C00FFF776F9C6
S31508002B300020607110BD00002DE9F8430D4681465E
S31508002B406879FF28904657D129786E180020FFF734
S31508002B5083FF002850D14A4FA8783870A84407F157
S31508002B60580416E0B078C0092CD0787978B9B078CE
S31508002B70787100F047F814BF00200220397901F077
S31508002B80FD0108433871391D4846FFF799FC30782E
S31508002B900644464532D23178314488452ED370787A
S31508002BA0042818BF0B2829D00528F0D131464846F5
S31508002BB0FEF71EF80028D5D135480168CA071BD587
S31508002BC000BE19E060780028E1D1B078607000F0A6
S31508002BD019F80CBF02200020217801F0FD010843F6
S31508002BE0207021464846FFF7EDFC0028CFD128483B
S31508002BF00168CA0700D500BE002001E0751BA8B20F
S31508002C00BDE8F283B188C1F30A01B1F5007F7047C8
S31508002C1070B51B4E96F85920044670791D469142A8
S31508002C2018BF814201D0002070BD914215D106F12E
S31508002C305C01088928B10968AAB206F16000FFF7A5
S31508002C40E9F8AAB206F1AC01002000F08BF906F10A
S31508002C5058012046FFF7B6FC0FE081420DD1A9B214
S31508002C60002000F080F9311D2046FFF729FC20B925
S31508002C702A46311D2046FFF7F7FB012070BD0000EC
S31508002C80C04F00202050002018500020C44F0020BC
S31508002C90F0ED00E000F068B910B500F06FF9A8B1E2
S31508002CA000F02EF890B100F005F900F08DF900F06B
S31508002CB078F800F065F90749074A0840106000F0FF
S31508002CC05FF950F8044F00F051F9A047BDE81040ED
S31508002CD000F037B980FFFF1F08ED00E070B5044625
S31508002CE00D46164605E015F8010B04F8010B00F031
S31508002CF037F93046461E80B20028F4D170BD000070
S31508002D0080B54FF40051054800F009FB012801D1B0
S31508002D10002002BD00F044FB012002BD000802406D
S31508002D20642000F021BB00F022BB70477047704753
S31508002D3000F1010310F8011B11B110F8011BFBE7A4
S31508002D40C01A704718B53248324BC16B41F00101C1
S31508002D50C163C16B01F001010091009A02682E4916
S31508002D600968C2F342329A5C0068D14010F4604F99
S31508002D700CBF01200220294A414301232848136039
S31508002D804FF6FF74B1FBF0F0D462401E906200214A
S31508002D90506940F00100506122484160526A028041
S31508002DA011BD2148016841F0010101600023026854
S31508002DB05208520002600022016A4908490001626D
S31508002DC000211A480160426083604FF0007018497C
S31508002DD0086070471748134900680A88801A80B245
S31508002DE0642800D2704710B564234C68B0FBF3F32F
S31508002DF0642014FA83F443434C609818088010BD85
S31508002E0080B500E080B5FFF7E5FF0648406802BDDB
S31508002E100838024094790008340300200000014075
S31508002E20A0860100405600202438024010E000E049
S31508002E3004ED00E02400014010B500F0BBFA00F0F4
S31508002E401DFC454C0220207000F0CAFC00212170B0
S31508002E50FFF714F90320207010BD1CB53E4C6946D7
S31508002E60201D00F09EFC012802D1022000F01CF86B
S31508002E706946201D00F0E9FC012802D1002000F077
S31508002E8013F86946201DFFF753F9012802D10320DC
S31508002E9000F00AF86946201D00F093FD012802D1CA
S31508002EA0042000F001F813BD2070201D9DF80010C5
S31508002EB000F098BAFFF70BB970B5274E044630787C
S31508002EC002280D4603D1C9B2204600F048FC3078E6
S31508002ED018B9E9B2204600F09FFC3078032803D1E0
S31508002EE0E9B22046FFF7FEF83078042803D1E9B2A4
S31508002EF0204600F048FDBDE8704000F06EBA16485E
S31508002F000178022902D0032902D003E0082070477D
S31508002F103F207047812070470F480178022902D068
S31508002F20032902D003E0082070473F20704781201C
S31508002F30704710B500F04BFA002400B10124204672
S31508002F4010BD80B500F016FD034904200870BDE8E1
S31508002F500140FFF76FBD000040000020FFF7E0BE0C
S31508002F60FFF7E1BE7047704772B6704762B67047A2
S31508002F7000F0E8BD00F0EDBD00F00EBE00F09CBE0E
S31508002F8000F0C4BE80B500F079FE18B1BDE8014076
S31508002F9000F0A7BE02BD000080B51748016841F4DD
S31508002FA000710160026842F480620260016841F4BF
S31508002FB080710160032000F064FF002000F0A4FF88
S31508002FC001F02DF8002002BD80B50C480C490161BE
S31508002FD00022026100230B4941614261C1220A496C
S31508002FE001600360426000214160012282608160C5
S31508002FF001F0C6F8002002BD003C0240103802402D
S31508003000FFC9FEF633797704FF17E0222DE9F84F5A
S315080030100022DFF82043DFF820834FF00F09012351
S315080030200F6893401F409F4240F0D7804FEA420CFA
S31508003030032505FA0CF56FEA050E4D6805F003063B
S31508003040012E1CBF05F00305022D10D18568CE6838
S315080030500EEA050506FA0CF635438560456825EA45
S3150800306003034D68C5F3001595402B434360930051
S315080030700D7905F00305032D1ED0C5688E680EEA86
S31508003080050506FA0CF63543C5600D7905F0030506
S31508003090022D11D1D50800EB850503F01C06D5F8DD
S315080030A020B009FA06FA2BEA0A0BD1F810A00AFA98
S315080030B006F646EA0B062E6205680EEA05060D793F
S315080030C005F0030505FA0CF545EA060CC0F800C03C
S315080030D04D6815F4403F00F080804FF0000ECDF8A3
S315080030E000E04FEA920CD8F8005045F48045C8F83D
S315080030F0005003F00C03D8F800E0904D0EF4804E13
S31508003100CDF800E0DDF800E055F82C6009FA03F583
S31508003110AE438B4DA84208BF4FF0000E36D0894DFE
S31508003120A84208BF4FF0010E30D0874DA84208BF0D
S315080031304FF0020E2AD0854DA84208BF4FF0030E65
S3150800314024D0834DA84208BF4FF0040E1ED0814DEF
S31508003150A84208BF4FF0050E18D07F4DA84208BFF9
S315080031604FF0060E12D07D4DA84208BF4FF0070E4D
S315080031700CD07B4DA84208BF4FF0080E06D0794DFB
S31508003180A8420CBF4FF0090E4FF00A0E0EFA03F3D1
S31508003190DFF8A8E133434EF82C30FE43A3684D68A8
S315080031A03340ED0248BF3B43A360E3684D683340B4
S315080031B0AD0248BF3B43E36063684D683340AD03E7
S315080031C048BF3B436360236806EA030C4B68DB038E
S315080031D048BF47EA0C0CC4F800C0521C0F2A7FF6F9
S315080031E01EAFBDE8F18F2DE9FC4F0022514BDFF8E9
S315080031F04CA14FF00F094FF0010B0BFA02F707EA43
S31508003200010CBC4540F085804FEA920E5AF82E50C4
S315080032104FEA820808F00C068DF8046009FA06F4ED
S315080032202540474EB04208BF00262CD0454EB04236
S3150800323008BF012627D0444EB04208BF022622D036
S31508003240424EB04208BF03261DD0414EB04208BFC9
S31508003250042618D03F4EB04208BF052613D03E4E6E
S31508003260B04208BF06260ED03C4EB04208BF07261D
S3150800327009D03B4EB04208BF082604D0394EB042AA
S315080032800CBF09260A2600959DF8045006FA05F58E
S31508003290009EAE4218D11D686FEA0C0C0CEA0505B3
S315080032A01D605E680CEA06065E60DD680CEA0505C8
S315080032B0DD609E680CEA060CC3F808C05AF82EC0F2
S315080032C02CEA04044AF82E4003245500AC40D0F8F2
S315080032D000E0E44304EA0E0ED508C0F800E000EB6F
S315080032E0850C08F01C05DCF820E009FA05F52EEA3D
S315080032F00508CCF82080D0F80CC004EA0C0CC0F8FD
S315080033000CC0D0F804E02EEA0707476087683C40FF
S315080033108460521C0F2A7FF670AFBDE8F38F0069F0
S31508003320084018BF0120C0B2704702B9090481617C
S3150800333070470000003C014044380240083801400C
S31508003340000002400004024000080240000C02404F
S31508003350001002400014024000180240001C0240FF
S31508003360002002400024024010494880704710B5EA
S31508003370FFF746FD0D4C6268904210D321780C4841
S3150800338011B90122227002E0002121700022802159
S31508003390FFF7CBFFFFF734FD61884018606010BD6A
S315080033A0002280210248FFF7C0BF000038560020DF
S315080033B000040240A44800F1810100220A70C0F806
S315080033C08820CA70A0F886208A704A7070479E487E
S315080033D090F8810000B1012070479B49002081F8D0
S315080033E0840070472DE9F0410646FF273078964D50
S315080033F0FF2805F1810418D10020012110226070F0
S3150800340021706A7000F010F9E870FFF785FD2871E1
S31508003410FFF782FD000A68710120A871E87108208B
S31508003420A5F88600FFF7A4FDAFE02178012940F052
S31508003430BE80C92805F1010800F08580CC2800F077
S31508003440EB80CF2800F0E580D02800F09180D128C5
S3150800345000F0D480D22800F0C780F12800F0DE8082
S31508003460F32838D0F42818D0F5280AD0F6282FD013
S31508003470FA284AD0FC2856D0FD2856D0FE285DD01A
S31508003480CEE0FFF73CFD7178401E884201DA222023
S3150800349075E00A46D5F888100DE0FFF730FD71781B
S315080034A0401E884201DA222069E000F0C2F801468F
S315080034B0C5F8881072784046FFF710FC2F70D5F8CB
S315080034C0880071784118C5F888107078401C5AE051
S315080034D000F0AEF848E000F0ABF8D5F8885006469C
S315080034E0002704E015F8010B3F18FFF739FD3046B1
S315080034F0461E0028F6D1544D01206870291DF8B2E1
S3150800350000F0B0F8002068800BE000BF59A0C5F8AD
S3150800351088000021697069802F70291D072000F036
S31508003520A1F808202FE0002029E000206870E87044
S31508003530A8802F7006206178A97024E000202070EA
S3150800354060702F7012E0FFF7DAFC411ED5F888008C
S31508003550721CFFF70FFD08B9312010E000F065F87E
S31508003560D5F88810401E4018C5F8880001200AE0E2
S31508003570FFF7C5FC7178801E88421ADA222000F00F
S315080035805AF8B5F98600A5F88600E078012804BF40
S31508003590102000F050F8B5F98600002807DD012252
S315080035A081B2E2702846BDE8F041FFF785BCBDE868
S315080035B0F08101212F70A5F88610707828B9FFF7D9
S315080035C0E1FC0028DDD13120D9E70146D5F888008D
S315080035D0B21CFFF7CFFC0028F5D0D5F88800717823
S315080035E04118C5F88810CCE70020687000F01CF870
S315080035F0E8700020A880A8710720C4E700F019F831
S315080036000146D5F88800FFF7B7FC002899D1312084
S31508003610B5E7FFF741FB94E73120B0E72020AEE796
S31508003620202000F008F8ACE7A8702F70FFF767BCF9
S315080036302F70301D0AE004494870FE2202200A70E5
S31508003640A1F8860070470000A453002001460878B8
S315080036504A788B78C97840EA022040EA034040EA73
S31508003660016070470870020A030C000E4A708B70DE
S31508003670C87070474F70656E424C54002DE9F04192
S315080036808EB00AA800F0E2FD0C984FF0FF354FF413
S315080036907A7100262C46B0FBF1F100234FF4FA7735
S315080036A04C4A02EB430C12F813009CF801E07044F4
S315080036B0401C7843B1FBF0F800FB181080B912F8EB
S315080036C0136070463618761C7E43B1FBF6F61FFA71
S315080036D086FCBCF1000F03D040F2014EF44539DBFD
S315080036E05B1C122BDDD3B52102F12400FFF7AFF9DD
S315080036F0394F3A483860002139830020B8760121CD
S31508003700B883B860F860F9762D042405B6B23D6131
S315080037107C617E60384600F0F5FD4CF6E0410122FA
S31508003720009107924FF6E07102910422039200205D
S315080037300E210590069001900490012209910892A5
S315080037406946384600F055FE384600F0BBFE0EB016
S31508003750BDE8F08112F81350441E6D1EC8E730B557
S3150800376087B0024640F2E170002301900393049368
S3150800377005916B46184C01A9204600F0E3FE70B986
S31508003780FFF73EFB00F132050099204600F039FFAD
S3150800379028B1FFF7E5FBFFF733FB8542F4D207B004
S315080037A030BD30B587B003460C466A4600210A4844
S315080037B000F038FF0025002802BF009840F2676134
S315080037C0884204D1029810B9049820700125284629
S315080037D007B030BDA8760008F45500200064004004
S315080037E018B5454C87B0E16821F40051E1604FF403
S315080037F06140002100900191029103910C220591EC
S31508003800069104926946204600F090FFE06840F46D
S315080038100050E06008B010BD70B50D46822D044614
S3150800382003DB86213548FFF712F9284600F053F8DE
S31508003830002606E0FFF794FBB0B2761C205C00F089
S315080038404AF8B0B2A842F5D370BDF8B52C4C054677
S3150800385060780E4688B9201D00F032F801282DD16F
S31508003860207958B3822829DAFFF7CAFAC4F88800FB
S31508003870012100202070617020E02778601D3844FF
S3150800388000F01EF8012810D121797F1CF8B2884271
S31508003890277013D1FAB2611D2846FFF71FFA0020D8
S315080038A02178607031700120F2BDFFF7A9FAD4F8CB
S315080038B08810C83181423CBF002060700020F2BDEC
S315080038C00D490A68930644BF4968017012F0200042
S315080038D018BF0120704738B5074C6060FFF790FAAB
S315080038E000F10A052068000605D4FFF739FBFFF743
S315080038F087FA8542F6D231BD004800405C77000859
S315080039001853002038B5834C607890BB00F09EFFB2
S31508003910FFF776FA00F5FA70606042F21075FFF765
S315080039206FFA2818A06001F0F2F97B48002101809F
S3150800393041807A48018041807948018041804EF66D
S31508003940030001F020FA00F0D8FF04F10C0000F0A3
S31508003950D7FF062104F10C0001F03EFF02F03BF808
S31508003960FFF765F8A8423CBF2846FFF75DF8012037
S31508003970207031BD6748002141700078002808BFD3
S31508003980FFF7C0BF7047634A1378012B00D0704712
S3150800399030B5644A146804F11C02136853600023A6
S315080039A003E0C45CD5185B1C2C728B42F9DB02F170
S315080039B08A00091D0180012181701068401C106071
S315080039C030BDF8B5534D287801285ED100F0A6FF22
S315080039D0554CF8B120804FF4006001F014FE534EA8
S315080039E0B189814207D1012001F0EEF9208888B11A
S315080039F002F0E4F80AE040F6060001F004FEB18998
S31508003A00814207D102F080F8208818B100F0C8FF7B
S31508003A1000202080FFF7F4F96968424E444F884237
S31508003A201CD301F5FA7169603760022001F0CCF900
S31508003A30208828B102F0C2F800F0B2FF00222280E6
S31508003A403C493D480860052001F0BEF9208828B1A8
S31508003A5002F0B4F800F0A4FF00202080FFF7D0F9A8
S31508003A60A968884205D301F51C511031A96001F0F7
S31508003A70C9FF3760032001F0A7F9208828B102F0B2
S31508003A809DF800F08DFF002020800020F2BD70B563
S31508003A9024482A4E0168307801F11C04410604F1D5
S31508003AA08A0506D50120206000222A80AA70EA70BD
S31508003AB070BDC10702D50020E87008E0400706D5AA
S31508003AC0EA78012A03D12988201D01F0A2FD317860
S31508003AD008070BD5A978012908D100202988A870DC
S31508003AE021B10120E870201D01F093FD307881078F
S31508003AF00FD50D4A1188081F82280ADAE87840B9D6
S31508003B000F480268BDE87040091FC9B2101DFFF7CB
S31508003B1069BC70BDC8000020A85500206456002066
S31508003B2060560020C0550020AC550020E04000201B
S31508003B306C520020C455002028550020A4550020AA
S31508003B40B8550020C249C34A4FF0FF3008601060DC
S31508003B50704770B504460D46BF48001B691E88426B
S31508003B6016460AD3204600F05BF9FF2805D0281927
S31508003B70401E00F055F9FF2801D1002070BD600AEB
S31508003B804002B64988422B46324621460CBFB14808
S31508003B90AF48BDE87040E5E02DE9F04705460E461A
S31508003BA0AD48401B711E884286B00CD3284600F0EB
S31508003BB037F904467519681E00F032F90546FF2CD8
S31508003BC018BFFF2D01D1002055E0012600200090E6
S31508003BD0A54238BF0026012C01DD182D01DB002681
S31508003BE048E0300046D000200221012201900591CC
S31508003BF0049202F0BCF8DFF868A200E0641CE1B2A7
S31508003C008D4235D300210C2048435044E3B2027A52
S31508003C109A4203D0491C1629F5D31EE0D0F8008035
S31508003C20D0F8049018F0030F08BF19F0030F05D059
S31508003C3040F2B9210AF58470FEF709FF002700E073
S31508003C407F1CB7EB990FD9D2380608BFFFF788F95A
S31508003C5058F8040B10F1010FF2D0FFF781F9E0B222
S31508003C600390694601A802F045F90028C6D0002647
S31508003C7002F08DF8304606B0BDE8F08780B5754B82
S31508003C80186810F1010F01D1012002BD5A68986821
S31508003C90D968821818698A185969821898698A1819
S31508003CA0D96982188A18D243521C009204216A469E
S31508003CB06C48FFF74EFF02BD684B1A68586899684A
S31508003CC08218D8688A181969821858698A189969E9
S31508003CD0644B821818688A188218501E8041C00FD3
S31508003CE0704780B55B48016811F1010F02D000F0FA
S31508003CF073F838B15648016811F1010F04D000F085
S31508003D006BF808B9002002BD012002BD5348704770
S31508003D1080B5CA0501D0002002BD02688A4205D0D6
S31508003D2040F8041B4FF40072FEF7D8FF012002BDCD
S31508003D3038B50446474884420D4606D1444C2946C0
S31508003D402046FFF7E5FF58B932BD44498D4208BF02
S31508003D500446F4D0204600F03FF80028EFD132BDE3
S31508003D60204632BD2DE9F04104460E462068770A02
S31508003D7010F1010F90461D4604D179022046FFF73F
S31508003D80C7FF20B32068B0EB472F05D0790220463D
S31508003D90FFF7CEFF04001AD02068361AA019061DB0
S31508003DA0FFF7DEF8201D301AB0F5007F08D321682A
S31508003DB001F500712046FFF7BBFF040007D0261D5A
S31508003DC018F8010B06F8010B6D1EE9D101E0002079
S31508003DD000E00120BDE8F0812DE9F041804601F0C0
S31508003DE0C6FF0126002708EB8700D8F8005044686C
S31508003DF0FFF7B6F805EB8705224600232946022079
S31508003E0001F07EFF30B92868A04203D17F1C802FBD
S31508003E10E9D300E0002601F0BAFF3046BDE8F0819C
S31508003E2070B50446FF250026FFF79AF80C210C48C2
S31508003E30714308440268944203D341688A1894423D
S31508003E4003D3761C162EEFD300E0057A284670BDFC
S31508003E50B84B0020BC4D0020FFFF1F08008000085B
S31508003E60C0740008AC8100080901020002D4214888
S31508003E7081547047204B02F00F021A4402F8041CC2
S31508003E8070471E490A6860F30A2240F2FA5060F346
S31508003E901F420A60704770B5184B1C68C4F30223AA
S31508003EA00124C3F10705052D2EBF0F2504FA05F5D4
S31508003EB06D1E1E1D072E34BF0023DB1E29409940A8
S31508003EC004FA03F3BDE870405B1E1A401143CBE7C2
S31508003ED0401EB0F1807F01D3012070470849094A86
S31508003EE048600023F02010708B60072008600020CF
S31508003EF07047000000E400E018ED00E00CED00E07B
S31508003F0010E000E023ED00E038B50D4D0D4B2A78A2
S31508003F1004464FF47A711868B1FBF2F2B0FBF2F07E
S31508003F20FFF7D6FF50B9102C08D2002221464FF0D1
S31508003F30FF30FFF7B0FFAC60002032BD012032BD74
S31508003F40080300203403002018B593B000208DF82C
S31508003F500000FFF721F83021002207A802F090F8A8
S31508003F601421002202A802F08BF800200190AC4C24
S31508003F70AC48016841F080510160006800F080504B
S31508003F800190002001990190A748016841F4404139
S31508003F9001604FF4A021006800F440400190012020
S31508003FA0019A089102224FF480010D920E9108227F
S31508003FB04FF4A8710F9210910790022207211192CF
S31508003FC0129107A802F066F818B194212046FEF768
S31508003FD03EFD02210391002204920F204FF4A051C6
S31508003FE0029005914FF480520692052102A802F02C
S31508003FF0D9F918B1A3212046FEF729FD02F066FA81
S3150800400002F0B6FA6946002002F06FFA9DF8000041
S31508004010012808BFFEF795FF02F0B9FAFCE770B56C
S3150800402086B0002005904FF44076804C804D20697C
S3150800403040F080502061206900F0805005900020F3
S31508004040059900F08EF800F095F842F0010222601A
S31508004050206800F0010000F08DF842F002022260AC
S31508004060206800F0020000F085F842F004022260A1
S31508004070206800F0040000F07DF842F00802226093
S31508004080206800F0080000F075F842F0400222604F
S31508004090206800F0400000F058F841F480212161C2
S315080040A0206900F4802000F050F841F00071216189
S315080040B00121206900F0007005908020059A009083
S315080040C0019100220292039269462846FEF79EFF56
S315080040D0002280212846FFF728F94FF400500021D6
S315080040E000900191029169465248FEF78FFF00F051
S315080040F032F8039107220492009669464E48FEF765
S3150800410085FF00F028F80096039109220492694673
S315080041102846FEF77BFF02210191002202924FF406
S31508004120C0500321009003910A220492694643482D
S31508004130FEF76CFF616841F080016160002000F0C5
S3150800414010F80590059806B070BD059000200599F1
S3150800415005902169704702210191002202920321EC
S3150800416070470590616941F480416161606900F4B6
S315080041708040704705900020059905902268704791
S3150800418038B502F014FA2A4C002280212046FFF79F
S31508004190CCF8802100F056F84FF400512548274DF9
S315080041A0FFF721F84FF400612846FFF71CF84FF493
S315080041B080512846FFF717F81C4D686820F08000E4
S315080041C0686000F03DF84FF4007100F03BF828698C
S315080041D0194C20F00070286100F032F84FF4007195
S315080041E000F030F8286920F480202861296821F039
S315080041F008012960286820F004002860296821F051
S31508004200020129602868400840002860296921F0D1
S3150800421080512961686920F48040686131BD0000D9
S3150800422008770008403802400070004030380240E5
S315080042300004024000080240000C02400000024050
S315080042404FF480712046FEF7CEBF704710B504467E
S3150800425000F00CF8206000F017F8606000F01AF81B
S31508004260A060606800F01EF8E06010BD1F48006896
S3150800427000F00C00042802D0082802D002E01C48EE
S31508004280704715E01B48704718491B4A0968C1F36F
S31508004290031104E01549194A0968C1F38221515CE2
S315080042A0C84070471149154A0968C1F34231F6E713
S315080042B0134A13680146002003F48003B3F5800F00
S315080042C00CBF0B4B0B4B08290FD1106811681268ED
S315080042D000F03F00B3FBF0F3C1F388104343C2F389
S315080042E00140401C4000B3FBF0F07047083802401C
S315080042F000127A000024F4002C780008947900084B
S315080043000438024038B5040022D094F8200010B9C9
S31508004310204602F0F1F900F00AF9054620684168DE
S31508004320C80705D4FEF76EFD401B0B28F6D30DE033
S3150800433000F0F6F8FEF766FD05462068416888072E
S3150800434008D5FEF75FFD401B0B28F6D300F0E0F812
S31508004350012032BD207E2268012810680CBF40F07B
S31508004360800020F0800011460860607E00F03DF86D
S315080043700CBF41F0400121F040010160A07E00F031
S3150800438034F80CBF41F0200121F020010160E07EE5
S3150800439000F02BF80CBF21F0100141F0100101606C
S315080043A0207F00F022F80CBF41F0080121F0080137
S315080043B00160607F00F019F80CBF41F0040121F09C
S315080043C004010160A268E0682169024360690A4342
S315080043D0616802432068491E0A43C261002161627E
S315080043E0012084F82000002032BD012820680168D9
S315080043F07047F0B590F82020012A18BF022A55D137
S315080044004E4A106840F001001060136823F47C538C
S31508004410136010684B6A40EA0320106001230C7D84
S31508004420D06904F01F04A340DC432040D06144480F
S3150800443000F5117500F51076C86960B9D768274088
S31508004440D760C86800F036F80F688868C7EA004C75
S31508004450486945F830C0C86901280CD1D7681F4398
S31508004460D760086800F026F8CE6888684F69C6EAFB
S31508004470004045F837008869002850680CBF20407E
S315080044801843506008690028506907BF0440546102
S3150800449018435061086A012802D1D0690343D361E1
S315080044A000201168490849001160F0BD416A41F4CD
S315080044B08021A3E04F68D1F814C0C7EA004046F847
S315080044C03C00704738B5044694F82000012819D1F5
S315080044D0022284F820202068016849084900016002
S315080044E0FEF790FC054620684168C80707D5FEF721
S315080044F089FC401B0B28F6D300F00AF806E00020DA
S31508004500606232BD606A40F400206062012032BDFC
S31508004510606A40F400306062052184F82010704714
S3150800452022681068114620F002000860704720686B
S31508004530016841F001010160FEF764BC00660040B5
S3150800454000640040F0B590F820400568AD68012C7D
S3150800455018BF022C4FD115F0E05F48D0C5F30164AF
S315080045600125A5401D6024010368CE6803F5C075C2
S315080045708B681BB90B6846EA435603E04F6843EA63
S31508004580C7031E432E5105680B6905F5C2763351DC
S31508004590097D012906D1056805F5C2710B5943F451
S315080045A080730B519379D17955791B0443EA0163DA
S315080045B0117943EA0523056825440B43C5F88C3170
S315080045C09378D17855781B0443EA01631178026819
S315080045D043EA052322440B43C2F88831006800F5F4
S315080045E0C070015941F0010101510020F0BD416A36
S315080045F041F4001102E0416A41F480214162012040
S31508004600F0BD0246002092F82030012B18BF022B7D
S3150800461007D11268936803EA8163B3EB816F18BF09
S3150800462001207047F0B590F82040012C18BF022CE5
S3150800463072D10029046801D1E56800E0256915F002
S31508004640030F03D1416A41F4001168E00D0104F536
S31508004650D876775917F004079760066806F5D8766E
S3150800466003D17659760D166002E07459E408546051
S31508004670046804F5D876775907F00207D760046806
S3150800468004F5DA74665906F00F06082E2EBF0824BC
S31508004690645904F00F041461046804F5DA7677594E
S315080046A0C7F307249461046804F5DA7677593F0C52
S315080046B0576102682A44D2F8B8411C7006682E442D
S315080046C0D6F8B821120A5A7004682C44D4F8B821CE
S315080046D0120C9A7004682C44D4F8B821120EDA70B9
S315080046E000F01EF81A7100F01BF8120A5A7100F051
S315080046F017F8120C9A7100F013F8120EDA710068A6
S3150800470021B9C16841F02001C16003E0016941F0A7
S31508004710200101610020F0BD416A41F480216DE766
S3150800472004682C44D4F8BC2170470000F8B5044648
S3150800473084B0E0680E46012581046BD4E2683F48E0
S3150800474071680240F0680A4331690243B0690A4356
S315080047500243E2602169B06821F4405101432161B6
S3150800476068466269716922F440720A436261FFF71A
S315080047706DFD2A498C4208D0294884421CBF294924
S315080047808C4210D02848844201D103980CE027486F
S3150800479084421CBF26498C4205D0264884421CBF49
S315080047A025498C4236D1029800281CBF3268002A57
S315080047B030D0B66900251921B6F5004FA1FB0001D6
S315080047C06FF0630712D1D30F520001F097FF00F084
S315080047D037F8FF0032376420B7FBF0F0420002F4E6
S315080047E0F87202EB011200F0070010E0930F920036
S315080047F001F084FF00F024F83F0132376420B7FB4C
S31508004800F0F000F0F00202EB011200F00F00801841
S3150800481080B2A060284605B0F0BD00000010014037
S31508004820004400400048004000140140004C00408D
S315080048300050004000780040007C0040F369FFFF0C
S315080048406421B0FBF1F107FB01077047F0B599B099
S3150800485064216846FDF78AF8DFF88C4300200821B2
S31508004860607021706920E0705B21217145206071BC
S315080048704FF40000DFF87413A160206104F5AC71F1
S31508004880616104F1B8002722A0614FF4C061A270EB
S31508004890E161E46004F1080001F0B4FF04F5FC7777
S315080048A004F50671384602F0CFFC384602F0E5FCFE
S315080048B0384602F03FFD03284FF480454FF4006662
S315080048C005D008D3052804D038BF002503E0002604
S315080048D001E000260025694604F1080002F04BFABB
S315080048E006960595694604F1080002F0B1FA04F146
S315080048F0080002F0A0F819B0F0BDBB49BC4800E0BA
S31508004900B9490A7802704B7843708A788270CB78F6
S31508004910C3700A7902714979417170472DE9FC47DC
S31508004920002600966946B34802F02EF9A8BB0098FF
S3150800493098B3DFF8C482DFF8C492D8F80070DFF8BD
S31508004940C0A20446A588002D1CBFE08800280DD00B
S31508004950A8420BD340F2F151884207DA2A4604F1FD
S3150800496020010AEB0600FEF72FF8AE190020C2B2A6
S315080049704FF4C4614A4309EB0201A14204D0401C2A
S31508004980C2B2082AF3DB03E0012101FA00F08743EB
S315080049902468002CD6D1C8F800703046BDE8F687E2
S315080049A02DE9F84191B003A83821FCF7DFFF6C46E2
S315080049B000250026002784E8E00092490A680020BE
S315080049C022FA00F3DB0705D5401C0128F8DD12B0F2
S315080049D0BDE8F081012404FA00F31A430A604FF493
S315080049E0C065DFF82482894EB8F8002084496843F8
S315080049F037183846FDF7E8FFB8F80010019100228D
S31508004A00049100970292212303934FF440020099E0
S31508004A100892002310910793CDF814D0FA2203A91F
S31508004A20744802F053F80020C1B269433144B942D0
S31508004A3004D0401CC1B20129F6DDC8E771490A68ED
S31508004A40844022EA04040C60C1E730B56A4B1C684E
S31508004A500021002224FA02F5ED0704D5521C082A83
S31508004A60F8DB016030BD012191400C431C604FF416
S31508004A70C464624B62431A4402F12001F1E730B57F
S31508004A80A2F1200400222260E280A3800268002AA4
S31508004A900EBF04600D682C600C6002E0C1885918CE
S31508004AA0C18000680028F9D130BD10B586B004462B
S31508004AB014216846FCF75AFF22684C498A4261D19C
S31508004AC0002005905248026842F0007202600168B0
S31508004AD001F0007100F05FF843F08063036001683D
S31508004AE001F0806100F057F843F000630360016845
S31508004AF001F0006100F04FF843F004030360016819
S31508004B0001F0040100F047F843F00103036001686F
S31508004B1001F0010100F03FF843F002030360016869
S31508004B2001F0020105910021059A05910221036809
S31508004B3043F040030360006800F04000059032200F
S31508004B40059A00F02FF800F01FF83248FEF75EFAD3
S31508004B5000F027F8862000F017F82F48FEF756FAD7
S31508004B6000F01FF84FF4005000F00EF82B48FEF73F
S31508004B704DFA00F016F84FF4205000F005F82848D2
S31508004B80FEF744FA06B010BD0321009003910B22EC
S31508004B9004926946704705910021059A05910368B4
S31508004BA070470221019100220292704780B5114890
S31508004BB002F05AF9002002BD0020704713460A4643
S31508004BC010B501460B4802F090F806E013460A466F
S31508004BD010B50146074802F0A5F8002408B14FF0C1
S31508004BE0FF34204610BD0000DC0000200080024093
S31508004BF048560020E400002058560020E003002014
S31508004C00E04000205C560020AC550020E03400202F
S31508004C10303802400008024000000240000402400A
S31508004C2000180240FEF7ECB8B0B5C278DFF8FC39D8
S31508004C308A18DA71847804EB11249C71E7B24578F6
S31508004C405D71B7EB112F0078187105DA6D1C5D716F
S31508004C50EDB20DB9401C1871D2B201F0FF018A42BB
S31508004C600BDA641C9C71E4B23CB95879401C587143
S31508004C70C0B210B91879401C1871B0BD10B50A44F5
S31508004C80521E09E00B784C7804EB0323181884B2FB
S31508004C909C4238BF401C891C9142F3D307D109783E
S31508004CA000EB012082B2B2EB012F38BF401C80B264
S31508004CB010BD80B51422DFF878190020FFF7DEFF53
S31508004CC001000EBF4FF6FF70000A40EA012080B2CD
S31508004CD002BD38B5DFF85C49207C637C03EB002312
S31508004CE0A3F11405A81D082204F11A0180B2FFF7E2
S31508004CF0C5FFAAB204F12201FFF7C0FF01000EBFEB
S31508004D004FF6FF70000A40EA012080B232BDDFF894
S31508004D101C09DFF8242900238382002151764FF4E9
S31508004D208063DFF818290383918001234372704753
S31508004D30F0B5DFF8F828148BDFF800299388641C8F
S31508004D40A5B2B5F5FA4FA8BF4FF4805425042D0E29
S31508004D5045EA0425AFB2BB42F1D0DFF8D068348308
S31508004D602BB973729580D18028B9106007E00120AD
S31508004D7070720020F0BD0188118040885080402163
S31508004D8011721046F0BDDFF8A428918A19B99082ED
S31508004D9000205072704701215172704738B5DFF80C
S31508004DA08C48656A014605F10800FFF73DFF207942
S31508004DB02872606A61794172606AA1798172606A53
S31508004DC0E179C17231BD00002DE9F843DFF85C488E
S31508004DD0DFF86058676A042805F1220600F08D801E
S31508004DE005F1360205F136010328E261216208D190
S31508004DF0787E00F00F00032804BF388A002823D1E4
S31508004E0064E0022865D1E078401CE070C0B260B961
S31508004E10A078401CA070C0B238B96078401C607099
S31508004E20C0B210B92078401C207000212161787E1C
S31508004E30072818BF05280CD1B87E401CC1B27829AE
S31508004E4004BF00227A76B876002020822072BDE858
S31508004E50F1830028F8D0398A002933D0B97E4A1E52
S31508004E600029BA76F0D1F97E082904D0022814BFA1
S31508004E700128052907D10020787680212172FEF7BE
S31508004E8006FE14204CE30429CEBF302203228A40B2
S31508004E9000F00F00401E491C0728BA76F976D3D8C9
S31508004EA0DFE810F02C0209000B00F1020800F102FD
S31508004EB00800F102C8E7002021E204212172FEF76A
S31508004EC0E6FDF7E200F00F000328BDD108202072A6
S31508004ED0C5E2052838D1A16A88880028B4D00021FF
S31508004EE0616205F12A0005F12A01E06121620820C4
S31508004EF000212161207200F088FC608A0028A3D076
S31508004F0000F11C010A042182120E69742A74083001
S31508004F10A16A0A7AAA7511230204120E42EA00222D
S31508004F20B2800020EB75F0808A883280C88870804D
S31508004F30A2896A83E089A8830A88EA83488828843C
S31508004F4005F13601E16144E3A87B4528BDD1287CFB
S31508004F50697C228A01EB00208242ABDB2082287D15
S31508004F6010F03F0F04BF687D002849D1B4F80C80C3
S31508004F70B4F80E90B8F1000F08BFB9F1000F05D0CC
S31508004F80E88B404504BF298C494539D1FFF791FE86
S31508004F904FF6FF77B84233D1E87D062807D1FFF7E9
S31508004FA098FEB8422CD1DFF890160F4654E0112827
S31508004FB033D1208ADFF88426A262A0F11C0121825F
S31508004FC0A36A9888B0B17188814213D1D88800281D
S31508004FD01EBF31888142B0F58A4F0BD11888002848
S31508004FE033D1598869B1698B814202BFA88B598828
S31508004FF0884206D002F1400140338B42A362DFD3D8
S3150800500022E702202072002205F12A0105F12A0072
S315080050106262E161206262826DE7012804BF30782E
S315080050200828EDD1708800224FF6F7713270884251
S31508005030ACBF093008307080A98B688BE883298457
S31508005040A5F81A80A5F81C90D5E2B842CBD15988A4
S31508005050B942C8D1D5E7AC37B942C0F0A780787E47
S315080050600028F8D07088BA88904202BF3088FA883B
S315080050709042F0D1688B3A88904202BFA88B7A8812
S315080050809042E8D1002067622072717B480700F1E0
S315080050904781307B228A00094FEA8008A2EB080282
S315080050A0A2F1140084F8098020827A7E02F00F02A9
S315080050B0022A04BF01F03F02122A16D080B2002845
S315080050C008BF11F0030F10D030793A7A904202BF28
S315080050D070797A7A904206D1B079BA7A904202BF4C
S315080050E0F079FA7A904240F01A82C8063CD5398A95
S315080050F0002939D007F10C00FFF796FD2079327A9E
S31508005100824202BF717A627991422DD1B17AA2792F
S31508005110914202BFF17AE279914225D138736079DA
S315080051207873A179F87EB973E279FA73B0B997F909
S31508005130183097F91A10BA7D5B1AA3EBD2035BB243
S315080051409A18BA75180048BF4042F97D4018A0EB76
S315080051509100F875D2B200EBD200387601202072A1
S315080051600020397EB9763882787E00F00F01491E14
S31508005170072909D8DFE811F00900DB002C01BB017B
S3150800518004021402D301B3015EE6207AC107FBD5F7
S31508005190032078764021217200203882208A002850
S315080051A003D042212172FFF7F9FD56E1707B00F02A
S315080051B03F0002280CD17088A28A904206D1487E08
S315080051C00027002200283DD10F463FE001206072EB
S315080051D0707B4107D8D4142070732821218250206F
S315080051E03073F779F07AB1797279337996F808C01D
S315080051F0F071F7727F1CB07AB071F772FFB2707AED
S315080052007071B1721846727286F804C03072002F37
S3150800521001BF491CB172C9B2002905D1521C72726C
S31508005220D2B20AB95B1C337260727188308870809A
S315080052303180688BA98BE8832984A0896883E189F2
S31508005240A983B9E1072808BF0F460122002F627219
S315080052509AD067620320B876387604210020F9755B
S31508005260B875F8767188B9803088F880698B398086
S315080052700121A88B788079762078387361787973DC
S31508005280A078B8730120E178F9733882F179F97258
S31508005290B079B87271797972307938720120FFF76E
S315080052A07DFD337B03F0F000512827DB002200E068
S315080052B0521C1909D0B2491FB0EB810F1DDA2844D8
S315080052C000F1360C9CF80000B8B10128F0D09CF823
S315080052D00110022808BF042904D0002918BF8A181B
S315080052E0E7D10AE09CF802009CF8031000F085F963
S315080052F0A8BF40F2BA517982B982627210207073DF
S315080053000221707B317540F002007073052104207C
S315080053107075B175BA20F0752C212182602003E1E1
S315080053200021797620202072FEF7B1FB8CE5207AE1
S31508005330C10745D5707B00F03F00122840D1317B6C
S3150800534001F0F000512826DB4FF0000801E008F1D3
S3150800535001080A095FFA88F0521FB0EB820F1ADAC1
S31508005360284400F136021078A8B10128EFD00228A7
S3150800537004BF5078042805D05078002818BF804408
S31508005380E7D108E09078D17800F037F9A8BF40F265
S31508005390BA517982B98284F80980032078763179FE
S315080053A0397270797872B179B972F079F872012028
S315080053B0FFF7F4FC422020720021398221614EE079
S315080053C020202072FEF763FB616A00204876FFE61C
S315080053D0727B218AD30719D5C00617D4388A0028C4
S315080053E0A4D1491C88B2FFF7D9FC217A208A41F05A
S315080053F0100108B141F002012172FEF748FB0120B5
S315080054003882082100207976F8763CE090060AD59D
S31508005410F07CB27CE36940EA022E734440EA02203B
S31508005420E361091A2182208A40B1797ECA0605D429
S31508005430217A41F002012172FFF7B0FCB07BF17BC3
S3150800544001EB0020B98A814200DB00B90846788260
S31508005450207A10F0030F3FF4F7AC00206082FEF7C5
S3150800546016FB217A880604D50021618279761421F3
S315080054700AE0C8060AD50021618201203882042183
S3150800548000207976F876112171734AE0608A78B13E
S31508005490C80702D50021398201E0388A38B9788AE6
S315080054A0628A904288BF10466082388200E0608235
S315080054B00020F876216A608AE16100281CBF388AD4
S315080054C0002804D028302082182070732BE0207A18
S315080054D0810754D5282020821021717323E0207A71
S315080054E0C1074CD500207876102121721CE7208A46
S315080054F008B1FFF753FC717B207ACA0739D5C00774
