S01A000064656D6F70726F675F73746D3332663432392E7372656390
S3150800C00000000320C1CE00088DCE00088FCE0008A0
S3150800C01091CE000893CE000895CE000800000000D7
S3150800C02000000000000000000000000097CE000895
S3150800C03099CE0008000000009BCE00089DCE00089F
S3150800C04011CF000811CF000811CF000811CF000842
S3150800C05011CF000811CF000811CF000811CF000832
S3150800C06011CF000811CF000811CF000811CF000822
S3150800C07011CF000811CF000811CF000811CF000812
S3150800C08011CF000811CF000811CF000811CF000802
S3150800C09011CF000811CF000811CF000811CF0008F2
S3150800C0A011CF000811CF000811CF000811CF0008E2
S3150800C0B011CF000811CF000811CF000811CF0008D2
S3150800C0C011CF000811CF000811CF000811CF0008C2
S3150800C0D011CF000811CF000811CF000811CF0008B2
S3150800C0E011CF000811CF000811CF000811CF0008A2
S3150800C0F011CF000811CF000811CF000811CF000892
S3150800C10011CF000811CF000811CF000811CF000881
S3150800C11011CF000811CF000811CF000811CF000871
S3150800C12011CF000811CF000811CF000811CF000861
S3150800C13011CF000811CF000811CF000811CF000851
S3150800C14011CF000811CF000811CF000811CF000841
S3150800C15011CF000811CF000811CF000811CF000831
S3150800C16011CF000811CF000811CF000811CF000821
S3150800C17011CF000811CF000811CF000800000000F9
S3150800C18011CF000811CF000811CF000811CF000801
S3150800C19011CF000811CF000811CF000811CF0008F1
S3150800C1A011CF000811CF000811CF0008EE11AA55CB
S3150800C1B010B5054C237833B9044B13B10448AFF3D3
S3150800C1C000800123237010BD6000002000000000DD
S3150800C1D08409010808B5034B1BB103490348AFF3AB
S3150800C1E0008008BD000000006400002084090108E2
S3150800C1F053B94AB9002908BF00281CBF4FF0FF31C0
S3150800C2004FF0FF3000F088B9ADF1080C6DE904CEA7
S3150800C21000F006F8DDF804E0DDE9022304B0704713
S3150800C2202DE9F047089D8E4604468846002B4AD1DC
S3150800C2308A42174662D9B2FA82F64EB1C6F120038F
S3150800C24001FA06F820FA03F3B74043EA0808B440AF
S3150800C2504FEA174E1FFA87FCB8FBFEF1230C0EFBBC
S3150800C260118843EA084301FB0CF29A4209D9FB18E4
S3150800C27001F1FF3080F0EA809A4240F2E780023905
S3150800C2803B449A1AA3B2B2FBFEF00EFB102243EA15
S3150800C290024300FB0CFC9C4509D9FB1800F1FF3250
S3150800C2A080F0D6809C4540F2D3803B44023840EA71
S3150800C2B00140A3EB0C0300211DB1F3400022C5E9A0
S3150800C2C00032BDE8F0878B4205D90DB1C5E90001FA
S3150800C2D000210846F5E7B3FA83F1002946D17345EC
S3150800C2E002D3824200F20581841A6EEB0302012012
S3150800C2F09046002DE5D0C5E90048E2E7002A00F09F
S3150800C3009080B2FA82F6002E40F0A4808A1A030CB6
S3150800C3104FEA174E80B2BCB20121B2FBFEFC0EFBFF
S3150800C3201C2243EA024304FB0CF29A4207D9FB1883
S3150800C3300CF1FF3802D29A4200F2E080C4469B1AFA
S3150800C340B3FBFEF20EFB123340EA034302FB04F48E
S3150800C3509C4207D9FB1802F1FF3002D29C4200F238
S3150800C360CA8002461B1B42EA0C40A5E7C1F120061B
S3150800C3708B4022FA06F71F430EFA01F420FA06F359
S3150800C3802EFA06FE4FEA1749234300FA01F81FFA68
S3150800C39087FCBEFBF9F01C0C09FB10EE44EA0E44C0
S3150800C3A000FB0CFEA64502FA01F209D93C1900F178
S3150800C3B0FF3A80F09C80A64540F2998002383C44BA
S3150800C3C0A4EB0E041FFA83FEB4FBF9F309FB13442E
S3150800C3D04EEA044403FB0CFCA44508D93C1903F1B6
S3150800C3E0FF3E80F08280A4457FD9023B3C4443EA65
S3150800C3F00040A4EB0C04A0FB02EC64457346E1463E
S3150800C40062D35FD05DB1B8EB030264EB090404FAAA
S3150800C41006F622FA01F31E43CC40C5E90064002162
S3150800C4204FE7B1FBF2FC010C41EA0E4180B240EA4B
S3150800C43001423B4638463C46B846BE462026B1FB36
S3150800C440F7F1A2EB080241EA0C4166E7014618E754
S3150800C45010462CE7C6F120022EFA02F3B740B14087
S3150800C46020FA02F24FEA174E0A43B3FBFEF8BCB2B3
S3150800C4700EFB1833110C41EA034108FB04F9B040DE
S3150800C48089454FEA104380B23ED9791808F1FF3C36
S3150800C49001D289451FD8A1EB0901B1FBFEF909FBB9
S3150800C4A004F80EFB191192B242EA0142424529D21A
S3150800C4B0BA1809F1FF31C4D24245C2D2A9F1020124
S3150800C4C03A44BEE7F0459DD2BEEB02036CEB070C7F
S3150800C4D00138E14696E7A7EB09094944A8F1020C99
S3150800C4E0B1FBFEF909FB04F8DBE773467FE7504624
S3150800C4F066E70846FDE63B44023A33E7ACF1020C30
S3150800C5003B441CE749469CE7A1EB0901C446B1FB3D
S3150800C510FEF909FB04F8C4E7704700BF08B500F048
S3150800C520D7FA00F04BF900F0A7FA00F077F900F017
S3150800C530C9F80021084600F0B7FA08BD08B500F0AA
S3150800C54047F900F0CBF900F033F908BDBFF34F8F78
S3150800C5500549CA6802F4E062044B1343CB60BFF393
S3150800C5604F8F00BFFDE700BF00ED00E00400FA05AD
S3150800C57008B50848084B03604FF46143436000233D
S3150800C5808360C360036183610C224261C36102F068
S3150800C59086FA08BD34010020004800402DE9F04124
S3150800C5A004460D461746984602F060F9164BA3FB5B
S3150800C5B000318909002301E00133DBB2112B1FD8B2
S3150800C5C0124A12F8130002EB4302527800EB020CEF
S3150800C5D00CFB044CB1FBFCFE0CFB1E16002EEBD12B
S3150800C5E01FFA8EFCA5F800C00CF1FF3C1FFA8CFC64
S3150800C5F0BCF5806FE0D2387088F80020012000E092
S3150800C6000020BDE8F08100BFD34D62109C090108E7
S3150800C61070B58CB00025ADF82E508DF82D508DF8DC
S3150800C6202C500BAB0DF12D020DF12E014FF4FA70C3
S3150800C630FFF7B4FF1A4C1B4B236025766576A57663
S3150800C6400126E67625776577A560E5609DF82D30A5
S3150800C650013B1B0423619DF82C30013B1B056361DC
S3150800C660BDF82E306360204600F0BAFC06950795A3
S3150800C67008964CF6E043019302954FF6E073039350
S3150800C68004230493059509960E230A9301A92046C7
S3150800C69000F04CFD204600F0E5FD0CB070BD00BF73
S3150800C6A00C0100200064004008B501460023012261
S3150800C6B0034802F024FA08B1002008BD0120FCE76F
S3150800C6C03401002008B5FFF753FFFFF7A1FF08BDA7
S3150800C6D008B5FFF73BFF000008B5214B1B78B3B937
S3150800C6E02048FFF7E1FF012800D008BD1D4B1B7845
S3150800C6F0013BDBB2802BF8D800F0EBF91A4B186037
S3150800C700174B01221A70194B00221A70EDE7174BC6
S3150800C7101B78013313481844FFF7C6FF012813D1C5
S3150800C720124A13780133DBB213700E4A1278934219
S3150800C730DBD10B4A002111700A4A5278FF2AD4D15C
S3150800C740022BD2D1FFF7C4FF00F0C3F9064B1B68D2
S3150800C75064339842C9D9024B00221A70C5E700BF54
S3150800C7600801002084000020800000207C000020B2
S3150800C77000B58BB001AB03AA00210C4800F0A0FD60
S3150800C78020B9039A40F267639A4202D00BB05DF86B
S3150800C79004FB059B002BF9D19DF80430FF2BF5D13E
S3150800C7A0079B022BF2D1FFF793FF00BF0C01002075
S3150800C7B008B5FFF791FFFFF7DBFF08BD08B50022B4
S3150800C7C08021024801F02CFD08BD00BF000402408C
S3150800C7D010B500F07EF90E4B1B68C31AB3F5FA7F45
S3150800C7E00CD304460B4B1B784BB90122094B1A7024
S3150800C7F08021094801F014FD054B1C6010BD00227C
S3150800C800044B1A708021044801F00AFDF4E700BFC2
S3150800C810800100207C0100200004024010B582B08F
S3150800C82002F05EFB00F055F900F5FA70154B18603A
S3150800C83000F04FF900F51C501030134B186002F049
S3150800C84065FF0023ADF80430ADF806300F4A1380B3
S3150800C85053800F4A138053800E4A138053804EF636
S3150800C860030002F093FF02F09DFB0B4C204602F0FA
S3150800C870ADFB0621204602F05FFD02F07BFD02B00B
S3150800C88010BD00BF900100208C010020B047002099
S3150800C890A8470020AC4700208401002008B50C4BAF
S3150800C8A01B7813F0400F09D113F0020F06D0094B7D
S3150800C8B01B68094A12881B79FF2B00D008BD062A77
S3150800C8C0FCD10121002000F0EFF8FFF701FFF5E7A2
S3150800C8D09C410020A8410020A041002010B502F08C
S3150800C8E085FB68B900F0F5F83A4B1B68984259D3AE
S3150800C8F003F5FA73374A1360002474B300244FE033
S3150800C900354A1080354B9C894FF4006002F056FF7B
S3150800C910844213D0314B9C8940F6060002F04EFF44
S3150800C9208442DFD103F0B4FE2B4B1B88002BD9D0F1
S3150800C93002F08EFB284B00221A80D3E7012002F072
S3150800C94077FF254B1B88002BCCD003F011FF02F094
S3150800C9507FFB214B00221A80C4E7C4EB0412204B4C
S3150800C96003EB42031F4A1360022002F061FF1A4BD1
S3150800C9701B880BB90134C0E703F0FAFE02F068FB26
S3150800C980154B00221A80F5E7174B03EB8413174A59
S3150800C9901360052002F04CFF0F4B1B884BB901347E
S3150800C9A0002CF1D000F095F8114B1B68984208D27C
S3150800C9B010BD03F0DDFE02F04BFB074B00221A8088
S3150800C9C0EDE703F51C531033094A136003F030FEF4
S3150800C9D0EEE700BF90010020A0410020AC410020F6
S3150800C9E07841002098410020304100207041002005
S3150800C9F08C0100200C4B1B68C3F3072252FA83F202
S3150800CA00C3F3074010441B0E13FA80F080B20023CC
S3150800CA1005E0054A1A441279104480B20133372BCF
S3150800CA20F7D9404280B270470000002008B5FFF7EA
S3150800CA30E1FF044B9B8F984201D0002008BD0120DE
S3150800CA40FCE700BF0000002008B5054B1A68054B37
S3150800CA509A4201D0002008BDFFF7E8FFFBE700BFB8
S3150800CA6000000020A2E742CE08B5FFF7C3FF014B3E
S3150800CA70988708BD0000002008B5FFF7E5FF68B9EC
S3150800CA80074B084A1A60002304E0054A1A440021A5
S3150800CA9011710133372BF8D9FFF7E6FF08BD00BF40
S3150800CAA000000020A2E742CE70B504460D46FFF707
S3150800CAB0CBFF064610B1372C02D90026304670BD8A
S3150800CAC0024B23441D71FFF7CFFFF7E70000002054
S3150800CAD0704708B500F06AFA08BD0000014A024B23
S3150800CAE09A60704700C0000800ED00E030B58DB0D0
S3150800CAF000240794089409940A940B940194274BEC
S3150800CB001A6B42F080021A631A6B02F080020192D5
S3150800CB10019A02941A6B42F004021A631A6B02F025
S3150800CB2004020292029A03941A6B42F001021A63F3
S3150800CB301A6B02F001020392039A04941A6B42F0EC
S3150800CB4002021A631A6B02F002020492049A05940E
S3150800CB501A6B42F008021A631A6B02F00802059271
S3150800CB60059A06941A6B42F040021A631B6B03F08F
S3150800CB7040030693069B0A4D22468021284601F06B
S3150800CB804FFB802307930123089309940A9407A966
S3150800CB90284601F041FA0DB030BD00BF003802400A
S3150800CBA00004024030B595B03022002108A803F0F1
S3150800CBB0AEFE002403940494059406940794019405
S3150800CBC01C4B1A6C42F080521A641B6C03F080539B
S3150800CBD00193019B0294184B1A6842F440421A606A
S3150800CBE01B6803F440430293029B012308934FF406
S3150800CBF0A023099302250E954FF480030F9308236B
S3150800CC0010934FF4A873119312950423139308A84D
S3150800CC1001F00CFB0F230393049505944FF4A053DE
S3150800CC2006934FF480530793052103A801F068FD86
S3150800CC3015B030BD003802400070004008B5FFF757
S3150800CC404DFF00F08DF9FFF7ADFFFFF74FFFFFF738
S3150800CC5065FCFFF773FCFCE782B0002100910B4BE3
S3150800CC605A6C42F480425A645A6C02F4804200922A
S3150800CC70009A01911A6C42F080521A641B6C03F0F8
S3150800CC8080530193019B02B0704700BF00380240F1
S3150800CC9000B589B00023039304930593069307937D
S3150800CCA00268154B9A4202D009B05DF804FB0021D0
S3150800CCB0019103F5EA331A6C42F000721A641A6C91
S3150800CCC002F000720192019A02911A6B42F0020276
S3150800CCD01A631B6B03F002030293029B4FF4407323
S3150800CCE0039302230493032306930923079303A9B3
S3150800CCF0024801F091F9D7E70064004000040240B9
S3150800CD00F0B58DB000230793089309930A930B9304
S3150800CD1002683D4B9A4201D00DB0F0BD0024009444
S3150800CD20A3F590431A6B42F000721A631A6B02F06D
S3150800CD3000720092009A01941A6B42F080621A639C
S3150800CD401A6B02F080620192019A02941A6B42F001
S3150800CD5000621A631A6B02F000620292029A039446
S3150800CD601A6B42F004021A631A6B02F00402039269
S3150800CD70039A04941A6B42F001021A631A6B02F0C2
S3150800CD8001020492049A05941A6B42F002021A638D
S3150800CD901A6B02F002020592059A06941A6B42F083
S3150800CDA040021A631B6B03F040030693069B32236B
S3150800CDB007930227089703260A960B250B9507A9BA
S3150800CDC0124801F029F986230793089709940A96C9
S3150800CDD00B9507A90E4801F01FF94FF40053079366
S3150800CDE0089709940A960B9507A90A4801F014F9B9
S3150800CDF04FF420530793089709940A960B9507A9A9
S3150800CE00054801F009F987E700800240000802405A
S3150800CE1000000240000402400018024000B589B034
S3150800CE200023039304930593069307930268154B0F
S3150800CE309A4202D009B05DF804FB0021019103F57E
S3150800CE40F8331A6C42F480221A641A6C02F48022AF
S3150800CE500192019A02911A6B42F008021A631B6B3F
S3150800CE6003F008030293029B4FF4407303930223D3
S3150800CE700493032306930723079303A9024801F0A3
S3150800CE80CBF8D7E700480040000C02407047FEE7A1
S3150800CE90FEE7FEE7FEE770477047704708B500F003
S3150800CEA079F808BD054BD3F8882042F47002C3F818
S3150800CEB088204FF000629A60704700BF00ED00E0DE
S3150800CEC0DFF834D0002103E00C4B5B5843500431A3
S3150800CED00B480C4B42189A42F6D30B4A02E0002341
S3150800CEE042F8043B094B9A42F9D3FFF7DBFF03F0FC
S3150800CEF017FDFFF7A3FE704700000320040A010888
S3150800CF004000002060000020600000201C4800202F
S3150800CF10FEE7000010B504460E4B1A784FF47A73F4
S3150800CF20B3FBF2F30C4A1068B0FBF3F000F0D4FA46
S3150800CF3068B90F2C01D901200AE0002221464FF0DA
S3150800CF40FF3000F0B9FA054B1C60002000E0012014
S3150800CF5010BD00BF4400002040000020480000200B
S3150800CF6008B50B4B1A6842F400721A601A6842F444
S3150800CF7080621A601A6842F480721A60032000F010
S3150800CF8089FA0020FFF7C6FFFFF766FE002008BDF6
S3150800CF90003C0240034A1168034B1B780B4413609C
S3150800CFA0704700BF8403002044000020014B186826
S3150800CFB0704700BF8403002038B50446FFF7F6FF24
S3150800CFC00546B4F1FF3F02D0044B1B781C44FFF71B
S3150800CFD0EDFF401BA042FAD338BD00BF4400002035
S3150800CFE0002800F0A18038B5044690F82030D3B167
S3150800CFF02268136843F001031360FFF7D7FF05465D
S3150800D00023685A6812F0010F10D1FFF7CFFF401BB3
S3150800D0100A28F5D9636A43F400336362052384F862
S3150800D0202030012038BDFFF733FEE1E71A6822F009
S3150800D03002021A60FFF7BAFF054623685A6812F01B
S3150800D040020F0DD0FFF7B2FF401B0A28F5D9636A15
S3150800D05043F400336362052384F820300120E1E7B6
S3150800D060227E012A3DD01A6822F080021A60637E69
S3150800D070012B3BD02268136823F040031360A37E7C
S3150800D080012B39D02268136823F020031360E37E4E
S3150800D090012B37D02268136843F010031360237FEF
S3150800D0A0012B35D02268136823F008031360637FC9
S3150800D0B0012B33D02268136823F004031360A36896
S3150800D0C0E268134322691343626913436268013AAB
S3150800D0D021681343CB6100206062012384F8203065
S3150800D0E0A0E71A6842F080021A60C0E7226813684F
S3150800D0F043F040031360C2E72268136843F0200335
S3150800D1001360C4E72268136823F010031360C6E7A8
S3150800D1102268136843F008031360C8E72268136897
S3150800D12043F004031360CAE70120704790F82030E3
S3150800D130013BDBB2012B05D9436A43F480234362E2
S3150800D1400120704730B5464BD3F8002242F0010261
S3150800D150C3F80022D3F8002222F47C52C3F8002236
S3150800D160D3F80022486A42EA0022C3F800224A6934
S3150800D17002F01F02012000FA02F2D3F81C026FEA3D
S3150800D180020C20EA0200C3F81C02CB69C3B9344B6F
S3150800D190D3F80C020CEA0000C3F80C028C88486924
S3150800D1A0CD6844EA0544483043F830408C6808881E
S3150800D1B040EA04404C6904F1480E03EBCE0358607C
S3150800D1C0CB69012B1ED08B69002B33D12448D0F8AC
S3150800D1D004320CEA0303C0F804320B698BBB2048FF
S3150800D1E0D0F814320CEA0303C0F814320B6A012B88
S3150800D1F02ED01B4AD2F8003223F00103C2F80032BF
S3150800D200002030BD164BD3F80C021043C3F80C02AD
S3150800D2108C8848690D6844EA0544483043F830402C
S3150800D22088894C698D6840EA0540483403EBC40395
S3150800D2305860C8E70A48D0F804321343C0F80432E5
S3150800D240CBE70748D0F814321343C0F81432CDE7B9
S3150800D2500349D1F81C321343C1F81C32C9E700BF91
S3150800D2600064004070B5044690F82050EDB2012DD8
S3150800D27006D0436A43F4002343620125284670BD5D
S3150800D280022380F820300268136823F00103136034
S3150800D290FFF78CFE064623685B6813F0010F0CD077
S3150800D2A0FFF784FE831B0A2BF5D9636A43F4003320
S3150800D2B06362052384F82030E0E700256562DDE730
S3150800D2C090F820C00CF1FF3C5FFA8CFCBCF1010F12
S3150800D2D000F2A58030B451B90468E46814F0030F6D
S3150800D2E010D1436A43F40013436201207EE00468C8
S3150800D2F0246914F0030F05D1436A43F4001343620B
S3150800D300012073E0056801F11B0424012C5904F07F
S3150800D31004049460002C6BD1056801F11B042401F8
S3150800D3202C59640D1460046801F11B0C4FEA0C1C9F
S3150800D33054F80C4004F00204D4600468A444DCF8F1
S3150800D340045015F0080F5BD008241461046801F135
S3150800D3501B0C04EB0C146468C4F30724946104687A
S3150800D36004EB0C146468240C5461026802EB011285
S3150800D370D2F8B8211A70026802EB0112D2F8B82165
S3150800D380C2F307225A70026802EB0112D2F8B821DA
S3150800D390C2F307429A70026802EB0112D2F8B8216A
S3150800D3A0120EDA70026802EB0112D2F8BC211A7169
S3150800D3B0026802EB0112D2F8BC21C2F307225A71A5
S3150800D3C0026802EB0112D2F8BC21C2F307429A7135
S3150800D3D0026802EB0112D2F8BC21120EDA71C1B949
S3150800D3E00268D36843F02003D360002030BC70473E
S3150800D3F0056801F11B0424012C59E408546092E7DE
S3150800D40001F11B0504EB0514646804F00F041461AC
S3150800D4109CE70268136943F020031361E5E7436A52
S3150800D42043F480234362012070470000002808DB8C
S3150800D4300901C9B200F1604000F5614080F80013A7
S3150800D440704700F00F000901C9B2014B1954704723
S3150800D45014ED00E000B500F00700C0F1070CBCF1C0
S3150800D460040F28BF4FF0040C031D062B0FD9C31E4B
S3150800D4704FF0FF3E0EFA0CF021EA000199400EFA31
S3150800D48003FE22EA0E0241EA02005DF804FB0023CD
S3150800D490EEE70000074AD36823F4E0631B041B0C7D
S3150800D4A0000200F4E060034343F0BF6343F4003333
S3150800D4B0D360704700ED00E010B50446054BD86808
S3150800D4C0C0F30220FFF7C6FF01462046FFF7AEFF6E
S3150800D4D010BD00BF00ED00E00138B0F1807F0BD22F
S3150800D4E04FF0E0235861054AF02182F82310002006
S3150800D4F0986107221A6170470120704700ED00E025
S3150800D5002DE9F04182B0054600230193D0F86880E2
S3150800D51008F1120350F82340C66E012714E001A84B
S3150800D52001F0CAFD019B13B12362A36011E0002735
S3150800D5300FE06B6943F48043636015E003F1120260
S3150800D54055F82240013E9846CEB1C7B1236A002B52
S3150800D550E5D0002FF8D0AB6D002BEAD16B6943F00C
S3150800D560004343F480436360236843F00043236029
S3150800D57008F10103032BE1D9A8F10303DEE7EB6EFB
S3150800D580B34211D008F1030303F00303BFF35F8F1F
S3150800D5902A6903EB830302EBC3022B6803F5805366
S3150800D5A09A60C5F86880EE6602B0BDE8F0810000B2
S3150800D5B05079137943EA002307480B50D0789378BB
S3150800D5C01B0443EA0063507843EA002312781343A6
S3150800D5D0024A8B50704700BF408002404480024098
S3150800D5E030B4002208E0C468DC6051F80C3043F41B
S3150800D5F0400341F80C300132032A1FD8C16802EBF8
S3150800D60082034FEAC30C01EBC303002441F80C4024
S3150800D6105C609C60DC60941D40F8243051F80C4036
S3150800D62044F4801441F80C40022ADCD8541C04EB5C
S3150800D6308404C56805EBC404DC60D6E7002383626E
S3150800D640C268036803F580531A6130BC704710B48A
S3150800D650002202E00169D9600132032A28D8046948
S3150800D66002EB82034FEAC30C04EBC303002144F820
S3150800D6700C1059609960D960196259624FF00041DF
S3150800D68044F80C10416941F480415960596821F009
S3150800D6900041596002F1120140F82130022AD9D816
S3150800D6A00469511C01EB810104EBC104DC60D3E77A
S3150800D6B00023C36503668366C366836502690368D8
S3150800D6C003F58053DA605DF8044B7047F0B5856A58
S3150800D6D000EB85039B698C681E68002EC0F2B38038
S3150800D6E02E1D00EB8606F669002E40F0AE802668F1
S3150800D6F09E605E686FF30C0667683E435E600E6860
S3150800D70016F0010F05D01E6826F440064F693E4301
S3150800D7101E600E6816F0200F05D01E6826F04066BB
S3150800D7200F693E431E60096811F0040F03D019689B
S3150800D73041F080011960196841F0805119602F463F
S3150800D74000264FF0010E27E0196821F08041196084
S3150800D7502EE000EB8C039B691968002930DB0CF17D
S3150800D760040100EB8101C96951BB196821F0805198
S3150800D77019600EF1010EA4682168996059686FF363
S3150800D7800C016768394359600136BFF35F8F196822
S3150800D79041F0004119606746A16851B3196821F044
S3150800D7A000511960002ACFD0196841F080411960EC
S3150800D7B007F1010CBCF1030FCBD9A7F1030CC8E79D
S3150800D7C000EB85039969002204E000EB830189696F
S3150800D7D001321D4672450AD2BFF35F8F0B6823F0EC
S3150800D7E000430B606B1C032BEFD9EB1EEDE7022001
S3150800D7F0F0BD1AB31A6842F080421A601A6842F0FD
S3150800D80000521A6000EB8505AA69BFF35F8F13689B
S3150800D81043F000431360C26B3B1D00EB8303DA61E0
S3150800D8208762EFF31082012383F31088036C334475
S3150800D8300133036482F310880020D9E71A6822F0BE
S3150800D84080421A60DAE70220D2E70220D0E7000019
S3150800D85070B505460C46026813683C491940A37B17
S3150800D8605B06207C002861D14FF400000343607CEE
S3150800D87000285DD14FF480000343A0680343E07F8E
S3150800D88043EA004360690343A07F002852D14FF45E
S3150800D89000500343207F43EA0033A06903432079FD
S3150800D8A043EA802394F82000002845D14FF40070FD
S3150800D8B00343E07B43EAC013606A034394F82800F5
S3150800D8C043EA00130B4313602B681E680120FFF719
S3150800D8D073FB2B681E6029688A6922F0BE0212044F
S3150800D8E0120CA36C1B0494F84C0038BB802003432D
S3150800D8F0206D034394F85500012821D000200343E6
S3150800D90094F8560001281DD00020034394F85400CB
S3150800D910012819D00020034313438B612B689C69A7
S3150800D9200120FFF749FB2B689C6170BD00209DE72D
S3150800D9300020A1E70020ACE70020B9E70020D6E7E1
S3150800D9400820DCE70420E0E70220E4E70F8120FD59
S3150800D95070B505460C46026802F580539B692B494B
S3150800D9601940237B002B4DD14FF08063607B43EA3F
S3150800D9704063607F002847D14FF480100343A07BA3
S3150800D98043EA405360690343207F43EAC013A07FFC
S3150800D99043EA8013206A034394F8240043EA800389
S3150800D9A00B4302F5805293612B6803F580539E69F9
S3150800D9B00120FFF701FB2B6803F580539E6122794E
S3150800D9C0A36843EA4263A26913432269134394F89E
S3150800D9D0252043EAC213A26A43EA82032268134354
S3150800D9E02A6843F4000302F5805213602B6803F596
S3150800D9F080531C680120FFF7DFFA2B6803F5805374
S3150800DA001C6070BD0023B1E70020B7E7233FDEF8AE
S3150800DA1070B5A4B0064601258DF83C508DF83D50EA
S3150800DA2000240D948DF84B408DF84A508DF84840E7
S3150800DA308DF83A508DF830508DF84C408DF83B40B3
S3150800DA4014948DF854401D948DF878401F948DF8E1
S3150800DA5082408DF880404FF4804310934FF4006362
S3150800DA6011938DF881400BA9FFF7F2FE8DF80C5043
S3150800DA708DF80D508DF81D508DF80E5005948DF8C3
S3150800DA801C408DF81E4008948DF824508DF80450DB
S3150800DA904FF4803302934FF4800306934FF40053F8
S3150800DAA004938DF825500A94009469463046FFF78A
S3150800DAB04FFF24B070BD10B582B004460023019311
S3150800DAC0036803F580539A6942F480129A610368E1
S3150800DAD003F580539B6901930120FFF76DFA2368CC
S3150800DAE0019A03F580539A6102B010BD00286CD0E4
S3150800DAF030B583B00446D0F88430002B34D00023E8
S3150800DB000193334B5A6C42F480425A645B6C03F4BB
S3150800DB1080430193019B2F4B5A6822F400025A60F6
S3150800DB205A68A1680A435A605B68236803F58053FC
S3150800DB301A6842F001021A60FFF738FA05462368A8
S3150800DB4003F580531B6813F0010F13D0FFF72EFA65
S3150800DB50401BB0F5FA7FF2D90423C4F88830E023D5
S3150800DB60C4F8843001202EE02023C0F88430FFF763
S3150800DB70C7F8C4E72046FFF74BFF2046FFF730FDFE
S3150800DB802046FFF764FD626800212046FFF710FD76
S3150800DB902268D36B43F40273D3632268D2F80C313C
S3150800DBA043F4003343F06003C2F80C312268D2F81C
S3150800DBB0103143F40313C2F810310020C4F888006A
S3150800DBC01023C4F8843003B030BD0120704700BF6D
S3150800DBD0003802400038014038B5D0F88430102BA0
S3150800DBE001D0012038BD04462023C0F88430042320
S3150800DBF0C366FFF785FC2268136843F008031360C1
S3150800DC0023681D680120FFF7D7F923681D6022687D
S3150800DC10136843F00403136023681D680120FFF7A7
S3150800DC20CBF923681D602046FFF745FF236803F5F7
S3150800DC3080539A6942F400529A61236803F5805327
S3150800DC409A6942F002029A614023C4F8843000209F
S3150800DC50C8E7F8B5044631B11546D4F88430402BE8
S3150800DC6009D00120F8BDD0F8883043F00103C0F888
S3150800DC7088300120F6E700222046FFF727FD002816
S3150800DC8035D1BFF34F8FA36A9A1D54F822605A1CE8
S3150800DC90A262032A01D9033BA362A26A2368063259
S3150800DCA054F8222003F580535A60FFF77FF9074698
S3150800DCB03368002B30DA236803F58052526912F470
S3150800DCC0005F1CD1B5F1FF3FF2D0FFF76FF9C01B1B
S3150800DCD0A84201D8002DEBD1D4F8883043F00403CC
S3150800DCE0C4F888304FF0405333600120BAE7D4F8BF
S3150800DCF0883043F00203C4F888300120B2E7D4F82C
S3150800DD00882042F00802C4F8882003F580535B692E
S3150800DD10C4F88C300120A5E70020A3E72DE9F84FC9
S3150800DD20044681B18A46D0F88430402B6CD1C76D41
S3150800DD3007F1120350F82350C36EC3F104094FF0DC
S3150800DD400008464634E0D0F8883043F00103C0F8AE
S3150800DD508830012059E02B6813F4007F02D0002395
S3150800DD60236663662B68C3F30D4B2B6813F4807F19
S3150800DD7003D02B6823674FF00108AA682A625B461E
S3150800DD8004F1800104F17C0001F09CF9236E013353
S3150800DD902366636E5B44636600232B627B1C032B3E
S3150800DDA000D9FB1E03F1120254F8225001361F4611
S3150800DDB02B68002B14DB4E4512D2B8F1000F0FD199
S3150800DDC02B6813F4807F03D0EB69A367AB6963679D
S3150800DDD02B6813F4007FBED1E36F002BBBD1DDE7C0
S3150800DDE0E36E3344E3662BB9E765B8F1000F05D156
S3150800DDF001200AE02046FFF783FBF5E7E36FCAF840
S3150800DE0000300020E06700E00120BDE8F88FF8B593
S3150800DE1005461E460068036903F01C03C90289B259
S3150800DE201943940104F4F8640C4344F001040461B2
S3150800DE30FFF7BCF8074601E02B681C6914F0010FD0
S3150800DE4007D0FFF7B3F8C01BB0F5803FF4D3012025
S3150800DE5004E02B685B699BB233600020F8BD70B59F
S3150800DE6005460668306900F01C00C90289B20143FC
S3150800DE70940104F4F8640C4344F003049BB2736100
S3150800DE802B681C61FFF792F8064601E02B681C69AF
S3150800DE9014F0010F07D0FFF789F8801BB0F5803F13
S3150800DEA0F4D3012000E0002070BD002979D0026873
S3150800DEB01268C2F3001281F828200268126802F07C
S3150800DEC060024A620268126812F4007F0CBF0122DF
S3150800DED0002281F8202002681268C2F30042CA773D
S3150800DEE00268126812F4005F0CBF012200228A77CA
S3150800DEF002681268C2F300320A770268126802F4EE
S3150800DF0000628A610268126802F480424A61026805
S3150800DF10126812F4800F0CBF012200224A740268AC
S3150800DF20126812F4000F0CBF012200220A7402685C
S3150800DF301268C2F3C012CA730268126802F4602239
S3150800DF408A6002681268C2F380220A71026812683F
S3150800DF50C2F340628A7302689269C2F3400281F88A
S3150800DF6054200268926912F0800F0CBF0122002229
S3150800DF7081F84C200268926902F030020A6502684C
S3150800DF809269120C8A6402689269C2F3800281F867
S3150800DF90562002689269C2F3C00281F85520002013
S3150800DFA070470120704751B108B5D0F88430102B5E
S3150800DFB001D0012008BDFFF74BFC0020FAE701203D
S3150800DFC07047000038B5054603681C6924F01C0430
S3150800DFD000F046FC0C4B984204D844F008042B6821
S3150800DFE01C6138BD094B984202D244F00C04F6E78E
S3150800DFF0074B9842F3D9074B984202D844F00404D9
S3150800E000EDE744F01004EAE7BF0E16020087930313
S3150800E010FFE0F5057FD1F00800230F2B00F2F6800C
S3150800E02070B582B066E085684FEA430E032404FAA9
S3150800E0300EF425EA0405CC6804FA0EF42C43846031
S3150800E040446824EA02044A68C2F300129A4022434A
S3150800E05042605DE0DC08083450F8242003F0070528
S3150800E060AD004FF00F0E0EFA05FE22EA0E0E0A69F3
S3150800E070AA4042EA0E0240F824205DE0092200E0A8
S3150800E080002202FA0EF22A430234614D45F8242092
S3150800E090604A94686FEA0C0224EA0C054E6816F486
S3150800E0A0801F01D04CEA04055A4CA560E46802EAD0
S3150800E0B004054E6816F4001F01D04CEA0405554CB9
S3150800E0C0E560646802EA04054E6816F4003F01D06C
S3150800E0D04CEA04054F4C6560246822404D6815F4E7
S3150800E0E0803F01D04CEA04024A4C226001330F2BD0
S3150800E0F000F28A8001229A400C6804EA020C32EA8D
S3150800E1000404F3D14C6804F00304013C012C8AD9B9
S3150800E1104A6802F00302032A09D0C4685D00032294
S3150800E120AA4024EA02048A68AA402243C2604A68CE
S3150800E13002F00302022A8DD004684FEA430E032236
S3150800E14002FA0EF224EA02044A6802F0030202FA0C
S3150800E1500EF2224302604A6812F4403FC6D00022FB
S3150800E16001922D4A546C44F480445464526C02F46F
S3150800E17080420192019A9C08A51C254A52F825500E
S3150800E18003F0030E4FEA8E0E0F2202FA0EF225EA6C
S3150800E1900205224A90423FF473AF02F5806290422C
S3150800E1A022D002F58062904220D002F58062904229
S3150800E1B01ED002F5806290421CD002F58062904221
S3150800E1C01AD002F58062904218D002F58062904219
S3150800E1D016D002F58062904214D002F58062904211
S3150800E1E03FF44CAF0A224CE701224AE7022248E7ED
S3150800E1F0032246E7042244E7052242E7062240E7CF
S3150800E20007223EE708223CE702B070BD704700BF10
S3150800E21000380140003C014000380240000002403E
S3150800E2200AB181617047090481617047002800F0CE
S3150800E230E08170B582B00446036813F0010F3BD045
S3150800E2409F4B9B6803F00C03042B2CD09C4B9B68BC
S3150800E25003F00C03082B21D06368B3F5803F4FD039
S3150800E260B3F5A02F52D0964B1A6822F480321A6062
S3150800E2701A6822F480221A606368002B50D0FEF7D1
S3150800E28095FE05468E4B1B6813F4003F14D1FEF726
S3150800E2908DFE401B6428F5D90320B1E1884B5B68E5
S3150800E2A013F4800FD8D0864B1B6813F4003F03D0B5
S3150800E2B06368002B00F09F81236813F0020F54D087
S3150800E2C07F4B9B6813F00C0F3ED07D4B9B6803F089
S3150800E2D00C03082B33D0E368002B68D0794B012256
S3150800E2E01A60FEF763FE0546754B1B6813F0020FAE
S3150800E2F054D1FEF75BFE401B0228F5D903207FE1C7
S3150800E3006F4A136843F480331360B5E76C4B1A6899
S3150800E31042F480221A601A6842F480321A60ABE727
S3150800E320FEF744FE0546664B1B6813F4003FC3D050
S3150800E330FEF73CFE401B6428F5D9032060E1604BDC
S3150800E3405B6813F4800FC6D15D4B1B6813F0020F90
S3150800E35003D0E368012B40F05081594A136823F033
S3150800E360F803216943EAC1031360236813F0080F11
S3150800E37042D063696BB3534B0122C3F8802EFEF774
S3150800E38015FE05464E4B5B6F13F0020F34D1FEF7B0
S3150800E3900DFE401B0228F5D9032031E1484A1368CF
S3150800E3A023F0F803216943EAC1031360DDE7454B0F
S3150800E3B000221A60FEF7FAFD0546414B1B6813F06A
S3150800E3C0020FD2D0FEF7F2FD401B0228F5D9032032
S3150800E3D016E13C4B0022C3F8802EFEF7E7FD054602
S3150800E3E0374B5B6F13F0020F06D0FEF7DFFD401BBD
S3150800E3F00228F5D9032003E1236813F0040F77D028
S3150800E4002F4B1B6C13F0805F33D1002301932C4BE9
S3150800E4101A6C42F080521A641B6C03F08053019305
S3150800E420019B0125284B1B6813F4807F23D0A36822
S3150800E430012B34D0052B38D0214B1A6F22F001025C
S3150800E4401A671A6F22F004021A67A368002B3DD0D8
S3150800E450FEF7ACFD06461A4B1B6F13F0020F46D1AA
S3150800E460FEF7A4FD801B41F288339842F3D90320B6
S3150800E470C6E00025D6E7144A136843F48073136090
S3150800E480FEF794FD0646104B1B6813F4807FCED129
S3150800E490FEF78CFD801B0228F5D90320B0E0084A58
S3150800E4A0136F43F001031367CFE7054B1A6F42F06A
S3150800E4B004021A671A6F42F001021A67C5E700BF1D
S3150800E4C0003802400000474200700040FEF76EFD2B
S3150800E4D00646524B1B6F13F0020F08D0FEF766FD77
S3150800E4E0801B41F288339842F3D9032088E0EDB9BE
S3150800E4F0A369002B00F08380484A926802F00C0258
S3150800E500082A51D0022B17D0454B00221A66FEF76F
S3150800E5104DFD0446414B1B6813F0007F42D0FEF7C1
S3150800E52045FD001B0228F5D9032069E03B4A136C18
S3150800E53023F080531364DBE7394B00221A66FEF793
S3150800E54035FD0546354B1B6813F0007F06D0FEF7F0
S3150800E5502DFD401B0228F5D9032051E0E369226A04
S3150800E5601343626A43EA8213A26A5208013A43EAEB
S3150800E5700243E26A43EA0263284A5360284B0122AF
S3150800E5801A66FEF713FD0446244B1B6813F0007F3A
S3150800E59006D1FEF70BFD001B0228F5D903202FE054
S3150800E5A000202DE000202BE0012B2BD01B4B5B68B5
S3150800E5B003F48001E269914226D103F03F02216A01
S3150800E5C08A4223D1616A47F6C0721A40B2EB811FAC
S3150800E5D01ED103F44031A26A5208013AB1EB024F48
S3150800E5E018D103F07063E26AB3EB026F14D100200E
S3150800E5F006E001207047012002E0012000E000202B
S3150800E60002B070BD0120FBE70120F9E70120F7E71A
S3150800E6100120F5E70120F3E70120F1E70038024081
S3150800E6200000474208B5334B9B6803F00C03042BE4
S3150800E6305BD0082B5BD12F4B5A6802F03F025B6810
S3150800E64013F4800F2CD02B4B5868C0F388104FEA70
S3150800E650401CBCEB000C6EEB0E0E4FEA8E1343EA21
S3150800E6609C634FEA8C11B1EB0C0163EB0E03DB00E4
S3150800E67043EA5173C90011EB000C43F10003590238
S3150800E68000234FEA4C2041EADC51FDF7B1FD194B56
S3150800E6905B68C3F3014301335B00B0FBF3F008BDCD
S3150800E6A0144B5868C0F388104FEA401CBCEB000CAA
S3150800E6B06EEB0E0E4FEA8E1343EA9C634FEA8C11FB
S3150800E6C0B1EB0C0163EB0E03DB0043EA5173C9009F
S3150800E6D011EB000C43F10003990200234FEA8C204A
S3150800E6E041EA9C51FDF784FDD1E70348D7E7034883
S3150800E6F0D5E700BF0038024000127A000024F40073
S3150800E700002800F09B8070B50D4604464F4B1B68E9
S3150800E71003F00F038B4208D2CBB24C4A137013682E
S3150800E72003F00F038B4240F08B80236813F0020F2F
S3150800E73017D013F0040F04D0454A936843F4E05306
S3150800E7409360236813F0080F04D0414A936843F492
S3150800E750604393603E4A936823F0F003A1680B4335
S3150800E7609360236813F0010F32D06368012B21D020
S3150800E7709A1E012A25D9364A126812F0020F61D06C
S3150800E78033498A6822F0030213438B60FEF70EFCB6
S3150800E79006462F4B9B6803F00C036268B3EB820FA7
S3150800E7A016D0FEF703FC801B41F288339842F0D955
S3150800E7B0032042E0264A126812F4003FE0D1012005
S3150800E7C03BE0234A126812F0007FD9D1012034E0D9
S3150800E7D01E4B1B6803F00F03AB4207D9EAB21B4B6B
S3150800E7E01A701B6803F00F03AB422DD1236813F090
S3150800E7F0040F06D0164A936823F4E053E1680B43E6
S3150800E8009360236813F0080F07D0114A936823F41E
S3150800E8106043216943EAC1039360FFF703FF0C4B8A
S3150800E8209B68C3F303130B4AD35CD8400A4B1860A2
S3150800E8300A4B1868FEF76EFB002070BD0120704772
S3150800E8400120FAE70120F8E70120F6E7003C02403C
S3150800E85000380240C809010840000020480000208E
S3150800E860014B1868704700BF4000002008B5FFF745
S3150800E870F7FF044B9B68C3F38223034AD35CD84053
S3150800E88008BD00BF00380240C009010808B5FFF7F7
S3150800E890E7FF044B9B68C3F34233034AD35CD84073
S3150800E8A008BD00BF00380240C0090108026802F12D
S3150800E8B00C0353E8003F23F490730C3242E800310E
S3150800E8C00029F3D1026802F1140353E8003F23F04C
S3150800E8D00103143242E800310029F3D1036B012BFE
S3150800E8E005D0202380F8423000230363704702686E
S3150800E8F002F10C0353E8003F23F010030C3242E800
S3150800E90000310029F3D1ECE710B504460268136913
S3150800E91023F44053C1680B431361836802691A43A1
S3150800E92043691A43C3691A430168CB6823F416433B
S3150800E93023F00C031343CB600268536923F4407336
S3150800E94081690B4353610368314A934206D002F545
S3150800E9508062934202D0FFF789FF01E0FFF796FF36
S3150800E960E369B3F5004F29D00021031849411B1864
S3150800E97041F10001C90041EA5371DB0018186368C8
S3150800E9804FEA83024FEA937341F10001FDF730FC29
S3150800E990204AA2FB00314909642303FB11031B012A
S3150800E9A03233A2FB03235B0903F0F00202EB0112E8
S3150800E9B003F00F03216813448B6010BD002302186F
S3150800E9C043EB0301121841F10001C90041EA5271F3
S3150800E9D0D200101841F10001626892185B41FDF7F8
S3150800E9E007FC0C4AA2FB00314909642303FB110307
S3150800E9F0DB003233A2FB03235B095A0002F4F872E8
S3150800EA0002EB011203F00703216813448B60D4E775
S3150800EA10001001401F85EB512DE9F04383B00546F0
S3150800EA200E4617469946DDF828802B681C6836EA94
S3150800EA3004040CBF01240024BC4228D1B8F1FF3FCE
S3150800EA40F3D0FEF7B3FAA0EB0900404523D8B8F196
S3150800EA50000F22D02B68DA6812F0040FE5D0802E5A
S3150800EA60E3D0402EE1D01A6812F0080FDDD000245A
S3150800EA7001941A6801925B680193019B2846FFF787
S3150800EA8015FF08236B6485F84040012000E000204C
S3150800EA9003B0BDE8F0830320FAE70320F8E760B384
S3150800EAA010B5044690F8413013B3242384F8413056
S3150800EAB02268D36823F40053D3602046FFF724FF67
S3150800EAC02268136923F4904313612268536923F07B
S3150800EAD02A0353612268D36843F40053D3600020A5
S3150800EAE06064202384F8413084F84230606310BDA6
S3150800EAF080F84030FEF792F9D7E7012070472DE9F4
S3150800EB00F04182B01E4690F84230DBB2202B59D134
S3150800EB1004460D469046002958D00AB9012052E00D
S3150800EB2000234364222280F842200363FEF73EFA5C
S3150800EB300746A4F82C80A4F82E80A368B3F5805F56
S3150800EB4002D04FF000081CE0236913B14FF000080B
S3150800EB5017E0A846002514E0202384F84230032055
S3150800EB6031E023685B68C3F3080328F8023B03E037
S3150800EB7023685B682B700135E28D92B2013A92B236
S3150800EB80E285E38D9BB2C3B100963B460022202165
S3150800EB902046FFF741FF0028DED1002DE1D0A3680B
S3150800EBA0B3F5805FE4D013B92369002BE0D023685E
S3150800EBB05B6803F07F032B70DDE7202384F842307F
S3150800EBC0002000E0022002B0BDE8F0810120FAE74B
S3150800EBD008B5FDF77EFF08BD88B1CA6892B18A6894
S3150800EBE09AB10A69A2B10A6882604A68C260CA68AC
S3150800EBF042618A6802610A698261002070474FF0A3
S3150800EC00FF3070474FF0FF3070474FF0FF307047C6
S3150800EC104FF0FF30704770B582B005460023019368
S3150800EC204468002C4AD1836803B1984720232B6097
S3150800EC30002602E06FF0040601341F2C0DD86B691C
S3150800EC4001AA1221204698470028F3DB019B03F00E
S3150800EC501F03A342F0D12C60002628681F2826D857
S3150800EC60002E37D12B694FF400420021984700281F
S3150800EC7033DB6B6901AA00212868984700282FDB37
S3150800EC80AB6998470446019B13F4004F11D0AB6952
S3150800EC909847001BB0F5FA7F0DD86B6901AA0021C9
S3150800ECA0286898470028EEDA6FF0040601E06FF04E
S3150800ECB002067EB903E06FF00106FAE70026AB69A3
S3150800ECC098470446AB699847031BB3F5FA6FF9D919
S3150800ECD001236B60304602B070BD6FF00306F9E79A
S3150800ECE06FF00406F6E710B582B0044600230193D8
S3150800ECF0436901AA012100689847002839DB63693E
S3150800ED0001AA012120689847002835DB019B13F0EA
S3150800ED10040F34D0636901AA0021206898470028A7
S3150800ED2030DB019B13F4805F0CD103F40452B2F577
S3150800ED30045F2AD013F4005F29D113F4807F28D00A
S3150800ED4004201DE0636901AA1F212068984700284E
S3150800ED5021DB019B13F4805F20D003F01C03182BE2
S3150800ED601ED0082B1ED0142B01D0052008E0042045
S3150800ED7006E06FF0040003E06FF0040000E00120F5
S3150800ED8002B010BD6FF00400FAE70220F8E703208E
S3150800ED90F6E70520F4E76FF00400F1E70620EFE751
S3150800EDA00220EDE70320EBE70023072B13D8012207
S3150800EDB09A400A4909680A4202D00133DBB2F4E7ED
S3150800EDC00A4306490A604FF4C46202FB03F0203086
S3150800EDD0034B184470470020704700BFA00F00205F
S3150800EDE0C00F00200022072A14D84FF4C46302FB80
S3150800EDF003F3203308490B44834202D00132D2B2CE
S3150800EE00F1E7012303FA02F204490B6823EA020335
S3150800EE100B607047704700BFC00F0020A00F00208E
S3150800EE200023012B11D801229A40094909680A4290
S3150800EE3002D00133DBB2F4E70A4305490A6003EB63
S3150800EE4043035802034B184470470020704700BF1D
S3150800EE5088030020A00300200023012B11D803EB10
S3150800EE604301084A02EB4122824202D00133DBB257
S3150800EE70F3E701229A4004490B6823EA02030B6070
S3150800EE8070477047A00300208803002000207047C1
S3150800EE9008B5FEF78BF808BD08B513460A460146BD
S3150800EEA00348FEF7B4FF00B908BD4FF0FF30FBE793
S3150800EEB09401002008B513460A4601460348FEF7A2
S3150800EEC0CEFF00B908BD4FF0FF30FBE794010020E4
S3150800EED008B50248FFF776F8002008BD940100201F
S3150800EEE070B59AB06422002101A801F010FD264BE6
S3150800EEF008221A7000225A7027229A706922DA703C
S3150800EF005B221A7145225A712048214A02604360E1
S3150800EF104FF4000383601F4BC3601F4B03614FF41C
S3150800EF20C0634361FEF7E2FD1C4C1D492046FFF70E
S3150800EF3053FE2046FFF76FFE2046FFF7D4FE04284F
S3150800EF4007D0052809D0032819D14FF48045002693
S3150800EF5005E000254FF4006601E000252E460B4C1F
S3150800EF6001A92046FEF7A1FF0796069501A92046A6
S3150800EF70FFF719F82046FEF72FFE1AB070BD4FF4BA
S3150800EF8080454FF40066EAE7E0400020940100203F
S3150800EF900080024044020020E4020020C040002015
S3150800EFA04C000020074A1178074B197051785970A0
S3150800EFB091789970D178D9701179197152795A71F5
S3150800EFC0704700BFE0400020A0470020064B1A7893
S3150800EFD002705A7842709A788270DA78C2701A7912
S3150800EFE002715B7943717047E040002030B583B009
S3150800EFF00023019301A91448FEF790FEF8B9019C75
S3150800F0000CB1002506E000251AE004F12000FFF700
S3150800F010E9FE2468A4B1A288002AF6D0E388002B6A
S3150800F020F3D09A42F1D8B3F5BE6FEED804F12001B9
S3150800F0300648284401F098FCA3881D44E5E7002506
S3150800F040284603B030BD00BF94010020AC41002023
S3150800F05030B593B03822002104A801F058FC0023EB
S3150800F060019302930393FFF7DBFEE0B104460F4DCD
S3150800F0702A880F4901F078FC01942B880293002214
S3150800F0800392212104914FF44001099108920593B6
S3150800F09001AB06931194FA2204A90648FEF7D9FD96
S3150800F0A02046FFF7D9FE13B030BD00BFA0410020AF
S3150800F0B0AC4100209401002010B50446FFF774FE09
S3150800F0C0206010BD30B4A2F12004002542F8205C6F
S3150800F0D022F81A5C22F81C3C026822B10A681460FD
S3150800F0E00C60026805E00460FAE7D1881944D1800B
S3150800F0F01268002AF9D130BC704735230370012302
S3150800F10043708170033070473623037004234370BD
S3150800F110024BDB69C0F8023006307047E840002031
S3150800F1203223037004234370024B5B6AC0F8023033
S3150800F13006307047E84000203723037003234370E6
S3150800F14001228270C3700623037105307047FF23BE
S3150800F15000F8013B704700000346014400208B423B
S3150800F16033D210B410E0362A22D0FF2A2AD0352A04
S3150800F17005D1987803E0D3F80240144A14635A7804
S3150800F180023213448B421DD21A78332A15D0EAD894
S3150800F190032AF0D0062A06D0012AF0D1D3F8024075
S3150800F1A00A4A9462EBE7D3F80240084AD462E6E7D3
S3150800F1B0D3F80240054AD461E1E7D3F80240034A8E
S3150800F1C01462DCE75DF8044B70477047E84000209E
S3150800F1D0074B828C1A80C28C5A80064B028D1A8085
S3150800F1E0428D5A80044B028E1A80428E5A8070478E
S3150800F1F0B0470020A8470020AC470020F8B50446D1
S3150800F200012303704370194B9A6982700025C570F3
S3150800F210174A10686060258180276781154A126839
S3150800F220E26025616561A5619E693246596904F106
S3150800F2301C0001F099FB06F118002044C6F11002E3
S3150800F2402946043001F063FB4022294604F12C00CC
S3150800F25001F05DFB3A46294604F16C0001F057FBC4
S3150800F260054B1868C4F8EC00F8BD00BFE84000205C
S3150800F270D8090108B0470020E009010838B50A4C4A
S3150800F28025682846FFF7BAFF012105F1F000FFF7C8
S3150800F29034FFFFF751FFFFF75AFF2368C11A1846D4
S3150800F2A001F02CF938BD00BFA841002038B50B4C39
S3150800F2B025682846FFF7A2FF032105F1F000FFF7AE
S3150800F2C01CFFFFF721FFFFF72BFFFFF740FF23681F
S3150800F2D0C11A184601F012F938BD00BFA84100202E
S3150800F2E010B5114B1C682378022B01D0002010BDE5
S3150800F2F004220E49A01801F0FAFA98B90C4B9A693B
S3150800F300596904F11C0001F0F2FA08B10020EEE791
S3150800F3102269074B5A62074B198804F1F000FFF778
S3150800F3201BFFE4E70020E2E7A8410020F0090108F6
S3150800F330E8400020A041002010B582B00C4C606166
S3150800F340A1610023A3704FF6FF73ADF80430ADF842
S3150800F35006304FF4864101A801F080F8606010B1CC
S3150800F3604FF488438380024B00221A8002B010BDF6
S3150800F370E840002082B00023ADF80430ADF806302E
S3150800F380024A1380538002B0704700BFB04700207E
S3150800F39038B59E4B1B88B3F5937F2BD8B3F5877F7B
S3150800F3A01ED9A3F20F13172B00F23A81DFE813F0E8
S3150800F3B048004C0038013801380138013801380155
S3150800F3C03801380138013801380138013801380167
S3150800F3D038013801380138013801380183008700BF
S3150800F3E0002B40F01D81894B01229A704FF47A72E6
S3150800F3F01A6140E0B3F5B67F80F01281B3F5AA7FB3
S3150800F40040F20E81A3F25513162B00F20981DFE8AC
S3150800F41013F0B000B400070107010701070107014F
S3150800F420070107010701070107010701070107018E
S3150800F430070107010701070107010701C300C70004
S3150800F440724B4FF488721A80714B1C7814F00204C0
S3150800F4501FD06F4B1B7813F0020F20D16B4B1B6923
S3150800F4604EF65F22934202DC5B00684A1361674BE3
S3150800F4709B78022B1AD0FFF701FF644C216904F12F
S3150800F480080001F021FA40F20F13238003242046D6
S3150800F49038BD604801F01FFA0028DAD1F7E7FFF710
S3150800F4A01FFF0228DAD1594B02229A70574B4FF4A4
S3150800F4B07A721A611AE0554B4FF493721A80544BBC
S3150800F4C01C7814F002041ED0514B1B7813F0020F5F
S3150800F4D01FD14E4B1B6942F21072934240DC4B4AD5
S3150800F4E003F57A7313619378032B19D0FFF7DEFEC1
S3150800F4F0464C216904F1080001F0E6F940F22513AB
S3150800F50023800324C3E7434801F0E5F90028DBD14B
S3150800F510BDE7FFF7E5FE0528DBD13C4B03229A70D1
S3150800F5203A48FFF755FE394D288C00F047F9040490
S3150800F530688C00F043F940EA04035B084FF47A72DA
S3150800F54002FB03F3002B0FDB2B61304C216904F11E
S3150800F550080001F0B9F940F255132380032496E711
S3150800F56000242A4B1C8092E7284B6FF000421A6150
S3150800F570EBE7264B4FF4AB721A80264801F0ABF93D
S3150800F58008B9002483E7214B02229A704FF47A7255
S3150800F5901A61FFF7EFFE1AE01C4B40F26B121A8055
S3150800F5A01B4B1C7814F002041ED0194B1B7813F061
S3150800F5B0020F1FD1154B1B6942F2107293422BDCC6
S3150800F5C0124A03F57A7313619378032B19D0FFF760
S3150800F5D06DFE0E4C216904F1080001F075F94FF42F
S3150800F5E0B5732380032452E70A4801F074F900280A
S3150800F5F0DBD14CE7FFF774FE0528DBD1034B03226A
S3150800F6009A700248FFF7E4FD8DE700BFE840002046
S3150800F6109C410020F04000200024044B1C8036E763
S3150800F620024B00221A80022431E700BFE84000207E
S3150800F63008B5FFF7ADFE08BD013A0A4400E00231FD
S3150800F64091420CD291F800C04B7803EB0C239BB285
S3150800F650184480B28342F2D9013080B2EFE700D075
S3150800F66070470B7800EB032080B2B0EB032FF7D27C
S3150800F670013080B2F4E7000010B5C2780A44D2B26D
S3150800F680164CE270837803EB1123DBB2A37090F873
S3150800F69001C084F801C090F800E084F800E0B3EBFC
S3150800F6A0112F09D20CF1010C5FFA8CF0607018B9B1
S3150800F6B00EF1010E84F800E0C9B28A420CDA013371
S3150800F6C0DBB2064A93703BB953780133DBB2537009
S3150800F6D013B913780133137010BD00BF2041002001
S3150800F6E010B50146074C20680830FFF7C5FF2368A8
S3150800F6F0054A117819725178597291789972D278A7
S3150800F700DA7210BD98410020204100201A4B0022D1
S3150800F7101A7006E0194A002122F813100133164A16
S3150800F7201370154B1B78002BF4D0134B00221A705C
S3150800F73009E0C3EB03125100114A0A44002151762D
S3150800F74001330D4A13700C4B1B78002BF1D00D4B6F
S3150800F7504FF480621A80084B00221A7007E00A4AA2
S3150800F76002EB8312002191800133034A1370024B86
S3150800F7701B78002BF3D070471F41002074410020EE
S3150800F780784100202441002030410020094B002206
S3150800F7901A7002E00133074A1370064B1B7843B907
S3150800F7A0054A32F81320002AF4D1034A22F8130036
S3150800F7B0704770471F41002074410020030243EA46
S3150800F7C0102080B27047000008B5142205490020B1
S3150800F7D0FFF732FF10B1FFF7F1FF08BD4FF6FF70D4
S3150800F7E0FBE700BFBA41002038B50D4D2B7C6C7C79
S3150800F7F004EB0324A4B2143CA4B22044082205F165
S3150800F8001A0180B2FFF718FF224605F12201FFF719
S3150800F81013FF10B1FFF7D2FF38BD4FF6FF70FBE7B5
S3150800F820AC41002008B50620FFF7DEFF08BD000042
S3150800F83038B5984B1C68042800F05781964B974AB0
S3150800F8401360974A1360032859D0022800F0A28053
S3150800F850052800F03381934B9B7B452B56D1914B62
S3150800F8601A7C5B7C03EB02208F49098888424DDCB1
S3150800F87085B28D4B1D808B4B1B7D13F03F0F45D1F9
S3150800F880884B5B7D002B41D1884B1C880CB95B8863
S3150800F8904BB1844BDB8B9C4238D1824B1A8C834B01
S3150800F8A05B889A4232D1FFF78FFF4FF6FF73984273
S3150800F8B02CD17C4BDB7D062B00F05C81112B00F0F4
S3150800F8C08281012B22D1774B93F82230082B1DD148
S3150800F8D0744B002283F822209B8C4FF6F6729342D3
S3150800F8E040F2788109336F4A93846E4B5A8BDA83D8
S3150800F8F09A8B1A845C836D4A52889A8336E1637EB2
S3150800F90003F00F03032B01D1238A2BB10023664A88
S3150800F9101380674A137038BD654B08221A70FCF7C6
S3150800F920BDFF634B1B7813F0200F40F0A78413F03C
S3150800F930100F40F0F8845F4A128882B113F0010F65
S3150800F94001D000232382238A002B40F0F984638A9E
S3150800F9509A4201D9574A1380564B1B8823820023A3
S3150800F960E3764F4B1A684D4B1A60524B1B881BB1F6
S3150800F970238A002B40F0E8844D4B1B7813F0020FC6
S3150800F980C4D0494B28221A80464B102283F82F20D0
S3150800F99000F07FBC484AD3780133DBB2D37063B931
S3150800F9A093780133DBB293703BB953780133DBB2FA
S3150800F9B0537013B913780133137000233A4A13802E
S3150800F9C03C4A1380637E072B34D0052B32D0002B9C
S3150800F9D09CD0228A002A51D0A27E511EA176002AE6
S3150800F9E094D1E27E082A31D0591EC9B201292BD9F1
S3150800F9F01046042A28BF042003218140A17601323B
S3150800FA00E27603F00F03013B072B3FF67FAF01A217
S3150800FA1052F823F087FE000867FA000871FA000812
S3150800FA20C70101080DF90008C70101080DF900080A
S3150800FA30C7010108A37E0133DBB2A376782B7FF4D6
S3150800FA4065AF0023637661E7052AD1D10023637683
S3150800FA50174B80221A70FCF721FF124B142283F8E9
S3150800FA602F2000F013BC0F4B002283F82F200EE244
S3150800FA700F4B04221A70FCF711FF72E703F00F030D
S3150800FA80032B7FF443AF0A4B08221A70FCF706FFD4
S3150800FA9047E700BF98410020E2410020A841002026
S3150800FAA0A4410020AC410020A0410020B04700201E
S3150800FAB09C4100209E41002028410020964B1B684F
S3150800FAC09B88002B3FF422AF0023944A1360944A84
S3150800FAD094490A6094490A60944A1380944A1380A8
S3150800FAE0944B08221A70FFF7A3FD904B1A88002A38
S3150800FAF03FF40CAF02F11C0189B28D4B19808E4B75
S3150800FB00080A1874597484490968087A987511207E
S3150800FB10D875083290B2C2F3072242EA0022DA8484
S3150800FB2000221A858A885A84CA889A84834A108841
S3150800FB30588352889A830A88DA834A881A8436331D
S3150800FB40784A13607C4C4523A3730022E2736275DE
S3150800FB5022757B490B8801339BB20B80190AA17465
S3150800FB60E3742283FFF730FEC0432083714B0022E3
S3150800FB701A70D0E6FFF756FE4FF6FF7398427FF4E9
S3150800FB80C5AE704C6F4B9C4268D96B4B93F82F30BF
S3150800FB9003F03F03022B40F03882674B998C6A4B7F
S3150800FBA019806A4B00221A70684B1B78002B40F0AC
S3150800FBB02C82674A32F81320914200F0CF80013335
S3150800FBC0624A1370F0E71C3D594B1D80524B614A3F
S3150800FBD01A6012E00833584A938486E61A880AB9E6
S3150800FBE0598829B34FF6FF718A421ED05249498B6C
S3150800FBF08A422DD04033484A1360474B1B68564A01
S3150800FC009342BFF483AE9A88002AF3D04A49898C76
S3150800FC108A42EFD1DA88002AE0D04749498C8A42DD
S3150800FC20DCD0B2F58A4FE5D1D8E758888842DDD1CD
S3150800FC3000233A4A13603F4A02211170384A39496B
S3150800FC400A6039490A60394A1380FFF7F1FC4CE724
S3150800FC50394A918B5A889142CCD1E9E7617E21B124
S3150800FC60354B9A8CA3889A4201D01E348AE7324BC8
S3150800FC705A8CE3889A42F8D12F4B5A8B23889A429A
S3150800FC80F3D12D4B9A8B63889A42EED1234B1C6095
S3150800FC90284B00221A70284B93F82F2012F0040FD5
S3150800FCA040F00F81244B93F82E301B099B00274800
S3150800FCB00370EB1A9BB2143B9BB21D48038001F0FC
S3150800FCC00F01022900F0058113B912F0030F0BD0BA
S3150800FCD0194BD98C2389994240F08D83164B198D7F
S3150800FCE06389994240F0878312F0100F03D0218A66
S3150800FCF0002940F0F480627E02F00F03013B072BD7
S3150800FD003FF604AEDFE813F03A016C013902370317
S3150800FD1069038C037703280370410020984100206B
S3150800FD20D6410020A8410020A44100209E41002081
S3150800FD30A04100209C410020AC410020B047002093
S3150800FD402C410020784100201C4100201F41002042
S3150800FD507441002030410020704100200024954B5A
S3150800FD601C7041E01E22944C02FB0344934B1C601A
S3150800FD700323A37623760023A3750422E275E3768C
S3150800FD808F4DAB8CA3806B8CE3806B8B2380AB8B06
S3150800FD906380012060768B4B1A7822735A786273D7
S3150800FDA09A78A273DB78E373208295F82930E37298
S3150800FDB095F82830A37295F82730637295F826309F
S3150800FDC02372FFF78DFC95F82E1001F0F003502BE7
S3150800FDD059D9784B00221A702DE01E22764C02FB68
S3150800FDE003440133734A1370724B1B78A3B9C3EBF0
S3150800FDF00311714A02EB4102527E002AB2D0072A49
S3150800FE00EFD1002CE9D06C4A1E2101FB0322917E1A
S3150800FE10A27E9142E5D9E0E7002CA7D176E5013329
S3150800FE20644A137007E003F137026548825C52B3EF
S3150800FE301A44604B1A705F4B1B780A09053AB3EBF4
S3150800FE40820F20DA03F136025D48825C5E48027052
S3150800FE50CAB1012AE3D0022AE5D103F1370258488C
S3150800FE60825C042ADFD103F13801415C3933C35C73
S3150800FE7043EA0123554A138040F2BA52934228BFF7
S3150800FE8013466382A3824E4B102283F82F204C4BD5
S3150800FE9093F82F2042F0020283F82F20022283F8DB
S3150800FEA03620042283F83720052283F83820BA2220
S3150800FEB083F83920464A2C211180602283F82E20A7
S3150800FEC0EBE100236376434B20221A70FCF7E6FC2D
S3150800FED01CE502F03F0112297FF4F6AE04E704F1AF
S3150800FEE00C00FFF7C9FB364B93F82A303A4A1078CC
S3150800FEF083427FF400AF324B93F82B3051788B4214
S3150800FF007FF4F9AE2E4B93F82C30927893427FF417
S3150800FF10F2AE2B4B93F82D502F4BDB789D427FF496
S3150800FF20EAAE20736173A273E373E37EF3B994F8C0
S3150800FF3018C0A17EACEB0102D2B2A57DE808A2EBFF
S3150800FF40D50253B255FA82F2D2B2A275002B03DA61
S3150800FF50A1EB0C0143185BB2E17DA3EB910351FAC7
S3150800FF6083F3DBB2E37503EBD2032376194B012245
S3150800FF701A70237EA37600232382BCE6154B1B78D2
S3150800FF8013F0010F3FF4C2AC03236376114B4022F2
S3150800FF901A70002323820E4B188828B90F4B0022AB
S3150800FFA01A80FCF77BFCBCE40A4B42221A70FFF766
S3150800FFB097FBF3E71F410020784100209841002075
S3150800FFC0AC410020284100201E4100201C41002091
S3150800FFD0A04100209C410020204100209E41002095
S3150800FFE09C4B1B7813F0010F06D09B4B93F82F30D0
S3150800FFF003F03F03122B62D0964B20221A70FCF7AF
S315080100004DFC964B1B6800225A76934B93F82F307A
S3150801001013F0040F7FF47AAC8F4B142283F82F2048
S315080100208F4A28211180502283F82E2093F829001F
S315080100308C4D287093F82D2083F8292083F82D00FC
S3150801004093F82810297093F82C2083F8282083F830
S315080100502C1093F827202A7093F82B4083F8274011
S3150801006083F82B2093F826402C7093F82A5083F8AE
S31508010070265083F82A400130C0B283F82D0068B9AA
S315080100804B1CDBB2744981F82C303BB9531CDBB2EB
S3150801009081F82B3013B9013481F82A406E4B5A8CFA
S315080100A071490A80998C59849A845A8BDA839A8B76
S315080100B01A846E4A1188598352889A8320E1664BBD
S315080100C093F82E1001F0F003502B37D9654B002217
S315080100D01A700BE00133634A137007E003F1370224
S315080100E05D48825C52B31A445E4B1A705D4B1B78AD
S315080100F00A09053AB3EB820F20DA03F136025648AC
S31508010100825C5B480270CAB1012AE3D0022AE5D1B2
S3150801011003F137025048825C042ADFD103F1380122
S31508010120415C3933C35C43EA01234F4A138040F2E9
S31508010130BA52934228BF13466382A3820323637686
S31508010140454B93F82620227293F82720627293F87A
S315080101502820A27293F82930E3720120FFF7C0FA2A
S315080101603C4B42221A70002323823D4A1380414A9E
S315080101701380FCF793FBFFF7D4BB374B93F82F306B
S3150801018013F0010F24D012F0100F21D1238A002B6E
S315080101907FF4BCAB324D2888013080B2FFF7A0FA54
S315080101A02C4A137843F0100111702A881AB143F0CA
S315080101B01203284A1370FCF771FB012323820823D3
S315080101C063760023E376244B112283F82F205DE022
S315080101D013F0200F0FD0204B93F8340093F83530E5
S315080101E043EA002C244D29686144296063461C486A
S315080101F00188CB1A03801A4B188810B112F0100F18
S315080102001FD0154B93F8302093F8313003EB0223B6
S315080102109BB2154A1380A28A934200D80BB9124B96
S315080102201A80114B1B8863820A4B1B7813F0030F44
S315080102303FF46CAB0F4B00221A80FCF72FFBFFF73C
S3150801024070BB044A137843F002031370FFF748FAA8
S31508010250D7E700BF9C410020AC410020984100200F
S31508010260A04100201F4100201C410020B04700206A
S315080102701E4100209E410020A84100200023724A09
S3150801028013806376714B142283F82F20704B282232
S315080102901A806E4B502283F82E20227A6B4B83F8F4
S315080102A02A20627A83F82B20A27A83F82C20E27A14
S315080102B083F82D20227B83F82620627B83F827206A
S315080102C0A27B83F82820E27B83F829200622DA75A7
S315080102D0A2885A84E2889A845E4A11885983528888
S315080102E09A832288DA8362881A84637E13F0100F50
S315080102F000F0A280554B002283F8312083F8302084
S31508010300524C4023A375524B1B881A0A22746374F4
S31508010310002384F8353084F834306386FFF782FA8F
S31508010320C04360860EE40023474A138001222282D5
S3150801033004226276E376454B112283F82F20A5E73E
S31508010340414A1380FFF70BBB2833414A13803F4BC1
S31508010350182283F82F209CE73F4B1B7813F0010FD7
S315080103603FF4D4AA002363763B4B10221A70FCF79C
S3150801037095FAFFF7CBBA364B188878B9334B93F809
S315080103802F3013F0010F0CD1334B1B7813F0010FEB
S315080103901DD12F4B1B8873BBFFF7B8BAFFF7A0F91E
S315080103A0ECE72D4B1B7813F0010F0DD0072363766D
S315080103B00023A37623820120FFF792F9264B102208
S315080103C01A70FCF76BFA16E006236376F3E7052342
S315080103D0637600232382FFF799BA1D4B188878B9EB
S315080103E01A4B93F82F3013F0010F0CD1184B1B88B9
S315080103F0002B3FF48BAA154B102283F82F2045E7D3
S31508010400FFF76EF9ECE7072363760023A37601204D
S31508010410FFF766F9104B10221A70FCF73FFAEAE764
S315080104200D4B1B7813F0010F3FF470AA072363766F
S315080104300023A376FFF76ABA044B052283F8302016
S31508010440BA2283F831205BE79E410020AC410020A7
S31508010450A0410020B04700209C410020F8B5054680
S315080104600E46234A138801339BB21380B3F5FA4F1C
S3150801047003D313464FF480521A801E4B00221A707A
S315080104801C4B1C786CB91C4B03EB84139F88184BC7
S315080104901888FFF793F98742E3D00134154B1C708E
S315080104A0EEE700221A70134B1B78DBB9124A02EBEE
S315080104B0831292881AB101330E4A1370F3E79C012D
S315080104C00D4A02EB83100A4B19880B0243EA1123E2
S315080104D08380C68045B12B8813536B88438040239C
S315080104E0037200E00020F8BD00231351F7E700BFAF
S315080104F0244100201F4100203041002000290CDD45
S3150801050008B5064B1980064B1B68834204D08AB28C
S315080105100146184600F028FA08BD70479E4100209A
S31508010520A441002030B43D4B00221A703C4D02E034
S3150801053001333A4A1370394B1B78072B1AD803EB48
S315080105404302374C04EB820534F82220002AEFD007
S315080105506C88002CECD0B0F800C06245E8D142881E
S315080105609442E5D10C686C60898829812D4B1B78EA
S31508010570AB7223E0294B00221A7002E00133274AA5
S315080105801370264B1B78072B0BD803EB4302244C1D
S3150801059004EB820534F82220002AEFD16A88002A62
S315080105A0ECD1082B0CD002682B4643F8042B0A68B9
S315080105B06A608A889A801B4B1B78AB7230BC70477D
S315080105C00023194A1370194A1370144A137002E06A
S315080105D00133124A1370114B1B78072B13D8114A92
S315080105E0157803EB43040E4A02EB8402927AA5EBD3
S315080105F0020C0D4C2478A445EADD0B4A82F800C0AA
S315080106000A4A1370E4E7094B1B78044A137003EB93
S315080106104303034D05EB8305C5E700BFB747002034
S31508010620BC470020B5470020B4470020B647002044
S31508010630144B93F800C00CF1010C5FFA8CFC83F89B
S3150801064000C0114B00221A7002E001330E4A1370E2
S315080106500D4B1B78072B14D80C4903EB430082007A
S3150801066088188A5A41880A43EFD0827AACEB02028B
S31508010670772AEADD03EB43018A0004490020885002
S31508010680E3E77047B5470020B7470020BC4700207D
S31508010690324B1B88292B0CD910B5304B00221A80F6
S315080106A02F4B9B8AB3F5807F07D0B3F5007F43D0E4
S315080106B010BD2A4B00221A807047294BDA8C294B28
S315080106C01B889A42F4D1264B1A8D264B5B889A428F
S315080106D0EED1254C2146A01DFFF724FF002204F880
S315080106E0022C022204F8012C2268C4F80A20A288E6
S315080106F0E2811E4A116821609288A28044F8101C82
S3150801070024F80C2CD4F80A2044F8162CE28924F88B
S31508010710122CE288228222896282124A1188E18099
S3150801072052882281082204F80A2C062204F8092C88
S315080107300A4B2A221A80BBE7094BDA8C094B1B881C
S315080107409A42B5D1064B1A8D064B5B889A42AFD1B0
S315080107500549881DFFF7E6FEAAE700BFA04100206C
S31508010760AC410020B0470020C2410020A04700202C
S3150801077010B44A4BDB8B4FF6FF7293421CD0484AA2
S31508010780B2F800C0474A118883EA0C02114208D11F
S31508010790424A118C424A5288424840884A4010428D
S315080107A017D0414B414A1188198052885A80404BCB
S315080107B000221A703F4C13E0384A118C4FF6FF722B
S315080107C09142DCD1354B3C4A1068186092889A8070
S315080107D020E0354A13805180E9E70133344A137022
S315080107E0334B1B78072B0ED803EB43018A0031499B
S315080107F054182D4800888A5A9042EED12A4A5088C0
S3150801080062889042E9D1082B16D0244B62681A6097
S3150801081022899A80214B294A1168C3F806109288C1
S315080108205A8108221A7300225A73254A13880E33ED
S3150801083013805DF8044B7047184B4FF0FF321A606E
S315080108409A8000221A629A841C490868C3F806002D
S3150801085089885981C3F81600598313490888D884A9
S3150801086049881985A3F81CC00D494988D9831A7581
S31508010870012159759A73D973082119745A74062274
S315080108809A740422DA74197306225A7336330D4A96
S3150801089013600B4B2A221A80CBE700BFAC4100201C
S315080108A0B0470020A8470020B8470020AC470020E1
S315080108B0B7470020BC470020E8090108A0470020E7
S315080108C0A0410020A841002010B504464160FEF76A
S315080108D07FF9206010BD10B50446FEF779F9236843
S315080108E0C01A63689842B4BF0020012010BD10B534
S315080108F001390244904201D1002005E0037811F83C
S31508010900014FA34201D0181B10BD0130F2E7024482
S315080109100346934200D1704703F8011BF9E700002B
S3150801092070B50D4D0D4C641BA4100026A64209D1C5
S315080109300B4D0C4C00F026F8641BA4100026A642A9
S3150801094005D170BD55F8043B98470136EEE755F8D1
S31508010950043B98470136F2E7FC090108FC0901083E
S31508010960FC090108000A01080A44914200F1FF3313
S3150801097000D1704710B511F8014B03F8014F9142A8
S31508010980F9D110BDF8B500BFF8BC08BC9E46704742
S31108010990F8B500BFF8BC08BC9E467047CD
S3150801099C05020602060307030803090309040A04E8
S315080109AC0B040C040C050D050E050F050F06100698
S315080109BC10071008000000000102030400000000E3
S315080109CC000000000102030406070809ADDE122324
S315080109DC000000006382536300000000FFFFFFFF65
S30D080109ECFFFF0000ADDE122336
S30D080109F42CB8FF7F0100000089
S309080109FCD5C100084A
S30908010A00B1C1000869
S31508010A040024F4000100000010000000D1EE0008E3
S31508010A148DEE0008B5EE000899EE000891EE00087F
S7050800CEC163
