S01900006F70656E626C745F73746D3332663432392E73726563FA
S31508000000000003202D0C0008F90B0008FB0B000864
S31508000010FD0B0008FF0B0008010C0008000000009B
S31508000020000000000000000000000000030C0008AB
S31508000030050C000800000000070C0008090C000861
S315080000407D0C00087D0C00087D0C00087D0C00085E
S315080000507D0C00087D0C00087D0C00087D0C00084E
S315080000607D0C00087D0C00087D0C00087D0C00083E
S315080000707D0C00087D0C00087D0C00087D0C00082E
S315080000807D0C00087D0C00087D0C00087D0C00081E
S315080000907D0C00087D0C00087D0C00087D0C00080E
S315080000A07D0C00087D0C00087D0C00087D0C0008FE
S315080000B07D0C00087D0C00087D0C00087D0C0008EE
S315080000C07D0C00087D0C00087D0C00087D0C0008DE
S315080000D07D0C00087D0C00087D0C00087D0C0008CE
S315080000E07D0C00087D0C00087D0C00087D0C0008BE
S315080000F07D0C00087D0C00087D0C00087D0C0008AE
S315080001007D0C00087D0C00087D0C00087D0C00089D
S315080001107D0C00087D0C00087D0C00087D0C00088D
S315080001207D0C00087D0C00087D0C00087D0C00087D
S315080001307D0C00087D0C00087D0C00087D0C00086D
S315080001407D0C00087D0C00087D0C00087D0C00085D
S315080001507D0C00087D0C00087D0C00087D0C00084D
S315080001607D0C00087D0C00087D0C00087D0C00083D
S315080001707D0C00087D0C00087D0C000800000000BE
S315080001807D0C00087D0C00087D0C00087D0C00081D
S315080001907D0C00087D0C00087D0C00087D0C00080D
S311080001A07D0C00087D0C00087D0C000892
S315080001AC10B5054C237833B9044B13B10448AFF397
S315080001BC00800123237010BDE00000200000000021
S315080001CC3896000808B5034B1BB103490348AFF32F
S315080001DC008008BD00000000E400002038960008E6
S315080001EC034613F8012B002AFBD1181A013870475D
S315080001FC53B94AB9002908BF00281CBF4FF0FF3174
S3150800020C4FF0FF3000F088B9ADF1080C6DE904CE5B
S3150800021C00F006F8DDF804E0DDE9022304B07047C7
S3150800022C2DE9F047089D8E4604468846002B4AD190
S3150800023C8A42174662D9B2FA82F64EB1C6F1200343
S3150800024C01FA06F820FA03F3B74043EA0808B44063
S3150800025C4FEA174E1FFA87FCB8FBFEF1230C0EFB70
S3150800026C118843EA084301FB0CF29A4209D9FB1898
S3150800027C01F1FF3080F0EA809A4240F2E7800239B9
S3150800028C3B449A1AA3B2B2FBFEF00EFB102243EAC9
S3150800029C024300FB0CFC9C4509D9FB1800F1FF3204
S315080002AC80F0D6809C4540F2D3803B44023840EA25
S315080002BC0140A3EB0C0300211DB1F3400022C5E954
S315080002CC0032BDE8F0878B4205D90DB1C5E90001AE
S315080002DC00210846F5E7B3FA83F1002946D17345A0
S315080002EC02D3824200F20581841A6EEB03020120C6
S315080002FC9046002DE5D0C5E90048E2E7002A00F053
S3150800030C9080B2FA82F6002E40F0A4808A1A030C6A
S3150800031C4FEA174E80B2BCB20121B2FBFEFC0EFBB3
S3150800032C1C2243EA024304FB0CF29A4207D9FB1837
S3150800033C0CF1FF3802D29A4200F2E080C4469B1AAE
S3150800034CB3FBFEF20EFB123340EA034302FB04F442
S3150800035C9C4207D9FB1802F1FF3002D29C4200F2EC
S3150800036CCA8002461B1B42EA0C40A5E7C1F12006CF
S3150800037C8B4022FA06F71F430EFA01F420FA06F30D
S3150800038C2EFA06FE4FEA1749234300FA01F81FFA1C
S3150800039C87FCBEFBF9F01C0C09FB10EE44EA0E4474
S315080003AC00FB0CFEA64502FA01F209D93C1900F12C
S315080003BCFF3A80F09C80A64540F2998002383C446E
S315080003CCA4EB0E041FFA83FEB4FBF9F309FB1344E2
S315080003DC4EEA044403FB0CFCA44508D93C1903F16A
S315080003ECFF3E80F08280A4457FD9023B3C4443EA19
S315080003FC0040A4EB0C04A0FB02EC64457346E146F2
S3150800040C62D35FD05DB1B8EB030264EB090404FA5E
S3150800041C06F622FA01F31E43CC40C5E90064002116
S3150800042C4FE7B1FBF2FC010C41EA0E4180B240EAFF
S3150800043C01423B4638463C46B846BE462026B1FBEA
S3150800044CF7F1A2EB080241EA0C4166E7014618E708
S3150800045C10462CE7C6F120022EFA02F3B740B1403B
S3150800046C20FA02F24FEA174E0A43B3FBFEF8BCB267
S3150800047C0EFB1833110C41EA034108FB04F9B04092
S3150800048C89454FEA104380B23ED9791808F1FF3CEA
S3150800049C01D289451FD8A1EB0901B1FBFEF909FB6D
S315080004AC04F80EFB191192B242EA0142424529D2CE
S315080004BCBA1809F1FF31C4D24245C2D2A9F10201D8
S315080004CC3A44BEE7F0459DD2BEEB02036CEB070C33
S315080004DC0138E14696E7A7EB09094944A8F1020C4D
S315080004ECB1FBFEF909FB04F8DBE773467FE75046D8
S315080004FC66E70846FDE63B44023A33E7ACF1020CE4
S3150800050C3B441CE749469CE7A1EB0901C446B1FBF1
S3150800051CFEF909FB04F8C4E7704700BF10B582B0B2
S3150800052C00248DF8074000F0ADF803F05BFF0DF1E1
S3150800053C0701204600F0BEF89DF80730012B01D0C4
S3150800054C02B010BD04F014F8FAE708B503F058FF2A
S3150800055C08BD000008B54FF40051054802F052F8E2
S3150800056C012803D000F042F8012008BD0020FCE762
S3150800057C0008024008B5642000F008F808BD08B564
S3150800058C00F00AF808BD704770477047014B188091
S3150800059C704700BF0401002008B503F0E9FD0F4BB6
S315080005AC1B68984210D30E4B1B7873B901220C4B5F
S315080005BC1A7080210B4802F02CF803F0D9FD0A4B6F
S315080005CC1B880344054A136008BD0022044B1A70A5
S315080005DC8021044802F01DF8EFE700BF0001002057
S315080005ECFC000020000402400401002008B500228B
S315080005FC8021024802F00DF808BD00BF0004024035
S3150800060C0C4B1B68C3F3072252FA83F2C3F3074059
S3150800061C10441B0E13FA80F080B2002305E0054A3D
S3150800062C1A441279104480B20133372BF7D9404259
S3150800063C80B270470000002008B5FFF7E1FF044BB5
S3150800064C9B8F984201D0002008BD0120FCE700BF13
S3150800065C0000002008B5054B1A68054B9A4201D0D4
S3150800066C002008BDFFF7E8FFFBE700BF00000020ED
S3150800067CA2E742CE08B5FFF7C3FF014B988708BD22
S3150800068C0000002008B5FFF7E5FF68B9074B084AD4
S3150800069C1A60002304E0054A1A440021117101333B
S315080006AC372BF8D9FFF7E6FF08BD00BF000000207E
S315080006BCA2E742CE38B504460D46FFF7CBFF40B14C
S315080006CC372C05D835B1044B23441B792B7000E025
S315080006DC002038BD0020FCE70000002030B58DB0A6
S315080006EC00240794089409940A940B9401942B4BB0
S315080006FC1A6B42F004021A631A6B02F00402019296
S3150800070C019A02941A6B42F080021A631A6B02F071
S3150800071C80020292029A03941A6B42F001021A633F
S3150800072C1A6B02F001020392039A04941A6B42F0B4
S3150800073C02021A631A6B02F002020492049A0594D6
S3150800074C1A6B42F008021A631A6B02F00802059239
S3150800075C059A06941A6B42F040021A631B6B03F057
S3150800076C40030693069B0E4D22468021284601F02F
S3150800077C50FF4FF4005307930894099407A90948A6
S3150800078C01F096FD802307930123089309940A9494
S3150800079C07A9284601F08CFD0DB030BD0038024083
S315080007AC000402400008024010B590B000240994D9
S315080007BC0A940B940C940D940E940F94039404942D
S315080007CC05940694079408941E4B1A6C42F48022DE
S315080007DC1A641A6C02F480220292029A1A6B42F07C
S315080007EC08021A631B6B03F008030193019B4FF471
S315080007FC4073039302230493032305930723089357
S3150800080C03A9114802F081FB4FF4614309930A943A
S3150800081C0B940C940C230D930E940F940B4C09A962
S3150800082C204602F093FC236923F490432361636901
S3150800083C23F02A036361E36843F40053E36010B0C2
S3150800084C10BD00BF00380240000C024000480040B2
S3150800085C30B595B03022002108A808F0ACFE00246B
S3150800086C0394049405940694079401941C4B1A6CEF
S3150800087C42F080521A641B6C03F080530193019B5F
S3150800088C0294184B1A6842F440421A601B6803F427
S3150800089C40430293029B012308934FF4A023099328
S315080008AC02250E954FF480030F93082310934FF4EB
S315080008BCA873119312950723139308A801F0B0FE99
S315080008CC0F230393049505944FF4A05306934FF402
S315080008DC80530793052103A802F00CF915B030BD17
S315080008EC003802400070004008B500F007FAFFF720
S315080008FCAFFFFFF7F3FEFFF757FFFFF70FFEFFF704
S3150800090C24FEFCE782B0002100910B4B5A6C42F492
S3150800091C80425A645A6C02F480420092009A019101
S3150800092C1A6C42F080521A641B6C03F080530193C4
S3150800093C019B02B0704700BF0038024000B589B071
S3150800094C0023039304930593069307930268154BA8
S3150800095C9A4202D009B05DF804FB0021019103F517
S3150800096CEA331A6C42F000721A641A6C02F00072BE
S3150800097C0192019A02911A6B42F002021A631B6BDE
S3150800098C03F002030293029B4FF440730393022372
S3150800099C0493032306930923079303A9024801F03A
S315080009AC87FCD7E70064004000040240F0B58DB020
S315080009BC00230793089309930A930B9302683D4BFC
S315080009CC9A4201D00DB0F0BD00240094A3F59043D3
S315080009DC1A6B42F000721A631A6B02F000720092DC
S315080009EC009A01941A6B42F080621A631A6B02F031
S315080009FC80620192019A02941A6B42F000621A63A1
S31508000A0C1A6B02F000620292029A03941A6B42F075
S31508000A1C04021A631A6B02F004020392039A0494F2
S31508000A2C1A6B42F001021A631A6B02F00102049265
S31508000A3C049A05941A6B42F002021A631A6B02F0B6
S31508000A4C02020592059A06941A6B42F040021A6342
S31508000A5C1B6B03F040030693069B3223079302276E
S31508000A6C089703260A960B250B9507A9124801F039
S31508000A7C1FFC86230793089709940A960B9507A9D2
S31508000A8C0E4801F015FC4FF4005307930897099488
S31508000A9C0A960B9507A90A4801F00AFC4FF420534D
S31508000AAC0793089709940A960B9507A9054801F028
S31508000ABCFFFB87E700800240000802400000024066
S31508000ACC000402400018024030B589B00023039395
S31508000ADC04930593069307930368B3F1A04F01D0CB
S31508000AEC09B030BD00250195124C236B43F0010368
S31508000AFC2363236B03F001030193019B4FF4C0534B
S31508000B0C039302230493032306930A23079303A947
S31508000B1C094801F0CDFB636B43F0800363630295D0
S31508000B2C636C43F480436364636C03F480430293FD
S31508000B3C029BD5E7003802400000024008B503685E
S31508000B4CB3F1A04F00D008BD054A536B23F08003C0
S31508000B5C53634FF4C051034801F0AEFCF3E700BFF2
S31508000B6C003802400000024010B502F079F81C4C1F
S31508000B7C00228021204601F04CFD8021204601F000
S31508000B8C9BFC4FF40051174801F096FC04F50064E1
S31508000B9C4FF48071204601F08FFC4FF4007120460B
S31508000BAC01F08AFC104B1A6C22F480221A641A6B18
S31508000BBC22F008021A631A6B22F004021A631A6BE3
S31508000BCC22F002021A631A6B22F001021A631A6CDB
S31508000BDC22F080521A645A6C22F480425A6410BD70
S31508000BEC0004024000080240003802407047FEE745
S31508000BFCFEE7FEE7FEE770477047704708B500F05A
S31508000C0C97F808BD054BD3F8882042F47002C3F850
S31508000C1C88204FF000629A60704700BF00ED00E034
S31508000C2CDFF834D0002103E00C4B5B5843500431F9
S31508000C3C0B480C4B42189A42F6D30B4A02E0002397
S31508000C4C42F8043B094B9A42F9D3FFF7DBFF08F04D
S31508000C5CBBFCFFF749FE704700000320389A0008D2
S31508000C6C40000020CC000020E0000020D0560020D8
S31508000C7CFEE7000010B50A4B0A4A1A6200241C62E9
S31508000C8C094A5A625C62094A1A611C61C1225A6194
S31508000C9C5C6101229A619C61FFF766FF204610BDD4
S31508000CAC00380240FFC9FEF633797704FF17E022B5
S31508000CBC10B504460E4B1A784FF47A73B3FBF2F35D
S31508000CCC0C4A1068B0FBF3F000F056FB68B90F2C11
S31508000CDC01D901200AE0002221464FF0FF3000F02E
S31508000CEC3BFB054B1C60002000E0012010BD00BF3B
S31508000CFC44000020400000204800002008B50B4B9B
S31508000D0C1A6842F400721A601A6842F480621A6011
S31508000D1C1A6842F480721A60032000F00BFB00205C
S31508000D2CFFF7C6FFFFF7EEFD002008BD003C0240AA
S31508000D3C034A1168034B1B780B441360704700BFBA
S31508000D4CF80200204400002038B5044603F018FACF
S31508000D5C0546B4F1FF3F02D0044B1B781C4403F044
S31508000D6C0FFA401BA042FAD338BD00BF440000203E
S31508000D7C002800F0A18038B5044690F82030D3B18D
S31508000D8C2268136843F00103136003F0F9F905466A
S31508000D9C23685A6812F0010F10D103F0F1F9401BC1
S31508000DAC0A28F5D9636A43F400336362052384F889
S31508000DBC2030012038BDFFF7C1FDE1E71A6822F0A3
S31508000DCC02021A6003F0DCF9054623685A6812F029
S31508000DDC020F0DD003F0D4F9401B0A28F5D9636A23
S31508000DEC43F400336362052384F820300120E1E7DD
S31508000DFC227E012A3DD01A6822F080021A60637E90
S31508000E0C012B3BD02268136823F040031360A37EA2
S31508000E1C012B39D02268136823F020031360E37E74
S31508000E2C012B37D02268136843F010031360237F15
S31508000E3C012B35D02268136823F008031360637FEF
S31508000E4C012B33D02268136823F004031360A368BC
S31508000E5CE268134322691343626913436268013AD1
S31508000E6C21681343CB6100206062012384F820308B
S31508000E7CA0E71A6842F080021A60C0E72268136875
S31508000E8C43F040031360C2E72268136843F020035B
S31508000E9C1360C4E72268136823F010031360C6E7CF
S31508000EAC2268136843F008031360C8E722681368BE
S31508000EBC43F004031360CAE70120704790F820300A
S31508000ECC013BDBB2012B05D9436A43F48023436209
S31508000EDC0120704730B5464BD3F8002242F0010288
S31508000EECC3F80022D3F8002222F47C52C3F800225D
S31508000EFCD3F80022486A42EA0022C3F800224A695B
S31508000F0C02F01F02012000FA02F2D3F81C026FEA63
S31508000F1C020C20EA0200C3F81C02CB69C3B9344B95
S31508000F2CD3F80C020CEA0000C3F80C028C8848694A
S31508000F3CCD6844EA0544483043F830408C68088844
S31508000F4C40EA04404C6904F1480E03EBCE035860A2
S31508000F5CCB69012B1ED08B69002B33D12448D0F8D2
S31508000F6C04320CEA0303C0F804320B698BBB204825
S31508000F7CD0F814320CEA0303C0F814320B6A012BAE
S31508000F8C2ED01B4AD2F8003223F00103C2F80032E5
S31508000F9C002030BD164BD3F80C021043C3F80C02D4
S31508000FAC8C8848690D6844EA0544483043F8304053
S31508000FBC88894C698D6840EA0540483403EBC403BC
S31508000FCC5860C8E70A48D0F804321343C0F804320C
S31508000FDCCBE70748D0F814321343C0F81432CDE7E0
S31508000FEC0349D1F81C321343C1F81C32C9E700BFB8
S31508000FFC0064004070B5044690F82050EDB2012DFF
S3150800100C06D0436A43F4002343620125284670BD83
S3150800101C022380F820300268136823F0010313605A
S3150800102C03F0AEF8064623685B6813F0010F0CD084
S3150800103C03F0A6F8831B0A2BF5D9636A43F400332D
S3150800104C6362052384F82030E0E700256562DDE756
S3150800105C30B590F820C00468A4680CF1FF3C5FFA20
S3150800106C8CFCBCF1010F62D814F0E05F59D0C4F3C4
S3150800107C016C012404FA0CF41C608B68002B3DD11E
S3150800108C0D68CB68046843EA45550CF118031B0137
S3150800109CE55003680C690CF1180E03EB0E135C6033
S315080010AC0B7D012B35D0D17993791B0443EA016367
S315080010BC517943EA012314790168234301EB0C1196
S315080010CCC1F88C31D17893781B0443EA01635178C3
S315080010DC43EA0123117802680B4302EB0C12C2F89F
S315080010EC883102680CF1180C4FEA0C1C52F80C30BB
S315080010FC43F0010342F80C3000201DE04C6843EA2B
S3150800110CC403CC6823430CF11804240105682B513D
S3150800111CBFE7036803EB0E13596841F480715960F5
S3150800112CC1E7436A43F400134362012004E0436AAF
S3150800113C43F480234362012030BD90F82030013BF4
S3150800114CDBB2012B01D90020704703689B6803EAC0
S3150800115C8163B3EB816F01D0012070470020704783
S3150800116C90F820C00CF1FF3C5FFA8CFCBCF1010F27
S3150800117C00F2A58030B451B90468E46814F0030F82
S3150800118C10D1436A43F40013436201207EE00468DD
S3150800119C246914F0030F05D1436A43F40013436220
S315080011AC012073E0056801F11B0424012C5904F095
S315080011BC04049460002C6BD1056801F11B0424010E
S315080011CC2C59640D1460046801F11B0C4FEA0C1CB5
S315080011DC54F80C4004F00204D4600468A444DCF807
S315080011EC045015F0080F5BD008241461046801F14B
S315080011FC1B0C04EB0C146468C4F307249461046890
S3150800120C04EB0C146468240C5461026802EB01129A
S3150800121CD2F8B8211A70026802EB0112D2F8B8217A
S3150800122CC2F307225A70026802EB0112D2F8B821EF
S3150800123CC2F307429A70026802EB0112D2F8B8217F
S3150800124C120EDA70026802EB0112D2F8BC211A717E
S3150800125C026802EB0112D2F8BC21C2F307225A71BA
S3150800126C026802EB0112D2F8BC21C2F307429A714A
S3150800127C026802EB0112D2F8BC21120EDA71C1B95E
S3150800128C0268D36843F02003D360002030BC704753
S3150800129C056801F11B0424012C59E408546092E7F3
S315080012AC01F11B0504EB0514646804F00F041461C2
S315080012BC9CE70268136943F020031361E5E7436A68
S315080012CC43F480234362012070470000002808DBA2
S315080012DC0901C9B200F1604000F5614080F80013BD
S315080012EC704700F00F000901C9B2014B1954704739
S315080012FC14ED00E000B500F00700C0F1070CBCF1D6
S3150800130C040F28BF4FF0040C031D062B0FD9C31E60
S3150800131C4FF0FF3E0EFA0CF021EA000199400EFA46
S3150800132C03FE22EA0E0241EA02005DF804FB0023E2
S3150800133CEEE70000074AD36823F4E0631B041B0C92
S3150800134C000200F4E060034343F0BF6343F4003348
S3150800135CD360704700ED00E010B50446054BD8681D
S3150800136CC0F30220FFF7C6FF01462046FFF7AEFF83
S3150800137C10BD00BF00ED00E00138B0F1807F0BD244
S3150800138C4FF0E0235861054AF02182F8231000201B
S3150800139C986107221A6170470120704700ED00E03A
S315080013AC2DE9F04182B0054600230193D0F86880F8
S315080013BC08F1120350F82340C66E012714E001A861
S315080013CC02F04AFA019B13B12362A36011E00027CD
S315080013DC0FE06B6943F48043636015E003F1120276
S315080013EC55F82240013E9846CEB1C7B1236A002B68
S315080013FCE5D0002FF8D0AB6D002BEAD16B6943F022
S3150800140C004343F480436360236843F0004323603E
S3150800141C08F10103032BE1D9A8F10303DEE7EB6E10
S3150800142CB34211D008F1030303F00303BFF35F8F34
S3150800143C2A6903EB830302EBC3022B6803F580537B
S3150800144C9A60C5F86880EE6602B0BDE8F0810000C7
S3150800145C5079137943EA002307480B50D0789378D0
S3150800146C1B0443EA0063507843EA002312781343BB
S3150800147C024A8B50704700BF4080024044800240AD
S3150800148C30B4002208E0C468DC6051F80C3043F430
S3150800149C400341F80C300132032A1FD8C16802EB0D
S315080014AC82034FEAC30C01EBC303002441F80C403A
S315080014BC5C609C60DC60941D40F8243051F80C404C
S315080014CC44F4801441F80C40022ADCD8541C04EB72
S315080014DC8404C56805EBC404DC60D6E70023836284
S315080014ECC268036803F580531A6130BC704710B4A0
S315080014FC002202E00169D9600132032A28D804695E
S3150800150C02EB82034FEAC30C04EBC303002144F835
S3150800151C0C1059609960D960196259624FF00041F4
S3150800152C44F80C10416941F480415960596821F01E
S3150800153C0041596002F1120140F82130022AD9D82B
S3150800154C0469511C01EB810104EBC104DC60D3E78F
S3150800155C0023C36503668366C366836502690368ED
S3150800156C03F58053DA605DF8044B7047F0B5856A6D
S3150800157C00EB85039B698C681E68002EC0F2B3804D
S3150800158C2E1D00EB8606F669002E40F0AE80266806
S3150800159C9E605E686FF30C0667683E435E600E6875
S315080015AC16F0010F05D01E6826F440064F693E4317
S315080015BC1E600E6816F0200F05D01E6826F04066D1
S315080015CC0F693E431E60096811F0040F03D01968B1
S315080015DC41F080011960196841F0805119602F4655
S315080015EC00264FF0010E27E0196821F0804119609A
S315080015FC2EE000EB8C039B691968002930DB0CF193
S3150800160C040100EB8101C96951BB196821F08051AD
S3150800161C19600EF1010EA4682168996059686FF378
S3150800162C0C016768394359600136BFF35F8F196837
S3150800163C41F0004119606746A16851B3196821F059
S3150800164C00511960002ACFD0196841F08041196001
S3150800165C07F1010CBCF1030FCBD9A7F1030CC8E7B2
S3150800166C00EB85039969002204E000EB8301896984
S3150800167C01321D4672450AD2BFF35F8F0B6823F001
S3150800168C00430B606B1C032BEFD9EB1EEDE7022016
S3150800169CF0BD1AB31A6842F080421A601A6842F012
S315080016AC00521A6000EB8505AA69BFF35F8F1368B1
S315080016BC43F000431360C26B3B1D00EB8303DA61F6
S315080016CC8762EFF31082012383F31088036C33448B
S315080016DC0133036482F310880020D9E71A6822F0D4
S315080016EC80421A60DAE70220D2E70220D0E700002F
S315080016FC70B505460C46026813683C491940A37B2D
S3150800170C5B06207C002861D14FF400000343607C03
S3150800171C00285DD14FF480000343A0680343E07FA3
S3150800172C43EA004360690343A07F002852D14FF473
S3150800173C00500343207F43EA0033A0690343207912
S3150800174C43EA802394F82000002845D14FF4007012
S3150800175C0343E07B43EAC013606A034394F828000A
S3150800176C43EA00130B4313602B681E680120FFF72E
S3150800177CEBFA2B681E6029688A6922F0BE021204ED
S3150800178C120CA36C1B0494F84C0038BB8020034342
S3150800179C206D034394F85500012821D000200343FB
S315080017AC94F8560001281DD00020034394F85400E1
S315080017BC012819D00020034313438B612B689C69BD
S315080017CC0120FFF7C1FA2B689C6170BD00209DE7CC
S315080017DC0020A1E70020ACE70020B9E70020D6E7F7
S315080017EC0820DCE70420E0E70220E4E70F8120FD6F
S315080017FC70B505460C46026802F580539B692B4961
S3150800180C1940237B002B4DD14FF08063607B43EA54
S3150800181C4063607F002847D14FF480100343A07BB8
S3150800182C43EA405360690343207F43EAC013A07F11
S3150800183C43EA8013206A034394F8240043EA80039E
S3150800184C0B4302F5805293612B6803F580539E690E
S3150800185C0120FFF779FA2B6803F580539E612279EC
S3150800186CA36843EA4263A26913432269134394F8B3
S3150800187C252043EAC213A26A43EA82032268134369
S3150800188C2A6843F4000302F5805213602B6803F5AB
S3150800189C80531C680120FFF757FA2B6803F5805311
S315080018AC1C6070BD0023B1E70020B7E7233FDEF8C4
S315080018BC70B5A4B0064601258DF83C508DF83D5000
S315080018CC00240D948DF84B408DF84A508DF84840FD
S315080018DC8DF83A508DF830508DF84C408DF83B40C9
S315080018EC14948DF854401D948DF878401F948DF8F7
S315080018FC82408DF880404FF4804310934FF4006378
S3150800190C11938DF881400BA9FFF7F2FE8DF80C5058
S3150800191C8DF80D508DF81D508DF80E5005948DF8D8
S3150800192C1C408DF81E4008948DF824508DF80450F0
S3150800193C4FF4803302934FF4800306934FF400530D
S3150800194C04938DF825500A94009469463046FFF79F
S3150800195C4FFF24B070BD10B582B004460023019326
S3150800196C036803F580539A6942F480129A610368F6
S3150800197C03F580539B6901930120FFF7E5F923686A
S3150800198C019A03F580539A6102B010BD00286CD0F9
S3150800199C30B583B00446D0F88430002B34D00023FD
S315080019AC0193334B5A6C42F480425A645B6C03F4D1
S315080019BC80430193019B2F4B5A6822F400025A600C
S315080019CC5A68A1680A435A605B68236803F5805312
S315080019DC1A6842F001021A6002F0D2FB0546236827
S315080019EC03F580531B6813F0010F13D002F0C8FBE4
S315080019FC401BB0F5FA7FF2D90423C4F88830E023EB
S31508001A0CC4F8843001202EE02023C0F88430FEF779
S31508001A1CCDFFC4E72046FFF74BFF2046FFF730FD06
S31508001A2C2046FFF764FD626800212046FFF710FD8B
S31508001A3C2268D36B43F40273D3632268D2F80C3151
S31508001A4C43F4003343F06003C2F80C312268D2F831
S31508001A5C103143F40313C2F810310020C4F888007F
S31508001A6C1023C4F8843003B030BD0120704700BF82
S31508001A7C003802400038014038B5D0F88430102BB5
S31508001A8C01D0012038BD04462023C0F88430042335
S31508001A9CC366FFF785FC2268136843F008031360D6
S31508001AAC23681D680120FFF74FF923681D6022681B
S31508001ABC136843F00403136023681D680120FFF7BD
S31508001ACC43F923681D602046FFF745FF236803F595
S31508001ADC80539A6942F400529A61236803F580533D
S31508001AEC9A6942F002029A614023C4F884300020B5
S31508001AFCC8E7F8B5044631B11546D4F88430402BFE
S31508001B0C09D00120F8BDD0F8883043F00103C0F89D
S31508001B1C88300120F6E700222046FFF727FD00282B
S31508001B2C35D1BFF34F8FA36A9A1D54F822605A1CFD
S31508001B3CA262032A01D9033BA362A26A236806326E
S31508001B4C54F8222003F580535A6002F019FB074615
S31508001B5C3368002B30DA236803F58052526912F485
S31508001B6C005F1CD1B5F1FF3FF2D002F009FBC01B98
S31508001B7CA84201D8002DEBD1D4F8883043F00403E1
S31508001B8CC4F888304FF0405333600120BAE7D4F8D4
S31508001B9C883043F00203C4F888300120B2E7D4F841
S31508001BAC882042F00802C4F8882003F580535B6944
S31508001BBCC4F88C300120A5E70020A3E72DE9F84FDF
S31508001BCC044681B18A46D0F88430402B6CD1C76D57
S31508001BDC07F1120350F82350C36EC3F104094FF0F2
S31508001BEC0008464634E0D0F8883043F00103C0F8C4
S31508001BFC8830012059E02B6813F4007F02D00023AB
S31508001C0C236663662B68C3F30D4B2B6813F4807F2E
S31508001C1C03D02B6823674FF00108AA682A625B4633
S31508001C2C04F1800104F17C0001F01CFE236E0133E3
S31508001C3C2366636E5B44636600232B627B1C032B53
S31508001C4C00D9FB1E03F1120254F8225001361F4626
S31508001C5C2B68002B14DB4E4512D2B8F1000F0FD1AE
S31508001C6C2B6813F4807F03D0EB69A367AB696367B2
S31508001C7C2B6813F4007FBED1E36F002BBBD1DDE7D5
S31508001C8CE36E3344E3662BB9E765B8F1000F05D16B
S31508001C9C01200AE02046FFF783FBF5E7E36FCAF855
S31508001CAC00300020E06700E00120BDE8F88FF8B5A9
S31508001CBC05461E460068036903F01C03C90289B26F
S31508001CCC1943940104F4F8640C4344F001040461C8
S31508001CDC02F056FA074601E02B681C6914F0010F4E
S31508001CEC07D002F04DFAC01BB0F5803FF4D30120A3
S31508001CFC04E02B685B699BB233600020F8BD70B5B5
S31508001D0C05460668306900F01C00C90289B2014311
S31508001D1C940104F4F8640C4344F003049BB2736115
S31508001D2C2B681C6102F02CFA064601E02B681C692C
S31508001D3C14F0010F07D002F023FA801BB0F5803F90
S31508001D4CF4D3012000E0002070BD002979D0026888
S31508001D5C1268C2F3001281F828200268126802F091
S31508001D6C60024A620268126812F4007F0CBF0122F4
S31508001D7C002281F8202002681268C2F30042CA7752
S31508001D8C0268126812F4005F0CBF012200228A77DF
S31508001D9C02681268C2F300320A770268126802F403
S31508001DAC00628A610268126802F480424A6102681B
S31508001DBC126812F4800F0CBF012200224A740268C2
S31508001DCC126812F4000F0CBF012200220A74026872
S31508001DDC1268C2F3C012CA730268126802F460224F
S31508001DEC8A6002681268C2F380220A710268126855
S31508001DFCC2F340628A7302689269C2F3400281F8A0
S31508001E0C54200268926912F0800F0CBF012200223E
S31508001E1C81F84C200268926902F030020A65026861
S31508001E2C9269120C8A6402689269C2F3800281F87C
S31508001E3C562002689269C2F3C00281F85520002028
S31508001E4C70470120704751B108B5D0F88430102B73
S31508001E5C01D0012008BDFFF74BFC0020FAE7012052
S31508001E6C7047000038B5054603681C6924F01C0445
S31508001E7C00F0F0FE0C4B984204D844F008042B688A
S31508001E8C1C6138BD094B984202D244F00C04F6E7A3
S31508001E9C074B9842F3D9074B984202D844F00404EE
S31508001EACEDE744F01004EAE7BF0E16020087930329
S31508001EBCFFE0F5057FD1F00810B40A490C6924F443
S31508001ECC40740C610C6944F440740C610C6944F060
S31508001EDC01040C610260BFF36F8F43605DF8044B1D
S31508001EEC704700BF003C0240074B1A6922F4407247
S31508001EFC1A611A6942F400721A611A6942F00102EF
S31508001F0C1A610160704700BF003C0240074B1A6912
S31508001F1C22F440721A611A6942F480721A611A69BB
S31508001F2C42F001021A610180704700BF003C024072
S31508001F3C064B1A6922F440721A611A691A611A69EF
S31508001F4C42F001021A610170704700BF003C024062
S31508001F5C274BDB6813F0100F07D0264AD36943F0DA
S31508001F6C1003D361224B1022DA60214BDB6813F085
S31508001F7C200F07D01F4AD36943F00803D3611C4BC3
S31508001F8C2022DA601A4BDB6813F0400F07D0194A87
S31508001F9CD36943F00403D361154B4022DA60144B22
S31508001FACDB6813F0800F07D0124AD36943F002039B
S31508001FBCD3610F4B8022DA600D4BDB6813F4807FFC
S31508001FCC08D00C4AD36943F00103D361084B4FF48C
S31508001FDC8072DA60064BDB6813F0020F07D0054AED
S31508001FECD36943F02003D361014B0222DA607047B0
S31508001FFC003C02404C000020094B1B69002B01DBFE
S3150800200C00207047064B074A5A6002F188325A601C
S3150800201C1B69002B01DB002070470120704700BFAD
S3150800202C003C024023016745034A136943F0004309
S3150800203C13610020704700BF003C024038B50446C7
S3150800204C144B0022DA6102F09BF80546124BDB684A
S3150800205C13F4803F0AD0B4F1FF3FF7D024B102F055
S3150800206C8FF8401BA042F1D903200DE00A4BDB6820
S3150800207C13F0010F02D0084B0122DA60064BDB681D
S3150800208C13F4F97F01D1002038BDFFF761FF012059
S3150800209CFAE700BF4C000020003C0240F8B5164693
S315080020AC1B4A127E012A30D004460D461F46184B91
S315080020BC01221A764CF25030FFF7C0FF90B9ACB13A
S315080020CC012C18D0022C1BD032463B462846FFF76B
S315080020DCF3FE4CF25030FFF7B1FF0E4A136923F0AA
S315080020EC010313610A4B00221A76F8BDF1B2284691
S315080020FCFFF71EFFEDE7B1B22846FFF707FFE8E743
S3150800210C31462846FFF7F0FEE3E70220EDE700BF6D
S3150800211C4C000020003C024003461148026922F498
S3150800212C4072026103290ED0012913D00C490A69A1
S3150800213C42F400420A610A4A106940EA032040F454
S3150800214C803010617047026942F4004242F0040282
S3150800215C0261F0E702490A6942F004020A61EAE7F9
S3150800216C003C0240012905D0022906D039B14FF4AA
S3150800217C407104E04FF4807101E04FF400710B28B4
S3150800218C00D904300B4B1A6922F440721A611A6989
S3150800219C0A431A611A6922F0F8021A611A6942EAA4
S315080021ACC00242F002021A611A6942F480321A61BC
S315080021BC704700BF003C0240164B1B6813F4007FA7
S315080021CC10D0144B1A6822F400721A601A6842F47A
S315080021DC00621A601A6822F400621A601A6842F4DD
S315080021EC00721A600B4B1B6813F4806F10D0094BE6
S315080021FC1A6822F480621A601A6842F480521A60CD
S3150800220C1A6822F480521A601A6842F480621A60BC
S3150800221C704700BF003C0240F8B5234B1B7E012BD0
S3150800222C40D004460E46204B01221A764CF250300A
S3150800223CFFF704FF074680BB4FF0FF333360236874
S3150800224C012B16D0A568E368A2681344AB4222D9C1
S3150800225C217C2846FFF786FF4CF25030FFF7EEFE3E
S3150800226C124A136923F0FA031361074690B901352C
S3150800227CE9E76168207CFFF74FFF4CF25030FFF717
S3150800228CDDFE0746094A136923F4004323F00403C9
S3150800229C136100E03560FFF78FFF034B00221A76B7
S315080022AC3846F8BD0227FBE74C000020003C0240EC
S315080022BC00230F2B00F2F68070B582B066E08568B5
S315080022CC4FEA430E032404FA0EF425EA0405CC68F7
S315080022DC04FA0EF42C438460446824EA02044A681F
S315080022ECC2F300129A40224342605DE0DC080834CF
S315080022FC50F8242003F00705AD004FF00F0E0EFA28
S3150800230C05FE22EA0E0E0A69AA4042EA0E0240F8B7
S3150800231C24205DE0092200E0002202FA0EF22A438C
S3150800232C0234614D45F82420604A94686FEA0C0221
S3150800233C24EA0C054E6816F4801F01D04CEA0405F5
S3150800234C5A4CA560E46802EA04054E6816F4001FA8
S3150800235C01D04CEA0405554CE560646802EA0405AC
S3150800236C4E6816F4003F01D04CEA04054F4C6560E4
S3150800237C246822404D6815F4803F01D04CEA0402CB
S3150800238C4A4C226001330F2B00F28A8001229A40B4
S3150800239C0C6804EA020C32EA0404F3D14C6804F023
S315080023AC0304013C012C8AD94A6802F00302032A69
S315080023BC09D0C4685D000322AA4024EA02048A688C
S315080023CCAA402243C2604A6802F00302022A8DD050
S315080023DC04684FEA430E032202FA0EF224EA0204B8
S315080023EC4A6802F0030202FA0EF2224302604A68B5
S315080023FC12F4403FC6D0002201922D4A546C44F484
S3150800240C80445464526C02F480420192019A9C08EE
S3150800241CA51C254A52F8255003F0030E4FEA8E0EDA
S3150800242C0F2202FA0EF225EA0205224A90423FF4DE
S3150800243C73AF02F58062904222D002F58062904218
S3150800244C20D002F5806290421ED002F5806290423E
S3150800245C1CD002F5806290421AD002F58062904236
S3150800246C18D002F58062904216D002F5806290422E
S3150800247C14D002F5806290423FF44CAF0A224CE726
S3150800248C01224AE7022248E7032246E7042244E7E8
S3150800249C052242E7062240E707223EE708223CE7E8
S315080024AC02B070BD704700BF00380140003C0140C7
S315080024BC003802400000024000230F2B00F29B80DC
S315080024CCF0B52DE0092500E0002505FA0CF5A54226
S315080024DC75D004685D004FF0030C0CFA05FC24EA71
S315080024EC0C0404604FEAD30E0EF1080E50F82E4079
S315080024FC03F00706B6000F25B54024EA050440F894
S3150800250C2E40C46824EA0C04C460446824EA020217
S3150800251C4260826822EA0C02826001330F2B69D86A
S3150800252C01229A4002EA010632EA0104F5D14FEA81
S3150800253C930E0EF10205304C54F8254003F0030CAB
S3150800254C4FEA8C0C0F2505FA0CF73C402B4DA8428C
S3150800255CBAD005F58065A84221D005F58065A84254
S3150800256C1FD005F58065A8421DD005F58065A842E3
S3150800257C1BD005F58065A84219D005F58065A842DB
S3150800258C17D005F58065A84215D005F58065A842D3
S3150800259C13D005F58065A84294D00A2595E7012540
S315080025AC93E7022591E703258FE704258DE7052593
S315080025BC8BE7062589E7072587E7082585E7104C65
S315080025CC256825EA06052560656825EA0605656019
S315080025DCE56825EA0605E560A56825EA0605A56009
S315080025EC054E0EF1020456F8245025EA070546F85E
S315080025FC24506EE7F0BD70470038014000000240D9
S3150800260C003C01400369194201D0012070470020A3
S3150800261C70470AB1816170470904816170470000EF
S3150800262C002800F0E08170B582B00446036813F008
S3150800263C010F3BD09F4B9B6803F00C03042B2CD04B
S3150800264C9C4B9B6803F00C03082B21D06368B3F5ED
S3150800265C803F4FD0B3F5A02F52D0964B1A6822F470
S3150800266C80321A601A6822F480221A606368002B7A
S3150800267C50D001F085FD05468E4B1B6813F4003FC0
S3150800268C14D101F07DFD401B6428F5D90320B1E176
S3150800269C884B5B6813F4800FD8D0864B1B6813F4F1
S315080026AC003F03D06368002B00F09F81236813F06A
S315080026BC020F54D07F4B9B6813F00C0F3ED07D4B0A
S315080026CC9B6803F00C03082B33D0E368002B68D007
S315080026DC794B01221A6001F053FD0546754B1B68B0
S315080026EC13F0020F54D101F04BFD401B0228F5D90B
S315080026FC03207FE16F4A136843F480331360B5E710
S3150800270C6C4B1A6842F480221A601A6842F48032BA
S3150800271C1A60ABE701F034FD0546664B1B6813F4EB
S3150800272C003FC3D001F02CFD401B6428F5D90320CB
S3150800273C60E1604B5B6813F4800FC6D15D4B1B6878
S3150800274C13F0020F03D0E368012B40F05081594A6D
S3150800275C136823F0F803216943EAC103136023685D
S3150800276C13F0080F42D063696BB3534B0122C3F8BD
S3150800277C802E01F005FD05464E4B5B6F13F0020FDC
S3150800278C34D101F0FDFC401B0228F5D9032031E1B8
S3150800279C484A136823F0F803216943EAC103136016
S315080027ACDDE7454B00221A6001F0EAFC0546414B71
S315080027BC1B6813F0020FD2D001F0E2FC401B022872
S315080027CCF5D9032016E13C4B0022C3F8802E01F004
S315080027DCD7FC0546374B5B6F13F0020F06D001F09A
S315080027ECCFFC401B0228F5D9032003E1236813F01C
S315080027FC040F77D02F4B1B6C13F0805F33D100235B
S3150800280C01932C4B1A6C42F080521A641B6C03F021
S3150800281C80530193019B0125284B1B6813F4807F79
S3150800282C23D0A368012B34D0052B38D0214B1A6F33
S3150800283C22F001021A671A6F22F004021A67A368BB
S3150800284C002B3DD001F09CFC06461A4B1B6F13F06F
S3150800285C020F46D101F094FC801B41F28833984252
S3150800286CF3D90320C6E00025D6E7144A136843F4C7
S3150800287C8073136001F084FC0646104B1B6813F436
S3150800288C807FCED101F07CFC801B0228F5D9032071
S3150800289CB0E0084A136F43F001031367CFE7054B03
S315080028AC1A6F42F004021A671A6F42F001021A678D
S315080028BCC5E700BF003802400000474200700040E0
S315080028CC01F05EFC0646524B1B6F13F0020F08D044
S315080028DC01F056FC801B41F288339842F3D9032049
S315080028EC88E0EDB9A369002B00F08380484A92680A
S315080028FC02F00C02082A51D0022B17D0454B0022A5
S3150800290C1A6601F03DFC0446414B1B6813F0007F28
S3150800291C42D001F035FC001B0228F5D9032069E0EA
S3150800292C3B4A136C23F080531364DBE7394B0022C4
S3150800293C1A6601F025FC0546354B1B6813F0007F1B
S3150800294C06D001F01DFC401B0228F5D9032051E0E6
S3150800295CE369226A1343626A43EA8213A26A52083B
S3150800296C013A43EA0243E26A43EA0263284A53609D
S3150800297C284B01221A6601F003FC0446244B1B68FB
S3150800298C13F0007F06D101F0FBFB001B0228F5D9DA
S3150800299C03202FE000202DE000202BE0012B2BD06C
S315080029AC1B4B5B6803F48001E269914226D103F064
S315080029BC3F02216A8A4223D1616A47F6C0721A40DD
S315080029CCB2EB811F1ED103F44031A26A5208013AB8
S315080029DCB1EB024F18D103F07063E26AB3EB026FE6
S315080029EC14D1002006E001207047012002E00120E6
S315080029FC00E0002002B070BD0120FBE70120F9E7DA
S31508002A0C0120F7E70120F5E70120F3E70120F1E7BC
S31508002A1C003802400000474208B5334B9B6803F068
S31508002A2C0C03042B5BD0082B5BD12F4B5A6802F096
S31508002A3C3F025B6813F4800F2CD02B4B5868C0F3FD
S31508002A4C88104FEA401CBCEB000C6EEB0E0E4FEADE
S31508002A5C8E1343EA9C634FEA8C11B1EB0C0163EBC2
S31508002A6C0E03DB0043EA5173C90011EB000C43F16A
S31508002A7C0003590200234FEA4C2041EADC51FDF7CA
S31508002A8CB7FB194B5B68C3F3014301335B00B0FB1F
S31508002A9CF3F008BD144B5868C0F388104FEA401C75
S31508002AACBCEB000C6EEB0E0E4FEA8E1343EA9C63DE
S31508002ABC4FEA8C11B1EB0C0163EB0E03DB0043EA16
S31508002ACC5173C90011EB000C43F100039902002362
S31508002ADC4FEA8C2041EA9C51FDF78AFBD1E7034863
S31508002AECD7E70348D5E700BF0038024000127A0042
S31508002AFC0024F400002800F09B8070B50D460446AF
S31508002B0C4F4B1B6803F00F038B4208D2CBB24C4ACF
S31508002B1C1370136803F00F038B4240F08B80236805
S31508002B2C13F0020F17D013F0040F04D0454A93681C
S31508002B3C43F4E0539360236813F0080F04D0414A1A
S31508002B4C936843F4604393603E4A936823F0F0031A
S31508002B5CA1680B439360236813F0010F32D06368A6
S31508002B6C012B21D09A1E012A25D9364A126812F051
S31508002B7C020F61D033498A6822F0030213438B6033
S31508002B8C01F0FEFA06462F4B9B6803F00C036268AD
S31508002B9CB3EB820F16D001F0F3FA801B41F288339F
S31508002BAC9842F0D9032042E0264A126812F4003FF4
S31508002BBCE0D101203BE0234A126812F0007FD9D1FC
S31508002BCC012034E01E4B1B6803F00F03AB4207D9F8
S31508002BDCEAB21B4B1A701B6803F00F03AB422DD1DC
S31508002BEC236813F0040F06D0164A936823F4E053AF
S31508002BFCE1680B439360236813F0080F07D0114A5A
S31508002C0C936823F46043216943EAC1039360FFF791
S31508002C1C03FF0C4B9B68C3F303130B4AD35CD840D6
S31508002C2C0A4B18600A4B1868FEF742F8002070BD6C
S31508002C3C012070470120FAE70120F8E70120F6E7A2
S31508002C4C003C02400038024058960008400000201C
S31508002C5C48000020014B1868704700BF4000002050
S31508002C6C38B501F08DFA0446564A136843F0010349
S31508002C7C1360544B1B6813F0020F06D101F080FA4F
S31508002C8C001B0228F5D9032038BD4E4D2B6843F09E
S31508002C9C80032B6001F074FA04460023AB60494BA1
S31508002CAC9B6813F00C0F08D001F06AFA001B41F26E
S31508002CBC88339842F3D90320E6E701F061FA044613
S31508002CCC404A136823F4502313603E4B1B6813F4D5
S31508002CDC003F06D001F054FA001B6428F5D90320EE
S31508002CECD2E701F04DFA0446364A136823F080738E
S31508002CFC1360344B1B6813F0007F06D001F040FAC2
S31508002D0C001B0228F5D90320BEE701F039FA044660
S31508002D1C2C4A136823F0806313602A4B1B6813F044
S31508002D2C006F06D001F02CFA001B0228F5D90320F7
S31508002D3CAAE701F025FA0446224A136823F08053C1
S31508002D4C1360204B1B6813F0005F06D001F018FACD
S31508002D5C001B0228F5D9032096E71A4B1A4A5A6023
S31508002D6C1A4AC3F88420C3F88820DA6822F4F85281
S31508002D7CDA60DA6822F40052DA60DA6822F4804201
S31508002D8CDA60DA6842F41F02DA60DA6842F4001292
S31508002D9CDA60DA6842F48002DA605A6F22F00102CD
S31508002DAC5A675A6F42F080725A67094B094A1A6079
S31508002DBC094B1868FDF77CFF00283FF465AF012026
S31508002DCC62E700BF003802401030000400300024CF
S31508002DDC400000200024F4004800002010B40468C9
S31508002DEC91FAA1F3A3B1B3FA83F35B004FF0030C8A
S31508002DFC0CFA03F324EA030391FAA1F151B1B1FADF
S31508002E0C81F149008A40134303605DF8044B70470F
S31508002E1C2023EAE72021F4E710B4846891FAA1F399
S31508002E2CA3B1B3FA83F35B004FF0030C0CFA03F36C
S31508002E3C24EA030391FAA1F151B1B1FA81F14900DF
S31508002E4C8A40134383605DF8044B70472023EAE7F6
S31508002E5C2021F4E710B4C46891FAA1F3A3B1B3FA2C
S31508002E6C83F35B004FF0030C0CFA03F324EA030319
S31508002E7C91FAA1F151B1B1FA81F149008A40134393
S31508002E8CC3605DF8044B70472023EAE72021F4E77A
S31508002E9C10B4046A91FAA1F3A3B1B3FA83F39B00B5
S31508002EAC4FF00F0C0CFA03F324EA030391FAA1F181
S31508002EBC51B1B1FA81F189008A40134303625DF876
S31508002ECC044B70472023EAE72021F4E710B4446A40
S31508002EDC090A91FAA1F3A3B1B3FA83F39B004FF055
S31508002EEC0F0C0CFA03F324EA030491FAA1F151B17D
S31508002EFCB1FA81F189008A40144344625DF8044BA7
S31508002F0C70472023EAE72021F4E7F8B507460E4672
S31508002F1C0D6895FAA5F515B1B5FA85F51AE02025CB
S31508002F2C18E0B26821463846FFF776FFF2687B68E8
S31508002F3C23EA040304FB02F213437B6016E072696E
S31508002F4C21463846FFF7C2FF726821463846FFF716
S31508002F5C45FF0135346834FA05F21DD00122AA4022
S31508002F6C1440F6D07368013B012BDAD93269214635
S31508002F7C3846FFF76FFF7368022BE5D194FAA4F372
S31508002F8C002BDCD0B3FA83F3072BD8D87269214609
S31508002F9C3846FFF77DFFD7E70020F8BD034B9B6843
S31508002FACC3F30313024AD35CD84070470038024077
S31508002FBC58960008034B9B68C3F38223024AD35CDA
S31508002FCCD84070470038024050960008034B9B685F
S31508002FDCC3F34233024AD35CD840704700380240E8
S31508002FEC509600080F4B5B6803F4800323B90E4B0D
S31508002FFC082803D0002070470C4BF9E7094A51689A
S3150800300C01F03F01B3FBF1F05368C3F3881303FBDC
S3150800301C00F05368C3F3014301335B00B0FBF3F0D4
S3150800302C704700BF003802400024F40000127A00F2
S3150800303C08B5084B9B6803F00C03042B05D0082B2A
S3150800304C05D10820FFF7CEFF08BD0348FCE7034867
S3150800305CFAE700BF0038024000127A000024F40098
S3150800306C10B50446FFF7E4FF2060FFF797FF606092
S3150800307CFFF7A0FFA0606068FFF7A8FFE06010BD2F
S3150800308C10B50446B2F5004F2FD04FF0000C481877
S3150800309C4CEB0C0C40184CF1000C4FEACC0C4CEADF
S315080030AC507CC00040184FEA83024FEA93734CF1E8
S315080030BC0001FDF79DF82449A1FB00235B091A01C1
S315080030CC92B24FF0640C0CFB13031B013233A1FBB9
S315080030DC0313C3F34F1303F0F0010A4492B203F03F
S315080030EC0F0313449BB2A36010BD4FF0000C481895
S315080030FC4CEB0C02401842F10002D20042EA507224
S3150800310CC000401842F10001DA184CEB0C03FDF72D
S3150800311C6FF80D49A1FB00235B091A0192B24FF017
S3150800312C640C0CFB1303DB003233A1FB0313C3F350
S3150800313C4F13590001F4F8710A4492B203F00703CD
S3150800314C13449BB2A360CFE71F85EB51C36813F4F6
S3150800315C005F01D00120704730B585B004460D4696
S3150800316CC36823F4164323F00C034A68C9680A4358
S3150800317C29690A43A9690A431343C360AB68026900
S3150800318C22F44052134303616B69426922F440727C
S3150800319C134343616846FFF763FF1B4B9C4216D0EB
S315080031AC1A4B9C4219D01A4B9C4218D0194B9C426C
S315080031BC17D0194B9C4216D0184B9C4215D0184B5D
S315080031CC9C4214D0174B9C4213D001201AE0039949
S315080031DCB9B12B687BB9012014E00299F8E702997A
S315080031ECF6E70399F4E70299F2E70299F0E70299F0
S315080031FCEEE70299ECE7AA692046FFF741FF0020A3
S3150800320C00E0012005B030BD00100140004400402C
S3150800321C0048004000140140004C0040005000409B
S3150800322C00780040007C004030B484B01F4B1D78F9
S3150800323C002D38D11E4BD3F8102A0192D3F8142A34
S3150800324C0292D3F8183A0393184B01221A7028469F
S3150800325C294615E03732D2B2164C62540131C9B23E
S3150800326C0133DBB2012B09D803F110026A4412F8B8
S3150800327C102C092AEED83032D2B2EDE70130C0B2A2
S3150800328C0B280DD800F110036B4413F80C3C1A09E3
S3150800329C8DF8002003F00F038DF801302B46E1E77B
S315080032AC044B00225A5404B030BC7047FC02002070
S315080032BC0070FF1F7C0000200048704784980008A7
S315080032CC0048704764980008004870474098000802
S315080032DC012918D108B594461378C3F34113022B68
S315080032EC01D0002008BD5378012B01D00020F9E746
S315080032FC9388072B01D00020F4E79E23034A6146E6
S3150800330C03F078F9EEE70120704700BFA097000894
S3150800331C10B50446FFF788FF6CB9134B1B681A885F
S3150800332C124B5A800120431C5B009BB20F4843F496
S3150800333C4073038010BD032C14D80B4B53F8244050
S3150800334C2046FCF74DFFC0B21F2800D91F200023CA
S3150800335C05E05A1CE15C054B23F81210D3B29842CF
S3150800336CF7D8E0E70020E5E76C0000200003002012
S3150800337C08B500F0FDFE08BD88B1CA6892B18A6826
S3150800338C9AB10A69A2B10A6882604A68C260CA68B8
S3150800339C42618A6802610A698261002070474FF0AF
S315080033ACFF3070474FF0FF3070474FF0FF307047D3
S315080033BC4FF0FF30704770B582B005460023019375
S315080033CC4468002C4AD1836803B1984720232B60A4
S315080033DC002602E06FF0040601341F2C0DD86B6929
S315080033EC01AA1221204698470028F3DB019B03F01B
S315080033FC1F03A342F0D12C60002628681F2826D864
S3150800340C002E37D12B694FF400420021984700282B
S3150800341C33DB6B6901AA00212868984700282FDB43
S3150800342CAB6998470446019B13F4004F11D0AB695E
S3150800343C9847001BB0F5FA7F0DD86B6901AA0021D5
S3150800344C286898470028EEDA6FF0040601E06FF05A
S3150800345C02067EB903E06FF00106FAE70026AB69AF
S3150800346C98470446AB699847031BB3F5FA6FF9D925
S3150800347C01236B60304602B070BD6FF00306F9E7A6
S3150800348C6FF00406F6E710B582B0044600230193E4
S3150800349C436901AA012100689847002839DB63694A
S315080034AC01AA012120689847002835DB019B13F0F7
S315080034BC040F34D0636901AA0021206898470028B4
S315080034CC30DB019B13F4805F0CD103F40452B2F584
S315080034DC045F2AD013F4005F29D113F4807F28D017
S315080034EC04201DE0636901AA1F212068984700285B
S315080034FC21DB019B13F4805F20D003F01C03182BEF
S3150800350C1ED0082B1ED0142B01D0052008E0042051
S3150800351C06E06FF0040003E06FF0040000E0012001
S3150800352C02B010BD6FF00400FAE70220F8E703209A
S3150800353CF6E70520F4E76FF00400F1E70620EFE75D
S3150800354C0220EDE70320EBE70023072B13D8012213
S3150800355C9A400A4909680A4202D00133DBB2F4E7F9
S3150800356C0A4306490A604FF4C46202FB03F0203092
S3150800357C034B184470470020704700BF600F0020AB
S3150800358C800F00200022072A14D84FF4C46302FBCC
S3150800359C03F3203308490B44834202D00132D2B2DA
S315080035ACF1E7012303FA02F204490B6823EA020342
S315080035BC0B607047704700BF800F0020600F00201B
S315080035CC0023012B11D801229A40094909680A429D
S315080035DC02D00133DBB2F4E70A4305490A6003EB70
S315080035EC43035802034B184470470020704700BF2A
S315080035FC40030020600300200023012B11D803EBA5
S3150800360C4301084A02EB4122824202D00133DBB263
S3150800361CF3E701229A4004490B6823EA02030B607C
S3150800362C7047704760030020400300200020704755
S3150800363C08B500F09DFD08BD08B513460A460146B7
S3150800364C0348FEF734FB00B908BD4FF0FF30FBE723
S3150800365C0801002008B513460A4601460348FEF73A
S3150800366C4EFB00B908BD4FF0FF30FBE70801002000
S3150800367C08B50248FEF7F6FB002008BD0801002035
S3150800368C70B59AB06422002101A805F094FF264B68
S3150800369C08221A7000225A7027229A706922DA7048
S315080036AC5B221A7145225A712048214A02604360EE
S315080036BC4FF4000383601F4BC3601F4B03614FF429
S315080036CCC0634361FEF762F91C4C1D492046FFF79F
S315080036DC53FE2046FFF76FFE2046FFF7D4FE04285C
S315080036EC07D0052809D0032819D14FF480450026A0
S315080036FC05E000254FF4006601E000252E460B4C2C
S3150800370C01A92046FEF721FB0796069501A9204636
S3150800371CFEF799FB2046FEF7AFF91AB070BD4FF4C9
S3150800372C80454FF40066EAE7A04000200801002017
S3150800373C00800240B801002058020020804000207A
S3150800374C98000020074A1178074B19705178597060
S3150800375C91789970D178D9701179197152795A7101
S3150800376C704700BFA040002054560020064B1A781C
S3150800377C02705A7842709A788270DA78C2701A791E
S3150800378C02715B7943717047A040002030B583B055
S3150800379C0023019301A91448FEF710FAF8B9019C05
S315080037AC0CB1002506E000251AE004F12000FFF70D
S315080037BCE9FE2468A4B1A288002AF6D0E388002B77
S315080037CCF3D09A42F1D8B3F5BE6FEED804F12001C6
S315080037DC0648284405F01CFFA3881D44E5E7002588
S315080037EC284603B030BD00BF0801002060500020F9
S315080037FC30B593B03822002104A805F0DCFE00236E
S3150800380C019302930393FFF7DBFEE0B104460F4DD9
S3150800381C2A880F4905F0FCFE01942B880293002296
S3150800382C0392212104914FF44001099108920593C2
S3150800383C01AB06931194FA2204A90648FEF759F926
S3150800384C2046FFF7D9FE13B030BD00BF54500020F8
S3150800385C605000200801002010B50446FFF774FEDE
S3150800386C206010BD30B4A2F12004002542F8205C7B
S3150800387C22F81A5C22F81C3C026822B10A68146009
S3150800388C0C60026805E00460FAE7D1881944D18017
S3150800389C1268002AF9D130BC704772B6704762B606
S315080038AC704700002DE9F04184B004460D461746D2
S315080038BC98466846FFF7D4FB0299174BA3FB0131D0
S315080038CC8909002301E00133DBB2112B1FD8134AF7
S315080038DC12F8130002EB4302527800EB020C0CFBB5
S315080038EC044CB1FBFCFE0CFB1E16002EEBD11FFA8A
S315080038FC8EFCA5F800C00CF1FF3C1FFA8CFCBCF53D
S3150800390C806FE0D2387088F80020012000E0002093
S3150800391C04B0BDE8F08100BFD34D6210989800083A
S3150800392C70B58CB00023ADF82E308DF82D308DF88F
S3150800393C2C300BAB0DF12D020DF12E014FF4FA7054
S3150800394CFFF7B0FF002835D01D4C1E4B2360002511
S3150800395C25766576A5760126E67625776577A560BC
S3150800396CE5609DF82D30013B1B0423619DF82C3036
S3150800397C013B1B056361BDF82E3063602046FDF7DD
S3150800398CF7F90695079508964CF6E04301930295C8
S3150800399C4FF6E073039304230493059509960E23B7
S315080039AC0A9301A92046FDF789FA2046FDF722FB62
S315080039BC0CB070BDB521044800F0C6FCC4E700BFC6
S315080039CCA8400020006400408C96000810B588B00A
S315080039DC024640F2E1730293002304930593069181
S315080039EC01AB02A90B48FDF733FB08B108B010BDB3
S315080039FC00F0BEFB00F1320401990648FDF79DFB69
S31508003A0C0028F3D000F0C4FD00F0B2FBA042F3D9B5
S31508003A1CECE700BFA840002010B588B003460C465A
S31508003A2C01AA00210848FDF79BFB50B9019A40F200
S31508003A3C67639A4206D1039B23B9059B2370012021
S31508003A4C00E0002008B010BDA840002008B5FFF71C
S31508003A5C24FF08BD10B500F03FFAC8B1FCF77AFD93
S31508003A6CC8B100F035FDFDF705F900F03DFB00F097
S31508003A7C37FA20F0604020F07F00084B986000F081
S31508003A8C2FFA4468FFF70BFFA04700F071FD10BD35
S31508003A9C00F06EFDFBE700F06BFDF8E700ED00E0CB
S31508003AAC70B50D46044606E015F8013B04F8013BD3
S31508003ABC00F06EFD3246531E9EB2002AF4D170BD3C
S31508003ACC38B50546002401E00134E4B2142C15D8A7
S31508003ADC00F05EFD04EB4403094A52F82330AB426E
S31508003AECF2D804EB440102EB810252681344AB4250
S31508003AFCEAD9034B03EB8103187A00E0FF2038BDA3
S31508003B0CBC98000808B5C1F3080353B903688B427F
S31508003B1C09D040F8041B4FF40072FFF7C1FF0120CF
S31508003B2C08BD0020FCE70120FAE72DE9F04107461D
S31508003B3CFEF762FA00247F2C15D83E6806EB84083B
S31508003B4C07EB84035D6800F023FD2A4600234146F3
S31508003B5C0220FEF7A3FA804640B956F82430AB4249
S31508003B6C06D10134E7E74FF0010801E04FF00008F1
S31508003B7CFEF75AFA4046BDE8F081000038B50D4606
S31508003B8C0C4B984211D004460B4B994207D1094C61
S31508003B9C29462046FFF7B6FF48B1204638BDFFF741
S31508003BACC4FF0028F4D10024F7E7044CF0E70024FE
S31508003BBCF3E700BFD040002000C00008D442002024
S31508003BCC2DE9F04106460C4617461D4621F4FF78AA
S31508003BDC28F001080368B3F1FF3F07D03368434563
S31508003BEC0AD13368E41A3444043414E04146FFF726
S31508003BFC89FF0028F2D120E041463046FFF7BEFF88
S31508003C0C06460028EDD1002017E017F8013B04F80A
S31508003C1C013B013D10D000F0BBFC311D611AB1F51A
S31508003C2C007FF2D3316801F500713046FFF7A6FF25
S31508003C3C064620B1041DE8E70120BDE8F081002006
S31508003C4CFBE70000002312E000F0A2FC2B68B3F19E
S31508003C5CFF3F2CD104350134B4EB960F03D214F084
S31508003C6CFF0FF3D1F0E7012070BD0133DBB2142B43
S31508003C7C1BD803EB43010F4A02EB8102127A8242EC
S31508003C8CF3D170B50B4A52F8215002EB81025668F3
S31508003C9C15F0030F02D116F0030F04D04FF42E7152
S31508003CAC054800F051FB0024D6E700207047002099
S31508003CBCDAE700BFBC980008C8960008F0B587B0CC
S31508003CCC04460E460023009388420FD80125022C81
S31508003CDC25D9172E27D8012D22D10023019302238B
S31508003CEC059301230493FEF787F903E00025EEE715
S31508003CFC0134E4B2B4420FD82046FFF7A3FF0746B7
S31508003D0C0028F5D100F044FC0394694601A8FEF797
S31508003D1C83FA0028ECD03D46FEF786F900E000252C
S31508003D2C284607B0F0BD0025FAE700004FF0FF3330
S31508003D3C024A1360024A1360704700BFD44200203F
S31508003D4CD040002070B50D460139144B1B1A994208
S31508003D5C01D9002070BD04461646FFF7B1FEFF28B0
S31508003D6C13D028190138FFF7ABFEFF280DD024F421
S31508003D7CFF7222F001020A4B9A4208D02B463246B1
S31508003D8C21460848FFF71CFFE4E70020E2E72B462C
S31508003D9C324621460448FFF713FFDBE7FFFF1F08EF
S31508003DAC00C00008D4420020D04000204A1E0E4B0A
S31508003DBC1B1A9A4201D90020704770B505460C4665
S31508003DCCFFF77EFE06462C44601EFFF779FE014679
S31508003DDCFF2E05D0FF2805D03046FFF76FFF70BDC4
S31508003DEC0020FCE70020FAE7FFFF1F0800B583B0A8
S31508003DFC00230193134B1B68B3F1FF3F20D0114AE4
S31508003E0C5368019391680B440193D1680B44019351
S31508003E1C11690B44019351690B44019391690B4445
S31508003E2C0193D26913440193DA4301925B420193DD
S31508003E3C01AA04210448FFF785FF03B05DF804FBCB
S31508003E4C0120FAE7D0400020ACC100080A4B1A68DA
S31508003E5C596811449A681144DA6811441A6911446C
S31508003E6C5A6911449A690A44D3F8AC31D34201D041
S31508003E7C002070470120704700C0000808B50C4B9D
S31508003E8C1B68B3F1FF3F06D10A4B1B68B3F1FF3F22
S31508003E9C07D1012008BD0648FFF747FE0028F3D1D5
S31508003EACF8E70448FFF741FE0028F3D00120F1E7B4
S31508003EBCD0400020D44200200048704700C00008BB
S31508003ECC08B5FFF733FF08BD08B5FFF73BFF08BD7C
S31508003EDC08B5FFF76BFF08BD08B5FFF7B7FF08BDB8
S31508003EEC08B5FFF7E9FF08BD08B5FFF77FFF00B96E
S31508003EFC08BDFFF7C3FFFBE7054B1B6813F0200F44
S31508003F0C01D100207047024B5B6803700120704793
S31508003F1C0048004010B5094B586000F029F900F12B
S31508003F2C0A04064B1B6813F0800F05D100F030FB12
S31508003F3C00F01EF9A042F4D910BD00BF004800409D
S31508003F4C10B588B00C4CE36823F40053E3604FF4C7
S31508003F5C6143019300230293039304930C22059265
S31508003F6C0693079301A92046FFF7F0F8E36843F494
S31508003F7C0053E36008B010BD0048004070B5064613
S31508003F8C0D46812904D82846FFF7C4FF00240BE008
S31508003F9C8621074800F0D8F9F5E700F0F9FA305D04
S31508003FACFFF7B8FF0134A4B2A542F6D870BD00BF1E
S31508003FBC0897000870B5254B1C78BCB92448FFF740
S31508003FCC9BFF012801D0204670BD214B1B78013B75
S31508003FDCDBB2802BF7D800F0CBF81E4B18601E4BC3
S31508003FEC00221A70194B01221A70ECE706460D4688
S31508003FFC194B1B78013316481844FFF77DFF044606
S3150800400C012815D1144B1A780132D2B21A70104BFA
S3150800401C1B789A4201D00024D5E710493046FFF7A1
S3150800402C3FFD0A4B00221A700B4B1B782B70CAE704
S3150800403C00F09EF8074B1B68C833984203D9002436
S3150800404C024B1C70BFE70024BDE700BF6445002087
S3150800405CE0440020DC440020D8440020E144002041
S3150800406C82B01A4B5A6C42F001025A645A6C02F02E
S3150800407C01020192019A164A12689968C1F34231F3
S3150800408C1448415CCA409B6813F4604F1BD101234A
S3150800409C02FB03F3104A012111604FF6FF71D1623E
S315080040AC5B090E49A1FB0313DB09013B93625369B8
S315080040BC43F0010353610A4B00211960526A094BFC
S315080040CC1A8002B070470223E2E700BF00380240AC
S315080040DC400000205096000800000140C55A7C0A92
S315080040EC68450020664500200C4B5A6A42F00102CE
S315080040FC5A625A6A22F001025A625A6C22F001027A
S3150800410C5A644FF0E02300221A615A619A6103F54A
S3150800411C50634FF000725A60704700BF0038024077
S3150800412C0F4B5B6A9BB20F4A11885B1A9BB2632BC7
S3150800413C15D910B40C4AA2FB03235A090B4C206858
S3150800414C00EB5310206002EB820303EB83039A0007
S3150800415C92B21144034B19805DF8044B70477047B3
S3150800416C00000140664500201F85EB51684500207C
S3150800417C08B5FFF7D5FF014B186808BD6845002040
S3150800418C08B5FFF7F5FF08BD10B50446002000F08A
S3150800419CF7FD08B9002010BD01222146002000F0C9
S315080041ACFFFD012801D00020F5E70120F3E7000008
S315080041BC10B582B015484FF0A0440460FCF784FC97
S315080041CC134A536843F002035360A36B43F400137A
S315080041DCA363A36B23F40023A363A36B23F48023A9
S315080041ECA36301238DF8043000208DF8050001A97E
S315080041FC01F0DCFB00F0D4F8B0F5FA6F01D302B08D
S3150800420C10BD4FF4FA6000F0C5F8F8E7B445002085
S3150800421C0008005008B501F0B7FB03484FF0A0435F
S3150800422C0360FCF78BFC08BDB445002010B582B0C2
S3150800423C04468DF80710CBB23F2B16D801220DF188
S3150800424C0701002000F0C0FD012813D19DF80720B6
S3150800425C2146002000F0B8FD9DF8073083420ED1A8
S3150800426C002000F0C5FD02B010BD9F21064800F0E5
S3150800427C6BF8E3E7A321044800F066F8E6E7A62105
S3150800428C014800F061F8EBE74897000870B5064658
S3150800429C0D46002003F0D2F800214FF0FF3002F053
S315080042AC43F81C4B1C789CB91B48FFF76DFF01287B
S315080042BC01D0204670BD184B1B78013BDBB23E2B58
S315080042CCF7D8144B01221A70144B00221A70F0E717
S315080042DC124B1B78013310481844FFF755FF044658
S315080042EC012801D00024E4E70C4B1A780132D2B22B
S315080042FC1A70094B1B789A4201D00024D9E7084951
S3150800430C3046FFF7CDFB034B00221A70034B1B7884
S3150800431C2B70CEE7B0450020704500206C45002078
S3150800432C7145002008B50120FCF72DF908BD08B524
S3150800433C0020FCF728F908BD08B5FCF725F908BDD7
S3150800434C08B5FCF722F908BD08B500F021F9FCE719
S3150800435C08B500F007F9012803D00B4B1B78012B85
S3150800436C00D008BDFFF704FF084B1B68084A126803
S3150800437C134403F5FA739842F3D3034B00221A70CD
S3150800438CFFF768FBEDE700BFA04A0020984A00201B
S3150800439C9C4A0020014B1860704700BF984A0020C1
S315080043AC014B1868704700BF984A002008B5054BA2
S315080043BC1B78012B00D008BDFFF7DAFE024B1860FC
S315080043CCF9E700BFA04A00209C4A002008B5044B18
S315080043DC01221A70FFF7EAFFFFF7BAFF08BD00BF04
S315080043ECA04A002008B5FFF731FB00F0CDF8FFF71F
S315080043FC37FEFFF765FD00F00DF8FFF7E7FF08BD80
S3150800440C08B500F0C5F8FFF78BFE00F017F8FFF7B4
S3150800441C9FFF08BD10B500F003FCFFF781FA064CA8
S3150800442C02232370FFF78CFD00232370FFF7C0FED1
S3150800443C0323237010BD00BFAC00002000B583B069
S3150800444C0DF107012048FFF7E7FA012817D00DF1FF
S3150800445C07011D48FFF7AEFD012819D00DF107011C
S3150800446C1948FFF713FF01281BD00DF10701164851
S3150800447C00F0C0F901281DD003B05DF804FB134BFE
S3150800448C02221A709DF807100F4800F0EBFBDEE7C6
S3150800449C0E4B00221A709DF807100B4800F0E2FB31
S315080044ACDCE70A4B03221A709DF80710064800F041
S315080044BCD9FBDAE7054B04221A709DF80710024857
S315080044CC00F0D0FBD8E700BFA44A0020AC000020BF
S315080044DC08B5FFF79FFE08BD38B504460D46124BC6
S315080044EC1B78022B0DD0104B1B7873B10E4B1B7817
S315080044FC032B0FD00C4B1B78042B10D000F0AAFB07
S3150800450C38BDC9B2FFF762FAEDE7E9B22046FFF704
S3150800451C35FDEBE7E9B22046FFF788FEEAE7E9B294
S3150800452C204600F043F9E9E7AC000020054B1B7860
S3150800453C022B03D0032B03D13F207047082070476A
S3150800454C81207047AC000020054B1B78022B03D04A
S3150800455C032B03D13F2070470820704781207047F2
S3150800456CAC00002008B500F06DFB00B1012008BDB9
S3150800457C08B500F00BF9034B04221A70FFF716FF67
S3150800458C08BD00BFAC00002008B5FBF7F3FF08BD5B
S3150800459C08B5FBF7F4FF08BD10B5FFF7F7F8B8B97F
S315080045ACFFF7E6FD464B1B68984209D303F5FA73E9
S315080045BC434A13600024002C37D00024002C4AD020
S315080045CCFFF7D6FD3F4B1B68984259D2002460E092
S315080045DC3D4A10803D4B9C894FF4006003F044FF24
S315080045EC844213D0394B9C8940F6060003F03CFFF5
S315080045FC8442D5D104F0A0FE334B1B88002BCFD0B8
S3150800460CFFF7F6F8304B00221A80C9E7012003F0B1
S3150800461C65FF2D4B1B88002BC2D004F0FDFEFFF75F
S3150800462CE7F8294B00221A80BAE7AC22284B02FB82
S3150800463C0433284A1360022003F050FF224B1B88D0
S3150800464C0BB90134B7E704F0E7FEFFF7D1F81E4BB8
S3150800465C00221A80F5E7204B03EB84131F4A1360DC
S3150800466C052003F03BFF184B1B880BB90134A5E753
S3150800467C04F0D2FEFFF7BCF8134B00221A80F5E7BC
S3150800468C03F51C5310330F4A136004F025FE9DE7FF
S3150800469C0134A4B9AC220E4B02FB04330D4A136049
S315080046AC032003F01BFF084B1B88002BF0D004F0EB
S315080046BCB3FEFFF79DF8044B00221A80E8E710BDFD
S315080046CC344B0020304B0020545000206050002002
S315080046DCA04F00204C500020584F0020984F002027
S315080046EC224B1B7803B1704710B582B0FEF7C8FF92
S315080046FCFFF73EFD00F5FA701D4B1860FFF738FD05
S3150800470C00F51C5010301B4B186003F055FE0023A7
S3150800471CADF80430ADF80630174A13805380174AA3
S3150800472C13805380164A138053804EF6030003F009
S3150800473C83FEFFF707F8134C2046FFF717F80621F8
S3150800474C204603F04FFC03F06BFCFFF729FE42F200
S3150800475C0F73984204D90C4B01221A7002B010BD83
S3150800476C42F21070FFF716FEF5E700BFAD00002009
S3150800477C344B0020304B0020645600205C56002039
S3150800478C60560020284B0020254B002008B5054B09
S3150800479C00221A70044B1B7803B108BDFFF7A0FF63
S315080047ACFBE700BFAD000020254B00200F4B1B7804
S315080047BC012B00D0704730B40D4B1C68E569256297
S315080047CC002307E01A1D10F803C0224482F820C003
S315080047DC01339BB29942F5D80431A4F8A6100123EB
S315080047EC84F8A8301D44E56130BC7047254B002081
S315080047FC4C50002008B5044B1B78012B01D0002027
S3150800480C08BDFFF7C9FEFAE7254B002010B5284B63
S3150800481C1C68284B1B7813F0400F29D113F0010F95
S3150800482C02D0002284F8A92013F0040F03D094F8C0
S3150800483CA930012B26D01F4B1B7813F0080F03D079
S3150800484C94F8A830012B24D01A4B1B7813F0020FBE
S3150800485C17D0194B1988852913D894F8A93083B918
S3150800486C164B18680439C9B2043000F0FBF908E095
S3150800487C0123E3610023A4F8A63084F8A83084F851
S3150800488CA93010BDB4F8A61004F1200004F08AFC77
S3150800489CD1E7002384F8A830B4F8A6100029D3D0A1
S315080048AC012384F8A93004F1200004F07BFCCBE743
S315080048BC4C50002050500020545000205C500020D2
S315080048CC024B002283F88220704700BF384B002029
S315080048DC034BFE221A7058700222A3F886207047E2
S315080048EC384B00200378427843EA0223827843EA5D
S315080048FC0243C07843EA006070470870C0F3072388
S3150800490C4B70C0F307438B70000EC87070470000DD
S3150800491C10B5064C002384F88130FFF7D1FFFF232E
S3150800492C23700123A4F8863010BD00BF384B002035
S3150800493C074BFF221A7000225A7093F8821099704E
S3150800494CDA701A715A710622A3F88620704700BFCE
S3150800495C384B002008B50020FFF7BAFF08BD000049
S3150800496C10B5094CFF232370084BC4F88830002374
S3150800497C6370A370E370211D0720FFF7BEFF0823A1
S3150800498CA4F8863010BD00BF384B0020B899000833
S3150800499C10B5064CFF2323700430FFF7A3FFC4F8A9
S315080049AC88000123A4F8863010BD00BF384B0020C0
S315080049BC08B53120FFF78CFF08BD08B52020FFF796
S315080049CC87FF08BD38B5084CFF2323700025657092
S315080049DCA570FFF7ABFDE07025716571A57107230E
S315080049ECA4F8863038BD00BF384B002038B5FFF721
S315080049FC67FF0F4C012584F88150FF232370002391
S31508004A0C637010226270A370FFF790FDE070FFF7D9
S31508004A1C9BFD2071FFF798FDC0F307206071A57107
S31508004A2CE5710823A4F88630FFF74AFA38BD00BFAB
S31508004A3C384B002038B50446FFF778FD627890426B
S31508004A4C12D90B4DD5F88810681CFFF729F8FF23E7
S31508004A5C2B70D5F8883062781344C5F8883063789B
S31508004A6C0133A5F8863038BD2220FFF731FFFAE767
S31508004A7C384B002038B50446FFF758FD6378984242
S31508004A8C17D9201DFFF72EFF01460C4DC5F88800D7
S31508004A9C6278681CFFF704F8FF232B70D5F888306A
S31508004AAC62781344C5F8883063780133A5F88630E4
S31508004ABC38BD2220FFF70CFFFAE700BF384B002061
S31508004ACCF8B505461746002406E015F8013B1C44C4
S31508004ADCE4B2FFF75DFD31464E1E0029F5D13C6068
S31508004AEC0120F8BD30B583B0002501950B4CFF238A
S31508004AFC23700430FFF7F6FE014601AAD4F88800A5
S31508004B0CFFF7DEFF6070211D0198FFF7F6FEA57012
S31508004B1CE5700823A4F8863003B030BD384B002066
S31508004B2C38B504460E4BD3F88850FFF7FFFC621CC9
S31508004B3C411E2846FFF7C8F970B1094CFF232370AC
S31508004B4CFFF7F4FCD4F8883001380344C4F88830ED
S31508004B5C0123A4F8863038BD3120FFF7B9FEFAE7F1
S31508004B6C384B002010B50446FFF7E0FC0138637893
S31508004B7C984216DD134BFF221A700122A3F88620E1
S31508004B8C617891B1A21C0F4BD3F88800FFF79CF9FA
S31508004B9C98B10C4AD2F8883061780B44C2F8883040
S31508004BAC10BD2220FFF794FEFAE7FFF79DF90028BF
S31508004BBCF6D13120FFF78CFEF2E73120FFF788FE9D
S31508004BCCEEE700BF384B002010B50B4BD3F88840E6
S31508004BDC0430FFF787FE01462046FFF779F930B116
S31508004BEC054BFF221A700122A3F8862010BD31202E
S31508004BFCFFF76EFEFAE700BF384B002008B5FEF744
S31508004C0C29FF034BFF221A700122A3F8862008BD40
S31508004C1C384B002008B589B2FFF75EFC08BD0000CA
S31508004C2C074B002283F88120C3F8882083F8842058
S31508004C3CA3F8862083F8832083F88220704700BF68
S31508004C4C384B0020024B93F8810000B101207047C5
S31508004C5C384B0020024B002283F88420704700BF93
S31508004C6C384B002008B50378FF2B24D0364A92F827
S31508004C7C8120012A2BD1C93B352B56D8DFE803F006
S31508004C8C4055554F55554C4349465555555555550B
S31508004C9C55555555555555555555555555555555AA
S31508004CAC55555555555555555255312B282E55553F
S31508004CBC553455373A3DFFF799FE234B93F8843014
S31508004CCC012B36D0204BB3F98610002935DC08BDEC
S31508004CDCFFF7B0FEF1E7FFF7CDFEEEE7FFF758FE5C
S31508004CECEBE7FFF7FFFEE8E7FFF73AFEE5E7FFF726
S31508004CFC31FEE2E7FFF71CFEDFE7FFF709FEDCE70C
S31508004D0CFFF70EFFD9E7FFF72DFFD6E7FFF75AFE99
S31508004D1CD3E7FFF759FFD0E7FFF770FFCDE7FFF7AB
S31508004D2C47FECAE7FFF749FEC7E72020FFF7D0FD85
S31508004D3CC3E71020FFF7CCFDC4E71846012380F81B
S31508004D4C8430FFF767FFC2E7384B0020704770477F
S31508004D5C88B90A4BAC2101FB003393F8593033B9A7
S31508004D6C064B01FB00335B791BB101207047012010
S31508004D7C7047002070470020704700BF444C002045
S31508004D8C08B10020704708B50346AC2202FB03F3B2
S31508004D9C60330248184400F0DBFB08BD444C002085
S31508004DAC08B10020704708B50346AC2000FB03F396
S31508004DBC03F1580013460A4602490144002002F042
S31508004DCCE1FF08BD444C002008B10020704708B527
S31508004DDC03464FF0AC0C05480CFB030093B20A468D
S31508004DEC011D002002F0F7FE08BD00BF444C002050
S31508004DFC08B10020704708B5AC22034902FB001124
S31508004E0C043102F0A6FE08BD444C00202DE9F043FF
S31508004E1C85B0AC2200211C4804F0CDFB002414B14B
S31508004E2C05B0BDE8F083AC2504FB05F505F1680370
S31508004E3CDFF8548043440433E601DFF8509009EB5D
S31508004E4CC41205F158004027039702920197009364
S31508004E5C00231A461946404402F023FE05F11003B6
S31508004E6C434408333E444E4405EB08000397029628
S31508004E7C01970093002301221946043002F011FE13
S31508004E8C0134E4B2CBE700BF444C0020C44B0020ED
S31508004E9C70B500240CB1012070BDAC2504FB05F5DA
S31508004EAC05F15800054E304402F012FEA8190430DC
S31508004EBC02F00EFE0134E4B2ECE700BF444C0020CD
S31508004ECC2DE9F04100250DB1BDE8F081AC2405FBB8
S31508004EDC04F40B4E04EB06080027375504F1600062
S31508004EEC304400F0BCFB88F8597004F108003044D3
S31508004EFC043000F0B4FB88F805700135EDB2E2E732
S31508004F0C444C00202DE9F8434B79FF2B40F0858063
S31508004F1C07460C468E18087801EB000800250DB1DB
S31508004F2C00207BE02846FFF713FF10B10135EDB2E0
S31508004F3CF5E7AC2303FB05F5394B05EB0309A2781A
S31508004F4C5A5512E04FF0E023D3F8F03D13F0010F59
S31508004F5C00D000BE002061E009F1040199F8052093
S31508004F6C002A41D098F800309844B04551D298F8A8
S31508004F7C003043449E424CD398F80130042B48D059
S31508004F8C0B2B46D0052BEDD14146384600F0F8FEE2
S31508004F9C0028D7D098F80230DA09DDD109F1580182
S31508004FAC99F85920002ADDD189F85930B8F8043017
S31508004FBCC3F30A03B3F5007F14BF0023012399F842
S31508004FCC582063F3410289F85820384602F05EFEF1
S31508004FDC0028C7D14FF0E023D3F8F03D13F0010FAA
S31508004FEC00D000BE002019E089F80530B8F8043066
S31508004FFCC3F30A03B3F5007F14BF0023012399F802
S3150800500C042063F3410289F80420384602F0A1FD16
S3150800501CA8E7A8EB040080B200E00020BDE8F883FE
S3150800502C444C00202DE9F04105461F46002464B186
S3150800503C002C43D1A04696F859308B4213D073797D
S3150800504C8B4228D00120BDE8F081AC231C4E03FB13
S3150800505C046696F859308B42EAD073798B42E7D0BE
S3150800506C0134E4B2E3E7B6F864306BB9BAB2154961
S3150800507C01EBC8112046FFF769FE06F158012846D0
S3150800508C02F004FE0120DEE7BAB2F16D06F160000B
S3150800509C00F0DBFAEAE7B9B22046FFF758FE043609
S315080050AC3146284602F055FD08B10120CBE73A46B1
S315080050BC3146284602F00EFD0120C4E70020C2E75F
S315080050CC444C0020C44B002003460A4490B281424B
S315080050DC02D8B0EB430F03DB5B009BB2C01A80B25D
S315080050EC704710B586460846BEF804C09A420CD3DB
S315080050FCD41AA4B224B3A44514D294450CD8A2EB62
S3150800510C0C0293B2AEF80A300CE0D41A4FEA4C01F2
S3150800511C11FA84F4A4B2EDE7624493B2F2E7A3EB76
S3150800512C0C039BB29C45FAD9DEF80010BEF8062093
S3150800513CC2F30E0202FB031104F06AFA012010BD39
S3150800514C0020FCE730B583B00546940803E051F817
S3150800515C044B2C601C46631E9BB2002CF7D112F034
S3150800516C030201D103B030BD0023019301A804F05A
S3150800517C4FFA019B2B60F5E72DE9F04782B00546FF
S3150800518C0E469DF828E0B0F804C0ACEB030080B2DC
S3150800519CA3EB0C0C94441FFA8CFCE988C1F30E099A
S315080051AC19FB00F7BFB219FB0CFC1FFA8CFA2C681A
S315080051BC09FB0348BEF1000F05D0BEF1010F17D04D
S315080051CC02B0BDE8F0874946904206D301FB02F2CD
S315080051DC4146304604F01CFAF2E73A464146304658
S315080051EC04F016FA52462968F01904F011FAE7E7A2
S315080051FC904207D319FB02F292B241463046FFF7AA
S3150800520CA1FFDDE727F003021FFA82F94A46414659
S3150800521C3046FFF797FF08EB090217F003012CD06D
S3150800522CC1F10407BFB2574528BF5746FFB2AAEBD0
S3150800523C070C1FFA8CFA0023019301A804E012F854
S3150800524C011B00F8011B19464B1EDBB20029F6D1CF
S3150800525C296804E011F8012B00F8012B1F467B1E68
S3150800526CDBB2002FF6D1019B3360BAF1000FA7D041
S3150800527C52463046FFF766FFA2E72968F5E730B5D0
S3150800528C83B09E46BDF81830B0F804C09E4511D3BD
S3150800529CAEEB0304A4B224B3A44507D2F44511D843
S315080052ACAEEB0C0E1FFA8EF343816446944210D370
S315080052BC14460EE0AEEB03044FEA4C0515FA84F4DB
S315080052CCA4B2E8E7E6441FFA8EF3EDE7A3EB0C036A
S315080052DC9BB29C45FAD99DF81C2000922246FFF7F2
S315080052EC4BFF204603B030BD30B583B00446B0F84A
S315080052FC08C04589ADB2019300951FFA8CF3FFF7E8
S3150800530CBEFF05466189024689B2A088FFF7DCFE16
S3150800531C6081284603B030BD10B582B0940803E00E
S3150800532C0C6840F8044B1C46631E9BB2002CF7D144
S3150800533C12F0030201D102B010BD0B68019301A94A
S3150800534C04F066F9F7E72DE9F04782B005460E46F4
S3150800535C9DF828E0B0F804C0ACEB030189B2A3EBC6
S3150800536C0C0C94441FFA8CFCC088C0F30E0919FB6C
S3150800537C01F7BFB219FB0CFC1FFA8CFA2C6809FB57
S3150800538C0348BEF1000F05D0BEF1010F17D002B0CD
S3150800539CBDE8F0874846914206D300FB02F2314637
S315080053AC404604F035F9F2E73A463146404604F0F1
S315080053BC2FF95246F119286804F02AF9E7E79142C1
S315080053CC07D319FB02F292B231464046FFF7A4FF07
S315080053DCDDE727F003021FFA82F94A4631464046B2
S315080053ECFFF79AFF08EB090217F003002AD0C0F161
S315080053FC0407BFB2574528BF5746FFB2AAEB070C9E
S3150800540C1FFA8CFA3368019301A904E011F8010B11
S3150800541C02F8010B1846431EDBB20028F6D12868A1
S3150800542C04E011F8012B00F8012B1F467B1EDBB29A
S3150800543C002FF6D1BAF1000FA9D052463146FFF724
S3150800544C6BFFA4E72868F5E72DE9F04383B091468E
S3150800545C002A60D0044688461F460689B6B2B0F8BC
S3150800546C0AC01FFA8CF1C379DB091BD185888E42D9
S3150800547C10D3A6EB010C1FFA8CFC654550D9A5EB8D
S3150800548C0C05ADB24D4528BF4D46002D44D0A2881B
S3150800549C334631E0A6EB010C6B0013FA8CFC1FFAB1
S315080054AC8CFCEAE78588954209D8FFB9A2EB050971
S315080054BCC388C3F30E0303FB09880E46E5E78E4241
S315080054CC0ED3731A9BB24B44B3EB450F10DBA5EB0B
S315080054DC090292B22846FFF7F7FD06464D46D4E771
S315080054EC731A6A0012FA83F39BB2ECE70E46CCE702
