S31508000000F0220020390200084102000843020008D5
S3150800001045020008470200084902000800000000DF
S315080000200000000000000000000000004B0200086D
S315080000304D020008000000004F02000825250008B0
S31508000040530200085302000853020008530200082E
S31508000050530200085302000853020008530200081E
S31508000060530200085302000853020008530200080E
S3150800007053020008530200085302000853020008FE
S3150800008053020008530200085302000853020008EE
S3150800009053020008530200085302000853020008DE
S315080000A053020008530200085302000853020008CE
S315080000B053020008530200085302000853020008BE
S315080000C053020008530200085302000853020008AE
S315080000D0530200085302000853020008530200089E
S315080000E0530200085302000853020008530200088E
S315080000F0530200085302000853020008530200087E
S31508000100530200085302000853020008530200086D
S31508000110530200085302000853020008530200085D
S31508000120530200085302000853020008530200084D
S3150800013053020008000000000000000053020008F7
S31508000140530200085302000853020008530200082D
S31508000150530200085302000853020008530200081D
S31508000160530200085302000853020008530200080D
S3150800017053020008530200080000000000000000B7
S31508000180530200085302000800F002F800F045F890
S315080001900AA090E8000C82448344AAF10107DA45D4
S315080001A001D100F03AF8AFF2090EBAE80F0013F0E1
S315080001B0010F18BFFB1A43F001031847647C0000BF
S315080001C0847C0000103A24BF78C878C1FAD8520750
S315080001D024BF30C830C144BF04680C6070470000B3
S315080001E00023002400250026103A28BF78C1FBD832
S315080001F0520728BF30C148BF0B6070471FB507F0CC
S315080002002BFA00F0B7F904000020002107F00EFAD7
S31508000210401C60601FBD10B510BD00F023FA1146E2
S31508000220FFF7ECFF05F0AAFC00F041FA03B4FFF76C
S31508000230F2FF03BC00F044FA094880470948004722
S31508000240FEE7FEE7FEE7FEE7FEE7FEE7FEE7FEE778
S31508000250FEE7FEE704480549054A064B70470000D5
S315080002602925000889010008F0180020F02200203E
S31508000270F01A0020F01A002010B500F07BF9001DD6
S3150800028010BD00BFA973000053EA020C00F0698094
S315080002902DE9F04B4FF00006002B1FBFB3FA83F58C
S315080002A003FA05F424FA05F65E4012BF1643B2FABD
S315080002B082F502FA05F4C5F120051EBF22FA05FCEF
S315080002C044EA0C04203556EA044C4FEA144418BF95
S315080002D0641C4FF000084FF00009904271EB030CC4
S315080002E039D3002919BFB1FA81F701FA07F6B0FA2E
S315080002F080F700FA07F6C7F120071EBF20FA07FCA9
S3150800030046EA0C062037B6FBF4FCA7EB0507103FB8
S3150800031007F01F0BCBF120062CFA06F60CFA0BFB9E
S3150800032044BFB3460026202FA4BF5E464FF0000BFD
S315080003305BEA060C08BF4FF0010B19EB0B0948EBFB
S315080003400608ABFB027C06FB02CC0BFB03CCC01BEE
S3150800035071EB0C01C1E70B46024641464846BDE82B
S31508000360F08B13B5084318BF4FF0FF300146AFF3C3
S315080003700080BDE81C40704710B50446FFF77CFFB7
S315080003800068005D000704D5DF2C02D0A4F1200028
S3150800039010BD204610BD40EA010310B59B070FD1DA
S315080003A0042A0DD310C808C9121F9C42F8D020BAD7
S315080003B019BA884201D9012010BD4FF0FF3010BD8F
S315080003C01AB1D30703D0521C07E0002010BD10F85D
S315080003D0013B11F8014B1B1B07D110F8013B11F823
S315080003E0014B1B1B01D1921EF1D1184610BD10B549
S315080003F0431C02E010F8011B71B18107FAD14FF0D6
S31508000400013202C88C1A8C4314EAC211F9D0C01AF8
S315080004100A0603D0C01E10BDC01A10BD0A0401D0BA
S31508000420801E10BD0902FCD0401E10BDCBB22AB1F9
S3150800043001788B4203D0401C521EF9D10020704728
S31508000440032A40F2308010F0030C00F0158011F8F2
S31508000450013BBCF1020F624498BF11F801CB00F8CA
S31508000460013B38BF11F8013BA2F1040298BF00F81E
S3150800047001CB38BF00F8013B11F0030300F07E8082
S31508000480083AC0F0088051F8043B083A51F804CB02
S31508000490A0E80810F5E7121D5CBF51F8043B40F8C8
S315080004A0043BAFF30080D20724BF11F8013B11F8D3
S315080004B001CB48BF11F8012B24BF00F8013B00F817
S315080004C001CB48BF00F8012B704702F0FF0343EA4F
S315080004D0032242EA024200F024B84FF0000204293F
S315080004E0C0F0128010F0030C00F01B80CCF1040C55
S315080004F0BCF1020F18BF00F8012BA8BF20F8022B89
S31508000500A1EB0C0100F00DB85FEAC17C24BF00F82E
S31508000510012B00F8012B48BF00F8012B70474FF05C
S31508000520000200B5134694469646203922BFA0E835
S315080005300C50A0E80C50B1F12001BFF4F7AF090741
S3150800054028BFA0E80C5048BF0CC05DF804EB890032
S3150800055028BF40F8042B08BF704748BF20F8022B75
S3150800056011F0804F18BF00F8012B7047704770478D
S3150800057070470000004870479800002010B5203AE0
S31508000580C0F00B80B1E81850A0E81850B1E8185030
S31508000590A0E81850203ABFF4F5AF5FEA027C24BF02
S315080005A0B1E81850A0E8185044BF18C918C0BDE8EB
S315080005B010405FEA827C24BF51F8043B40F8043BB4
S315080005C008BF7047D20728BF31F8023B48BF11F869
S315080005D0012B28BF20F8023B48BF00F8012B7047C3
S315080005E0004870477800002030B44FF0013C50F8BE
S315080005F0042B51F8043BCCFA52F4D51A20D1FCB995
S3150800060050F8042B51F8043BCCFA52F4D51A17D1FA
S31508000610B4B950F8042B51F8043BCCFA52F4D51A65
S315080006200ED16CB950F8042B51F8043BCCFA52F4AD
S31508000630D51A05D1002CDAD030BC4FF0000070472F
S3150800064029BAB1FA81F111F01801D1F120008440DC
S31508000650F2D1CA40CB4012F0FF0213F0FF0330BCC0
S31508000660D01A70477546FFF7BBFFAE4605006946C8
S31508000670534620F00700854618B020B5FFF7EAFD77
S31508000680BDE820404FF000064FF000074FF0000885
S315080006904FF0000BAC46ACE8C009ACE8C009ACE8C2
S315080006A0C009ACE8C00921F007018D46704710B5AE
S315080006B00446AFF300802046BDE81040FFF7B6BDFC
S315080006C001491820ABBEFEE726000200704700F07D
S315080006D08EF9FCE710B500F043F9012814D000F0B4
S315080006E07BFB88B1194C207801280DD101F02AFF2F
S315080006F0D4E90112114401F5FA71884204D30020A5
S31508000700207000F021FB00B110BDBDE8104000F0DC
S3150800071087B900BF0D484068704700BF80B50B48D1
S315080007200121017000F004F8BDE88040FFF7D2BF50
S3150800073010B5064C2078012802D101F003FFA0600D
S3150800074010BD00BF01494860704700BFE0000020A7
S3150800075080B500F050F900F045F901F0F9FE01F016
S31508000760A9FD00F005FB00F0EDF8BDE88040FFF7B5
S31508000770D5BF80B500F03BF901F042FF00F058FC08
S3150800078000F0F6F8BDE88040FFF7A4BFF0B58BB0DF
S3150800079001A801F081FC03994FF47A702D4A0024D0
S315080007A04FF4FA7E4FF0FF3C0026B1FBF0F0122E14
S315080007B014D002EB460112F816704D78E91911FBB0
S315080007C00EE3B0FBF3F101FB13032BB91CFA81F31B
S315080007D00C46B3F5806F0AD30136E8E720A0B521A9
S315080007E0FFF775FF1C48214600F5702205E01A48F8
S315080007F01A4A00EB055002EB0742424C224B0025F1
S31508000800012689B2C4E904202046C4E90856C4E989
S315080008100A55C4E90031C4E90255C4E9065501F090
S3150800082071F80E200896CDE906550595CDE90960BB
S31508000830042004904FF6E070CDE902504CF6E040F3
S31508000840019001A9204600F091FF204601F0D6F854
S315080008500BB0F0BD407700080000F0FF0000FFFF76
S315080008602E2E2F2E2E2F2E2E2F2E2E2F536F7572A5
S3150800087063652F41524D434D345F53544D333246D1
S31508000880342F63616E2E630000640040B0B588B0F3
S3150800089003461C480C4601AA0021002500F0CCFF9F
S315080008A058B9019940F26760814201D1039808B1AD
S315080008B0002502E0059801252070284608B0B0BD3D
S315080008C0B0B588B0024600200691CDE9040040F292
S315080008D0E17002900B4802A901AB00F007FF78B956
S315080008E001F030FE074C00F132050199204601F06F
S315080008F075F828B100F07BF801F024FEA842F4D977
S3150800090008B0B0BDB40A002001F0C0BE3448006883
S31508000910022804BF08207047042804BF81207047B6
S3150800092003284FF03F0070472D480068022804BF8F
S3150800093008207047042804BF8120704703284FF019
S315080009403F00704710B501F057FFFFF71FFF244C13
S315080009500220206001F0A6FE0320206010BD00BF23
S3150800096080B501F051FF002818BF012080BD0000A6
S31508000970E0B50F480DF10701FFF788FF012807D1F9
S315080009801748022101609DF80710094801F044FF45
S3150800099007480DF1070101F0CBFE012807D11048E1
S315080009A0032101609DF80710014801F035FF8CBD51
S315080009B07802002070B50A4E04460D4630680228B3
S315080009C004D1E9B22046FFF77BFF3068032803D13C
S315080009D0E9B2204601F0E4FEBDE8704002F048B8EE
S315080009E050000020AFF30080642001F033BCAFF361
S315080009F0008001F033BCAFF3008072B6704762B670
S31508000A00704770B514460D460646200408BF70BDEB
S31508000A1015F8010B013C06F8010BFFF7E8FFF4E7B0
S31508000A2010B501F049FCB8B100F01CF8A0B1FFF709
S31508000A306BFF01F007F801F0C5FD01F039FC074925
S31508000A4008400749086001F033FC4468FFF7D7FF00
S31508000A502046BDE81040004710BD00BF80FFFF1FBD
S31508000A6008ED00E080B505480068C0071CBF0020F7
S31508000A7080BD01F0E9FB012080BD00BF10000240E7
S31508000A804B4A0329136823F4407313604FF44073E9
S31508000A9038BF0B02116819431160116821F07801FB
S31508000AA01160116841EAC00040F002001060106849
S31508000AB040F48030106070471348016889050FD5E7
S31508000AC0016821F400710160016841F40061016068
S31508000AD0016821F400610160016841F40071016058
S31508000AE0016849050FD5016821F480610160016834
S31508000AF041F480510160016821F480510160016868
S31508000B0041F4806101607047003C024028490A6848
S31508000B1022F440720A600A6842F004020A600A680F
S31508000B2042EA002040F4803008607047204A136883
S31508000B3023F44073136013681360136843F00103CA
S31508000B4013600170704700BF10B519490C6824F48A
S31508000B5040740C600C6844F440740C600C6844F0F3
S31508000B6001040C600260BFF36F8F436010BD00BFC5
S31508000B700F4A136823F440731360136843F48073B1
S31508000B801360136843F0010313600180704700BFC8
S31508000B90074A136823F440731360136843F4007319
S31508000BA01360136843F0010313600160704700BFC8
S31508000BB0103C02402D480168C90606D52A49CA696B
S31508000BC042F01002CA61102101600168890606D543
S31508000BD02549CA6942F00802CA61202101600168F4
S31508000BE0490606D52049CA6942F00402CA6140216D
S31508000BF001600168090606D51B49CA6942F0020266
S31508000C00CA61802101600168890706D51649CA6943
S31508000C1042F02002CA61022101607047F8B5044615
S31508000C2011480021114EC16100F0D0FF0546671C2E
S31508000C303068C00309D5002FFAD024B100F0C6FFEA
S31508000C40401BA042F4D90320F8BD3068C0071CBF7A
S31508000C5001203060306810F0F20F04BF0020F8BDA4
S31508000C60FFF7A8FF0120F8BD540000200C3C024005
S31508000C70B0B52F4890F82802012802D12C4803F075
S31508000C80D7FF01F05FFC214D00F164042868400697
S31508000C9003D401F057FCA042F8D94E48BDE8B0404D
S31508000CA004F0B6BA224890F82802012818BF7047FF
S31508000CB01F4803F0BDBF00BF70B504461C4890F836
S31508000CC0280201280DD11A4D2046294604F092F92A
S31508000CD0B0F1FF3F05DC002085F82802284603F01E
S31508000CE0A7FF0A4D207878B1686001F02BFC00F167
S31508000CF00A062868000605D4FFF779FE01F022FCEB
S31508000D00B042F6D90134EDE770BD00BF004400409B
S31508000D1010B5074C002007A10A2284F828022046AD
S31508000D2004F076F800B110BD012084F8280210BD41
S31508000D30CC1000202F626F6F746C6F672E747874F6
S31508000D40000000002348704710B5FFF709FE01466A
S31508000D50002001290AD0524C216839B900F020F840
S31508000D6001281CBF002010BD0120206010BD00BF57
S31508000D7080B50848002100220160074807A104F051
S31508000D8021F828B19A487821BDE88040FFF79FBC32
S31508000D9080BD00BFEC000020EC0A0020303A0000BD
S31508000DA010B5C6B06C464FF48C712046FFF7B7FBFA
S31508000DB00848214604F0D4F910B1002046B010BD09
S31508000DC000980028F9D09DF80800C006F5D401203F
S31508000DD0F4E700BF7678000831480068B0FA80F07A
S31508000DE04009704703210A2861F31F1002D3073010
S31508000DF0C0B205E080B5C0B2FFF7BEFABDE88040D4
S31508000E00C0B27047B0B5054600090C46FFF7EAFFC1
S31508000E10207005F00F00FFF7E5FF00216070A17054
S31508000E20B0BDF8B5044600266FF02F070025022E40
S31508000E3016D0A05DFFF7A0FA57FA80F116290ED84A
S31508000E40C1B23A3907290AD3A0F13001CAB2092A30
S31508000E5088BFA0F1370101EB05150136E7E7002544
S31508000E60E8B2F8BD10B50E490A2203460C31B3FBA9
S31508000E70F2F40131092B2346F9D8002201F8012999
S31508000E800A22B0FBF2F3092803EB8304A0EB44041F
S31508000E90184644F0300401F80149F2D810BD00BFE5
S31508000EA0EC00002010B504460078FFF765FA5328D1
S31508000EB00CD1FFF7E1F961780068405C202805D17C
S31508000EC0A1F13100C0B2022898BF10BD032010BDA1
S31508000ED02DE9F04792460E46054600B126B9444824
S31508000EE040F20A31FFF7F3FB2846FFF7DBFF03283A
S31508000EF001D100262AE00746284600F07DF818B3F7
S31508000F00022F26D0012F4FD0002FF2D1394CA81C22
S31508000F10A0478046281DA047074600023060A81D46
S31508000F20A04740EA0720BAF1000F3060A8F103068F
S31508000F300CD008350027BCB2B44207DA2846FFF7BA
S31508000F4070FF01F004FAF6E74FF6FF7630B2BDE817
S31508000F50F087DFF8A090A81CC8478046281DC84718
S31508000F60074600063060A81DC847000440EA076423
S31508000F7005F108003460C84744EA002405F10A0070
S31508000F803460C8472044BAF1000F3060A8F105065E
S31508000F90DCD00C350027BCB2B442D7DA2846FFF7B6
S31508000FA040FF01F0D4F9F6E7124CA81CA04780468A
S31508000FB0281DA047074600043060A81DA047000268
S31508000FC040EA074705F108003760A0473844BAF1F8
S31508000FD0000F3060A8F10406B8D00A350027BCB265
S31508000FE0B442B3DA2846FFF71CFF01F0B0F9F6E77A
S31508000FF00E7A0008230E000870B504460230FFF783
S3150800100010FF0546043406462046FFF70AFF013D51
S3150800101006440234A8B20128F6D8F043C5B22046E1
S31508001020FFF7FFFE401BB0FA80F0400970BD0000D4
S315080010302DE9F84FB64E3068002800F06081022886
S315080010401FD0012828D101F035F9FFF761FEBBA0B2
S31508001050FFF732FEC2A0FFF72FFEFFF773FE014629
S31508001060AC48012200F50D7003F0D2FE40B3002013
S315080010703060AA48FFF720FE0120BDE8F84FFFF7C9
S3150800108011BEA44FA44D01F031F997F8451231B3BA
S3150800109000203060A14809E09E4F9F4D01F026F9D7
S315080010A097F84512C9B300203060C048FFF704FE20
S315080010B00220FFF7F7FD2046BDE8F84F03F0B8BD5C
S315080010C09748984CA047B0A0A04700200221C6E93F
S315080010D00010B06098482146BDE8F84F0847002838
S315080010E000F0CC8005F5C071284600224FF00008B4
S315080010F0FFF7EEFE8146013070D0B9F1010FC0F25C
S31508001100BD80B068D5F88011002879D0726802448D
S3150800111091427ED14844B060B0E000283FD005F542
S31508001120807805F5C07128464246FFF7D1FE82460B
S31508001130013057D0BAF1010F31DB9D48DFF8E4B131
S31508001140D8475046FFF78EFE06F10C094846D847A1
S3150800115098A0D84795F88301DFF8D4B14946D8470F
S3150800116095F8820106F10E01D84795F8810106F136
S315080011701001D84795F8800106F11201D84748466C
S31508001180DFF8A091C8476B48C847D5F88001514693
S31508001190424601F093F8A8B36148FFF78DFDD7F8EA
S315080011A04002D7F84812814240F0A9808848FFF7E4
S315080011B083FD01F071F8E0B159485A4DA8478548B2
S315080011C0A847204603F034FD8348A847002030602E
S315080011D0FFF74EFDBDE8F84FFFF722BC4F48C6F8AB
S315080011E0008002E0002030607848FFF765FD0320A4
S315080011F05FE7002030604948FFF75EFD072058E7A3
S31508001200716039E0002030604448FFF755FD06203C
S315080012104FE74348DFF80CA1D0474348D047B068AA
S31508001220FFF720FE06F10C084046D0473F48D04756
S31508001230F079DFF8FCB04146D847B07906F10E01DF
S31508001240D847707906F11001D847307906F11201AE
S31508001250D8474046D0473748D047D6E9010101F07C
S3150800126025F800284DD02E48FFF726FD3248FFF70F
S3150800127023FDD5F880017060C6F80890D7F84002BB
S31508001280D7F8481281423AD120460021002503F0BA
S3150800129009FD28B121483560FFF70EFD042008E74F
S315080012A0B06838B31E48DFF87C80C0471E48C04780
S315080012B0B068FFF7D7FD06F10C052846C0471B485E
S315080012C0C047F0791A4F2946B847B07906F10E019A
S315080012D0B847707906F11001B847307906F112015E
S315080012E0B8472846C0471348C047D6E9010100F069
S315080012F0DDFF30B10A48FFF7DFFC03203060BDE8A8
S31508001300F88F002030600548FFF7D6FC0520D0E6A8
S31508001310EC000020EC0A0020480F00206379000842
S3150800132024790008B90C0008B9790008287A000859
S31508001330050E00080A7A0008DE7900084669726D0B
S315080013407761726520757064617465207265717560
S315080013506573742064657465637465640A0D0000BA
S315080013604F70656E696E67206669726D7761726522
S315080013702066696C6520666F722072656164696EA5
S31508001380672E2E2E000000005374617274696E6712
S31508001390207468652070726F6772616D6D696E671B
S315080013A02073657175656E63650A0D004A790008D4
S315080013B0AC79000820627974657320746F206D65B6
S315080013C06D6F7279206174203078000029790008E1
S315080013D0C2790008947900086B7900082DE9F8436A
S315080013E0814640F2FF101C461546884621EA00074A
S315080013F0D9F80000411C06D14846394600F0CCF819
S3150800140048B3D9F80000B84206D04846394600F035
S31508001410D3F800B307688146A8EB07004844071DC0
S31508001420A7EB0900061FFFF7E2FAB6F5007F09D316
S31508001430D9F8000000F50071484600F0BDF850B133
S315080014408146071D15F8010B013C07F8010BE7D18A
S315080014500120BDE8F8830020BDE8F88380B5A148DF
S315080014600068013003D09F4800F0FEF848B17D4877
S315080014700068013003D07B4800F0F6F808B1012077
S3150800148080BD002080BD00BF2DE9F04F87B005461E
S3150800149072484E1E401B864251D8284600F05AF81C
S315080014A00446701900F056F8FF2C48D000268346EB
S315080014B0FF2845D001965C454FF0000098BF0120F3
S315080014C0032C3DD3BBF10B0F3AD85C4538D80090B6
S315080014D002200690002002900120059000F062FB91
S315080014E0274E0DF1040AE7B25F452DD8002000F11A
S315080014F00C01782919D03044007AB8420846F6D14A
S3150800150070184FF0000950E903504FEA9008C84593
S3150800151013D05FEA096008BFFFF769FA55F8290092
S31508001520013002D109F10109F1E7FFF760FA0497E2
S3150800153002A8514600F0A4FA40B90134D3E70026C0
S31508001540304607B0BDE8F08F009E00E0002600F0A8
S31508001550DFFAF5E7F8B50A4E044600256C2D04BFF8
S31508001560FF20F8BD7759FFF742FAA74204D8701949
S3150800157041683944A14201D80C35EFE7007AF8BD35
S31508001580987800082248704756484FF0FF310160A6
S3150800159034480160704700BF80B5CA051CBF0020EB
S315080015A080BD02688A4204D002C04FF40072FFF779
S315080015B028FA012080BD000070B54A4D0C46A842A5
S315080015C00AD006461248844207D0304600F04CF846
S315080015D0354610B9002070BD224D28462146FFF732
S315080015E0DBFF002818BF284670BD00BFF0B50848C5
S315080015F090E8FE00D0F88801114419442144294492
S31508001600314439440844B0FA80F04009F0BD00BFBF
S3150800161000C00008F8B5064610484F1E801B8742D2
S3150800162019D8304615460C46FFF794FFFF2812D006
S31508001630B819FFF78FFFFF280DD0094831462A460B
S315080016402346B0EB562F0CBF2648064801B0BDE826
S31508001650F040FFF7C3BE0020F8BD00BFFFFF0F082C
S3150800166060000400AC0600202DE9F843814600F02E
S3150800167099FA09F1040800240025B4F5007F13D06F
S3150800168058F80460D9F800002718FFF7B0F90220C7
S3150800169039463246002300F043FA30B93868043434
S315080016A0B042EAD0002500E0012500F031FA2846CC
S315080016B0BDE8F8837CB50B480168013104BF0120F9
S315080016C07CBD061DC0697ECE1144194421442944B7
S315080016D031440844042140420190034801AAFFF717
S315080016E099FF7CBDB008002088C1000870B5046861
S315080016F0066B013EA568012E0DD815F0E05F0DD0EA
S31508001700C5F30160012585401D608B6863B14D688E
S3150800171043EAC5030AE000F07EFE23E000F1340147
S3150800172001204FF400121DE00B685B0504EB001066
S31508001730D1E90345496923430129C0F88031C0F836
S31508001740845105D100F5C2710B6843F480730B60B0
S315080017505168C0F88C1111680122C0F8881100F58B
S31508001760C07100200B681A430A6070BDF0B5026BA1
S31508001770013A012A27D82F48026842F0010202607E
S31508001780026822F47C5202604C69CD694A6A036891
S3150800179043EA02220123026004F01F0203FA02F25E
S315080017A0C3699343C361D343012D12D025BBC568D2
S315080017B01D40C56000EBC405CE688F8847EA06461B
S315080017C02E640D4611E0416B41F4802141630120EE
S315080017D0F0BDC5681543C56000EBC4050E688F8863
S315080017E047EA06462E6401F10C058E682D8800EB43
S315080017F0C40445EA0645656444688F690E69096A42
S3150800180044EA0205002F08BF04EA03054560002ED6
S31508001810446944EA020508BF04EA0305012945614B
S3150800182002D1C1691143C161016821F0010101605A
S315080018300020F0BD0066004070B5046B013C012C29
S3150800184003D8046821B1256903E000F0E4FD55E0FA
S31508001850E568AD0748D004EB0114D4F8B05115F08B
S315080018600405956004F5D875D4F8B06119BFF60873
S315080018705660760D16602D6805F00205D56004F5EC
S31508001880DA75D4F8B46136075ABF2E6806F00F0623
S31508001890082616612E68C6F3072696612D682D0C54
S315080018A05561D4F8B8211A7000F04BFD120A5A7027
S315080018B000F047FD120C9A7000F043FD120EDA7024
S315080018C000F001FD1A7100F0FEFC120A5A7100F0D0
S315080018D0FAFC120C9A7100F0F6FC120EDA71006826
S315080018E041B100F1100107E000F1340101204FF485
S315080018F0001203E000F10C01002020220B681A43B5
S315080019000A6070BDB0B590B10446006B10B92046A8
S3150800191000F073F800F061FD054620684168C907C4
S3150800192007D100F053F9401B0B28F6D311E001202C
S31508001930B0BD016821F00201016000F047F90546D3
S315080019402068416889070BD500F040F9401B0B2831
S31508001950F6D3606B052140F40030606301203BE05C
S31508001960A169026822F08002012908BF803202605C
S31508001970E169026822F04002012908BF403202608C
S31508001980216A026822F02002012908BF203202607B
S31508001990616A026822F01002012918BF103202603B
S315080019A0A16A026822F00802012908BF083202600B
S315080019B0E16A026822F00402012908BF04320260C3
S315080019C0251D2ECD1A4363692A4301391A4311434B
S315080019D0C1610020012160632163B0BD026B013A39
S315080019E0012A84BF002070470068806800EA816089
S315080019F0B0EB816018BF012070477047B0B5044648
S31508001A00006B012815D1022020632068016821F0A7
S31508001A100101016000F0DAF8054620684068C00751
S31508001A200DD000F0D3F8401B0B28F6D300F00DFDBF
S31508001A3003E0606B40F4002060630120B0BD002025
S31508001A406063B0BD80B50A480A490B4A01610021A6
S31508001A5001614261094A41610260C1220160426036
S31508001A60012241608260816000F0ECF8002080BDB0
S31508001A7010380240FFC9FEF633797704FF1160205B
S31508001A802DE9F843DFF814810546D8F8180001282F
S31508001A9001D1022638E001208946C8F8180000F06E
S31508001AA018FC064668BB4FF0FF303D4CC9F80000ED
S31508001AB0286801280AD1287CFFF728F800F009FCD5
S31508001AC00646206820F00400206018E0A86807464B
S31508001AD0E968084487420ED2297C3846FEF7D0FFCB
S31508001AE000F0F7FB0646206820F07A00206026B949
S31508001AF0A8680137ECE7002601E0C9F80070FEF790
S31508001B00DBFF0020C8F818003046BDE8F88300BFA0
S31508001B102348016841F0004101600020704700BF7A
S31508001B202DE9F041DFF874800746D8F81800012837
S31508001B3004BF0220BDE8F08101201E4614460D466A
S31508001B40C8F818004CF25030FFF768F808BB022FA7
S31508001B5007D0012F0AD077B9E1B22846FEF7E6FF8B
S31508001B600EE028462146FFF713F809E0A1B22846F9
S31508001B70FEF7FEFF04E0284622463346FEF7E4FF5A
S31508001B804CF25030FFF74AF805490A6822F001027C
S31508001B900A600021C8F81810BDE8F081540000203A
S31508001BA0103C02400648C168B1F1FF3FC4BF00209F
S31508001BB070470449016004490160C068C00F704756
S31508001BC0043C024023016745AB89EFCD00F0BABC5F
S31508001BD080B50B48016841F400710160016841F461
S31508001BE080610160016841F480710160032000F0A2
S31508001BF01FF9002000F006F800F05EF8002080BD0E
S31508001C00003C024070B50D4E04464FF47A71706878
S31508001C10B1FBF0F00A490968B1FBF0F000F01AF9D7
S31508001C2001250F2C08D838B94FF0FF30214600227D
S31508001C30002500F0D7F83460284670BD0000002063
S31508001C404C00002070B500F0DFF9924D174C184E85
S31508001C50686820F08000686004F50060B04704F505
S31508001C608060B0472046B047286920F00070286198
S31508001C701048016821F400510160286920F40030F9
S31508001C802861286820F004002860286820F00200EF
S31508001C902860286820F001002860286920F0805014
S31508001CA02861686920F48040686170BD00000240C0
S31508001CB0B51E00080C4400402DE9F04F8FB043498B
S31508001CC0434C086940F480400861086900F4804084
S31508001CD0019001984FF08050A0473E4D01204FF0EB
S31508001CE0010AA84702204FF00208A8470420A8477F
S31508001CF04FF40030A0474FF00070A047364D0DF165
S31508001D00200BDFF8D89000274FF480565946CDE9C6
S31508001D100B77CDE909A7089605F5E230C84730489C
S31508001D205946066005F5DE360C97CDE908A7304614
S31508001D30C8470720CDE90B7A4FF0030A0C24594609
S31508001D400D903046CDE9098A0894C8474FF461409A
S31508001D50CDE90677CDE90474CDE90277019001A9AA
S31508001D60284600F0F5F92869594620F4904028617C
S31508001D70686920F02A006861E86840F40050E86065
S31508001D800920CDE90B77CDE9098A0D904FF440700B
S31508001D90089005F5E030C8470A205946CDE90B7783
S31508001DA0CDE9098A0D904FF4C05008903046C847CF
S31508001DB00649086840F080000860086800F080005E
S31508001DC00E900E980FB0BDE8F08F00BF3438024071
S31508001DD0991E00087D1E000800440040351F0008B3
S31508001DE018080240F0B5184B4FF0FF361C68C4F3CC
S31508001DF00224E51E84F0070438BF002506FA05F715
S31508001E00BA43042C28BF042406FA04F4A14300F0BC
S31508001E100F04A940043C11432344044A09010C3326
S31508001E20B0F1FF3FC8BF83181970F0BD00E400E0A9
S31508001E3005494FF6FF030A681A4060F30A22034869
S31508001E4010430860704700BF0CED00E00000FA057B
S31508001E5070477047411E0020B0EB116F1CBF012070
S31508001E607047044AF023516003490B7007219060BC
S31508001E701160704710E000E023ED00E081B00549ED
S31508001E800A6802430A60096808400090009801B091
S31508001E90704700BF3038024081B005490A680243DE
S31508001EA00A60096808400090009801B0704700BFB2
S31508001EB0403802400B4908444FEAB020082884BF3E
S31508001EC001207047114A08A151F8201013681943D8
S31508001ED011600FA151F82000116808401060002019
S31508001EE0704700BF0000FEBF0100000002000000AE
S31508001EF00400000008000000100000002000000098
S31508001F004000000080000000000100001038024078
S31508001F10FEFFFFFFFDFFFFFFFBFFFFFFF7FFFFFFD2
S31508001F20EFFFFFFFDFFFFFFFBFFFFFFF7FFFFFFFA3
S31508001F30FFFEFFFF2DE9F04F0C684FF001084FF048
S31508001F40030E4FF00F0C94FAA4F2B2FA82F234FAA6
S31508001F5002F356D008FA02F314EA03064FD0D1F872
S31508001F6004B0ABF10103022B17D296FAA6F5D1E914
S31508001F7002398468B5FA85F56F0009FB06F903FA94
S31508001F8007FA0EFA07F39C4344EA0A048460446895
S31508001F90B44344EA0904446006E096FAA6F3B3FAA1
S31508001FA083F56F000EFA07F30C696FEA0309C36835
S31508001FB0BC4003EA09032343BBF1020FC36016D1F1
S31508001FC0082D4FF0240338BF2023360AD1F814A071
S31508001FD0C45896FAA6F6082D28BFB6FA86F5AD00B7
S31508001FE00CFA05F60AFA05F5B4432C43C450D1E9B0
S31508001FF000430568BB4005EA09052B430360013227
S31508002000A5E70020BDE8F08F81B01F48016841F0C0
S315080020100101016001688907FCD50021816001681A
S3150800202000911A49009A114010220091009921F056
S315080020308061009100990160016862F3C70101603F
S3150800204001688901FCD4124941601249C0F884101C
S31508002050C16821F4F851C160C16821F40051C1601A
S31508002060C16841F41F01C160C16841F40011C16033
S31508002070416F21F001014167416F41F0807141676D
S31508002080002001B0704700BF00380240FFFFF2FE93
S31508002090103000240030002010B5044600F00EFA77
S315080020A00B4920600B4B0A68C2F303129A5C0A4B71
S315080020B0D04060600A68C2F382229A5C20FA02F273
S315080020C0A2600968C1F34231595CC840E06010BD9E
S315080020D00838024074760008847600082DE9F04135
S315080020E00268520625D402684FF6BF73D1F81C80E1
S315080020F022EA030C91E8F800D1E9052E43EA0C031D
S3150800210023430C6A2B4333433B43134343EA0E03EF
S3150800211043EA080323430360B4F5005F436823F0EA
S31508002120040343EA1242426004BF898C016100211C
S3150800213000E00121C26922F40062C2610846BDE8D6
S31508002140F081000001490860704700BF4C0000207C
S31508002150F0B585B00446C068800450D40D46E068E2
S3150800216049F20C6105F1040CAF6988439CE84E10EE
S315080021700843184330433843E060206920F4405050
S3150800218010432061606920F4407040EA0C006061E9
S3150800219001AE3046FFF780FF2548844211D0254816
S315080021A084420ED0244884420BD02448844208D066
S315080021B02348844202D02348844220D106F10C00E9
S315080021C001E006F108000068C8B12B68BBB1AA692E
S315080021D01921A0FB0101B2F5004F13D15A00DB0FFC
S315080021E0FEF752F800F079F803EBC0004FF4F873E5
S315080021F0B0FBF1F000F0070103EA400010E001200F
S3150800220005B0F0BD9A009B0FFEF73EF800F065F8A2
S3150800221003EB0010B0FBF1F000F00F0100F0F00046
S3150800222000EB021080B20844A0600020E8E700BF77
S315080022300044004000480040004C00400050004068
S31508002240001401400010014012484FF4805101600B
S31508002250704700BF0E494880704700BF10B500F0B0
S3150800226071F90B4C6168884210D3207880F001011F
S315080022700028084821704FF0805118BF4FF480514C
S31508002280016000F05FF961880844606010BD00BF16
S31508002290D80000201808024080B5FFF70BFA18B1DD
S315080022A0BDE88040FFF7DAB8002080BDFFF7ECB83C
S315080022B0FFF768B9FFF768B9FFF798B9FFF7AAB942
S315080022C0FF2005F071B9026802EB0112D2F8BC21B1
S315080022D070474CF25030FEF7A1BC64216FF06303DF
S315080022E0B0FBF1F202FB0300322370474FF4807112
S315080022F007F50D742846224602F0A9BCFF20307067
S31508002300201D00F077BA487002F0FD00B2886FF31E
S31508002310DF22A2F50072B2FA82F2520940EA4200BE
S315080023200870284670475846DBF80000C007704713
S315080023308DF8090001988DF808007047002103F010
S315080023400BBF026802EB0112D2F8B82170470AF8EF
S315080023500400013702357047207C00F07F002074A6
S31508002360704790F82C1001F0FD0180F82C1090F8B9
S315080023702C1001F0FE0180F82C107047CAF81400E2
S31508002380DAF8180040F40060CAF81800DAF8080805
S31508002390704799F801000199012302F04FB9B9F87D
S315080023A00A10013901EA5028B8F1000F704704F104
S315080023B028010123012602F041B9204603F00EBA8E
S315080023C094F91000B0F1FF3F704720F010006060EC
S315080023D0206840F04000206070472068016841F09E
S315080023E001010160FFF7F2BB284603F057BDDBF891
S315080023F000005946C007704707208DF80900009865
S315080024008DF8080000208DF80D00704720464FF41F
S31508002410007103F006BE00F1340101204FF480225A
S31508002420704701F00F0004EB400000EBD11414F8DC
S315080024302C0FC007704704F00F01E20900EB4113A7
S3150800244003EB02104489002C7047606B40F400309F
S315080024506063052020637047204603F01FBD20787F
S3150800246000F0FE002070207800F0FB002070704716
S315080024700C464FF0000804F03DBF2946002203F041
S31508002480FEBD9DF800009DF80110424604F02EBAE4
S315080024902046002101F0D8BB7C688DF80100287819
S315080024A0B8F1000F8DF80000704741680120084711
S315080024B0416800200847044604F038BF3C480068D5
S315080024C000F00C00082804D004280CBF1448024861
S315080024D07047082000F002B80024F4000F490828C5
S315080024E00A681CBF0020704750020D485CBF42F2C4
S315080024F00040C0F2F4000A6802F03F02B0FBF2F0B6
S315080025000A680968C2F38812C1F3014150430222DE
S3150800251002EB4101B0FBF1F0704700BF04380240FE
S3150800252000127A00704700000548D0F8801041F480
S315080025307001C0F880104FF000610160704700BF5D
S3150800254008ED00E080B500F05BF83648406880BDCD
S3150800255018B517480124C16B41F00101C163C16B6D
S3150800256001F001010091009912490968026803689F
S31508002570114804604FF6FF74C2F34232C462022463
S3150800258013F4604F0D4B08BF01249A5CD1400C4AE6
S315080025906143B1FBF2F1002201398162416941F0E0
S315080025A0010141611F494A60406A088018BD00BFA1
S315080025B0083802404C0000200000014084760008DC
S315080025C0A08601000B48016841F00101016001681D
S315080025D021F001010160016A21F00101016206484A
S315080025E0002101604160816004484FF0007101607C
S315080025F0704700BF2438024010E000E004ED00E018
S315080026000848094A01881268521A92B2642A08D3FD
S315080026106423B2FBF3F212FB0311018041681144F3
S31508002620416070473801002024000140F0B587B0AA
S31508002630124E0546124C3078B8B91248012701687F
S3150800264041F0040101606946006800F00400069044
S31508002650002003970490CDE901704FF400600090C4
S3150800266006982046FFF766FC37704FF40060012D88
S3150800267008BF4FF00060A06107B0F0BDB8040020A5
S3150800268000080240303802407047000080B504F068
S3150800269025F91A484FF0A0410160BDE88040FFF7D0
S315080026A0D7BB00BFE0B515484FF0A0410160FFF762
S315080026B0D0FB1348016841F0020101601148016826
S315080026C041F400110160016821F4002101600168EC
S315080026D021F48021016000206946019001200090C4
S315080026E0002004F009F9FEF715F800097C2803D83C
S315080026F04FF4FA60FEF726F88CBD00BFF8120020EA
S315080027000408005038000050704710B504460020F1
S3150800271004F0B4FC48B100202146012204F0B8FCBC
S315080027200138B0FA80F0400910BD002010BD000045
S31508002730F8B5054600200C4600F0EAFE4FF0FF30DB
S31508002740002104F045F9154F7878B8B1387838443F
S315080027500330FFF7DAFF01281CD13878B97800264C
S315080027600130C2B238708A4215D1F91C2846FEF7E4
S3150800277048F938787E70012620700CE0B81CFFF7FF
S31508002780C4FF012806D1B87801383E289CBF4FF40B
S315080027908070388000263046F8BD00BF4001002012
S315080027A01CB5044640298DF8071003D310489F210D
S315080027B0FDF78DFF0DF107010020012204F074FCDE
S315080027C0012803D00A48A321FDF781FF9DF80720B9
S315080027D00020214604F068FC9DF80710884203D0C3
S315080027E00348A621FDF773FF002004F06BFC1CBD0F
S315080027F0417A000800687047A0480021A0F84410F4
S315080028008164C0F83F1070479C4890F83F00002844
S3150800281018BF0120704700BFF8B504460078FF28A6
S315080028201FD1FEF7D9FA00283ED0944C0120A4F80F
S315080028303F000020A07041F2FF002080FEF766F8F6
S31508002840E070FEF771F82071FEF76EF80821000AAD
S31508002850A4F8441040F201116071E180FFF72AFDE7
S31508002860EBE0864E96F83F10012940F0FE80A0F175
S31508002870F1010D2920D8DFE801F03C3C07424D6004
S315080028803C3C3C643C6E7380FFF738FDB76C0446ED
S315080028900025002C00F0758017F8010B013C284430
S315080028A0C5B2FEF7A4F8F4E774480221A0F844106C
S315080028B041F2FE010180C0E0C938092819D8DFE8CD
S315080028C000F0051818B618186D75818EB56CFEF7E8
S315080028D01DF8411E621C2846FFF7F0FC002800F090
S315080028E08B80FF203070FEF711F8B16C0844013870
S315080028F025E00220A6F8440042F2FE009CE0657836
S31508002900FEF704F8A84246D9201DFFF773FF0146D3
S31508002910B06405E06578FDF7F9FFA8423BD9B16CCC
S315080029206278701CFEF76DF86078B16C0844B06484
S31508002930FF2030706078013062E0FFF7DFFCB0649A
S315080029404BE04A480821A6F844100721B064FF2046
S31508002950C6E9000171E00220A6F84400FE206BE0FB
S31508002960FF2030800620A6F8440000207071A6F8E3
S31508002970030096F84000B0705FE00020A6F83F001C
S315080029800EE0012100203571A6F801100821F0712A
S31508002990A6F805002CE042F2FE202FE0FEF740F8EC
S315080029A00120A6F84400FF20307046E06578FDF760
S315080029B0ADFF0238A84226DA0220A6F8440042F201
S315080029C0FE2039E0B56C201DFFF714FF01462846A6
S315080029D0FFF76CFC80B1FF203070012010E0002466
S315080029E0FF20B4703080FDF791FF0721B471B480E1
S315080029F0F070A6F8441020E043F2FE103080022062
S31508002A00A6F8440019E00120A6F84400FF206178E2
S31508002A10307049B1B06CA21CFFF750FC38B1607831
S31508002A20B16C0844B06408E0FFF736FC28B9022008
S31508002A30A6F8440043F2FE103080104890F8421081
S31508002A40012906D1022141F2FE02A0F844100280B3
S31508002A5003E0B0F94410012907DB012289B280F8A6
S31508002A604220BDE8F840FDF7A5BFF8BD187E00086E
S31508002A700248002180F84210704700BFE017002086
S31508002A801CB504469008030403D008C9013823601E
S31508002A90F9E712F0030206D00020019001A8FDF71D
S31508002AA0CFFC019820601CBD1CB593081C0403D0FC
S31508002AB00C68013B10C0F9E712F0030204D009685C
S31508002AC0019101A9FDF7BCFC1CBD70B5D41A858817
S31508002AD038BF04EB4504260417D0A6B2AE4205D982
S31508002AE02B46954298BF5B42134443815A1B9EB2BC
S31508002AF0AE421346FAD2C288036808466FF3DF323D
S31508002B0002FB06331946FDF79BFCA0B2002818BF46
S31508002B10012070BD2DE9FE4F8E460C9992468146DE
S31508002B2080885A1A38BF02EB4002140440D094B287
S31508002B30844207D901469842024698BF4942194439
S31508002B40A9F80A10DDF834C00D184F420B462D1AA5
S31508002B50091A07449EB28642F8D2B9F80640D9F84F
S31508002B6000B06FF3DF3404FB06B196B2564538BFA2
S31508002B709246C21AAAEB020004FB02F8BCF1010F46
S31508002B8004FB00F31FFA8AF015D0BCF1000F63D1DD
S31508002B9092B2904239D91FFA88F2704674461D4699
S31508002BA0FDF74EFCD9F8001014FA88F0AAB22FE007
S31508002BB04FF0000A50E092B290422CD94FF6FC76BC
S31508002BC070460193CDF800E008EA0602FFF758FFC1
S31508002BD018F0030337D001980021C3F1040CADB2F5
S31508002BE0029182B2624504FB07F238BF844632403E
S31508002BF004FB05220BEB020402AA00981D060FD05F
S31508002C00655C013B55540131F8E704FB00F2704658
S31508002C10FDF716FC20E004FB0AF082B2704619E0C4
S31508002C20D9F80030002465462F0605D01E5D171911
S31508002C300134013D7E54F7E7029901601919019B99
S31508002C40A3EB0C0303E0D9F80010DDE900031A042E
S31508002C5002D09AB2FFF714FF1FFA8AF0BDE8FE8F7A
S31508002C60BCB5044605894089CDE9000320462B46B4
S31508002C70FFF750FF0546A08861892A4600F0C6F886
S31508002C8060812846BCBD2DE9FE4F002A64D0B0F805
S31508002C9008A0B0F906808C46868841891F461546E5
S31508002CA00446B8F1000F0ED4BAEB010038BF00EBAA
S31508002CB0460080B28642014688BF3146081A81B26C
S31508002CC0A9421FD921E0AE4212D9BAEB010038BF9A
S31508002CD000EB460015FA80F0B0EB460F15D3701BD3
S31508002CE0E14682B2304600F091F8CC4682460CE0C6
S31508002CF04246A81B8A466FF3DF32002F08BF00FB47
S31508002D0002CC30460104054626D052461046921B90
S31508002D1081B2B142FAD222686FF3DF38301A1FFA4D
S31508002D2085F900FB08F601FB082B291A01FB08F3B5
S31508002D30012F13D0002F60D180B2814537D9B2B2A6
S31508002D405846614667469846FDF77AFB206817FAA3
S31508002D5086F11FFA88F22EE0002554E080B28145FC
S31508002D602CD94FF6FC7061460193E04606EA000747
S31508002D7058463A46FFF798FE16F0030232D0D8F8BE
S31508002D800000DDF804E0C2F1040C0BEB0703414632
S31508002D9002901FFA8EF0604538BFF44602A8160660
S31508002DA012D010F8016B013A03F8016BF7E709FB3B
S31508002DB008F258466146FDF743FB1EE005FB08F09E
S31508002DC0614682B2584616E02268002366463706F0
S31508002DD004D0C75C013ED7540133F8E7D018AEEBF0
S31508002DE00C0E03E02068DDF804E041465FEA0E4277
S31508002DF003D01FFA8EF2FFF757FEA08851464A46BF
S31508002E0000F004F82081A8B2BDE8FE8F11448AB20A
S31508002E108A4202D1B2EB400F01D3A1EB400188B23E
S31508002E207047000070B504464FF0FF30206300205D
S31508002E302071FFF711FB08B1042070BD94F8340027
S31508002E40B4F832524AF65526E83803284CD80228F0
S31508002E504AD0B54207D104F1860026A10822FDF71B
S31508002E609AFA00283ED0B4F83F00B0F5007F3BD16F
S31508002E7045F2555101EA5001401A4FF0333101EA43
S31508002E80900120F0CC3008444FF0013100EB1010CF
S31508002E9020F0F0304843000E012825D894F8410068
S31508002EA0411E0140B0FA80F018BF012140090843CD
S31508002EB01AD1B4F84200B8B194F844000138012890
S31508002EC012D8B4F8450078B1B4F847007F2806D878
S31508002ED004F1540002F050FEB0F5803F04D3B4F874
S31508002EE04A0008B1002070BD0320B54208BF022081
S31508002EF070BD00BF46415433322020200000000038
S31508002F0082690239023A91422FBF0020C26A40897B
S31508002F1001FB0020704700002DE9F041164DDFF84F
S31508002F2038850446002600276878411CC9B28F42B6
S31508002F300DD2874203D2A868A8B1304401E04046C2
S31508002F4011D1C1682046884724360137ECE705F1D8
S31508002F500C002C21FDF7E3FA05F110001C21FF22D5
S31508002F60FDF7B3FA03E0A8480068C00701D1BDE839
S31508002F70F08100BEBDE8F081F80100202DE9F0419E
S31508002F8004688846064681B13046414602F026FC6A
S31508002F9002283CBF0120BDE8F081411C29D0A16967
S31508002FA04546884207D2BDE8F081256915B1A06972
S31508002FB0854200D30125606900284ED0454537D1A2
S31508002FC0A06908F10107874228BF0227304639461B
S31508002FD002F004FC411CE6D078B10128E3D0206950
S31508002FE04546022824D3A169884228BF404605469B
S31508002FF01EE04FF0FF30BDE8F0814546C7B12046D8
S3150800300039464FF0FF3202F065FF0146B8F1000F6E
S3150800301006D029B9204641463A4602F05BFF0146EA
S31508003020F1B10120012908BF4FF0FF30BDE8F0815A
S315080030302F46A0690137874228BF022701D3022DF0
S315080030400BD33046394602F0C9FB411CABD00028E9
S31508003050D5D00128A7D0AF42EBD10020BDE8F0813A
S31508003060D4E905012761023988429CBF01386061AD
S31508003070607940F0010060713846BDE8F0810000D3
S3150800308070B5134D0446E889A9890E1AB0B24028CE
S3150800309028BF402695F90000B0F1FF3F01DD002169
S315080030A009E0300406D0A96881B105F11400B2B26E
S315080030B0FDF7C6F98021B3B220461A46002B18BF81
S315080030C005F11402BDE8704004F0E0B8002070BDB8
S315080030D090010020012888BF0020554900010858A2
S315080030E0D0F8041821F00201C0F80418704700BF90
S315080030F0012888BF00204E4900010858D0F8041856
S3150800310041F00201C0F80418704700BF704700007C
S315080031108022474B8A4301F00F01012888BF00200F
S315080031200001185800EB820000EB4110D0F8001996
S3150800313021F40011C0F80019D0F8001941F08051A7
S31508003140C0F80019704700BF2DE9F04180460020FD
S31508003150002504F0CFF8E948B8F1010FE849474ED1
S315080031604FF001128571404688BF002001230001F7
S31508003170085801EB081191F808C000F51264C0F868
S315080031801C28634514D23A2722461A2F0CD01168F8
S31508003190B1F1FF3F03DC116841F090411160F5532E
S315080031A002F50072103FF0E7203420360133E8E7D5
S315080031B04FF48461016101698906FCD4102101611B
S315080031C00169C906FCD4404600F014FC0020BDE89D
S315080031D0F04104F09DB800BF70B50D4689780646E3
S315080031E0AA886FF3DF2200F0A3FB044620B130461D
S315080031F0294601F09FFB04E0C2480068C00700D0DA
S3150800320000BE204670BD00BFF0ED00E0B0B501225B
S315080032100D46044601F0DCFB012C88BF0024280774
S3150800322000D0B0BDB64920010858806CB0BD00BFBB
S31508003230647700082DE9F843814600201E461746A4
S31508003240FFF716F90D48FFF7F6F80DD015010681B8
S31508003250C0F804805F51037B437311B9A74820F86F
S315080032601260484601F018FC002004F051F8002CC2
S3150800327018BF01242046BDE8F88300BF2C1800209B
S315080032802DE9FE430546407888460238052800F2AF
S315080032909680DFE800F0030F29323C416D48017B38
S315080032A001F0FE010173017B01F0FD0101730021AC
S315080032B0417327E0674FDFF8A0910026002478784D
S315080032C0411CC9B28C423DD2844203D2B86840B18F
S315080032D0304401E0484604D1026A12B16968287888
S315080032E0904724360134EAE75A48017BC90700F0BB
S315080032F0AF80017B41F0040107E05648017BC9070E
S3150800330000F0A680017B01F0FB01017357E05148EC
S3150800331001780131017052E0297911F00F004ED081
S315080033204C4ACB0902EB4000C618537896F82000A1
S31508003330834228D99268002A41D000EBC00002EBEC
S31508003340800422E0387B400761D5387B00F0FB001B
S3150800335038730020CDE901000520FFF79DF802D15A
S315080033603E48FFF7A5F8201D694603F0D2F9064640
S31508003370B8F1000F02D13948FFF797F8002E41D06F
S31508003380FFF77FF843E01AD1334CE069B8B116F875
S315080033902C0F00F0FE003070307800F0FB00307023
S315080033A0AB6828786A79E469A047002850D1307854
S315080033B040F001003070307840F004003070254845
S315080033C0B8F1000F446802D12448FFF771F8201DB0
S315080033D0294603F09EF90646B8F1000F02D11F48A8
S315080033E0FFF763F83EB128786978424603B0BDE82E
S315080033F0F04303F07BBA43480068C00728D000BEF4
S31508003400BDE8FE833F480068C00700D000BEF87BD1
S31508003410C0071DD00320FFF73FF86868019002D166
S315080034200E48FFF745F8201D694603F072F9054670
S31508003430B8F1000F02D10948FFF737F81DB1FFF7B9
S3150800344020F8BDE8FE832F480068C00700D000BEFC
S31508003450BDE8FE83F80100201C7700083400002030
S31508003460F8B5044625480021012CC0E9001120467C
S31508003470234988BF002000010D580121284601F084
S31508003480F9F90746A86C00222046394601F02EF9BC
S31508003490064660B1D5F800087FB1A96C20F0030094
S315080034A001F0C001802908BF40F4804007E01548B4
S315080034B00068C00720D000BE1EE040F0030040F0C0
S315080034C00400C5F800082046FFF712FEE868022146
S315080034D061F35E700C49E860286840F0C00020F08F
S315080034E010002860A8690843A861A86840F0800011
S315080034F0A8602046FFF7EEFD3046F8BDE80100203B
S3150800350064770008F0ED00E00430008070477047EB
S315080035102DE9F04F85B001460128019088BF0020AB
S31508003520E249000151F800A0DAF81800DAF8141098
S3150800353001EA00095FEAC94075D54FF48050CAF818
S315080035401400012003F0D6FED94EDAF84840C0210F
S315080035503046FCF7E4FFD7480021C180C4F3832036
S315080035600AF530610130024632B10B68013A43F080
S31508003570006341F8203BF7E70AF5106150B10A6885
S31508003580B2F1FF3F03DC0A6842F090420A60013854
S315080035902031F3E74FF00110CAF81C080920CAF8D1
S315080035A01408CAF810084FF48460CAF81000DAF84C
S315080035B010008006FBD41020CAF81000DAF81000B4
S315080035C0C006FBD4019800F015FADAF8000820F4D2
S315080035D0FE60CAF80008DAF8000920F00300CAF805
S315080035E00009DAF8000B20F00300CAF8000BDAF835
S315080035F00009CAF80009DAF8000BCAF8000BDAF86D
S315080036004800DAF8100B40F0C040CAF8100B40200A
S3150800361070837081DAF8180040F4E010CAF81800D0
S31508003620012003F075FE5FEA894017D54FF4005074
S315080036300121CAF814004FF40060FEF79FFE8DF8CA
S31508003640091001998DF8081000F006009AA151F8A2
S3150800365010000121039002A8FFF712FE5FEA095045
S3150800366010D54FF400600121CAF81400DAF81800E2
S3150800367020F40060CAF818000420FEF759FE02A8D4
S31508003680FFF7FEFDB9F1FF3F10DC4FF000400121C6
S31508003690CAF81400DAF8180040F40060CAF81800EE
S315080036A00520FEF745FE02A8FFF7EAFD5FEA497026
S315080036B00CD5DAF80440600706D502200121FEF78A
S315080036C037FE02A8FFF7DCFDCAF804405FEA097076
S315080036D015D508207749FEF751FEC979C0F30D20A4
S315080036E029B9DAF8181021F00801CAF81810039059
S315080036F003200121FEF71CFE02A8FFF7C1FD5FEAC1
S31508003700C96056D5DAF81800DFF8A481694D0AF5BC
S31508003710805620F01000CAF81800DAF82010C1F315
S31508003720434001F00F04022808D0042812D00628C6
S3150800373035D130683168C5E9020130E0C1F30A17AE
S31508003740F7B108EB4410406868B131463A4603F0D1
S315080037500AF815E00AEB4410D0F8101B41F0C041F6
S31508003760C0F8101B1BE04FEA441B50463A4658F86F
S315080037700B1000F063F958F80B00384448F80B00B2
S3150800378008EB441041898F4209D20AEB4411D1F85B
S31508003790101B0289511A01810CB900202880DAF819
S315080037A01400C006B9D4DAF8180040F01000CAF8B8
S315080037B018005FEA093003D50198002102F010F9D4
S315080037C05FEA493003D50198012102F009F95FEA59
S315080037D0C92002D405B0BDE8F08F4FF480103A4CEA
S315080037E04FF4F071324E4FF000084FF00009CAF856
S315080037F01400DAF8080804F5002BC0F3002C4FF47F
S315080038008050BCF1000F08BF4FF400500090DAF862
S31508003810480001EA501000F120054545DAD00AEBC8
S315080038200800D0F8001901EA0B02A24238D1C1F308
S315080038300042624534D106EB0802537FA3B1013B2F
S315080038400F0C5377538B128BD418013CB4FBF3F34C
S315080038501D4C63F3DC42C0F81029009A3A43C1EACA
S315080038600241C0F800191BE0019F69F07F0400229D
S315080038706646E1B2384601F0ABF800208DF80C40F8
S31508003880114C8DF808700121049007208DF8090065
S3150800389001208DF80D0002A8FFF7F2FCB446044E8D
S315080038A008F1200809F10109B7E700BF64770008A5
S315080038B02C180020E801002002000000000000008B
S315080038C001000000000000000000048002460128F4
S315080038D0584B88BF002212019A58D2F8003823F4B0
S315080038E0FE6343EA01110023C2F800188021002272
S315080038F0FFF7A0BC504A0128D17188BF00204D4A65
S315080039000001105829B108214161816941F0080177
S3150800391002E0816921F008018161704703484FF48C
S3150800392080510160FF2003F03FBE00BF180402402B
S31508003930F0B5404F0128034601F00F0488BF002365
S3150800394007EB00152E7AB4421AD21B01033249B28C
S31508003950FB5800291BD447F6FE70596A00EA520044
S3150800396000EB4600103080B281423ED23249898847
S31508003970884227D91E480068C00706D000BE04E062
S315080039801B480068C00700D000BE0020F0BD022812
S3150800399006D329486D7A8179A9421FD201318171EE
S315080039A099689008012222EAD1118840596A451877
S315080039B021498A88954207D90D480068C007E4D08E
S315080039C000BEE2E7586210E0121AC2EA00408A8096
S315080039D054B103EB8401C1F8000106E0044800680D
S315080039E0C007D2D000BED0E798620120F0BD00BF64
S315080039F0F0ED00E010B5014601280E4A88BF002107
S31508003A0030240901515802EB0012137AD26804EBEC
S31508003A104303094C4B629308C2F38F02A380C3EA9F
S31508003A2002428C6CCA6580214022BDE81040FFF72F
S31508003A307FBF00BF64770008E801002010B593082F
S31508003A4000F580501C0403D00468013B10C1F9E757
S31508003A5012F0030209D00068012A087005D0030A8B
S31508003A604B70032A04BF000C887010BD10B500EB1C
S31508003A700130990800F580500C0403D010CA0139AA
S31508003A800460F9E713F003030BD01178012B07D074
S31508003A905478032B41EA042104BF927841EA024193
S31508003AA0016010BDF8B50D46044602F0FBFB08B1EF
S31508003AB00120F8BD20462946FFF722FA04F134060C
S31508003AC0054620634FF400713046FCF728FD0027B1
S31508003AD06089874209D26078EA193146012300F0E5
S31508003AE0ADFD08B90137F3E76089C01B18BF01208F
S31508003AF0F8BD00002DE9FE4FD0F8009000210446DD
S31508003B0000F0F8FA08B1BDE8FE8F4FF0FF3504F172
S31508003B10200B4FF0FF084FF00D0AFF26E562A1695A
S31508003B20484602F0BBF90028EDD1E7693878002845
S31508003B3000F08480FA7AE52802F03F01A17107D1E6
S31508003B40E5624FF0FF08FEF7A3FC0028E7D0DAE7A6
S31508003B50120715D40F2915D05FEA086004D1384634
S31508003B6002F051FB86426CD094F82B00C007E7D1CF
S31508003B70384659460B22FCF70EFC0028E0D160E0D7
S31508003B800F29DDD194F82B104906DCD4410604D45C
S31508003B905FFA88F18842D4D104E021697E7B00F07F
S31508003BA0BF08E162787B8642CBD1788B0028C8D1E2
S31508003BB0D9F80C00CDE9006B0290387800F03F0088
S31508003BC000FB0AF04FF0000AA0F10D0B0120BAF134
S31508003BD00D0F1ED0954911F80A107E5A88B1BBF10F
S31508003BE0FF0F1ED8304601F03FFC0546029830F814
S31508003BF01B0001F039FC854213D10BF1010B30464D
S31508003C0004E04FF6FF7086420BD100200AF1010A44
S31508003C10DDE73978490607D530B1029830F81B0038
S31508003C2010B14FF0FF0801E0A8F10108DDF804B073
S31508003C30009E4FF0FF354FF00D0A84E70420BDE8DB
S31508003C40FE8F0020BDE8FE8F2DE9F8430446006983
S31508003C5000F12007B7F5001F02D30020A0610FE08E
S31508003C60A06968B13D46D4F800906FF35F2555B159
S31508003C7009EB050027613430E0610020BDE8F883D0
S31508003C800420BDE8F8830E4661690130A061F1B1F0
S31508003C901E48B9F80A20104400F5C00010EA572F4C
S31508003CA0E6D1FEF78AFB02283CBF0220BDE8F8836E
S31508003CB08046013026D0D9F8180080450DD24846EE
S31508003CC04146C4F81480FFF71BF9A061D0E7B9F89C
S31508003CD00800B0EB571FC0D9CAE7002EBDD06169EE
S31508003CE02046FFF74BF980460130032804D208A185
S31508003CF051F82000BDE8F88348464146FFF7D2FE52
S31508003D000028DCD00120BDE8F88300BFFFFF1F00B4
S31508003D100100000007000000020000002DE9F84F2E
S31508003D200568DFF87CA304464FF0FF0804260D2734
S31508003D304FF6FF7B00224FF0FF09A16900295FD0EB
S31508003D40FEF752FB002859D1E069017800295BD0BB
S31508003D50C37A2E2903F03F02A27119D0E52917D09C
S31508003D6003F01F03082B13D00F2A53D14A0604D495
S31508003D705FFA88F2914206D00AE0226990F80D901F
S31508003D8001F0BF08E262417B894501D1418B51B1FF
S31508003D904FF0FF08204600210026FFF755FF0122B5
S31508003DA00028CAD02AE00278E9684FF0000C002300
S31508003DB002F0BF027A4301270D3A0D2B0FD01AF8ED
S31508003DC00360865B37B1FF2A0FD821F812600132EB
S31508003DD0374602E05E4508D100270133EDE7007853
S31508003DE0400607D537B1FF2A02D94FF0FF0803E08E
S31508003DF021F812C0A8F101080D27CBE7064604E012
S31508003E00D00702D0002602E004260020A061304632
S31508003E10BDE8F88F5FEA086103D102F0F4F981453D
S31508003E20F0D04FF0FF30E062ECE700BF0C770008F7
S31508003E302DE9F04F89B090F82B2012F0A00F03D08F
S31508003E40062009B0BDE8F08F076804460026F86822
S31508003E5030F8161001360029FAD12146039751F891
S31508003E60200F04904868029105900889ADF818005B
S31508003E70887A8DF81A00D0076BD0884D40204FF00D
S31508003E80010B0DF11C0A4FF00008019284F82B0073
S31508003E90BBF1640F00F0008103980B22D0F80C9058
S31508003EA0029804A9FCF7CCFABBF1060F594612D3BF
S31508003EB0B9F8000078B1102252B100F0010343EAC4
S31508003EC04103090448BF6B40013A40081946F3E725
S31508003ED009F10209ECE70723062201F00F0017464D
S31508003EE000F13002392A88BF00F137020AF80320A8
S31508003EF0581EB8EB111F04D07A1E0909012B034678
S31508003F00EBD17E210AF8001000213FB1621892F821
S31508003F102020202A03D0013F0131F6E70146072871
S31508003F209ABF1AF8002001302022631801310829A7
S31508003F3083F82020F3D12046FFF7DCFD0BF1010BB7
S31508003F400028A5D004287FF47CAF019A276884F856
S31508003F502B2006F10B000D21B0FBF1F0451C900754
S31508003F6058BF01252046002100F0C4F800287AD061
S31508003F70042808BF072000287FF463AFB5F10109BC
S31508003F80039D56D02069A0EB4911204600F0B2F8EF
S31508003F9000287FF456AF029802F035F9DFF8008161
S31508003FA0039D83464FF6FF7AA169FEF71DFA00289E
S31508003FB07FF447AFE0690F22E9680D250023A0F8D2
S31508003FC00B205FFA89F2438380F80DB06A43002517
S31508003FD00D3A18F8036055451ABF31F812500132E8
S31508003FE04FF6FF752F0A8555064477705E1C1DB17E
S31508003FF00C2B3346EDD105E00C2B33464FF6FF75F7
S31508004000E7D106E0554504D031F812100029494693
S3150800401001D149F04001039D01700120002128715A
S315080040202046FFF711FE00287FF40BAFB9F101090E
S31508004030BAD1A169FEF7D8F900287FF402AFE06982
S315080040402021FCF74AFAE06902990B22FCF7F8F9F5
S3150800405094F82B10E06901F0180101730399012007
S3150800406008710020EDE60026A169384601F016FF22
S3150800407000287FF47DAFE0690078E52800D018B9FC
S315080040800136AE4201D179E7002620460121FFF725
S31508004090DBFD0028E8D06BE70720D2E621100100F7
S315080040A00C7700082DE9F041C16A056806690446DF
S315080040B0481C05D0204600F01DF808B1BDE8F0817F
S315080040C04FF0E5080127A169FEF78EF950B9E069B6
S315080040D080F800802F712069B04208D2FEF7D8F91F
S315080040E00028F0D0042808BF0220BDE8F08100208F
S315080040F0BDE8F0812DE9F04104462448014202D08A
S315080041000220BDE8F081A768D4F800800D46216139
S315080041109FB1B8F80A004602B5421FD32046394671
S3150800412001F05CFB074601302CD0022FE8D3D8F803
S3150800413018008742E4D2AD1BEEE798F80000032882
S3150800414003D3D8F82870002FE3D1B8F80800B0EBED
S31508004150551FD5D9D8F82800002703E04046394628
S31508004160FEF7CEFE0028C4E90570C9D000EB55203D
S315080041706FF35F2508EB05013431C4E90601002019
S31508004180BDE8F0810120BDE8F08100BF1F00E0FF17
S3150800419008B1012070472DE9F04F97B0944D287863
S315080041A0800700F11A819348934C00274FF0020BC1
S315080041B04FF48058DFF844A2016804F5E63941F067
S315080041C002010160016801F002010D910D99016972
S315080041D041F480410161006900F480400D9001209E
S315080041E0CDE90477CDF80CB0CDF8048002900D988F
S315080041F001AE48463146D047814D05203146C5F8BF
S31508004200008006900320CDE90477CDE902B04FF48B
S31508004210604001904846D0470720CDE91477CDE99C
S315080042200F771690302013904FF40070CDE9117077
S315080042304FF48270CDE90D700DA92046FDF74EFFAB
S3150800424060684FF40046FEF7C0F80120C5F8008004
S315080042500B97CDE909B70796089007A94846D047AE
S31508004260A8462E60FF250A2F18D0FEF76BF900F135
S315080042706406A068800703D4FEF764F9B042F8D94B
S315080042802573FEF75FF900F16406A068C00703D13D
S31508004290FEF758F9B042F8D90137E4E705200027B8
S315080042A00C900320CDE90A770990022008904FF474
S315080042B00040079007AD48462946FDF73BFE4FF0FC
S315080042C080500021C8F80000002001F045FF0128B1
S315080042D059D1FEF737F9064608204FF4D57101F093
S315080042E03BFF06F57A76012807D10027042F1AD056
S315080042F0FDF7E6FFE8550137F8E7A920FEF71EF8AF
S315080043000121012702283CBF02276FF05601CDB2D2
S31508004310FEF718F9B0422BD22846FEF70FF838B345
S31508004320FCF765FBF4E79DF81E0001282AD19DF8E5
S315080043301F00AA2826D1FEF705F9B04206D2A92001
S315080043404FF0804101F008FF0028F4D1FEF7FAF893
S31508004350B04217D23A200021002701F0FDFE90B99D
S315080043600026042E3DD0FDF7ABFFA8550136F8E729
S31508004370FEF7E8F8B04205D210204FF4007101F0BC
S31508004380EBFE00B10027D8480760FFF7C7FAD54DFE
S315080043902878FFB100F0FE0008212870206820F078
S315080043A040002060072013914FF4007116900020FA
S315080043B0CDE911014FF48271CDE91400CDE90F0062
S315080043C0CDE90D010DA92046FDF788FE6068FDF7C9
S315080043D0FCFF02E040F001002870287817B0BDE81D
S315080043E0F08F9DF81C000C27400658BF0427CAE723
S315080043F0480000203038024000380040351F0008C9
S3150800440018040240BFB508B10425D2E0B5480078C3
S31508004410C00711D104250E2900F2C9801446DFE829
S3150800442001F0080DC62DC6C6C6C6C6C65E6264704D
S315080044307E0001F07FFE60E00325BAE00920FDF763
S315080044407DFF00287CD16846102101F0EAFD00288E
S3150800445076D09DF8000000F0C000402840F081802A
S315080044609DF808109DF809209DF80700890441EA7F
S31508004470822141EA806000F5806096E09A4D2878AE
S31508004480400759D40920FDF759FF002858D1684636
S31508004490102101F0C6FD002852D028789DF80B108F
S315080044A080079DF80A005FBF01F00302490941EA47
S315080044B0C20101315DBFC0F38400013048439DF855
S315080044C00D2041BF4FF0FF3303EB921200F03F007F
S315080044D0C90942BF41EA40000130904065E0824880
S315080044E00068207062E0092000E00A20FDF726FF38
S315080044F030BB2046102101F094FDB0FA80F0450942
S3150800450055E03A20FDF71AFFD0B90025042D4DD005
S31508004510FDF7D6FE6055FCF76AFA0135F6E77248EC
S31508004520007840070CD58D20FDF708FF40B9FDF748
S31508004530C7FE20464021DEE78D20FDF7FFFE08B1C5
S31508004540012534E0FDF7BCFE6846102101F069FD3F
S315080045500028F5D03025280621D0FDF7B1FE013D0B
S31508004560F9E79DF805009DF80A509DF807209DF883
S3150800457006109DF8083000F00F00920001F00301C4
S3150800458000EBD5109DF8095042EA931242EA8121C0
S3150800459005F00305013100EB4500073803E09DF8F7
S315080045A00A001021000901FA00F020600025FFF733
S315080045B0B5F9284604B0B0BD70B50426B0BB1D4693
S315080045C0A3B348480078C00712D147480C4600787C
S315080045D0000758BF5202012D0CD11120114601F0D7
S315080045E0BBFD60B9FDF712FFB0FA80F0460918E086
S315080045F003261BE01220114601F0AEFD38B1012654
S315080046000FE004F50074FCF7F2F9013D05D0FDF75B
S31508004610FDFE0028F5D12E4600E000260C20FDF709
S315080046208DFEFFF77BF9002E18BF0126304670BDB8
S3150800463008B1012070472B4800787047F8B5042662
S3150800464000284CD11D46002B49D026480C46017837
S31508004650C90717D10078400716D4234817460068BB
S31508004660010758BF5702012D10D11820394601F00D
S3150800467073FDB8B92046FE2102F0AEFFB0FA80F00D
S31508004680460927E003262AE0022628E010F0060F4E
S3150800469003D09720294601F05FFD1920394601F01D
S315080046A05BFD38B1012615E004F50074FCF79FF9A7
S315080046B0013D07D02046FC2102F08EFF0028F3D1E9
S315080046C02E4600E000260020FD2102F085FF002886
S315080046D008BF0126FFF722F9002E18BF012630462B
S315080046E0F8BD00BF48000020740200202DE9F04103
S315080046F0012888BF002090464FA2000114584FF6A3
S31508004700FF72206C9043544A904205D0534A904217
S3150800471002D0534A90422ED1A06820F00100A06032
S31508004720E06879B1A16C226DC9B202F44047022251
S315080047308E09B2EB911F2AD14C49084000F11005A9
S31508004740E5602CE040F04005E560A06B40F4803061
S31508004750A0634448844204D14348016821F080415B
S315080047600160204601F0C3FC0520002160F38D2579
S315080047702046E56026E03E480168C90700D000BE2D
S315080047800068C00700D000BE0020BDE8F08120F018
S315080047905805002F18BF0835002EE5603ED0A06BDF
S315080047A020F48030A063204601F0A1FC4FF4A0500D
S315080047B0002F25F4705108BF4FF4105008443146B5
S315080047C0E060204600F060F8E06840F00700E0602E
S315080047D0D4F8000E20F00F00C4F8000E4FF48460E1
S315080047E0206120698006FCD4102020612069C0065B
S315080047F0FCD44FF0FF30606160600020B8F1000F14
S31508004800A06104D0A06840F02600A06003E0A0697B
S3150800481040F01000A0610120BDE8F081A06B40F4D3
S315080048208030A0630F488442BDD10F48016821F04B
S3150800483080410160B7E700BF000000504300000058
S315080048400400000000050000000004404D000000C0
S3150800485006000000001000000000544F000031550B
S3150800486000003255000004405038024027FFC5FFBB
S31508004870F0ED00E0012904BF00207047806C10F0BD
S31508004880C00018BF0120704701B170471F490A6868
S315080048901F498A4202D94FF4C05130E01D498A4265
S315080048A002D94FF4E0512AE01B498A4202D94FF453
S315080048B0005124E019498A4202D94FF410511EE0EA
S315080048C017498A4202D94FF4205118E015498A42FD
S315080048D002D94FF4305112E013498A4202D94FF4F3
S315080048E040510CE011498A4202D94FF4505106E072
S315080048F00F4B4FF470519A4288BF4FF46051C2680B
S3150800490022F470521143C160704700BF4C0000206A
S31508004910FF47E801DF9DA301FF356E013FA44C0167
S31508004920FF2C31019F491A017F730601FF23F4000A
S31508004930BFE1E4002DE9F0418B78BA4C8E79012865
S31508004940B94D4FF0010C03F00F024FEAD31EA6F142
S31508004950010804EB421404EB0E178C886FF3DF246E
S315080049607C8188BF002000012858D0F8085815F027
S31508004970060F08BF0CFA08F63E73C9780C2505EA37
S31508004980810501F00301012918BF05F58055BCEB27
S31508004990D31F08BF45EA821544EA0541BEF1010462
S315080049A001F5004118BF0124BCEBD31F00EB4424DA
S315080049B004EB4214C4F8001918BF10320CFA02F1BD
S315080049C0D0F81C281143C0F81C18BDE8F08100BFB8
S315080049D070B54EB20023944CB6F1FF3FC8BF012311
S315080049E0012888BF002000012058002A00EB432434
S315080049F001F00F0304EB4314D4F8005918BF4FF421
S31508004A00001204F51061B6F1FF3F04DDB5F1FF3F72
S31508004A1009DD0B4622E00E68002D23D4324342F00E
S31508004A2000620A6030E0002BF3D0D0F8043843F473
S31508004A300073C0F8043800F6040345692D06FCD552
S31508004A400868104340F08040086004F608100168C2
S31508004A508907FCD502214FF480620160186810436B
S31508004A60186017E046F0006504F608140D6025681E
S31508004A706D06FCD50D682A4342F080420A6021681B
S31508004A808907FCD50221216099012031016101695C
S31508004A908906FCD470BD00BF2DE9F0411546013AE0
S31508004AA00C460146604B18BF0122012888BF002129
S31508004AB0090153F8018094B15A4901EB441101EBFD
S31508004AC005114B890989CF18013FB7FBF3F7284B26
S31508004AD003EAC7433F0408BF4FF400230BE0254B06
S31508004AE033F81570402F394628BF40217F1A23F81E
S31508004AF015704FF4002308EB42220B4302EB4412D5
S31508004B00C2F81039D2F8003902F5106203F44027CA
S31508004B10B7F5802F0AD1D8F808681F0CF6054FF4A8
S31508004B20144658BF4FF42446374303E04FF404476E
S31508004B3047EA1347D8F84860C3EA0743012D1360CC
S31508004B4013D191B1214600F017F874B1354901EB3C
S31508004B50441101EB05110989814206D90120D8F8CB
S31508004B603418A0400843C8F83408BDE8F08100BFEF
S31508004B700000F81FE80100202DE9F04F85B0294A0A
S31508004B804FF0000A4FF0000B02EB411202F114033A
S31508004B9002F110041A3204920393012888BF0020F8
S31508004BA0214A0001125802EB0130CDE9002100F537
S31508004BB08050029002EB411000F6181500F51168B6
S31508004BC0D0F81009C0F3C9491FFA8AF0814523D9DC
S31508004BD0D8F80000049A168881B28E4288BF064625
S31508004BE028681249B7B201EA8000B84214D303987C
S31508004BF0006820B102993A4601F07AFD08E0226879
S31508004C00DDE900013B46FEF731FF206838442060A5
S31508004C10B3440AF1010AD7E71FFA8BF005B0BDE8DD
S31508004C20F08F00BF2C18002064770008FCFF0300F3
S31508004C301CB5044600F0B2FA00B11CBD01A9204615
S31508004C4002F074FB0028F8D1002020601CBD2DE975
S31508004C50FC47154680464E1E00240DF104096F4692
S31508004C608246B44215DA2846494601223B4600F0F8
S31508004C70D7F9009801280CD19DF804000D28F0D02A
S31508004C8001340AF8010B0A28EBD100208AF8000043
S31508004C9005E000208AF80000002C08BFA046404620
S31508004CA0BDE8FC87F8B50D466946FDF704FC0646DF
S31508004CB008B9667C0EB13046F8BDE068A84203D252
S31508004CC0217C890758BF054600266069002D666164
S31508004CD0F1D0009E71894F0238B16A1E0138B0FBC7
S31508004CE0F7F1B2FBF7F28A4204D2A168002943D051
S31508004CF0A16104E079420840A16960612D1AD1B129
S31508004D00BD4248D9606938446061207C800703D475
S31508004D10FDF753FB014604E02046FEF72FF901464E
S31508004D20B8B3481C33D0022941D3B06981423ED278
S31508004D30ED1BA161E4E767690025E068874204D9AD
S31508004D40207CE76040F040002074F80512D0E26944
S31508004D5095420FD094F91000009FB0F1FF3F29DD6E
S31508004D60787804F128012A4601230126FFF724FC56
S31508004D70F0B9E56100269EE720460021FEF7FEF819
S31508004D800146013003D0012911D0A160B0E7012600
S31508004D900EE00021002560694719E8056761CBD058
S31508004DA03046FEF7ADF810B100EB5525C5E70226EB
S31508004DB0667480E77878FDF7FAFA0028F8D1FDF7E7
S31508004DC0CBFACDE7BFB505460390CDE9011101A899
S31508004DD0144600F0E6FD002813D40C4901EB8001C7
S31508004DE04A6812B1002313704B601DB10022687027
S31508004DF04D602A703CB102A803A9002200F028FFE2
S31508004E0002E00B2000E0002004B0B0BD84010020C1
S31508004E102DE9F04F8FB00E9168B102F03F09834635
S31508004E200EA801A94A4600F013FF074640B1002024
S31508004E30CBF8000000E0092738460FB0BDE8F08F30
S31508004E40DDF804800E99CDF8088002A800F050FB22
S31508004E509DF933100627B1F1FF3FC8BF0027002888
S31508004E6018BF074619F01C0F0BD0BFB1042F03D18A
S31508004E7002A8FEF7DDFF0746002FD8D149F008093A
S31508004E8017E0002FD3D19DF80E00C10600F18F80E0
S31508004E905FEA89713CD5C00705D139E09DF80E0057
S31508004EA010F0110F01D00727C1E75FEA497000F13A
S31508004EB09C805FEA09702BD5099ED448C6F816006F
S31508004EC0C6F80E004046314600F04AFE0546002068
S31508004ED020217083F17298F80010032908BFB08268
S31508004EE0F061012088F8040095B1D8F8306002A86E
S31508004EF0FDF7C3FA0746002899D14046314600F027
S31508004F00CDFF0746681E002FC8F810007FF48FAF44
S31508004F10099DCBF824502946D8F83000CBF8200054
S31508004F20404600F01DFE0646CBF8080005F11C00B9
S31508004F3000F022FE0546CBF80C0009F00800002711
S31508004F40CBF800800BF1280A4FF4007149EAC0003B
S31508004F50CBF81C708BF81170CBF814708BF8100016
S31508004F60B8F80600ABF804005046FBF7D8FA5FEA33
S31508004F7089607FF561AF0027002D3FF45DAFCBF860
S31508004F801450B8F80A0044029FB9A54211D95846E8
S31508004F90314600F023FC064601300021022E38BFB8
S31508004FA001214F00002808BF01272D1BECE7042725
S31508004FB03DE7002FCBF818607FF439AFE80512D02B
S31508004FC040463146FDF79CFF88B100EB5522514615
S31508004FD001230127CBF81C2098F80100FFF7ECFA0B
S31508004FE000287FF424AF002726E708271FE70227B3
S31508004FF01DE700BF70B594B001AD0E4604464821C2
S31508005000281DFBF78CFA0196217821B1284600F075
S31508005010D1FF0134F8E701A800F0EEFF14B070BD27
S315080050202DE9FE4F044600200F469B46164618609B
S3150800503002A9204602F07AF908B1BDE8FE8F607C25
S315080050400028FAD1207CC00704BF0720BDE8FE8FE0
S31508005050E1686069091AB14238BF0E46DDF8089062
S3150800506004F128010191002E71D001466FF35F21EA
S3150800507061B1C1F50075B54288BF35462A46601844
S3150800508000F128013846FBF7DBF93CE0FDF787F924
S3150800509001D0A1690BE020B1A169FDF78EF901469F
S315080050A000E0A168012955D9481C55D0A161484698
S315080050B0FDF726FF00284DD000EB080A0020B0EBCC
S315080050C0562F2BD0750AB9F80A10524608EB050078
S315080050D0884288BFA1EB080599F8010039462B4696
S315080050E0FFF76AFAC0BBFDF76BF90BDCE069A0EBCA
S315080050F00A00A84206D2019907EB40204FF4007235
S31508005100FBF79EF96D02DBF800002F44761B284456
S31508005110CBF80000606928446061A4E7E26952455B
S315080051200FD0FDF74DF904DCFDF733F9A0B9FDF70B
S3150800513013F999F80100019952460123FFF73CFA41
S3150800514050B96169C4F81CA06FF35F2191E700208C
S31508005150BDE8FE8F022000E001206074BDE8FE8FE6
S3150800516010B58EB00D900C460DA801A9002200F0CE
S315080051706FFD80B90D9901A800F0BAF958B99DF9E3
S315080051802F00002806D41CB101A8214600F077FBA1
S31508005190002000E006200EB010BD00007CB501A975
S315080051A0FDF789F9064670BB207C410601D4002626
S315080051B029E0019D000606D5E2696878FDF7F7F84B
S315080051C008BBFDF7C9F8216AFDF70EF90646D0B9FE
S315080051D0666AF07A314640F02000F0722068A268CC
S315080051E000F0FEFFE0680949F0610020C6F81610D5
S315080051F0708201202871284601F014F80646207CA2
S3150800520000F0BF00207430467CBD00BF000021546A
S3150800521070B59AB0199019A818A9022200F018FDBD
S3150800522030B9189C19990C940CA800F061F908B1CA
S315080052301AB070BD9DF95B00002818D49DF8366039
S31508005240F00716D11399204600F08AFC0546F006A9
S3150800525011D40CA8FEF726FF1DB110B90CA8FDF74E
S315080052600CF90028E4D1204600F0DCFFE0E7062030
S31508005270DEE70720DCE76846002102950094FEF782
S3150800528039FF0028D4D16846FEF748FD002808BF34
S3150800529007200428CCD1DCE72DE9FE4F0446002080
S315080052A08B469A461646186002A9204602F03EF832
S315080052B008B9607C08B1BDE8FE8F207C80075CBF1A
S315080052C00720BDE8FE8F6069C143B14238BF0E466C
S315080052D0DDF8089004F128010191002E00F0858080
S315080052E001466FF35F2179B1C1F50075B54288BFF4
S315080052F035462A46601859462830FBF7A1F8207C1F
S3150800530040F0800020744AE0FDF749F812D120B138
S31508005310A1692046FDF732FE02E0A068002862D0A7
S31508005320411C6BD0002860D0012865D0A168A06117
S3150800533001B9A060FDF744F806DCE269FDF729F833
S3150800534000285BD1FDF708F8A1694846FDF7D8FDA6
S31508005350002851D000EB08050020B0EB562F2ED0C0
S31508005360770AB9F80A102A4608EB0700884288BF68
S31508005370A1EB080799F8010059463B46FFF75EF985
S31508005380E0BBE069401BB84208D20BEB402101980C
S315080053904FF40072FBF754F8FCF7DEFF7D02DAF8EB
S315080053A00000AB442844CAF800006069E168284454
S315080053B08842606188BF0146E160761B8DE7E06937
S315080053C0A8420BD0E0686169814207D299F80100CA
S315080053D001992A460123FFF7EFF878B96169E56173
S315080053E06FF35F2180E7002193E7207C40F04000BF
S315080053F020740020BDE8FE8F022000E001206074C2
S31508005400BDE8FE8F80280DD302460020FF2A09D862
S3150800541040F2B513994205D112486FF0FF0100EB2F
S315080054204200405A704700BF7F2801D8024616E05E
S315080054300022B2EB104F12D140F2B51399420ED1A9
S31508005440084A0021802905D032F81130834203D05A
S315080054500131F7E7002202E001F18000C2B290B202
S31508005460704700BF187D0008B0B50021B1EB104F9A
S3150800547038D11E491C4AB0F5805F38BF11460A88E4
S31508005480002A2ED082422CD84C88043152FA84F550
S31508005490230A854205D8E2B2002B08BF01EB420178
S315080054A0EDE7082B1DD8DFE803F005090E101214E6
S315080054B016181A00801A31F8100012E0811A01F045
S315080054C00101401A0DE010380BE0203809E03038A9
S315080054D007E01A3805E0083003E0503801E0A0F587
S315080054E0E35080B2B0BD00BF267B00086A7A000888
S315080054F02DE9F04F89B0D0F800900E4683463078F3
S315080055005C2801D02F2801D10136F8E70020CBF816
