S01900006F70656E626C745F73746D3332663330332E7372656303
S3150800000038140020D93B0008F13B0008F53B0008EE
S31508000010F93B0008FD3B0008013C00080000000011
S31508000020000000000000000000000000053C000879
S31508000030093C0008000000000D3C00083F36000897
S31508000040113C0008153C0008193C00081D3C000836
S31508000050213C0008253C0008293C00082D3C0008E6
S31508000060313C0008353C0008393C00083D3C000896
S31508000070413C0008453C0008493C00084D3C000846
S31508000080513C0008553C0008593C00085D3C0008F6
S31508000090613C0008653C0008693C00086D3C0008A6
S315080000A0713C0008753C0008793C00087D3C000856
S315080000B0813C0008853C0008893C00088D3C000806
S315080000C0913C0008953C0008993C00089D3C0008B6
S315080000D0A13C0008A53C0008A93C0008AD3C000866
S315080000E0B13C0008B53C0008B93C0008BD3C000816
S315080000F0C13C0008C53C0008C93C0008CD3C0008C6
S31508000100000000000000000000000000D13C0008CC
S31508000110D53C0008D93C0008DD3C0008E13C000855
S31508000120E53C0008E93C0008ED3C0008F13C000805
S31508000130F53C0008F93C000800000000000000003B
S31508000140FD3C0008013D0008053D000800000000D0
S315080001500000000000000000000000000000000091
S315080001600000000000000000093D00080D3D0008E1
S31508000170113D00080000000000000000000000001B
S3150800018000000000153D000800F00100704780B52A
S31508000190DFF8F819887800F0D5FD012002BD0000C7
S315080001A02DE9F843DFF8E4698046B078FF280C4665
S315080001B056D1002CDFF8D87904D13868C2074AD559
S315080001C000BE48E03421DFF8B80900F0D9FD002068
S315080001D0307006F1100000F05BFF06F10C00B0600D
S315080001E0701C00F0DDFF70607078401CB0F5807FF1
S315080001F004DB3868C1072ED500BE2CE00025DFF8E1
S315080002001C9A01E080476D1C707800F065F816D2DC
S31508000210814205D27068EBB224214B43184404E0AE
S31508000220281AC0B2002805D1484600281CBF4068D5
S315080002300028E7D13868C1070DD500BE0BE086F85F
S3150800024002802146404600F0B5FF002805D13868EF
S31508000250C10700D500BE002003E0404600F0A4FF19
S315080002600120BDE8F2830000F8B504460025DFF852
S31508000270AC69DFF8187903E0C968204688476D1C21
S31508000280787800F029F813D2814205D27868EBB263
S3150800029024214B43C11804E0281AC0B2002802D111
S315080002A031460029E8D100F06DFC14D500BEF1BD39
S315080002B0DFF8CC483421204600F062FDFF221021E9
S315080002C0201D01F00BFD04F11400BDE8F840FF22E3
S315080002D0102101F003BDF1BD421CE9B2D2B2914230
S315080002E0704780B5FFF7C0FFBDE8014001F091BD3A
S315080002F07FB5DFF89858A878FF2817D17FBD9DF8F5
S315080003000110DFF88C68DFF87848491E072900F2E3
S31508000310B480DFE801F0041AAB949E2157A49DF837
S315080003200000FFF7DEFF9DF80400A0700020AC680F
S31508000330216888476946201D00F0F5FD06462168B4
S3150800034001208847002EDAD17FBD9DF80000FFF70F
S31508000350C8FF01F0CDFDE9E7287800282DD02978D7
S315080003604A1E2A7028780028E0D1217841F0010138
S3150800037004F124002170027802F0FE02027001786E
S3150800038001F0FB010170427802F0FE0242704178EA
S3150800039001F0FB01417001A99DF8000000F080F80A
S315080003A00028C3D19DF80000002101F0FAFB9DF852
S315080003B00000802101F0F5FBB8E73068C1079DD53C
S315080003C000BE7FBD9DF8041001F00F0004EB400449
S315080003D004EBD11212F8243F03F0FE03137092F8CF
S315080003E000C00CF0FB0C82F800C09DF80520029BAB
S315080003F020B99DF8000001F01FFD97E704EBD11026
S3150800040090F814C06878844506D26868242414FBDA
S315080004100CFC00EB0C0406E0ACEB0000C0B20028B4
S3150800042008D1DFF87448002C04D09DF80000A469B0
S31508000430A0477BE73068C10700D500BE7FBD20789E
S31508000440C10705D52078C00800F0010001F051FD6C
S315080004506CE72078C107FBD501F04CFD66E70198EB
S315080004600028FBD00298019988475FE7E078C10722
S31508000470FBD5019801F03FFD58E73068C107FBD569
S3150800048000BE53E770B50D4604466869164601F086
S31508000490C4FC6B6932462046BDE870400121184706
S315080004A02DE9F84380460E46002001F0B6FC327866
S315080004B0DFF8DC56C2F34110022804DD2868C107BC
S315080004C040D500BE3EE009D1DFF84C0801F0A5FC96
S315080004D032460121404601F00FFD4DE0DFF8ACE65B
S315080004E0DFF83817DEF80430DFF8947612F01F00CC
S315080004F04FF0240C05D0022800F0C680C0F09B807F
S315080005001DE1C2F34110012816D13079102819D2FD
S315080005103A1D105C9EF80120904204D21CFB00FC98
S3150800052003EB0C0102E0801AC0B258B951B1324649
S315080005304046FFF7A7FF1FE0002805D02868C10737
S3150800054000D500BE002017E07178387809296DD8E3
S31508000550DFE801F0605A6C536C054C6C141E30468B
S3150800056001F05EFC7188C9B2404600F076FE387824
S3150800057040F0020038700120BDE8F28378788DF8E3
S31508000580000001236A463146404601F009FCF2E7BD
S3150800059074887978E2B2914223D0787868B10021DC
S315080005A0404600F04CFE404601F0A6F997F8029046
S315080005B04046FFF759FE87F802907C70E0B210B902
S315080005C001F096FC0DE0E1B2404600F0BDF80028C7
S315080005D005D178702968C807B4D500BEB2E701F01E
S315080005E08DFC3146404601F0A0FBC4E73146404643
S315080005F000F058F90028BED1BEE771880129A1D1BB
S3150800060040F008003870ECE7718801299AD100F0AB
S31508000610F700F7E7410901F00101C0F3C00008B18E
S3150800062041F00201ADF800100223ABE72868C107C4
S3150800063000D500BE86E730791028FBD23A1D105C3B
S315080006409EF80120904204D21CFB00FC03EB0C012F
S3150800065003E0821AD2B2002AECD10029EAD0324647
S315080006604046FFF70FFF0028C5D13078C0F3411088
S31508000670002806D101F0D1FB71780A2902D00B298E
S31508000680AFD05FE700207AE7B08800F00F04082CA7
S3150800069004D32868C10700D500BE53E707EB440416
S315080006A04FEA006904EBD97494F814909EF801E0B7
S315080006B00024F14504D21CFB09FC03EB0C0404E0FE
S315080006C0A9EB0E03DBB203B90C46C2F3411121B103
S315080006D0002CE2D0324621462AE77278110004D06F
S315080006E0012A18BF032A09D024E0C1B2404600F007
S315080006F007FB00B10120ADF8000095E7718841B904
S31508000700012AC1B2404602D100F0DBFA01E000F04E
S31508000710C5FA002C3FF42FAF324621464046FFF774
S31508000720B1FE002001F079FB97F82500C1073FF5D7
S3150800073022AF56E72868C10700D500BE02E7286839
S31508000740C107FBD500BEFDE62DE9FE4F8246481ED1
S31508000750C0B201F0D7FB0028DFF8346402D0417834
S31508000760022904D03068C20700D500BE95E0DFF83C
S315080007701014C2790978DFF81484520901F0EF01E0
S3150800078002F0010241EA0211DFF8F423117001F0C8
S31508000790DF01C3799B0903F0010341EA4311117094
S315080007A000F109074188084400900098874276D2EC
S315080007B078780B284FF0010903D197F80390387819
S315080007C007447978042907D10098A0EB070BDFF8CE
S315080007D04C040190002511E03068C1075DD500BEC4
S315080007E05BE023691FFA8BF2394650469847092879
S315080007F003D31FFA8BF181421ADA6D1C98F80100AF
S31508000800FFF76AFD3ED2814206D2D8F80400EBB261
S3150800081024214B43C41804E0281AC0B2002802D188
S31508000820019C002CDDD13068C10736D500BE34E006
S31508000830B9F1010F01BF2169DFF8E02491424FF0B9
S315080008400209DFF83C43494600228146231D01E0A0
S315080008501D54521CD0B288420CDAB8781018C0B2AF
S3150800086013F800C0BCF1FF0FF2D03068C10714D5E9
S3150800087000BE12E0EBB24A46394604F1140001F014
S3150800088022FC4F4498F80100401CEDB2C0B28542E4
S315080008908BD33168C80700D500BE002000E00120D0
S315080008A0BDE8FE8F70B50D4604466888DFF8E0623D
S315080008B0010A01290AD0022919D0032929D00629B3
S315080008C02CD0072913D00F290CD032E001F018FBE1
S315080008D00246002A04D13068C1072AD500BE28E09E
S315080008E0122320E001F03EFD002823D00EE0022965
S315080008F0C0B208D101F006FB002807D13068C1074D
S3150800090017D500BE15E001F02FFD98B1811C0B88A4
S3150800091008E0A988C0B201F0F7FA01E001F026FD67
S3150800092040B10378024629462046BDE8704001F0EA
S3150800093037BA002070BD00002DE9FE4F04460D466B
S315080009406078DFF84C62DFF8D472DFF84092DFF89F
S31508000950D023801E05284FF0240816D8DFE800F0BB
S31508000960031F0E16A2A8117801F0FE0111700021CE
S31508000970107800F0FD00107051700BE01178C80770
S3150800098006D5117841F004011170CEE01078C10740
S3150800099040F1E980107800F0FB001070C5E04FF0D8
S315080009A0000A16E0AAEB0000C0B280B9384606E095
S315080009B08142F7D2D9F8040018FB01F1084400284F
S315080009C01CBF026A002A02D06168207890470AF1A3
S315080009D0010A99F80100421C5FFA8AF1D2B29142E3
S315080009E0E6D3DFF83C733878C0F3800080B397F815
S315080009F000C00FF238310CF0FB0C87F800C06846CF
S31508000A0091E80C4080E80C402078D9F808808DF8E9
S31508000A100000280003D1D8F800100020884769464E
S31508000A2008F1040000F09EFA8246280003D1D8F89F
S31508000A30001001208847BAF1000F04D13068C107B9
S31508000A4006D500BE04E000F0A5F82A4601F090FCA1
S31508000A50F878C00720D50FF2E02191E88C006846A7
S31508000A6080E88C0020788DF800006068D9F8084086
S31508000A700190280002D12168002088476946201D78
S31508000A8000F070FA0746280002D12168012088473D
S31508000A90002F04D13068C10765D500BE63E000F0B9
S31508000AA079F85DE099F80000401C89F800003CE000
S31508000AB0217911F00F004FEAD11A36D002EB400B1C
S31508000AC00BEB0A0099F80120007D904206D2D9F86E
S31508000AD0042018FB00F802EB080702E0801AC0B2EF
S31508000AE018BB002F1CBFF86900281ED00BEB0A00A4
S31508000AF010F8242F02F0FE0202700BEB0A0010F821
S31508000B00243F03F0FB0303706279A3682078FF692A
S31508000B10B84740BB0BEB0A0000F0CDF80BEB0A0018
S31508000B2010F8242F42F0040202702800D9F8087041
S31508000B3002D13968002088472146381D00F012FA8C
S31508000B408046280002D1396801208847B8F1000F8D
S31508000B5004D13068C10706D500BE04E06178207864
S31508000B602A4601F005FCBDE8F78FDFF8B811897849
S31508000B700028084618BF00F017BB00F01ABB000093
S31508000B809C0B002002480168CA077047B80000207D
S31508000B90F0ED00E09DF801109DF800007047000098
S31508000BA070B56048604E84780D46A87800F00F004E
S31508000BB0082804DB3068C1070DD500BE0BE0584B8A
S31508000BC099780022284601F037FA002805D13068BE
S31508000BD0C10700D500BE002070BD29462046BDE8E5
S31508000BE0704000F02BBE38B500F00DF8BDE8344073
S31508000BF0002101F0F7B938B500F005F8BDE8344032
S31508000C00002101F008BA464A084600F00F0302EB35
S31508000C10430404EBD01505F124007047A43A0008F4
S31508000C20F8B500F01CF80AD400F010F800F0A3FF9D
S31508000C3050B900F021F800D500BE0020F2BD30689A
S31508000C40C107FAD500BEF8E70120F2BD281910F849
S31508000C50247F47F001070770324FB878704701F0D4
S31508000C600F002F4DCC0905EB400505EB04002E4E71
S31508000C7090F82470F8077047281910F8241F01F017
S31508000C80FE01017028192430027802F0FB02027076
S31508000C903068C10770470000A43A000838B500F06C
S31508000CA020F800F07EFF00F022F842F002020A70F7
S31508000CB000F001F831BD10F8241F41F00101017060
S31508000CC0704738B500F00DF800F08BFF00F00FF80C
S31508000CD002F0FD020A7010F8241F01F0FE010170EF
S31508000CE031BD104A907801F00F04CD0970470C49C0
S31508000CF001EB4400431903F1240128440A7870479C
S31508000D00074801F00F0200EB420303EBD11191F8FB
S31508000D1024004008FFF738BAF91E0008B124000875
S31508000D209C0B0020B8000020F0ED00E00005000054
S31508000D3000000000000000000003000000000000A2
S31508000D4000000000704730B50168846842184168A1
S31508000D5002EB5103C90703D54C4401E0491C08D1ED
S31508000D609A4218BF12F9011B01D10C3030BD12F896
S31508000D70015B002904F8015BF0D4491EF7D5EFE7BB
S31508000D80002200F0AFBF30B548F20105AA4201DBE8
S31508000D90002030BD039C016082800022C18863F375
S31508000DA00E01C180C17901F07F0141EAC411C17108
S31508000DB0002141810281012030BD521893B28B4235
S31508000DC003D391B2B1EB400F03DB4FF6FE7110FB74
S31508000DD0012290B2704738B50C469A422FBFD11AF5
S31508000DE08188C3EB4101511889B209B9002032BD87
S31508000DF085888D4207DAAA422CBF521BAA1842815F
S31508000E00134600E05B1B99B2A942FBD2C188006871
S31508000E10C1F30E019BB20A464B43C118204601F0A6
S31508000E20A9FA012032BD2DE9F0410546069886B299
S31508000E30B3422FBF1E1AAF88C0EB47069E19B4B23D
S31508000E400CB900203DE0AC88B7B2BC4206D2A3423A
S31508000E502CBF1B1BE3186B8118462646B6B2964272
S31508000E6002D9164600E0001B83B2A342FBD2A4EBCC
S31508000E70000CEC88079BA6EB0C0EC4F30E041EFBB5
S31508000E8004F822461FFA8CF72C6880B25743504361
S31508000E90BFB22044DBB29BB90C461FFA8CF1B142B3
S31508000EA003D301467243204608E001463A462046E7
S31508000EB001F060FA29681FFA88F2E01901F05AFA77
S31508000EC03046BDE8F081014648890A898988824208
S31508000ED02EBF101AC0EB4100101880B2884288BF96
S31508000EE008467047418902898388104688422EBF82
S31508000EF0511AC1EB4301511889B299428041C04346
S31508000F00C00F7047014648890A89898882422EBFE0
S31508000F10101AC0EB4100101880B28842B4BF081AF4
S31508000F20002080B2704738B5044663892289FFF7E6
S31508000F3052FF00F012F86081284632BD3EB50446DD
S31508000F40002560890195009020462389FFF76BFFED
S31508000F5000F003F8608128463EBD61890546A088F1
S31508000F602A462AE770B504460D462689FFF7BAFFD2
S31508000F7010B1E079C00918D0A188304600E0401ABF
S31508000F8082B28A42FBD2E3882946256880B2C3F337
S31508000F900E0358431A46284401F0ECF9A0880122AA
S31508000FA03146FFF70AFF2081012070BD2DE9F8437D
S31508000FB0140008BF002068D0054688462F896B892B
S31508000FC0E879AE88F91AC00914D19F422EBF0B469C
S31508000FD0C3EB4603FB189BB2B342B4BFF31A002314
S31508000FE099B28C4203D31C46A0B200284CD0A988DB
S31508000FF038461DE0B44208D3E888921BC0F30E00B9
S315080010004243904434461F46EEE79F423CBFC3EB3B
S315080010104601791812FA81F0B0EB460FE7DB321B6E
S3150800102092B219463046FFF7C8FE0746DFE7401A70
S3150800103083B28B42FBD2EB88091AA4EB010C80B26F
S31508001040C3F30E031CFB03F91A462B6850431844D6
S315080010508EB289B2A3B256439942B6B203D3A1B2AD
S315080010604A43414608E03246414601F083F928687A
S315080010701FFA89F208EB060101F07CF9A888A2B2EA
S315080010803946FFF79AFE2881204680B2BDE8F283EA
S31508001090002141810022028101207047C279D309CB
S315080010A08B4204D002F07F0242EAC112C2710120CB
S315080010B0704710B504460A462189A088FFF77DFEC9
S315080010C0208110BD10B504460A466189A088FFF73D
S315080010D074FE608110BDF0B5038944898588A342F2
S315080010E02EBF1A1BC4EB45029A1892B2954205DA2E
S315080010F0AB422CBF5C1BEC1844812A462AB9002057
S3150800110008804A80486014E05B1B9FB2AF42FBD25E
S3150800111000F03EF89BB225449C424D6003DA144623
S315080011200022002003E0838800681C1B121B0C8029
S315080011304A808860F0BDF0B5038944898588A34252
S315080011402EBF1E1BC4EB45069E19B6B2AE42B4BFEF
S31508001150AA1B002292B22AB9002008804A80486059
S3150800116014E05B1B9FB2AF42FBD29BB200F010F8B3
S315080011701D44A3424D6003DAE31A0022002003E06F
S3150800118084880068E31AD21A0B804A808860F0BD0A
S3150800119000E0641BA6B2AE42FBD20568A4B2704753
S315080011A00021017000207047BFF34F8FBFF36F8F88
S315080011B0704770471CB50446002002E000BF00983F
S315080011C0401C00900099C829F8D3DFF8E81A0320D4
S315080011D008800022009203E000BF0098401C00909F
S315080011E00098C828F8D30A884FF6FD7002400A808E
S315080011F00021009103E000BF0098401C0090009871
S31508001200C828F8D3DFF8AC0A01800022028200233E
S3150800121083800020DFF8A02A22F82010401C082826
S31508001220FAD3DFF8900A018841F45D41018020462F
S3150800123000F018F8204601F0A9F8012016BDDFF8DD
S31508001240742A21B1108840F4007010807047118804
S315080012504FF6FF500140118070470023002280217D
S3150800126000F089BC70B5DFF8584ADFF8581A002034
S315080012702080FF220025002601EB8003401C082859
S315080012801A705A709D70DE70F6D340220A840021C7
S31508001290002000F08DFA0021802000F089FADFF89E
S315080012A0280A402181818183857385770021402022
S315080012B000F054FA05460021402000F04FFADFF806
S315080012C00C1ADFF8F4290D81088047F2700013889C
S315080012D003404FF4805583F408538D8183F020032F
S315080012E013808021218070BD0000000030B50446BF
S315080012F0DFF8D80900EB041085B085890189C5F3A4
S3150800130009052A4603A800F0B5FCDFF8AC1931F840
S31508001310242040F68F70024042F0800221F82420F3
S31508001320082D0FD106218DF80110002003A98DF88C
S315080013300000D1E9002301A80121C0E9002300F03B
S31508001340EDF908E000F02FFA00D500BEDFF88019A5
S315080013504FF48050088005B030BD00002DE9F04FED
S31508001360DFF850598BB00446A888049080050ED53E
S315080013704FF6FF51A980002029898DF80000C1F396
S315080013800A01032201918DF8012000F0C6F904989C
S31508001390410510D54FF6FF30A8802046FFF762FFBB
S315080013A000208DF8000001218DF804008DF8011049
S315080013B000F0B4F9AEE1C10410D52A884FF6FB70E7
S315080013C002402A804FF6F7712B880B402B804EF689
S315080013D0FF72AA800020052100F0A3F904980105F0
S315080013E00ED5288840F0080028804FF2FF72298819
S315080013F041F004012980AA800020042100F091F917
S315080014000498C10516D5DFF8B4281078012805D147
S315080014102B884FF6EF710B402B8001E0002801D096
S31508001420401E10704FF6FF61A98003E04146104642
S3150800143000F07BFAA888010440F16081B5F80480C1
S31508001440DFF87498DFF8841808F00F0839F82800D0
S31508001450059001EB081205990392080404D50805BE
S3150800146003D54046FFF742FF04E139F8281040F655
S315080014708F70014041F0800129F8281039F828A01A
S315080014804AF4004040F0800A0AF00F000AF4C061EE
S315080014908DF80200B1F5806F0CBF012400244FEAD5
S315080014A09A3000F00100204080F001000399DFF82F
S315080014B01828C00001448E880399085AADF8000020
S315080014C0C6F309069DF8020002EB40177868002863
S315080014D06AD0002E0A906FD006A9FFF72CFEBDF839
S315080014E01800B346834588BF8346BDF81A10A6EB95
S315080014F00B0080B2884288BF0846ADF806004FF652
S31508001500FE7200EB0B0102EA0B02ADF80A10ADF809
S3150800151008200798BDF80820BDF80010099000F0CB
S31508001520A9FBBDF80010BDF808004118ADF8041075
S315080015305FEACB7158BF089B29D5BDF80410022273
S31508001540684600F097FBBDF804000999BDF8082025
S31508001550801CADF80400BDF800008854BDF80000F2
S31508001560089BBDF80610000AADF8000001208AB2F3
S315080015705AB1BDF8002003F8012B491EBDF800201A
S31508001580120A401EADF80020F1D1ADF80610BDF8DC
S315080015900620BDF80410184600F06CFBBDF80A10CA
S315080015A00A98FFF786FD07E038687B89BDF80010C2
S315080015B03246184400F05EFB7889301878814FF47B
S315080015C00041B88986422BD37A893889824227D244
S315080015D0002C1CD102467889BB89121A92B29A420B
S315080015E088BF1A463F2A104603DB1F3001224009EE
S315080015F002E0401C00224008C0B2801A800240EA7D
S31508001600C23082B2002A08BF0846039988814BF681
S315080016108F7000EA0A0080F4405A29F828A029E0C9
S31508001620B8893F28024603DB1F320120520902E02F
S31508001630521C00205208D2B2121A920242EAC03252
S3150800164090B200B90A4603988281072279898DF8F3
S31508001650192000209DF802208DF8180008918DF8B1
S315080016601D008DF81C20012106A8FFF765F900204A
S3150800167078813881059801063FD539F8281048F64B
S315080016800F70014041F4004129F8281039F8283034
S31508001690DFF8340603F00F0103F4C06400EB4110D1
S315080016A0B4F5806F00F1100213D1D07B002824D046
S315080016B00024D4739B0903F00103039C83F0010300
S315080016C004EBC304A088039C04EBC30300F47C402A
S315080016D098805389108998427FF4A8AE41F080011A
S315080016E000228DF804108DF80020072402938DF847
S315080016F005208DF8014000F010F89BE60498410497
S3150800170008D5DFF8D0050268D10700D500BE4BF62C
S31508001710FF70A8800BB0BDE8F08F01216846FFF77F
S315080017200BB98DF800008DF8011068460121FFF706
S3150800173003B9087810F07F0F04BF4878052806D14A
S315080017404888DFF87C15C0B240F0800008804FF466
S315080017508050DFF87C2510807047000010B53F28C0
S31508001760024603DB1F322020520902E0521C0220E7
S315080017705208DFF850351C8CD2B212FB00F2204614
S31508001780141919B1A1B240EA014014191C8440F297
S315080017900122198C914205D300F005F800D500BE48
S315080017A04FF6FF7010BDDFF82C050168CA077047B1
S315080017B0F0B500F00F04C2090B460020DFF8045507
S315080017C0AF1807EB800705EB8006B97831B1717859
S315080017D0994204BF15F82010A14226D0012B14BF48
S315080017E04FF0000C4FF0010CB978A1B9BCF1000F0D
S315080017F006D082F001072F4407EB8007B97851B964
S3150800180015F82010FF2918BFA14204D17178FF29C5
S3150800181018BF994203D0401C0828D1DB07E005F819
S3150800182020403244737001219170C0B2F0BDFFF7B9
S31508001830BAFF00D500BE0020F0BD00002DE9F84F24
S315080018400C46A078E17800F00F09C60901F00301FB
S31508001850A788FFF7ADFF8246BAF1080FC7F30A0754
S31508001860DFF8701404DB0868C10735D500BE33E01D
S31508001870DFF84484DFF8600438F82A2049F4004584
S31508001880024045F080051543E27802F00302022A79
S3150800189003D0032A1CD145F4C065DFF8300400EBF9
S315080018A00A1400213846FFF759FF86F0010B24F881
S315080018B03B00DFF8140400EB491101EB06108781A1
S315080018C080F80EA0300014BF20204FF4005005E029
S315080018D00868C10700D500BE00200BE04540002E71
S315080018E014BF25F4E04525F0700528F82A5000F0C5
S315080018F0D5F80120BDE8F28F70B50121DFF8C443A1
S31508001900FF220026DFF8B053002325F8213004EB28
S315080019108103491C08291A705A709E70DE70F1D32B
S31508001920FFF742FCC020208470BD2DE9F34F054621
S3150800193087B069892E89A889761AB6B2864288BF81
S315080019400646BDF820B0DFF8700330F82B8048F45F
S31508001950004040F0800808F4C060B0F5806F07D1F9
S315080019604FEA981000F0010001244FEAC00901E08F
S315080019700024A146D54800EB0B1232F809A0686886
S31508001980002864D00690300067D0069803A9FFF7B0
S31508001990A2FBBDF80C003746874288BF0746BDF84C
S315080019A00E10F01B80B2884288BF0846ADF80200C8
S315080019B04FF6FE72C1193A400498ADF80A10ADF810
S315080019C0082001900146BDF80820504600F03CF971
S315080019D0BDF8080005998244F80758BF019129D532
S315080019E00022019BBDF80800ADF800201A5CBDF87E
S315080019F00200ADF800200191012281B281B1019B5C
S31508001A00BDF800105B1C0193401E13F8017DD3003E
S31508001A109F403943ADF80010521C91B20129ECDD04
S31508001A20ADF80200022269461FFA8AF000F00CF9A6
S31508001A300AF1020ABDF8022001991FFA8AF000F09D
S31508001A4003F9BDF80A100698FFF73CFB05E028687D
S31508001A5001443246504600F0F7F868899B49301829
S31508001A606881BDF8200001EB001000EB090248442C
S31508001A709188890A61F38F26868088F030020CB136
S31508001A800121E97348F6BF708B4900EA020821F87C
S31508001A902B8000F003F809B0BDE8F08F0020FFF7AF
S31508001AA083BB2DE9F041884800EB411101EB021098
S31508001AB0012A817B02D1FFF738FF50E07E4A32F8CF
S31508001AC021404BF68F7323408489008943F40043F1
S31508001AD043F08003A04288BF204600F11F04640932
S31508001AE0451C03F4C067B7F5806F4FF4004609D16B
S31508001AF03F28A7BF4FF0010CA6464FF0000C4FEA4F
S31508001B00550E05E03F28AEBF012000206C081AE0FC
S31508001B105FFA8EF7A7EB0C07BF0247EACC3E1FFA1F
S31508001B208EF7002F08BFB646DFF8A08108EB01172D
S31508001B303F28A7F804E0AEBF012000206C0800F09B
S31508001B4011F8BC8105E000F00DF8604D05EB0110B9
S31508001B50848183F4405322F82130FFF79FFF012048
S31508001B60BDE8F081E4B2241AA40244EAC034A0B263
S31508001B7000B934467047B0B500F00AF82A6000226A
S31508001B806A606A812B810A462146BDE8B04088E72B
S31508001B9001F00F044C4DC90905EB441707EB011575
S31508001BA0704710B5C809484A434B00F046F8A27B6F
S31508001BB033F8224044F4004444F0800404D048F644
S31508001BC0BF700440102004E04BF68F710C404FF4B0
S31508001BD08050444023F822400020BDE81040FFF71B
S31508001BE0E3BA38B5C809384A00F027F8324AA17B63
S31508001BF032F8213043F4004343F0800307BF4FF423
S31508001C0040544FF48045302440252C4344F40F4477
S31508001C1044F08F04234003F4C064B4F5806F05D004
S31508001C20002814BF20204FF40050434022F82130EA
S31508001C300020BDE83240FFF7B7BA01F00F0102EB0A
S31508001C40411101EB0014704710B5130010D01F4C5A
S31508001C50530804EB400403E031F8020B24F8040BA4
S31508001C601846431E0028F7D1D00744BF09782180BB
S31508001C70012010BD10B5130019D0144C530804EBFD
S31508001C80410403E034F8041B20F8021B19464B1ED6
S31508001C900029F7D112F0010209D0218802E000F8E4
S31508001CA0011B090A13465A1E9BB2002BF7D10120C5
S31508001CB010BD0000405C0040005C0040300C002075
S31508001CC04C5C0040D00B0020F80800200060004063
S31508001CD00C600040F0ED00E07070FFFF62F30F2229
S31508001CE062F31F4200B500BF1300964694461039AA
S31508001CF028BFA0E80C50FAD85FEA417C28BF0CC080
S31508001D0048BF40F8042BC90728BF20F8022B48BF54
S31508001D1000F8012B00BD00000978C90981F001010E
S31508001D2000230022C901FEF77BBFF8B504466E4EB4
S31508001D300D463046082200F01DFB0027B760F76005
S31508001D4029462046BDE8F440E6E7F8B5664EB4896C
S31508001D500546F089241AA4B2402C88BF402430785E
S31508001D600027C0090ED0802784B12200B1680AD0A6
S31508001D7009B1412A01D30020F2BD06F1140000F092
S31508001D80F9FA00E014B106F1140200E00022234635
S31508001D903946284601B0BDE8F040FEF741BF0000CD
S31508001DA02DE9F843804614464F4D0E461F462846F1
S31508001DB0082200F0DFFAAC604FF00009A5F80E9093
S31508001DC0F088874288BF0746AF81F088474D88B1BB
S31508001DD037B1002C04D12868C10715D500BE13E019
S31508001DE04046FFF7B2FF002810D12868C1070BD577
S31508001DF000BE09E031464046FFF78EFF002805D1B0
S31508001E002868C10700D500BE002000E00120BDE813
S31508001E10F28314213448FEF7B3BF3349086170478B
S31508001E2038B50146304C2046082200F0A3FA0025B2
S31508001E30A560E56031BD0000F8B52B4E2B4F054671
S31508001E403078C009C90981421C4612D0002C04D03A
S31508001E503868C10745D500BE43E031462846FFF736
S31508001E6068FC33691BB1324603212846984701208E
S31508001E70F2BD30B9B068A0B3224606F1140100F0ED
S31508001E8079FAF089B168F2882018F081214480B285
S31508001E908242B16001D0402C1AD2336923B132464E
S31508001EA002212846984750B131462846FFF734FFA5
S31508001EB00028DCD13868C10713D500BE11E000211F
S31508001EC02846FFF76EFE80212846FFF76AFECEE712
S31508001ED02846FFF73AFF0028C9D13868C10700D558
S31508001EE000BE0020F2BD0000B80A0020F0ED00E0B8
S31508001EF0704770477047704700207047704700006A
S31508001F0033A070472D487047F8B52D4C217884B01A
S31508001F10002239BB2B490B68019301234D680295B2
S31508001F20896803912370002101AD6D5C2E0905F0C7
S31508001F300F058DF801508DF8006000251DF8056025
S31508001F400A2E34BF30363736271DD3B2521C6D1CC5
S31508001F50FE54022DF2D3491C0C29E5D3231DD2B217
S31508001F6000219954010008D118A0027804F1220131
S31508001F700A7042784A70022018E0052828BF002017
S31508001F801AD2114951F82050284600F001FAC0B279
S31508001F902028A8BF1F20002104F1220303E06A5C61
S31508001FA023F81120491C8142F9DB4000801C40F4CB
S31508001FB04070208404F1200005B0F0BDF83900080F
S31508001FC054000020ACF7FF1FC43B000809040000BA
S31508001FD012010002EF020140C016E10500010102EC
S31508001FE00301000001460878C20712D40878C0F336
S31508001FF0800070B90878C2070BD40878800800F00A
S31508002000010090F0010003D00B7843F004030B7035
S3150800201070470020704701460878C0F38000002802
S315080020201EBF087800F0010090F0010003D00B787D
S3150800203003F0FB030B70704770B5C6788388DFF82A
S31508002040004306F00306012EC3F30A034FF4806526
S3150800205004D036D3032E2BD00BD332E0022918BF77
S3150800206040F2FF359D4214D22068C10729D500BE2B
S3150800207027E0022907D1B3F5007F0AD02068C107F7
S315080020801FD500BE1DE032B1B3F5007F03D1402154
S315080020908180012070BD082B18BF102BF9D0202B8A
S315080020A018BF402BF5D02068C1070AD500BE08E046
S315080020B0022918BF40259D42EBD22068C10700D5EA
S315080020C000BE002070BD70B50A440BE04C78052CA4
S315080020D006D18C7804F00F0500EB4506E409335564
S315080020E00C7821449142F1D370BDF8B505462F7896
S315080020F00698079A089E099C07F0FE073943297037
S3150800210000930146012392B205F10800FEF73BFE53
S315080021106E606C800120F2BD0120704770B50D46D7
S315080021200446287881074CBF40F2FF113F212B8ACD
S315080021306E8AB34219D1C2B10A4216D1C20714D463
S3150800214069782046FEF74FFD00280ED02878C1078B
S3150800215007D46978002300222046FEF761FD00288F
S3150800216005D100F03AF800D500BE002070BD012068
S3150800217070BD000070B504460D4605F10800FEF76F
S31508002180A2FE48B32878C10725D469782046FEF709
S315080021902AFD00B36A88696805F10800FEF7CEFED5
S315080021A006462878002E10D0C00707D46A686978D2
S315080021B033462046FEF734FD002804D100F00DF81A
S315080021C009D500BE07E0304670BDC00703D469785C
S315080021D02046FEF710FD002070BD59480168CA0761
S315080021E070470000F8B51C0005460E46174625D070
S315080021F0B08928BB3178CA0720D471782846FEF7FB
S31508002200F2FCD8B17088844288BF044670682246BA
S31508002210394600F0AFF83078C1070BD4A0B20028D1
S3150800222014BF726800227178A3B22846FEF7F8FC3C
S3150800223000281FD1FFF7D1FF00D500BE0020F2BD50
S31508002240A2B2394606F10800FEF7B0FE0446307819
S3150800225081074CBF4FF40077402706F10800FEF7C8
S3150800226032FEB84202D2B089B84203D23146284675
S31508002270FFF780FF2046F2BD2DE9F0410D46804666
S31508002280A8892F4EE8B92978CA0756D469784046EE
S31508002290FEF7A9FC002850D028786B88C10709D416
S315080022A0180014BF6A68002269784046FEF7B8FC31
S315080022B0002804D13068C1073FD500BE3DE06888D4
S315080022C03CE0287881074CBF4FF40074402405F1A0
S315080022D00800FEF717FEA0422FD32878C1072CD492
S315080022E069784046FEF77FFC38B305F10800FEF72B
S315080022F009FE2978A042074619D36A88601E8743D3
S31508002300974288BF1746C9070AD4380014BF6A68B7
S31508002310002269783B464046FEF782FC002804D135
S315080023203068C10709D500BE07E0384606E0C80789
S3150800233003D469784046FEF75EFC0020BDE8F081CC
S31508002340F0ED00E070B50D46044611469AB205F167
S315080023500800FEF7F3FD064629462046FFF78CFFE0
S31508002360304670BD00207047002070470020704737
S31508002370704700004AB1000011F8013B521E00F8F0
S31508002380013B1CBF11F8013BF8E770477047000096
S3150800239000F1010310F8011B11B110F8011BFBE74E
S315080023A0C01A7047002804BFDFF80404FEF78BBD87
S315080023B000207047134608B100207047DFF8EC0389
S315080023C00A4600F1B00190F89000FFF7BBBF13462C
S315080023D008B100207047DFF8D4030A4600F19C01D3
S315080023E090F89000FFF7FEBE08B100207047DFF8AE
S315080023F0BC0300F19C0190F89000FFF7BBBE1FB527
S31508002400DFF8A843B42104F19000FEF7B9FC4FF4B5
S31508002410E13204F19400FF21026000230822C17111
S3150800242083808271402004F58272039001900092A5
S3150800243002940022002104F1B000FFF756FE402066
S315080024400390019004F1C403009304F14001DFF8FE
S315080024505803037802919B0803F001030122002127
S3150800246004F19C00FFF741FE1FBD10B5DFF83C43A1
S3150800247004F1B000FFF750FE04F19C00FFF74CFE94
S31508002480012010BD002210B5DFF8200300F19001ED
S3150800249000F19D040A60A430DFF80C23117889083E
S315080024A001F00101FEF7FAFD00212175217010BD2A
S315080024B02DE9FE4F0D4680466879022804BFA879A3
S315080024C0022810D1DFF8E49209F1B00709F190016A
S315080024D0787800281CBF487B002805D0B5490868CD
S315080024E0C20700D500BE9BE081F8008005EB020A12
S315080024F0A878487029786E1800E00646564506D230
S3150800250030783018824502D371782429F5D070784E
S31508002510A84C052810D131464046FEF741FB002855
S3150800252004D12068C1077BD500BE79E0B07809F1EF
S31508002530900188703278B6187178042901BF301D69
S31508002540019040780A286FD109F190004FF0000BEE
S3150800255000902DE02168C80762D500BE60E0F078DB
S3150800256000F00300022833D131464046FEF718FB37
S315080025700028EFD0B1788C4A1278C80932D0009872
S315080025804173B188C1F30A01B1F5007F14BF002079
S31508002590022000990B7B03F0FD031843087390078C
S315080025A01BD509F19C014046FFF7E4FD0BF1010B31
S315080025B001990A785FFA8BF0904238BF564531D2B6
S315080025C03078301882452DD3064671780529C6D04D
S315080025D02068C10724D500BE22E009F1A400FEF751
S315080025E057FDE3E77970B088C0F30A00B0F5007FBD
S315080025F00CBF02200020397801F0FD01084338702D
S31508002600D0075CBF09F1B800FEF742FD39464046DF
S31508002610FFF732FE0028C9D12068C10700D500BEE1
S31508002620002003E030783618751BA8B2BDE8FE8F87
S31508002630F8B50B4611460A78C2F34112012A4AD167
S315080026405A4E8C8806F191073A78A24243D14C78C3
S31508002650202C06F1940206D03DD3222C13D00CD39D
S31508002660232C2CD037E0012B09D0032B03D111469C
S31508002670002000F0A1F80120F2BD012BFBD10723B1
S31508002680FFF78EFBF7E7012B1BD0032BF3D1488806
S315080026904549B87000F001040A78450805F00105B7
S315080026A006F1A40053074CBF84F001010021FEF790
S315080026B0F5FC2A462146002000F07FF8DBE7012BCF
S315080026C002D1FFF732FBD6E7032BD4D14988002085
S315080026D000F074F8CFE70020F2BD00002DE9F047BE
S315080026E0DFF8C8A00AF192048046E07F0D469946B5
S315080026F081421CBFE37A99420BD021788D4201D1E1
S31508002700002D36D12B480168CA0700D500BE002027
S3150800271048E081422DD10AF1B406308930B13168DA
S315080027201FFA89F20AF1B800FEF740FC94F909008D
S315080027304FF0FF31884210D000270CE03068617AEC
S31508002740C25D914206D1B089F28990421CBF002031
S3150800275000F035F87F1C4F45F0D3B089F1898842DF
S315080027601CBF002000F02CF80AF1B0014046FFF724
S3150800277083FDE17A8D420ED1002000F022F80AF19D
S315080027809C0631464046FFF7F5FC20B94A463146D5
S315080027904046FFF7C3FC2078854204BF002000F0BE
S315080027A011F80120BDE8F087D4000020B407002006
S315080027B06C080020F0ED00E07047704770477047DE
S315080027C07047704770470000A14800F13F01443048
S315080027D000220A704260CA7002808A704A70704786
S315080027E09B4890F83F0000B10120704798490020A7
S315080027F081F84200704700002DE9F8430746FF2597
S315080028003878934EFF2806F1440406F13F081BD199
S315080028100020012188F8010088F800103570102280
S315080028207270B07000F055F9F07000F061F930710F
S3150800283000F05EF9000A70710120B071F07108208D
S31508002840208000F06FF9A9E098F80010012940F0FF
S31508002850B980C92806F1010900F08180CC2800F06A
S31508002860E380CF2800F0DD80D02800F08B80D128C7
S3150800287000F0CD80D22800F0BE80F12800F0D68086
S31508002880F32834D0F42817D0F5280AD0F6282BD008
S31508002890FA2845D0FC284FD0FD284FD0FE2857D01F
S315080028A0C6E000F016F97978401E884201DA22203F
S315080028B06FE00A4661680CE000F00BF97978401E73
S315080028C0884201DA222064E000F0B7F80146616028
S315080028D07A78484600F05CF935706068797841186E
S315080028E061607878401C58E000F0A6F847E000F0F0
S315080028F0A3F865680646002704E015F8010B3F189B
S3150800290000F059F93046461E0028F6D1504E0120EF
S315080029107070311DF8B200F0A9F80020708009E047
S315080029203570002155A06060717071800720311DD7
S3150800293000F09CF8082030E000202AE035700020DE
S315080029407070F070B080062098F80110B17024E01D
S31508002950002088F8000088F80100357010E000F0C3
S31508002960B8F8411E60687A1C00F0DEF808B9312014
S315080029700FE0357000F0ADF86168401E40186060E1
S3150800298001200AE000F0A5F87978801E88421BDA53
S31508002990222000F054F8B4F90000208098F80300CB
S315080029A0012804BF102000F04AF8B4F900000028F6
S315080029B008DD012288F8032081B23046BDE8F443D9
S315080029C000F07BB8BDE8F183357001212180787865
S315080029D028B900F0B1F80028DDD13120D9E7014641
S315080029E06068BA1C00F0A0F80028F6D0606879780C
S315080029F041186160CFE7357000207070B07000F044
S31508002A0068F8F0700020B080B0710720C5E700F0C4
S31508002A1014F80146606800F089F800289DD1312035
S31508002A20B7E700F095F898E73120B2E72020B0E73D
S31508002A30202000F004F8AEE73570381D0AE0044996
S31508002A404870FE2202200A70A1F844007047000070
S31508002A500C0B0020014608784A788B78C97840EA3A
S31508002A60022040EA034040EA016070470870020A03
S31508002A70030C000E4A708B70C87070474F70656EF5
S31508002A80424C540080B5FFF79FFE00F097F82049A6
S31508002A900420087001BD1CB51D4C6946201D00F0B8
S31508002AA0C7F8012806D104202070201D9DF80010C3
S31508002AB0FFF7A2FE13BD00F097B880B5144A137845
S31508002AC0042B04BFC9B200F09CF8BDE80140FFF72B
S31508002AD08DBE0F4A1078012806D9801E02D0C01E66
S31508002AE002D003E008207047812070473F207047D6
S31508002AF0074A1078012806D9801E02D0C01E02D0C7
S31508002B0003E008207047812070473F207047000087
S31508002B100000002010B5FFF763FE002400B1012471
S31508002B20204610BD00F0D6B800F0DBB800F0F4B8C7
S31508002B3000F049B900F071B980B500F026F918B16E
S31508002B40BDE8014000F054B902BD000000F0FAB932
S31508002B5010B5FFF7EDFFA8B100F0F8F990B1FFF74F
S31508002B60AAFF00F017FA00F05BFAFFF7E3FF064941
S31508002B70064A08401060FFF7DDFF50F8044F00F0E2
S31508002B80E3F9A04710BD000080FFFF1F08ED00E035
S31508002B9070B504460D46164605E015F8010B04F80F
S31508002BA0010B00F008F83046461E80B20028F4D122
S31508002BB070BD00F0D9B900F0DAB9000080B500F0B0
S31508002BC01CF800F077FA00BF41A10020FDF7E8FAEB
S31508002BD000F097FAB0F5FA6F05D2BDE802404FF457
S31508002BE0FA6000F08BBA01BD80B5FDF7D0FA00F0A7
S31508002BF004F8BDE8024000F089BA2848284901606F
S31508002C00704713B54029044603DBAB21254800F07D
S31508002C107EFA012201A90020FFF7D9FB9DF80420BE
S31508002C2021460020FFF7D3FB0020FFF7DDFB13BD8D
S31508002C30F8B506460F460020FEF790FB00214FF038
S31508002C40FF30FDF755FB184D6878002460B9281D3C
S31508002C5000F02CF801281ED12879E0B140281ADAAC
S31508002C60012068702C7016E02978681D084400F069
S31508002C701DF801280FD12A782979521CD0B288422A
S31508002C802A7008D1D2B2691D3046FFF781FF29782C
S31508002C906C70397001242046F2BD0000D80000206F
S31508002CA0005C0040E8380008580B002038B5044698
S31508002CB00020FFF777FB002538B1012221460020C6
S31508002CC0FFF778FB012808BF0125284632BD00001A
S31508002CD0010000006749684A4FF0FF30086010603D
S31508002CE0704738B50B4665490C1A5D1EAC4224BFC1
S31508002CF0634CA04203D31D186D1E8D4201D90020D6
S31508002D0032BD410A4902A14201460CBF5A485948F8
S31508002D1001B0BDE83040B7E07FB500230093012439
S31508002D20564B1A1A4D1EAA4221BFC20AD202544E47
S31508002D30B24203D30818411E994201D9002022E065
S31508002D40801A45012D0C40051CBF6D1CADB2002133
S31508002D5001910292039400F01AFA002604E0029800
S31508002D6000F500600290761CB0B2A84208DAFFF7B8
S31508002D7022FF694601A800F077FA0028EFD0002460
S31508002D8000F015FA204604B070BD80B53A4B1868B5
S31508002D9010F1010F01D1012002BD5A689868D9685F
S31508002DA0821818698A185969821898698A18D96917
S31508002DB082188A18D243521C009204216A46314866
S31508002DC0FFF78FFF02BD2E4B1A685868996882185C
S31508002DD0D8688A181969821858698A189969294B0E
S31508002DE0821818688A188218501E8041C00F7047CA
S31508002DF080B52148016811F1010F02D000F07EF874
S31508002E0038B11C48016811F1010F04D000F076F8BA
S31508002E1008B9002002BD012002BD1948704780B5D7
S31508002E20CA0501D0002002BD02688A4205D040F8D2
S31508002E30041B4FF40072FFF7ABFE012002BD38B544
S31508002E4004460D4884420D4606D10A4C29462046BA
S31508002E50FFF7E5FF58B932BD09498D4208BF044658
S31508002E60F4D0204600F04AF80028EFD132BD2046BB
S31508002E7032BD0000AC030020B0050020FFFF0308A8
S31508002E8000400008884100082DE9F04104460E4636
S31508002E902068770A10F1010F90461D4604D1790281
S31508002EA02046FFF7BCFF20B32068B0EB472F05D0BC
S31508002EB079022046FFF7C3FF04001AD02068361AA5
S31508002EC0A019061DFFF777FE201D301AB0F5007F02
S31508002ED008D3216801F500712046FFF7B0FF04000A
S31508002EE007D0261D18F8010B06F8010B6D1EE9D14F
S31508002EF001E0002000E00120BDE8F0812DE9F04165
S31508002F00804600F044F90126002708EB8700D8F828
S31508002F1000504468FFF74FFE05EB8705224600235D
S31508002F202946022000F0F8F830B92868A04203D1F3
S31508002F307F1C802FE9D300E0002600F038F93046E0
S31508002F40BDE8F08172B6704762B6704780B505482D
S31508002F500068C10701D5002002BD00F00AFA012069
S31508002F6002BD000010000048642000F0E7B900F038
S31508002F70E8B9000080B51048016841F01001016009
S31508002F80032000F00EFA002000F04EFA00F0C8FA0E
S31508002F90002002BD80B509484FF0FF31416000228C
S31508002FA04260016000230360C1610021C16100F035
S31508002FB0FFFA002002BD0000002002400C1002406B
S31508002FC018B53348334B816941F001018161816944
S31508002FD001F001010091009A02682F490968C2F3BD
S31508002FE002229A5C0068D14010F4E06F0CBF012001
S31508002FF002204FF0804241430123284813604FF6D0
S31508003000FF74B1FBF0F0D462401E90620021506953
S3150800301040F00100506122484160526A028011BDA9
S315080030202048016841F00101016000230268520846
S31508003030520002600022C16849084900C1600021A7
S3150800304019480160426083604FF0007017490860B4
S3150800305070471748124900680A88801A80B264289F
S3150800306000D2704710B564234C68B0FBF3F36420B4
S3150800307014FA83F443434C609818088010BD80B551
S3150800308000E080B5FFF7E5FF0548406802BD00008F
S3150800309004100240E83B000850000020A08601000A
S315080030A0280C00201010024010E000E004ED00E0BB
S315080030B0240000407047000010B5134C0120207012
S315080030C0FFF7DDFF6060BDE8104010B5FFF722FD91
S315080030D0012812D00C4C207801280ED1FFF7CFFF1B
S315080030E0A26861688A1802F5FA72904205D3002030
S315080030F02070BDE81040FFF72BBD10BD024988605F
S315080031007047014880687047F40B0020704780B507
S31508003110FFF751FDFCE700002DE9F84F4C4E074636
S31508003120307E8B4614469946012808BF02202CD0CB
S31508003130012030764CF2503A504600F04BF8010028
S3150800314021D1012F08BF012103D0022F0CBF022174
S31508003150042100253F4F884600E06D1C454512DADC
S31508003160204649462A0100F06BFA81B20BEB45006E
S3150800317000F025F8504600F02DF83968490849004E
S3150800318002003960E9D000213176BDE8F28F334973
S31508003190CA680020130600D4704710B5304A314C6F
S315080031A00A600C60C9680A0648BF012010BD294894
S315080031B0016841F08001FFE701600020704710B503
S315080031C0234B0022DA61234A146844F00104146090
S315080031D0018010BD70B50446FFF753FF05461E4E25
S315080031E03068C1070AD514F1010FF9D024B1FFF7E9
S315080031F048FF401B8442F3D2032070BD3068810625
S3150800320044BF202030603168C80602D431684807B8
S3150800321003D500F004F8012070BD002070BD10B57C
S315080032200D4A0B4913680020DC0604D5C86940F02E
S315080032300200C861102013685C0705D5CB6943F006
S315080032400103CB6140F00400106010BD00000000CF
S31508003250000C0020102002400C20024004200240EE
S3150800326023016745AB89EFCD2DE9F047DFF8C47038
S315080032700446387E01268846012808BF02203AD02F
S315080032803E764CF250392068DFF8AC5001284846A3
S315080032900DD1FFF79FFF58BB00F02FF84846FFF700
S315080032A099FF0646286820F00400286020E0FFF70A
S315080032B091FFE8B94FF0FF30C8F80000D4F804A031
S315080032C001E00AF5006AA068616801EBC0218A4539
S315080032D00ED2504600F01EF84846FFF77BFF06461A
S315080032E0286820F0020031002860EAD0C8F800A05B
S315080032F0002038763046BDE8F0870E490020C861C0
S315080033000D48026842F004020260016841F040017B
S3150800331001607047074A0021D16107490B6843F0ED
S3150800332002030B604860086840F040000860704778
S3150800333000000000000C0020102002400F494880C1
S31508003340704710B5FFF79BFE0C4C616888420FD397
S3150800335020780B494FF48072002807BF01200A60C5
S3150800336000200A612070FFF78AFE618840186060B5
S3150800337010BD04494FF4807008607047200C002087
S3150800338018100048281000480901020002D42148F4
S3150800339081547047204B02F00F021A4402F8041CAD
S315080033A070471E490A6860F30A2240F2FA5060F331
S315080033B01F420A60704770B5184B1C68C4F3022395
S315080033C00124C3F10705052D2EBF0F2504FA05F5BF
S315080033D06D1E1E1D072E34BF0023DB1E2940994093
S315080033E004FA03F3BDE870405B1E1A401143CBE7AD
S315080033F0401EB0F1807F01D3012070470849094A71
S3150800340048600023F02010708B60072008600020B9
S315080034107047000000E400E018ED00E00CED00E065
S3150800342010E000E023ED00E038B50D4D0D4B2A788D
S3150800343004464FF47A711868B1FBF2F2B0FBF2F069
S31508003440FFF7D6FF50B9102C08D2002221464FF0BC
S31508003450FF30FFF7B0FFAC60002032BD012032BD5F
S3150800346044000020500000206B4981B00A680243DE
S315080034700A60096808400090009801B0704710B5C6
S31508003480FFF778FD65480168022464F302010160CC
S31508003490006800F00700022803D066216048FFF79D
S315080034A036FE6048016841F480210160026842F4F2
S315080034B08032026001688903FCD5426822F47412DE
S315080034C042F4E8124260C16A09090901C162026848
S315080034D042F08072026001688901FCD504214268C5
S315080034E022F0F0024260426861F30A2242604168B3
S315080034F021F460514160416864F30101416041680B
S3150800350001F00C010829FAD1416821F480014160D3
S31508003510454800F0A5F800F0A9F800F0B6F8FCE771
S3150800352030B5424C424D87B0216841F00101216017
S31508003530206800F0010006904FF480000699FFF716
S3150800354093FF4FF40030FFF78FFF4FF40010FFF79B
S315080035508BFF606840F4000060600121606800F439
S31508003560000006900022069801914FF4807402929A
S315080035700392049200946946284600F0E7F8AC6284
S3150800358001200021009001910222049200F052F8D5
S31508003590022101914FF4C05000210391049100903B
S315080035A00E2103220591029200F044F807B030BDBF
S315080035B080B586B018210022684600F043F94FF41A
S315080035C00030FFF751FF4FF090414FF4805088626A
S315080035D0002100900122029103910491019200F0CA
S315080035E029F800F039F912484FF48071816200F029
S315080035F057F80948816821F400018160026822F4BD
S3150800360000120260016821F48001016042685208D4
S315080036105200426007B000BD14100240002002406C
S31508003620A03900080010024000A24A0418100240FF
S315080036300010004869464FF0904000F087B8704780
S31508003640D2B2203A22BF21FA02F000217047203276
S31508003650D141D04048409140D14048407047000091
S3150800366001490860704700005000002080B5FFF748
S315080036706DFAFFF79EFAFFF7A3FCFFF753FAFFF779
S3150800368001FABDE80140FFF717BD80B5FFF793FAC9
S31508003690FFF7DFFCFFF7FFF9BDE80140FFF715BDAF
S315080036A010B50021B0F1904F224A07D1106840F4B6
S315080036B000301060146824F400342AE01E4B984247
S315080036C007D1106840F480201060146824F4802420
S315080036D01FE01A4B984207D1106840F4002010608A
S315080036E0146824F4002414E0154B984207D1106896
S315080036F040F480101060146824F4801409E0114B1B
S31508003700984208D1106840F400101060146824F438
S31508003710001414600CE00C4B984208D1106840F471
S3150800372080001060136823F48003136000E0012111
S31508003730084610BD2810024000040048000800484A
S31508003740000C004800100048001400482DE9F0411C
S315080037500246086890FAA0F0B0FA80F30F246AE0EF
S31508003760000A90FAA0F0B0FA80F0D2F824E08000BF
S3150800377004FA00F52EEA05050CFA00F040EA050CF5
S31508003780C2F824C04FE001209840284052D090FA51
S31508003790A0F5B5FA85F56E000327B740D1F804C041
S315080037A0FF43BCF1010F18BFBCF1020F19D1D1F8C4
S315080037B008C0D2F808E007EA0E0E0CFA06FC4CEA36
S315080037C00E0CC2F808C0D1F80080D2F804C0D1F8AF
S315080037D00CE02CEA080C0EFB08F848EA0C08C2F8BC
S315080037E00480D1F810C0D2F80CE007EA0E0E0CFAE5
S315080037F006FC4CEA0E0CC2F80CC0D1F804C0BCF1A9
S31508003800020F10D1D1F814C0082DA9D2D2F820E0A1
S31508003810A80004FA00F52EEA05050CFA00F040EABD
S31508003820050CC2F820C0486815682F4000FA06F64D
S315080038303E4316605B1C0D6835FA03F0A3D1BDE85C
S31508003840F08100004018491C1CBFB1F1010100F8C5
S31508003850012DF9D170470000DFF8801081B00868A3
S3150800386040F00100086008688007FCD510200A6847
S3150800387060F3C7020A604FF0FF330093009ADFF83F
S31508003880600002400092009A4A60486810F00C0FE7
S31508003890FBD108680090009ADFF8480002400092C1
S315080038A0009A0A600868400EC007FBD400200A6820
S315080038B022F480220A6048600022CA6200230B6351
S315080038C04FF41F0000900020009A8A6088604A6AB8
S315080038D042F080724A6201B0704700000010024050
S315080038E00CC0FFF8FFFFF6FE433A5C576F726B5C3D
S315080038F0736F6674776172655C4F70656E424C547F
S315080039005C5461726765745C44656D6F5C41524DC9
S31508003910434D345F53544D333246335F44697363C2
S315080039206F766572795F4633303356435F49415245
S315080039305C426F6F745C636F6D5F637573746F6DF4
S315080039402E63000000B587B01821002201A8FFF7F2
S3150800395079FF1148016841F4700101604FF0904108
S315080039600E48026842F4003202600122006800F440
S315080039700030009000984FF4805088620021019032
S31508003980039104910591029201A94FF09040FFF727
S31508003990DDFE07B000BD000088ED00E0141002400F
S315080039A0433A5C576F726B5C736F667477617265C6
S315080039B05C4F70656E424C545C5461726765745C0A
S315080039C044656D6F5C41524D434D345F53544D33DE
S315080039D03246335F446973636F766572795F46333F
S315080039E0303356435F4941525C426F6F745C6D6178
S315080039F0696E2E630000000009024B000201008078
S31508003A004B080B0002020200000904000001020232
S31508003A1000040524002001052401000104240206EF
S31508003A2005240600010705810310000109040100A9
S31508003A30020A00000007050202400000070582028C
S31508003A404000000030B4002512E050F8042BD307DC
S31508003A5044BF4A44521E091F042942F8045BFAD29D
S31508003A6013468C0744BF15809B1CC90748BF1D70A9
S31508003A7050F8041B0029E8D130BC704710B5074937
S31508003A8079441831064C7C44163404E00A68081D4B
S31508003A90114488470146A142F8D110BDA000000094
S31508003AA0BC00000000000000FF2300086B2400088B
S31508003AB085240008B124000831260008DD26000800
S31508003AC000000000000000004EF68851CEF200010A
S31508003AD0086840F470000860BFF34F8FBFF36F8F1C
S31508003AE04FF00170E1EE100A7047000000F00FF881
S31508003AF0002801D0FFF7C2FFAFF300800020AFF324
S31508003B000080AFF30080FFF7BAFC00F002F801204E
S31508003B10704700F001B8000000F000F80746384684
S31508003B2000F002F8FBE7000080B5AFF30080024A18
S31508003B3011001820ABBEFBE72600020009FFFFFFB5
S31508003B405C0B0000D800002000000000FBD1FFFF3E
S31508003B50C80100007000000000000020466561737F
S31508003B6065722068747470733A2F2F7777772E668C
S31508003B7065617365722E636F6D0000004EF6A55081
S31508003B80CFF6F560014603B4684680F30988AFF3BB
S31508003B900080FFF799FFFFF7A9FF00005553422061
S31508003BA053657269616C2044657669636500000037
S31508003BB05669727475616C20434F4D20506F72744C
S31508003BC000000000CC1F00085C3B00089C3B000876
S31508003BD058000020B03B00080148804701480047CC
S31508003BE0453900087D3B0008000000000102030477
S31508003BF0FFF7FEBFFFF7FEBFFFF7FEBFFFF7FEBFEB
S31508003C00FFF7FEBFFFF7FEBFFFF7FEBFFFF7FEBFDA
S31508003C10FFF7FEBFFFF7FEBFFFF7FEBFFFF7FEBFCA
S31508003C20FFF7FEBFFFF7FEBFFFF7FEBFFFF7FEBFBA
S31508003C30FFF7FEBFFFF7FEBFFFF7FEBFFFF7FEBFAA
S31508003C40FFF7FEBFFFF7FEBFFFF7FEBFFFF7FEBF9A
S31508003C50FFF7FEBFFFF7FEBFFFF7FEBFFFF7FEBF8A
S31508003C60FFF7FEBFFFF7FEBFFFF7FEBFFFF7FEBF7A
S31508003C70FFF7FEBFFFF7FEBFFFF7FEBFFFF7FEBF6A
S31508003C80FFF7FEBFFFF7FEBFFFF7FEBFFFF7FEBF5A
S31508003C90FFF7FEBFFFF7FEBFFFF7FEBFFFF7FEBF4A
S31508003CA0FFF7FEBFFFF7FEBFFFF7FEBFFFF7FEBF3A
S31508003CB0FFF7FEBFFFF7FEBFFFF7FEBFFFF7FEBF2A
S31508003CC0FFF7FEBFFFF7FEBFFFF7FEBFFFF7FEBF1A
S31508003CD0FFF7FEBFFFF7FEBFFFF7FEBFFFF7FEBF0A
S31508003CE0FFF7FEBFFFF7FEBFFFF7FEBFFFF7FEBFFA
S31508003CF0FFF7FEBFFFF7FEBFFFF7FEBFFFF7FEBFEA
S31508003D00FFF7FEBFFFF7FEBFFFF7FEBFFFF7FEBFD9
S31508003D10FFF7FEBFFFF7FEBF0006BD000001F90072
S31508003D200010FC0001127AFB000F303132333435B3
S31508003D3036373839414243444546AE0000FFF7005E
S31508003D400A6B0B0008F809002010000CFB000004A1
S70508003B7D3A
