S02000006F70656E626C745F6F6C696D65785F73746D3332703430352E7372656302
S3150800000000000220990B0008650B0008670B000822
S31508000010690B00086B0B00086D0B00080000000058
S315080000200000000000000000000000006F0B000840
S31508000030710B000800000000730B0008750B000820
S31508000040E90B0008E90B0008E90B0008E90B0008B2
S31508000050E90B0008E90B0008E90B0008E90B0008A2
S31508000060E90B0008E90B0008E90B0008E90B000892
S31508000070E90B0008E90B0008E90B0008E90B000882
S31508000080E90B0008E90B0008E90B0008E90B000872
S31508000090E90B0008E90B0008E90B0008E90B000862
S315080000A0E90B0008E90B0008E90B0008E90B000852
S315080000B0E90B0008E90B0008E90B0008E90B000842
S315080000C0E90B0008E90B0008E90B0008E90B000832
S315080000D0E90B0008E90B0008E90B0008E90B000822
S315080000E0E90B0008E90B0008E90B0008E90B000812
S315080000F0E90B0008E90B0008E90B0008E90B000802
S31508000100E90B0008E90B0008E90B0008E90B0008F1
S31508000110E90B0008E90B0008E90B0008E90B0008E1
S31508000120E90B0008E90B0008E90B0008E90B0008D1
S31508000130E90B00080000000000000000E90B0008B9
S31508000140E90B0008E90B0008E90B0008E90B0008B1
S31508000150E90B0008E90B0008E90B0008E90B0008A1
S31508000160E90B0008E90B0008E90B0008E90B000891
S31508000170E90B0008E90B0008000000000000000079
S30D08000180E90B0008E90B000871
S3150800018810B5054C237833B9044B13B10448AFF3BB
S3150800019800800123237010BD7800002000000000AD
S315080001A85895000808B5034B1BB103490348AFF334
S315080001B8008008BD000000007C0000205895000853
S315080001C8034613F8012B002AFBD1181A0138704781
S315080001D853B94AB9002908BF00281CBF4FF0FF3198
S315080001E84FF0FF3000F088B9ADF1080C6DE904CE80
S315080001F800F006F8DDF804E0DDE9022304B07047EC
S315080002082DE9F047089D8E4604468846002B4AD1B4
S315080002188A42174662D9B2FA82F64EB1C6F1200367
S3150800022801FA06F820FA03F3B74043EA0808B44087
S315080002384FEA174E1FFA87FCB8FBFEF1230C0EFB94
S31508000248118843EA084301FB0CF29A4209D9FB18BC
S3150800025801F1FF3080F0EA809A4240F2E7800239DD
S315080002683B449A1AA3B2B2FBFEF00EFB102243EAED
S31508000278024300FB0CFC9C4509D9FB1800F1FF3228
S3150800028880F0D6809C4540F2D3803B44023840EA49
S315080002980140A3EB0C0300211DB1F3400022C5E978
S315080002A80032BDE8F0878B4205D90DB1C5E90001D2
S315080002B800210846F5E7B3FA83F1002946D17345C4
S315080002C802D3824200F20581841A6EEB03020120EA
S315080002D89046002DE5D0C5E90048E2E7002A00F077
S315080002E89080B2FA82F6002E40F0A4808A1A030C8F
S315080002F84FEA174E80B2BCB20121B2FBFEFC0EFBD8
S315080003081C2243EA024304FB0CF29A4207D9FB185B
S315080003180CF1FF3802D29A4200F2E080C4469B1AD2
S31508000328B3FBFEF20EFB123340EA034302FB04F466
S315080003389C4207D9FB1802F1FF3002D29C4200F210
S31508000348CA8002461B1B42EA0C40A5E7C1F12006F3
S315080003588B4022FA06F71F430EFA01F420FA06F331
S315080003682EFA06FE4FEA1749234300FA01F81FFA40
S3150800037887FCBEFBF9F01C0C09FB10EE44EA0E4498
S3150800038800FB0CFEA64502FA01F209D93C1900F150
S31508000398FF3A80F09C80A64540F2998002383C4492
S315080003A8A4EB0E041FFA83FEB4FBF9F309FB134406
S315080003B84EEA044403FB0CFCA44508D93C1903F18E
S315080003C8FF3E80F08280A4457FD9023B3C4443EA3D
S315080003D80040A4EB0C04A0FB02EC64457346E14616
S315080003E862D35FD05DB1B8EB030264EB090404FA83
S315080003F806F622FA01F31E43CC40C5E9006400213B
S315080004084FE7B1FBF2FC010C41EA0E4180B240EA23
S3150800041801423B4638463C46B846BE462026B1FB0E
S31508000428F7F1A2EB080241EA0C4166E7014618E72C
S3150800043810462CE7C6F120022EFA02F3B740B1405F
S3150800044820FA02F24FEA174E0A43B3FBFEF8BCB28B
S315080004580EFB1833110C41EA034108FB04F9B040B6
S3150800046889454FEA104380B23ED9791808F1FF3C0E
S3150800047801D289451FD8A1EB0901B1FBFEF909FB91
S3150800048804F80EFB191192B242EA0142424529D2F2
S31508000498BA1809F1FF31C4D24245C2D2A9F10201FC
S315080004A83A44BEE7F0459DD2BEEB02036CEB070C57
S315080004B80138E14696E7A7EB09094944A8F1020C71
S315080004C8B1FBFEF909FB04F8DBE773467FE75046FC
S315080004D866E70846FDE63B44023A33E7ACF1020C08
S315080004E83B441CE749469CE7A1EB0901C446B1FB16
S315080004F8FEF909FB04F8C4E7704700BF08B503F01E
S3150800050837F808BD08B503F043F808BD08B5054B24
S315080005181B6913F0010F01D0002008BD00F006F989
S315080005280120FAE70000024008B5642000F0CEF87A
S3150800053808BD08B500F0D0F808BD000030B589B088
S315080005480446154B1B783BB1012C1FD0134B4FF4AF
S3150800055800629A6109B030BD114B1A6B42F0040269
S315080005681A631B6B03F004030193019B4FF40063A2
S31508000578029301250395002304930595069302A97A
S31508000588064801F049FB044B1D70DDE7034B4FF0A5
S3150800059800629A61DEE700BF940000200008024066
S315080005A8003802407047704700B5C7B04FF48C72E0
S315080005B80021684608F084FF6946084805F005FEE4
S315080005C840B9009B3BB19DF8083013F0100F02D1D3
S315080005D8012000E0002047B05DF804FB9C9800085D
S315080005E8004870479C98000808B50748002380F813
S315080005F828320A22054905F0B9F918B9024B012229
S3150800060883F8282208BD00BF9800002070950008C6
S3150800061810B50D4B93F82832012B10D002F068FE5E
S3150800062800F16404094B1B6813F0400F03D102F06C
S315080006385FFEA042F6D9064805F0E9FD10BD024856
S3150800064805F0F0FCEAE700BF9800002000440040E7
S315080006589C98000808B5054B93F82832012B00D05A
S3150800066808BD024805F0DEFCFAE700BF980000203E
S3150800067838B50546134B93F82832012B0CD1114986
S3150800068805F048FE002807DA0E48002380F82832C5
S3150800069805F0C8FC00E001352B788BB10A4A53608F
S315080006A802F026FE00F10A04074B1B6813F0800FB8
S315080006B8F1D103F013F802F01BFEA042F4D9EAE7D9
S315080006C838BD00BF9800002000440040014B188040
S315080006D8704700BFCC02002008B502F009FE0F4B90
S315080006E81B68984210D30E4B1B7873B90C4B012222
S315080006F81A700C4B4FF080529A6102F0F9FD0A4BBA
S315080007081B880344054A136008BD054B00221A7066
S31508000718044B4FF480529A61EFE700BFC8020020E5
S31508000728C402002000080240CC020020024B4FF405
S3150800073880529A61704700BF000802402DE9F041CF
S315080007488AB0002404940594069407940894099496
S31508000758244B1A6B42F080021A631A6B02F0800265
S315080007680392039A1A6B42F001021A631A6B02F093
S3150800077801020292029A1A6B42F002021A631A6B73
S3150800078802F002020192019A1A6B42F004021A63F5
S315080007981B6B03F004030093009BDFF854804FF4A7
S315080007A88055C8F81850104FBD610126049604A94B
S315080007B80E4801F031FA0495059602230693079424
S315080007C8089404A9404601F027FA04950596069464
S315080007D80794089404A9384601F01EFA0AB0BDE839
S315080007E8F08100BF003802400008024000000240BD
S315080007F80004024030B591B0002409940A940B9479
S315080008080C940D940E940F940394049405940694EA
S31508000818079408941D4B1A6C42F400321A641A6C31
S3150800082802F400320292029A1A6B42F001021A6323
S315080008381B6B03F001030193019B0C250395022307
S31508000848049303230593072308930DEB0501104822
S3150800085801F0E2F94FF4E13309930A940B940C94E6
S315080008680D950E940F940B4C09A9204601F07EFBB2
S31508000878236923F490432361636923F02A03636198
S31508000888E36843F40053E36011B030BD0038024012
S31508000898000002400044004008B5304A136823F0B7
S315080008A8070343F0050313602C4B1B6803F0070383
S315080008B8052BF9D12A4A136843F48043136002F5D5
S315080008C8E432136843F480331360264B1B6813F429
S315080008D8003FFAD0234B5A6823491140234A0A4352
S315080008E85A605A6822F440325A605A6820491140B8
S315080008F8204A0A435A601A6842F080721A60194BED
S315080009081B6813F0007FFAD0154B5B6813F4804F09
S31508000918FAD0144B9A6822F0F0029A609A6822F480
S31508000928E05242F4A0529A609A6822F4604242F46D
S3150800093800429A609A6822F0030242F002029A601C
S31508000948084B9B6803F00C03082BF9D10A4801F0F9
S315080009586DFB002000F064F908BD00BF003C0240AA
S3150800096800700040003802400080BFFF085440006D
S315080009780080BFF008544007007A030A08B500F05B
S3150800098875F9FFF789FFFFF7D9FEFFF733FFFFF77A
S31508000998B5FDFFF7B7FDFCE782B0002100910B4BC8
S315080009A85A6C42F480425A645A6C02F480420092A5
S315080009B8009A01911A6C42F080521A641B6C03F073
S315080009C880530193019B02B0704700BF003802406C
S315080009D800B589B0002303930493059306930793F8
S315080009E80268154B9A4202D009B05DF804FB00214B
S315080009F8019103F5EA331A6C42F000721A641A6C0C
S31508000A0802F000720192019A02911A6B42F00202F0
S31508000A181A631B6B03F002030293029B4FF440739D
S31508000A28039302230493032306930923079303A92D
S31508000A38024800F02DFED7E7006400400004024093
S31508000A4830B589B000230393049305930693079357
S31508000A580368B3F1A04F01D009B030BD0025019550
S31508000A68124C236B43F001032363236B03F0010342
S31508000A780193019B4FF4C053039302230493032362
S31508000A8806930A23079303A9094800F001FE636B36
S31508000A9843F0800363630295636C43F4804363649D
S31508000AA8636C03F480430293029BD5E7003802403F
S31508000AB80000024008B50368B3F1A04F00D008BD8E
S31508000AC8054A536B23F0800353634FF4C051034818
S31508000AD800F0D4FEF3E700BF0038024000000240E9
S31508000AE810B501F0E3F8184C636B23F080036363D1
S31508000AF8164800F0F5FF164800F0F2FF154800F012
S31508000B08EFFF236C23F000732364134AD36823F496
S31508000B180053D360236C23F400332364236B23F038
S31508000B2804032363236B23F002032363236B23F055
S31508000B3801032363236C23F080532364636C23F433
S31508000B488043636410BD00BF0038024000080240B5
S31508000B580004024000000240004400407047FEE7D7
S31508000B68FEE7FEE7FEE770477047704708B500F0EE
S31508000B7897F808BD054BD3F8882042F47002C3F8E5
S31508000B8888204FF000629A60704700BF00ED00E0C9
S31508000B98DFF834D0002103E00C4B5B58435004318E
S31508000BA80B480C4B42189A42F6D30B4A02E000232C
S31508000BB842F8043B094B9A42F9D3FFF7DBFF08F0E2
S31508000BC895FCFFF7DBFE70470000022020A000080E
S31508000BD8000000207800002078000020A8190020CE
S31508000BE8FEE7000010B50A4B0A4A1A6200241C627E
S31508000BF8094A5A625C62094A1A611C61C1225A6129
S31508000C085C6101229A619C61FFF76AFF204610BD64
S31508000C1800380240FFC9FEF633797704FF116020D1
S31508000C2810B504460E4B1A784FF47A73B3FBF2F3F1
S31508000C380C4A1068B0FBF3F000F042FB68B90F2CB9
S31508000C4801D901200AE0002221464FF0FF3000F0C2
S31508000C5827FB054B1C60002000E0012010BD00BFE3
S31508000C6804000020000000200800002008B50B4BEF
S31508000C781A6842F400721A601A6842F480621A60A6
S31508000C881A6842F480721A60032000F0F7FA002006
S31508000C98FFF7C6FFFFF780FE002008BD003C0240AC
S31508000CA8034A1168034B1B780B441360704700BF4F
S31508000CB8D002002004000020002800F0A18038B5E2
S31508000CC8044690F82030D3B12268136843F001032C
S31508000CD8136002F015FB054623685A6812F0010FDF
S31508000CE810D102F00DFB401B0A28F5D9636A43F4B4
S31508000CF800336362052384F82030012038BDFFF7E6
S31508000D0867FEE1E71A6822F002021A6002F0F8FAAA
S31508000D18054623685A6812F0020F0DD002F0F0FA59
S31508000D28401B0A28F5D9636A43F40033636205232E
S31508000D3884F820300120E1E7227E012A3DD01A688E
S31508000D4822F080021A60637E012B3BD02268136862
S31508000D5823F040031360A37E012B39D02268136859
S31508000D6823F020031360E37E012B37D0226813682B
S31508000D7843F010031360237F012B35D022681368CC
S31508000D8823F008031360637F012B33D022681368A6
S31508000D9823F004031360A368E26813432269134324
S31508000DA8626913436268013A21681343CB610020DC
S31508000DB86062012384F82030A0E71A6842F08002AE
S31508000DC81A60C0E72268136843F040031360C2E755
S31508000DD82268136843F020031360C4E7226813687F
S31508000DE823F010031360C6E72268136843F0080364
S31508000DF81360C8E72268136843F004031360CAE758
S31508000E080120704790F82030013BDBB2012B05D949
S31508000E18436A43F4802343620120704730B5464B42
S31508000E28D3F8002242F00102C3F80022D3F80022C0
S31508000E3822F47C52C3F80022D3F80022486A42EA10
S31508000E480022C3F800224A6902F01F02012000FAAC
S31508000E5802F2D3F81C026FEA020C20EA0200C3F871
S31508000E681C02CB69C3B9344BD3F80C020CEA000050
S31508000E78C3F80C028C884869CD6844EA05444830AA
S31508000E8843F830408C68088840EA04404C6904F105
S31508000E98480E03EBCE035860CB69012B1ED08B692D
S31508000EA8002B33D12448D0F804320CEA0303C0F8DF
S31508000EB804320B698BBB2048D0F814320CEA0303BA
S31508000EC8C0F814320B6A012B2ED01B4AD2F800320E
S31508000ED823F00103C2F80032002030BD164BD3F8C0
S31508000EE80C021043C3F80C028C8848690D6844EA5A
S31508000EF80544483043F8304088894C698D6840EA8B
S31508000F080540483403EBC4035860C8E70A48D0F8D4
S31508000F1804321343C0F80432CBE70748D0F8143232
S31508000F281343C0F81432CDE70349D1F81C321343EA
S31508000F38C1F81C32C9E700BF0064004070B5044612
S31508000F4890F82050EDB2012D06D0436A43F40023E9
S31508000F5843620125284670BD022380F820300268BE
S31508000F68136823F00103136002F0CAF906462368DA
S31508000F785B6813F0010F0CD002F0C2F9831B0A2B29
S31508000F88F5D9636A43F400336362052384F820308D
S31508000F98E0E700256562DDE730B590F820C004680B
S31508000FA8A4680CF1FF3C5FFA8CFCBCF1010F62D80F
S31508000FB814F0E05F59D0C4F3016C012404FA0CF468
S31508000FC81C608B68002B3DD10D68CB68046843EA22
S31508000FD845550CF118031B01E55003680C690CF11B
S31508000FE8180E03EB0E135C600B7D012B35D0D179F7
S31508000FF893791B0443EA0163517943EA0123147977
S315080010080168234301EB0C11C1F88C31D178937828
S315080010181B0443EA0163517843EA012311780268FD
S315080010280B4302EB0C12C2F8883102680CF1180C53
S315080010384FEA0C1C52F80C3043F0010342F80C3006
S3150800104800201DE04C6843EAC403CC6823430CF12E
S315080010581804240105682B51BFE7036803EB0E1330
S31508001068596841F480715960C1E7436A43F400132B
S315080010784362012004E0436A43F480234362012063
S3150800108830BD90F82030013BDBB2012B01D9002096
S31508001098704703689B6803EA8163B3EB816F01D0E5
S315080010A8012070470020704790F820C00CF1FF3CDB
S315080010B85FFA8CFCBCF1010F00F2A58030B451B977
S315080010C80468E46814F0030F10D1436A43F4001364
S315080010D8436201207EE00468246914F0030F05D1F1
S315080010E8436A43F400134362012073E0056801F17B
S315080010F81B0424012C5904F004049460002C6BD1B9
S31508001108056801F11B0424012C59640D1460046850
S3150800111801F11B0C4FEA0C1C54F80C4004F00204AD
S31508001128D4600468A444DCF8045015F0080F5BD0B2
S3150800113808241461046801F11B0C04EB0C14646898
S31508001148C4F307249461046804EB0C146468240C3B
S315080011585461026802EB0112D2F8B8211A700268C3
S3150800116802EB0112D2F8B821C2F307225A700268B4
S3150800117802EB0112D2F8B821C2F307429A70026844
S3150800118802EB0112D2F8B821120EDA70026802EBE5
S315080011980112D2F8BC211A71026802EB0112D2F8C0
S315080011A8BC21C2F307225A71026802EB0112D2F86F
S315080011B8BC21C2F307429A71026802EB0112D2F8FF
S315080011C8BC21120EDA71C1B90268D36843F020034C
S315080011D8D360002030BC7047056801F11B04240160
S315080011E82C59E408546092E701F11B0504EB051431
S315080011F8646804F00F0414619CE70268136943F0F5
S3150800120820031361E5E7436A43F480234362012018
S3150800121870470000002808DB0901C9B200F16040E0
S3150800122800F5614080F80013704700F00F000901C7
S31508001238C9B2014B1954704714ED00E000B500F027
S315080012480700C0F1070CBCF1040F28BF4FF0040CC7
S31508001258031D062B0FD9C31E4FF0FF3E0EFA0CF0DE
S3150800126821EA000199400EFA03FE22EA0E0241EA33
S3150800127802005DF804FB0023EEE70000074AD3687E
S3150800128823F4E0631B041B0C000200F4E06003432C
S3150800129843F0BF6343F40033D360704700ED00E0C2
S315080012A810B50446054BD868C0F30220FFF7C6FFF9
S315080012B801462046FFF7AEFF10BD00BF00ED00E06F
S315080012C80138B0F1807F0BD24FF0E0235861054A08
S315080012D8F02182F823100020986107221A617047C6
S315080012E80120704700ED00E010B40A490C6924F49F
S315080012F840740C610C6944F440740C610C6944F040
S3150800130801040C610260BFF36F8F43605DF8044BFC
S31508001318704700BF003C0240074B1A6922F4407226
S315080013281A611A6942F400721A611A6942F00102CE
S315080013381A610160704700BF003C0240074B1A69F2
S3150800134822F440721A611A6942F480721A611A699B
S3150800135842F001021A610180704700BF003C024052
S31508001368064B1A6922F440721A611A691A611A69CF
S3150800137842F001021A610170704700BF003C024042
S31508001388204BDB6813F0100F07D01F4AD36943F0C8
S315080013981003D3611B4B1022DA601A4BDB6813F073
S315080013A8200F07D0184AD36943F00803D361154BB1
S315080013B82022DA60134BDB6813F0400F07D0124A75
S315080013C8D36943F00403D3610E4B4022DA600D4B10
S315080013D8DB6813F0800F07D00B4AD36943F0020382
S315080013E8D361084B8022DA60064BDB6813F0020FDC
S315080013F807D0054AD36943F02003D361014B02227B
S31508001408DA607047003C02400C000020094B1B6953
S31508001418002B01DB00207047064B074A5A6002F189
S3150800142888325A601B69002B01DB002070470120AF
S31508001438704700BF003C024023016745034A136909
S3150800144843F0004313610020704700BF003C024088
S3150800145838B50446144B0022DA6101F051FF0546F7
S31508001468124BDB6813F4803F0AD0B4F1FF3FF7D07C
S3150800147824B101F045FF401BA042F1D903200DE035
S315080014880A4BDB6813F0010F02D0084B0122DA6019
S31508001498064BDB6813F0F20F01D1002038BDFFF7C1
S315080014A86FFF0120FAE700BF0C000020003C02404D
S315080014B8F8B516461B4A127E012A30D004460D4650
S315080014C81F46184B01221A764CF25030FFF7C0FF18
S315080014D890B9ACB1012C18D0022C1BD032463B4629
S315080014E82846FFF701FF4CF25030FFF7B1FF0E4AC6
S315080014F8136923F0010313610A4B00221A76F8BD13
S31508001508F1B22846FFF72CFFEDE7B1B22846FFF7F8
S3150800151815FFE8E731462846FFF7FEFEE3E702200F
S31508001528EDE700BF0C000020003C0240074B1A6993
S3150800153822F440721A611A6942F004021A611A6999
S3150800154842EA002242F480321A617047003C02409F
S31508001558012905D0022906D039B14FF4407104E0B3
S315080015684FF4807101E04FF400710B4B1A6922F4AD
S3150800157840721A611A690A431A611A6922F07802CE
S315080015881A611A6942EAC00040F0020018611A692D
S3150800159842F480321A617047003C0240164B1B68B9
S315080015A813F4007F10D0144B1A6822F400721A60DC
S315080015B81A6842F400621A601A6822F400621A600D
S315080015C81A6842F400721A600B4B1B6813F4806F92
S315080015D810D0094B1A6822F480621A601A6842F415
S315080015E880521A601A6822F480521A601A6842F4FD
S315080015F880621A60704700BF003C0240F8B5224B6B
S315080016081B7E012B3ED004460E461F4B01221A7636
S315080016184CF25030FFF71CFF074670BB4FF0FF33FC
S3150800162833602368012B16D0A568E368A2681344BB
S31508001638AB4220D9217C2846FFF78AFF4CF2503066
S31508001648FFF706FF114A136923F07A031361074661
S3150800165880B90135E9E76168207CFFF767FF4CF236
S315080016685030FFF7F5FE0746084A136923F00403C6
S31508001678136100E03560FFF791FF034B00221A76E5
S315080016883846F8BD0227FBE70C000020003C02405C
S3150800169800230F2B00F2E98070B582B065E08568F3
S315080016A84FEA430E032404FA0EF425EA0405CC6827
S315080016B804FA0EF42C438460446824EA02044A684F
S315080016C8C2F300129A40224342605CE0DC08083400
S315080016D850F8242003F00705AD004FF00F0E0EFA58
S315080016E805FE22EA0E0E0A69AA4042EA0E0240F8E8
S315080016F824205CE0072200E0002202FA0EF22A43C0
S3150800170802345A4D45F82420594A94686FEA0C025F
S3150800171824EA0C054E6816F4801F01D04CEA040525
S31508001728534CA560E46802EA04054E6816F4001FDF
S3150800173801D04CEA04054E4CE560646802EA0405E3
S315080017484E6816F4003F01D04CEA0405484C65601B
S31508001758246822404D6815F4803F01D04CEA0402FB
S31508001768434C226001330F2B7DD801229A400C681E
S3150800177804EA020C32EA0404F4D14C6804F00304BF
S31508001788013C012C8BD94A6802F00302032A09D0C6
S31508001798C4685D000322AA4024EA02048A68AA40AB
S315080017A82243C2604A6802F00302022A8ED00468FD
S315080017B84FEA430E032202FA0EF224EA02044A68A2
S315080017C802F0030202FA0EF2224302604A6812F491
S315080017D8403FC7D000220192264A546C44F48044FC
S315080017E85464526C02F480420192019A9C08A51C22
S315080017F81E4A52F8255003F0030E4FEA8E0E0F22A2
S3150800180802FA0EF225EA02051B4A90423FF474AF23
S3150800181802F5806290421AD002F58062904218D08A
S3150800182802F58062904216D002F58062904214D082
S3150800183802F58062904212D002F58062904210D07A
S3150800184802F5806290423FF455AF082255E7012217
S3150800185853E7022251E703224FE704224DE7052200
S315080018684BE7062249E702B070BD704700380140C9
S31508001878003C0140003802400000024000230F2BBC
S3150800188800F28F80F0B52DE0072500E0002505FA5F
S315080018980CF5A54269D004685D004FF0030C0CFAF4
S315080018A805FC24EA0C0404604FEAD30E0EF1080E70
S315080018B850F82E4003F00706B6000F25B54024EA6F
S315080018C8050440F82E40C46824EA0C04C460446839
S315080018D824EA02024260826822EA0C028260013324
S315080018E80F2B5DD801229A4002EA010632EA010462
S315080018F8F5D14FEA930E0EF102052A4C54F8254005
S3150800190803F0030C4FEA8C0C0F2505FA0CF73C403C
S31508001918254DA842BAD005F58065A84219D005F51F
S315080019288065A84217D005F58065A84215D005F543
S315080019388065A84213D005F58065A84211D005F53B
S315080019488065A8420FD005F58065A8429CD0082571
S315080019589DE701259BE7022599E7032597E70425CF
S3150800196895E7052593E7062591E7104C256825EAA6
S3150800197806052560656825EA06056560E56825EAB9
S315080019880605E560A56825EA0605A560054E0EF173
S31508001998020456F8245025EA070546F824507AE73B
S315080019A8F0BD70470038014000000240003C014085
S315080019B810B4046891FAA1F3A3B1B3FA83F35B00F0
S315080019C84FF0030C0CFA03F324EA030391FAA1F186
S315080019D851B1B1FA81F149008A40134303605DF8B1
S315080019E8044B70472023EAE72021F4E710B48468FB
S315080019F891FAA1F3A3B1B3FA83F35B004FF0030C92
S31508001A080CFA03F324EA030391FAA1F151B1B1FAE6
S31508001A1881F149008A40134383605DF8044B704797
S31508001A282023EAE72021F4E710B4C46891FAA1F361
S31508001A38A3B1B3FA83F35B004FF0030C0CFA03F374
S31508001A4824EA030391FAA1F151B1B1FA81F14900E7
S31508001A588A401343C3605DF8044B70472023EAE7BE
S31508001A682021F4E710B4046A91FAA1F3A3B1B3FAF2
S31508001A7883F39B004FF00F0C0CFA03F324EA0303D5
S31508001A8891FAA1F151B1B1FA81F189008A4013435B
S31508001A9803625DF8044B70472023EAE72021F4E740
S31508001AA810B4446A090A91FAA1F3A3B1B3FA83F305
S31508001AB89B004FF00F0C0CFA03F324EA030491FA7F
S31508001AC8A1F151B1B1FA81F189008A4014434462FF
S31508001AD85DF8044B70472023EAE72021F4E7000065
S31508001AE8444B984219D0444B984222D0434B9842CB
S31508001AF82BD0434B984234D0424B98423DD0424B68
S31508001B08984246D0414B98424FD0414B984258D0BC
S31508001B18404B984261D00120704703F560531A6913
S31508001B2842F001021A611A6922F001021A610020BC
S31508001B38704703F550531A6942F002021A611A6986
S31508001B4822F002021A610020704703F540531A6909
S31508001B5842F004021A611A6922F004021A61002086
S31508001B68704703F530531A6942F008021A611A6970
S31508001B7822F008021A610020704703F520531A69F3
S31508001B8842F010021A611A6922F010021A6100203E
S31508001B98704703F510531A6942F020021A611A6948
S31508001BA822F020021A610020704703F500531A69CB
S31508001BB842F040021A611A6922F040021A610020AE
S31508001BC8704703F5E0531A6942F080021A611A69E8
S31508001BD822F080021A610020704703F5C0531A697B
S31508001BE842F480721A611A6922F480721A61002016
S31508001BF8704700BF00000240000402400008024087
S31508001C08000C02400010024000140240001802406E
S31508001C18001C024000200240F8B507460E460D682B
S31508001C2895FAA5F515B1B5FA85F51AE0202518E04F
S31508001C38B26821463846FFF7D9FEF2687B6823EA78
S31508001C48040304FB02F213437B6016E0726921461B
S31508001C583846FFF725FF726821463846FFF7A8FE7B
S31508001C680135346834FA05F21DD00122AA40144019
S31508001C78F6D07368013B012BDAD932692146384612
S31508001C88FFF7D2FE7368022BE5D194FAA4F3002B6A
S31508001C98DCD0B3FA83F3072BD8D8726921463846BD
S31508001CA8FFF7E0FED7E70020F8BD000082B0234A18
S31508001CB8136843F001031360204B1B6813F0020FE7
S31508001CC8FAD01E4B00229A601A680192019A22F0ED
S31508001CD8867222F480320192019A22F08062019279
S31508001CE8019A1A601A6822F0F80242F080021A600D
S31508001CF8124B1B6813F0007FFAD1104B104A5A6032
S31508001D08104AC3F88420DA6822F4F852DA60DA68E6
S31508001D1822F40052DA60DA6842F41F02DA60DA68F6
S31508001D2842F40012DA605A6F22F001025A675A6FB3
S31508001D3842F080725A67002002B0704700380240A5
S31508001D481030002400300020034B9B68C3F30313AC
S31508001D58024AD35CD840704700380240C498000845
S31508001D68034B9B68C3F38223024AD35CD840704767
S31508001D7800380240BC980008034B9B68C3F34233FB
S31508001D88024AD35CD840704700380240BC9800081D
S31508001D980F4B5B6803F4800323B90E4B082803D05E
S31508001DA8002070470C4BF9E7094A516801F03F01D2
S31508001DB8B3FBF1F05368C3F3881303FB00F05368C9
S31508001DC8C3F3014301335B00B0FBF3F0704700BF70
S31508001DD8003802400024F40000127A0008B5084BBF
S31508001DE89B6803F00C03042B05D0082B05D10820A3
S31508001DF8FFF7CEFF08BD0348FCE70348FAE700BF2C
S31508001E080038024000127A000024F40010B504468F
S31508001E18FFF7E4FF2060FFF797FF6060FFF7A0FF72
S31508001E28A0606068FFF7A8FFE06010BD0246036877
S31508001E3813F0400F2ED110B4006820F47F4020F02C
S31508001E48BF000B684C6823438C682343CC6823433C
S31508001E580C6923434C6923438C692343CC69234380
S31508001E680C6A234318431060536823F00403C88A8E
S31508001E78034353600B6AB3F5005F07D00020D369A4
S31508001E8823F40063D3615DF8044B70478B8C1361A8
S31508001E980020F4E70120D36923F40063D36170476F
S31508001EA810B50446B2F5004F2FD04FF0000C48186D
S31508001EB84CEB0C0C40184CF1000C4FEACC0C4CEAD5
S31508001EC8507CC00040184FEA83024FEA93734CF1DE
S31508001ED80001FEF77DF92449A1FB00235B091A01D5
S31508001EE892B24FF0640C0CFB13031B013233A1FBAF
S31508001EF80313C3F34F1303F0F0010A4492B203F035
S31508001F080F0313449BB2A36010BD4FF0000C48188A
S31508001F184CEB0C02401842F10002D20042EA507219
S31508001F28C000401842F10001DA184CEB0C03FEF722
S31508001F384FF90D49A1FB00235B091A0192B24FF02C
S31508001F48640C0CFB1303DB003233A1FB0313C3F346
S31508001F584F13590001F4F8710A4492B203F00703C3
S31508001F6813449BB2A360CFE71F85EB51C36813F4EC
S31508001F78005F01D00120704730B585B004460D468C
S31508001F88C36823F4164323F00C034A68C9680A434E
S31508001F9829690A43A9690A431343C360AB680269F6
S31508001FA822F44052134303616B69426922F4407272
S31508001FB8134343616846FFF729FF164B9C4210D026
S31508001FC8154B9C4213D0154B9C4212D0144B9C427D
S31508001FD811D0144B9C4210D0134B9C420FD00120B1
S31508001FE816E0039999B12B685BB9012010E00299AC
S31508001FF8F8E70299F6E70399F4E70299F2E70299EE
S31508002008F0E7AA692046FFF74BFF002000E0012009
S3150800201805B030BD001001400044004000480040AB
S3150800202800140140004C004000500040014B186065
S31508002038704700BF00000020024A137843F00103E6
S31508002048137070472C00002010B50D4B187301F05B
S315080020584FF900F132040A4B9B6813F0010F07D1B8
S3150800206801F03CFB01F044F9A042F4D9012300E051
S3150800207800231BB9024B187BC0B200E0002010BD34
S315080020880038004008B5044B4FF480529A61FF2087
S31508002098FFF7DAFF08BD00BF0004024010B5044682
S315080020A8FF20FFF7D1FF207010BD38B501F020F9E1
S315080020B800F5FA75FF20FFF7C7FF044601F00EFB87
S315080020C8FF2C03D001F014F9A842F3D3FF2C14BF50
S315080020D80020012038BD000010B5084B4FF080528B
S315080020E89A61FF20FFF7B0FFFFF7DFFF10B1012461
S315080020F8204610BD0446FFF7C5FFF9E7000402406D
S3150800210870B504460E4610F0800F1BD1FFF7BAFFCC
S31508002118FFF7E2FFD8B344F04000FFF795FF300E0B
S31508002128FFF792FFC6F30740FFF78EFFC6F30720AF
S31508002138FFF78AFFF0B2FFF787FF6CB1082C20D0AB
S3150800214801200AE000F07F0400213720FFF7D8FFB6
S3150800215805460128DAD912E09520FFF775FF0C2CF9
S3150800216811D00A24FF20FFF76FFF054601F0B6FADB
S3150800217815F0800F03D0631E13F0FF04F2D128462A
S3150800218870BD8720E9E7FF20FFF75EFFE9E7FF252F
S31508002198F5E7F8B505460E4601F0AAF800F1640712
S315080021A8FF20FFF751FF044601F098FAFF2C03D1E8
S315080021B801F09EF8B842F3D3FE2C13D16C1C2846BE
S315080021C8FFF76CFF20460235FFF768FF01F086FA2D
S315080021D8023EF3D1FF20FFF737FFFF20FFF734FF52
S315080021E80120F8BD0020FCE738B504460D46FFF780
S315080021F85CFF00B938BD2846FFF726FFFD2D1BD022
S315080022084FF400752078FFF71FFF60780234FFF750
S315080022181BFF01F063FA023DF4D1FF20FFF714FF14
S31508002228FF20FFF711FFFF20FFF70EFF00F01F033F
S31508002238052B03D10120DDE70120DBE70020D9E7DC
S3150800224870B586B0234C4FF48053A3614FF400460B
S31508002258009601230193022302930025039504950A
S3150800226869462046FFF7D8FCA66100E00135092D26
S315080022781DD801F03DF800F16404174B9B6813F06C
S31508002288020F03D101F034F8A042F6D9124BFF2207
S315080022981A7301F02DF800F164040F4B9B6813F0CC
S315080022A8010FE3D101F024F8A042F6D9DEE74FF48E
S315080022B80043009302230193032302930023039305
S315080022C804930523059369460248FFF7A5FC06B05B
S315080022D870BD00BF0004024000380040F0B593B056
S315080022E8284B1A6B42F002021A631A6B02F00202B2
S315080022F80192019A1A6C42F480421A641B6C03F420
S3150800230880430093009B4FF4805702970123039359
S31508002318022604960024059406941B4D02A928460D
S31508002328FFF77AFCAF614FF46043029303960323E1
S315080023380493059406940523079302A92846FFF7EC
S315080023486BFC08944FF4827309930A940B940C94C3
S315080023584FF400730D9330230E930F9410940723AC
S3150800236811930A4C08A92046FFF760FD636823F015
S3150800237810036360236843F040032360FFF760FF98
S3150800238813B0F0BD0038024000040240003800408F
S3150800239810B58AB0114C236823F040032360002344
S315080023A800934FF4827201920293039304934FF4B5
S315080023B80072059208220692079308930723099341
S315080023C869462046FFF732FD636823F01003636009
S315080023D8236843F0400323600AB010BD0038004064
S315080023E8002840F09D80F0B583B04E4B1B7813F05B
S315080023F8020404D04B4B1878C0B203B0F0BDFFF7FF
S315080024086DFF494B4FF080529A6100210846FFF745
S3150800241877FE0546012810D0444B1C60FFF732FEAC
S31508002428002C7AD03F4A137803F0FE031370FFF79F
S31508002438AFFF3C4B1878C0B2DFE700F059FF00F54C
S315080024487A764FF4D5710820FFF75AFE01283FD14E
S31508002458254609E0FF20FFF7F7FD05F108036B4459
S3150800246803F8040C0135EDB2032DF3D99DF80630AF
S31508002478012BD1D19DF80730AA2BCDD100F038FF12
S31508002488B04206D24FF08041A920FFF739FE00284E
S31508002498F4D100F02DFFB042BED200213A20FFF752
S315080024A82FFE05460028B7D1032D0AD8FF20FFF7C7
S315080024B8CBFD05F108036B4403F8040C0135EDB2AE
S315080024C8F2E79DF8043013F0400F24D00C24A3E754
S315080024D80021A920FFF714FE01280CD92F4600F081
S315080024E807FFB0420AD200212846FFF709FE28B19D
S315080024F801F0F4F8F3E70227A925F0E700F0F8FE5B
S31508002508B04289D24FF400711020FFF7F9FD002870
S3150800251882D13C4680E704247EE7FFF78DFD88E7ED
S31508002528012070472C00002000040240D402002035
S3150800253818B9034B1878C0B270470120704700BF16
S315080025482C00002000283BD138B50D461C46002B28
S3150800255838D01E4B1B7813F0010F35D11C4B1B685E
S3150800256813F0080F00D15202012C1AD01146122076
S31508002578FFF7C6FD78B94FF400712846FFF709FE3C
S3150800258828B105F5007501F0A9F8013CF3D1002139
S315080025980C20FFF7B5FDFFF775FD201E18BF0120B3
S315080025A838BD11461120FFF7ABFD0028F3D14FF4CB
S315080025B800712846FFF7EDFD0028ECD00024EAE76D
S315080025C8042070470420EBE70320E9E72C000020E5
S315080025D8D402002000284AD170B50D4616461C4676
S315080025E8002B46D0264B1B7813F0010F43D1244BFA
S315080025F81B7813F0040F40D1224B1B6813F0080F01
S3150800260800D15602012C1DD013F0060F28D13146E9
S315080026181920FFF775FD78B9FC212846FFF7E4FD70
S3150800262828B105F5007501F059F8013CF4D1FD21EA
S315080026380020FFF7D9FDC0B1FFF724FD201E18BFFB
S31508002648012070BD31461820FFF75AFD0028F3D13E
S31508002658FE212846FFF7C8FD0028EDD00024EBE741
S3150800266821469720FFF74CFDD1E70124E4E704202B
S3150800267870470420E5E70320E3E70220E1E700BF07
S315080026882C000020D402002070B584B0002840F041
S315080026981F810D461646904B1C7814F0010440F02D
S315080026A819810E2900F20881DFE811F00F001600DB
S315080026B806015A0006010601060106010601060179
S315080026C8B500B900C900D800ED00FFF705FD0028D8
S315080026D840F0F8800124F0E000210920FFF710FDFA
S315080026E8044608B12C46E8E010216846FFF751FD74
S315080026F8002800F0E9809DF800309B09012B1FD0BF
S315080027089DF8052002F00F029DF80A3002EBD31255
S315080027189DF809305B0003F006031A449DF8081073
S315080027289DF807309B0003EB91139DF80610890264
S3150800273801F440610B440133073A93403360BCE027
S315080027489DF809309DF8082003EB02239DF8072019
S31508002758120402F47C12134401339B023360ACE082
S315080027685E4B1B6813F0040F20D000218D20FFF75D
S31508002778C7FC08B10124A0E0FF20FFF765FC10217B
S315080027886846FFF706FD78B9012496E0FF20FFF7AB
S315080027985BFC013CE4B2002CF8D19DF80A2012092A
S315080027A810239340336088E03024F4E70021092099
S315080027B8FFF7A6FC044608B101247EE01021684606
S315080027C8FFF7E7FC002800F08180444B1B6813F0EC
S315080027D8020F10D09DF80A305B0003F07E039DF8BF
S315080027E80B2003EBD21301339DF80D209209013A09
S315080027F89340336061E09DF80A20C2F384029DF88D
S315080028080B10CB0003F0180303EB5113013302FB3B
S315080028180333336051E0314B1B6813704DE00021D8
S315080028280920FFF76DFC044608B1012445E010218C
S315080028383046FFF7AEFC00283FD101243DE00021D1
S315080028480A20FFF75DFC044608B1012435E010218B
S315080028583046FFF79EFC80BB01242EE000213A2073
S31508002868FFF74EFC044660B1012426E0FF20FFF777
S31508002878EBFB705500F032FF0135EDB2032DF5D9A3
S315080028881BE00546FAE7154B1B6813F0040F01D140
S31508002898012412E000218D20FFF732FC044608B116
S315080028A801240AE0FF20FFF7CFFB40213046FFF757
S315080028B870FC10B9012400E00424FFF7E3FB204666
S315080028C804B070BD2C46F8E72C46F6E70124F4E771
S315080028D80424F4E70324F2E72C000020D40200209D
S315080028E830B484B01F4B1D78002D38D11E4BD3F851
S315080028F8102A0192D3F8142A0292D3F8183A0393A5
S31508002908184B01221A702846294615E03732D2B2E2
S31508002918164C62540131C9B20133DBB2012B09D80E
S3150800292803F110026A4412F8102C092AEED830323C
S31508002938D2B2EDE70130C0B20B280DD800F110036A
S315080029486B4413F80C3C1A098DF8002003F00F03A2
S315080029588DF801302B46E1E7044B00225A5404B09F
S3150800296830BC7047D80200200070FF1F40000020C6
S3150800297800487047BC990008004870479C990008A9
S315080029880048704778990008012918D108B594466F
S315080029981378C3F34113022B01D0002008BD5378DE
S315080029A8012B01D00020F9E79388072B01D00020D6
S315080029B8F4E79E23034A614605F09AF9EEE70120F3
S315080029C8704700BFD898000810B50446FFF788FF77
S315080029D86CB9134B1B681A88124B5A800120431C82
S315080029E85B009BB20F4843F44073038010BD032C69
S315080029F814D80B4B53F824402046FDF7E1FBC0B228
S31508002A081F2800D91F20002305E05A1CE15C054B46
S31508002A1823F81210D3B29842F7D8E0E70020E5E782
S31508002A2830000020DC02002072B6704762B6704794
S31508002A382DE9F04184B004460D461746984668467F
S31508002A48FFF7E4F90299174BA3FB0131890900231B
S31508002A5801E00133DBB2112B1FD8134A12F8130011
S31508002A6802EB4302527800EB020C0CFB044CB1FB58
S31508002A78FCFE0CFB1E16002EEBD11FFA8EFCA5F8E1
S31508002A8800C00CF1FF3C1FFA8CFCBCF5806FE0D245
S31508002A98387088F80020012000E0002004B0BDE85E
S31508002AA8F08100BFD34D6210D099000870B58CB07C
S31508002AB80023ADF82E308DF82D308DF82C300BAB61
S31508002AC80DF12D020DF12E014FF4FA70FFF7B0FF44
S31508002AD8002835D01D4C1E4B2360002525766576C3
S31508002AE8A5760126E67625776577A560E5609DF8DB
S31508002AF82D30013B1B0423619DF82C30013B1B0537
S31508002B086361BDF82E3063602046FEF7D5F8069552
S31508002B18079508964CF6E043019302954FF6E0733D
S31508002B28039304230493059509960E230A9301A98A
S31508002B382046FEF767F92046FEF700FA0CB070BD86
S31508002B48B521044800F0C0FCC4E700BF1C030020F8
S31508002B5800640040A495000810B588B0024640F203
S31508002B68E1730293002304930593069101AB02A926
S31508002B780B48FEF711FA08B108B010BD00F0B8FB0B
S31508002B8800F1320401990648FEF77BFA0028F3D0CB
S31508002B9800F0A4FD00F0ACFBA042F3D9ECE700BFB7
S31508002BA81C03002010B588B003460C4601AA00216C
S31508002BB80848FEF779FA50B9019A40F267639A42CB
S31508002BC806D1039B23B9059B2370012000E000204A
S31508002BD808B010BD1C03002008B5FFF725FF08BD7F
S31508002BE810B500F039FA00B910BDFDF78FFC0028BA
S31508002BF8FAD000F027FDFDF7F5FF00F035FB00F0E9
S31508002C082FFA20F0604020F07F00044B986000F00F
S31508002C1827FA4468FFF70AFFA047E5E700ED00E052
S31508002C2870B50D46044606E015F8013B04F8013B65
S31508002C3800F054FD3246531E9EB2002AF4D170BDE8
S31508002C4838B50546002401E00134E4B2082C15D845
S31508002C5800F044FD04EB4403094A52F82330AB421A
S31508002C68F2D804EB440102EB810252681344AB42E2
S31508002C78EAD9034B03EB8103187A00E0FF2038BD35
S31508002C88F499000808B5C1F3080353B903688B42D9
S31508002C9809D040F8041B4FF40072FFF7C1FF012062
S31508002CA808BD0020FCE70120FAE72DE9F0410746B0
S31508002CB8FEF7ACFB00247F2C15D83E6806EB840883
S31508002CC807EB84035D6800F009FD2A4600234146A0
S31508002CD80220FEF7EDFB804640B956F82430AB4291
S31508002CE806D10134E7E74FF0010801E04FF0000884
S31508002CF8FEF7A4FB4046BDE8F081000038B50D464E
S31508002D080C4B984211D004460B4B994207D1094CF3
S31508002D1829462046FFF7B6FF48B1204638BDFFF7D3
S31508002D28C4FF0028F4D10024F7E7044CF0E7002490
S31508002D38F3E700BF4403002000C000084805002048
S31508002D482DE9F04106460C4617461D4621F4FF783C
S31508002D5828F001080368B3F1FF3F07D033684345F5
S31508002D680AD13368E41A3444043414E04146FFF7B8
S31508002D7889FF0028F2D120E041463046FFF7BEFF1A
S31508002D8806460028EDD1002017E017F8013B04F89D
S31508002D98013B013D10D000F0A1FC311D611AB1F5C7
S31508002DA8007FF2D3316801F500713046FFF7A6FFB8
S31508002DB8064620B1041DE8E70120BDE8F081002099
S31508002DC8FBE700000023082B2FD803EB4301194A19
S31508002DD802EB8102127A824202D00133DBB2F2E7B1
S31508002DE870B5144A52F8215002EB8102566815F05C
S31508002DF8030F02D116F0030F04D04FF42E710E48B4
S31508002E0800F062FB002405E02B68B3F1FF3F0ED102
S31508002E1804350134B4EB960F05D214F0FF0FF3D13D
S31508002E2800F05CFCF0E7012070BD00207047002028
S31508002E38FAE700BFF4990008E0950008F0B587B0EE
S31508002E4804460E460023009388420FD80125022C13
S31508002E5825D90B2E27D8012D22D100230193022329
S31508002E68059301230493FEF7D1FA03E00025EEE75C
S31508002E780134E4B2B4420FD82046FFF7A3FF074649
S31508002E880028F5D100F02AFC0394694601A8FEF744
S31508002E98B5FB0028ECD03D46FEF7D0FA00E0002541
S31508002EA8284607B0F0BD0025FAE700004FF0FF33C3
S31508002EB8024A1360024A1360704700BF480500209B
S31508002EC84403002070B50D460139144B1B1A994264
S31508002ED801D9002070BD04461646FFF7B1FEFF2843
S31508002EE813D028190138FFF7ABFEFF280DD024F4B4
S31508002EF8FF7222F001020A4B9A4208D02B46324644
S31508002F0821460848FFF71CFFE4E70020E2E72B46BE
S31508002F18324621460448FFF713FFDBE7FFFF0F0891
S31508002F2800C0000848050020440300204A1E0E4B2E
S31508002F381B1A9A4201D90020704770B505460C46F7
S31508002F48FFF77EFE06462C44601EFFF779FE01460B
S31508002F58FF2E05D0FF2805D03046FFF76FFF70BD56
S31508002F680020FCE70020FAE7FFFF0F0800B583B04A
S31508002F7800230193134B1B68B3F1FF3F20D0114A76
S31508002F885368019391680B440193D1680B440193E4
S31508002F9811690B44019351690B44019391690B44D8
S31508002FA80193D26913440193DA4301925B42019370
S31508002FB801AA04210448FFF785FF03B05DF804FB5E
S31508002FC80120FAE74403002088C100080A4B1A685A
S31508002FD8596811449A681144DA6811441A691144FF
S31508002FE85A6911449A690A44D3F88831D34201D0F8
S31508002FF8002070470120704700C0000808B50C4B30
S315080030081B68B3F1FF3F06D10A4B1B68B3F1FF3FB4
S3150800301807D1012008BD0648FFF747FE0028F3D167
S31508003028F8E70448FFF741FE0028F3D00120F1E746
S3150800303844030020480500200048704700C00008DF
S3150800304808B5FFF733FF08BD08B5FFF73BFF08BD0E
S3150800305808B5FFF76BFF08BD08B5FFF7B7FF08BD4A
S3150800306808B5FFF7E9FF08BD08B5FFF77FFF00B900
S3150800307808BDFFF7C3FFFBE7054B1B6813F0200FD6
S3150800308801D100207047024B5B6803700120704726
S315080030980044004010B5094B586000F029F900F1C2
S315080030A80A04064B1B6813F0800F05D100F016FBBF
S315080030B800F01EF9A042F4D910BD00BF0044004034
S315080030C810B588B00C4CE36823F40053E3604FF45A
S315080030D86143019300230293039304930C220592F8
S315080030E80693079301A92046FEF740FFE36843F4D1
S315080030F80053E36008B010BD0044004070B50646AA
S315080031080D46812904D82846FFF7C4FF00240BE09A
S315080031188621074800F0D8F9F5E700F0DFFA305DB0
S31508003128FFF7B8FF0134A4B2A542F6D870BD00BFB0
S315080031382096000870B5254B1C78BCB92448FFF7BB
S315080031489BFF012801D0204670BD214B1B78013B07
S31508003158DBB2802BF7D800F0CBF81E4B18601E4B55
S3150800316800221A70194B01221A70ECE706460D461A
S31508003178194B1B78013316481844FFF77DFF044698
S31508003188012815D1144B1A780132D2B21A70104B8D
S315080031981B789A4201D00024D5E710493046FFF734
S315080031A83FFD0A4B00221A700B4B1B782B70CAE797
S315080031B800F09EF8074B1B68C833984203D90024C9
S315080031C8024B1C70BFE70024BDE700BFD8070020E4
S315080031D854070020500700204C07002055070020F8
S315080031E882B01A4B5A6C42F001025A645A6C02F0C1
S315080031F801020192019A164A12689968C1F3423186
S315080032081448415CCA409B6813F4604F1BD10123DC
S3150800321802FB03F3104A012111604FF6FF71D162D0
S315080032285B090E49A1FB0313DB09013B936253694A
S3150800323843F0010353610A4B00211960526A094B8E
S315080032481A8002B070470223E2E700BF003802403E
S3150800325800000020BC98000800000140C55A7C0AF6
S31508003268DC070020DA0700200C4B5A6A42F00102F4
S315080032785A625A6A22F001025A625A6C22F001020C
S315080032885A644FF0E02300221A615A619A6103F5DD
S3150800329850634FF000725A60704700BF003802400A
S315080032A80F4B5B6A9BB20F4A11885B1A9BB2632B5A
S315080032B815D910B40C4AA2FB03235A090B4C2068EB
S315080032C800EB5310206002EB820303EB83039A009A
S315080032D892B21144034B19805DF8044B7047704746
S315080032E800000140DA0700201F85EB51DC070020A3
S315080032F808B5FFF7D5FF014B186808BDDC0700209D
S3150800330808B5FFF7F5FF08BD10B50446002003F019
S31508003318B5F808B9002010BD01222146002003F09F
S31508003328BDF8012801D00020F5E70120F3E70000E1
S3150800333810B582B015484FF0A0440460FDF780FB2D
S31508003348134A536843F002035360A36B43F400130C
S31508003358A363A36B23F40023A363A36B23F480233B
S31508003368A36301238DF8043000208DF8050001A910
S3150800337803F09AFE00F0DAF8B0F5FA6F01D302B056
S3150800338810BD4FF4FA6000F0CBF8F8E728080020DB
S315080033980008005008B503F075FE03484FF0A0432F
S315080033A80360FDF787FB08BD2808002010B582B022
S315080033B804468DF80710CBB23F2B16D801220DF11B
S315080033C80701002003F07EF8012813D19DF807208D
S315080033D82146002003F076F89DF8073083420ED17F
S315080033E8002003F083F802B010BD9F21064800F0BC
S315080033F86BF8E3E7A321044800F066F8E6E7A62198
S31508003408014800F061F8EBE76096000870B50646D3
S315080034180D46002005F090FB00214FF0FF3004F020
S3150800342801FB1C4B1C789CB91B48FFF76DFF01284C
S3150800343801D0204670BD184B1B78013BDBB23E2BEA
S31508003448F7D8144B01221A70144B00221A70F0E7A9
S31508003458124B1B78013310481844FFF755FF0446EA
S31508003468012801D00024E4E70C4B1A780132D2B2BD
S315080034781A70094B1B789A4201D00024D9E70849E3
S315080034883046FFF7CDFB034B00221A70034B1B7817
S315080034982B70CEE724080020E4070020E007002068
S315080034A8E507002008B50120FDF748F808BD08B566
S315080034B80020FDF743F808BD08B5FDF773F808BD01
S315080034C808B5FDF770F808BD08B500F007F9FCE778
S315080034D808B500F0F9F8012806D000F097F918B1F0
S315080034E80C4B1B78012B00D008BDFFF701FF0A4BD0
S315080034F81B680A4A1268134403F5FA739842F3D309
S31508003508044B00221A7000F08BF90028ECD1FFF75B
S3150800351867FBE9E7140D00200C0D0020100D0020AC
S31508003528014B1860704700BF0C0D0020014B186846
S31508003538704700BF0C0D002008B5054B1B78012BFA
S3150800354800D008BDFFF7D4FE024B1860F9E700BFA4
S31508003558140D0020100D002008B5044B01221A701E
S31508003568FFF7EAFFFFF7B4FF08BD00BF140D0020F8
S3150800357808B5FFF731FB00F0ADF8FFF731FEFFF7A6
S315080035885FFD00F02BF900F00FF8FFF7E5FF08BD1F
S3150800359808B500F0A3F8FFF783FE00F03DFA00F03F
S315080035A817F8FFF795FF08BD10B500F0F5FDFFF70A
S315080035B87DFA064C02232370FFF782FD0023237049
S315080035C8FFF7B6FE0323237010BD00BF590000207D
S315080035D800B583B00DF107011848FFF7E3FA01288B
S315080035E810D00DF107011548FFF7A4FD012812D0E0
S315080035F80DF107011148FFF709FF012814D003B098
S315080036085DF804FB0E4B02221A709DF807100B484A
S3150800361800F0E4FDE5E70A4B00221A709DF807104A
S31508003628064800F0DBFDE3E7054B03221A709DF810
S315080036380710024800F0D2FDE1E700BF180D002088
S315080036485900002008B5FFF7A5FE08BD38B5044699
S315080036580D460E4B1B78022B09D00C4B1B7853B121
S315080036680A4B1B78032B0BD000F0B0FD38BDC9B246
S31508003678FFF772FAF1E7E9B22046FFF73FFDEFE7F1
S31508003688E9B22046FFF792FEEEE700BF5900002090
S31508003698054B1B78022B03D0032B03D13F20704719
S315080036A8082070478120704759000020054B1B7871
S315080036B8022B03D0032B03D13F20704708207047FD
S315080036C8812070475900002008B500F077FD00B141
S315080036D8012008BD08B5FCF727FF08BD08B5FCF7A3
S315080036E828FF08BD00F00F0202F13003092802D9A5
S315080036F802F137007047054AD25C02F00302022A33
S3150800370801D0D8B27047203BFBE700BF0D9F0008E1
S3150800371838B505460C460009FFF7E4FF207005F0A2
S315080037280F00FFF7DFFF60700023A370204638BD3F
S3150800373802460846134601309C460D49A1FB031369
S31508003748DB08BCF1090FF6D800230370084BA3FB66
S315080037580213DB08194603EB8303A2EB4303303352
S3150800376800F8013D13460A46092BEFD8704700BFF3
S31508003778CDCCCCCC84460021084601292AD800B5E8
S3150800378809E0203B0FE00301DBB21344D8B201314C
S31508003798C9B201291AD81CF801300F4AD25C02F0BE
S315080037A80302022AEDD0DBB2A3F13002D2B2162AFE
S315080037B80BD8A3F13A0E5FFA8EFEBEF1060F07D9AB
S315080037C8092AE0D9373BDAB2DDE700205DF804FBC1
S315080037D80020FBE7704700BF0D9F000808B50022C8
S315080037E8064B1A700649074802F094F800B908BD4E
S315080037F878210548FFF768FEF9E700BFC4130020DB
S315080038089C960008680F0020A0960008034B1B78B2
S315080038180BB1002070470120704700BFC413002071
S3150800382810B5FFF751FF01280ED0084B1C7814B1C4
S315080038380024204610BDFCF7B7FE0128F9D1034B32
S3150800384801221A700446F4E70024F2E7C41300209C
S315080038580378114AD25C02F00302022A0FD0532BCE
S315080038680FD143780C4AD25C12F0040F0BD0312BD7
S315080038780BD0322B0BD0332B0BD003207047203BB1
S31508003888EDE70320704703207047002070470120A2
S3150800389870470220704700BF0D9F000870B506469E
S315080038A80230FFF767FF0546044604363046FFF739
S315080038B861FF0544EDB2013CA4B20236012CF5D8E5
S315080038C8ED43EDB23046FFF755FFA84201D1012076
S315080038D870BD0020FCE700002DE9F04104461746B4
S315080038E80E4651B348B32046FFF7B2FF05460328EC
S315080038F800F087802046FFF7D1FF002800F0858072
S31508003908012D2AD0022D4FD0002D40F08180A01C11
S31508003918FFF730FF8046201DFFF72CFF05023560AC
S31508003928A01DFFF727FF054435600834A8F10305ED
S315080039382DB2002F66D000260CE040F20A31354831
S31508003948FFF7C2FDCFE72046FFF714FFB855023444
S315080039580136B6B2AE42F6DB54E0A01CFFF70AFF02
S315080039688046201DFFF706FF05043560A01DFFF7F2
S3150800397801FF05EB0025356004F10800FFF7FAFE9C
S31508003988054435600A34A8F104052DB2002F39D04C
S31508003998002606E02046FFF7EDFEB8550234013644
S315080039A8B6B2AE42F6DB2DE0A01CFFF7E3FE804672
S315080039B8201DFFF7DFFE05063560A01DFFF7DAFEB6
S315080039C805EB0045356004F10800FFF7D3FE05EB63
S315080039D80025356004F10A00FFF7CCFE054435607A
S315080039E80C34A8F105052DB267B1002606E0204675
S315080039F8FFF7C0FEB85502340136B6B2AE42F6DB5A
S31508003A0800E000252846BDE8F0814FF0FF35F9E7C4
S31508003A180025F7E7A096000870B5B04B1B78022B6F
S31508003A2831D0032B00F01E81012B21D1FFF708FBAB
S31508003A38FCF7DAFDAA48FCF71BFEAA48FCF718FEAD
S31508003A48FCF7CEFD01460122A74801F08FFF80B991
S31508003A58A648FCF70DFEA648FCF70AFEA54B002269
S31508003A681A605A609D4B02221A70A348FCF700FE9A
S31508003A7870BD9A4B00221A70A048FCF7F9FD012080
S31508003A88FCF7E8FDF4E7984C22464FF480719C4809
S31508003A9802F014FC637C002B5DD1A8B19949002279
S31508003AA8A1F5C070FFF718FF0446B0F1FF3F5FD0D5
S31508003AB8002809DD8F4B5B68002B66D1904BD3F83D
S31508003AC880218C4B1A6058608F4BD3F84822D3F85C
S31508003AD840329A42CCD10021834802F0B3FA002832
S31508003AE840F0A680834B5B6873B38048FCF7C0FD3B
S31508003AF88648FCF7BDFD864D7E4C29466068FFF76B
S31508003B0817FE2846FCF7B4FD8248FCF7B1FD29469E
S31508003B18E078FFF7FDFDA91CA078FFF7F9FD291D38
S31508003B286078FFF7F5FDA91D2078FFF7F1FD28460F
S31508003B38FCF79EFD7848FCF79BFD61682068FFF74F
S31508003B4887FA002800F081806848FCF791FD634BE6
S31508003B5803221A708CE7614B00221A706748FCF733
S31508003B6887FD0220FCF776FD204602F05BFA7FE720
S31508003B785A4B00221A706148FCF77AFD0320FCF7B5
S31508003B8869FD594802F04EFA72E75D4AD2F8801183
S31508003B98584A12681A44914203D10344554A536055
S31508003BA892E75248FCF764FD5848FCF761FD584E01
S31508003BB8504D31466868FFF7BBFD3046FCF758FD9F
S31508003BC85448FCF755FD3146E878FFF7A1FDB11CC6
S31508003BD8A878FFF79DFD311D6878FFF799FDB11D97
S31508003BE82878FFF795FD3046FCF742FD4A48FCF76A
S31508003BF83FFD69682868FFF72BFA60B13B48FCF770
S31508003C0837FD3D48FCF734FD3D4BD3F88021394B49
S31508003C181A605C6058E7314B00221A703748FCF77F
S31508003C2827FD0520FCF716FD2F4802F0FBF91FE7CC
S31508003C382A4B00221A703148FCF71AFD0420FCF7B3
S31508003C4809FD294802F0EEF912E7244B00221A70FA
S31508003C582A48FCF70DFD0520FCF7FCFC224802F073
S31508003C68E1F905E7204C22464FF48071244802F012
S31508003C7825FB637C002B59D160B1284A02F18001E3
S31508003C88A2F58070FFF728FE0446B0F1FF3F5AD028
S31508003C98002865DC1C4BD3F84822D3F840329A42F0
S31508003CA87FF4E6AE1E48FCF7E3FCFFF7DDF90028CB
S31508003CB800F098800D48FCF7DBFC1A48FCF7D8FC9E
S31508003CC8094802F0AFF91848FCF7D2FC034B002262
S31508003CD81A70FCF79DFCFEF783FFC9E6C41300209B
S31508003CE8D0960008F49600089C110020249700082E
S31508003CF82C970008DC0D0020509700081C97000830
S31508003D08E40D0020640F0020680F00208097000843
S31508003D189C0D00208C970008A8970008E40E002040
S31508003D281C9800083898000850980008344B002258
S31508003D381A703448FCF79CFC0220FCF78BFC2046DA
S31508003D4802F070F994E62E4B00221A702E48FCF7FA
S31508003D588FFC0320FCF77EFC2C4802F063F987E603
S31508003D682B48FCF785FC2B4D29462046FFF7E0FC37
S31508003D782846FCF77DFC2848FCF77AFC274E294696
S31508003D8896F88301FFF7C4FCA91C96F88201FFF789
S31508003D98BFFC291D96F88101FFF7BAFCA91D96F8FC
S31508003DA88001FFF7B5FC2846FCF762FC1C48FCF7BF
S31508003DB85FFC06F580722146D6F88001FFF744F9BC
S31508003DC818B11848FCF754FC64E70D4B00221A7022
S31508003DD81548FCF74DFC0620FCF73CFC0B4802F09E
S31508003DE821F945E6064B00221A700F48FCF740FCF5
S31508003DF80720FCF72FFC054802F014F938E600BF3F
S31508003E08C4130020AC970008D09700089C1100201E
S31508003E18F49700089C0D002004980008E40D00207B
S31508003E28A8970008249700081C970008024B002248
S31508003E3883F88220704700BFC8130020034BFE2270
S31508003E481A7058700222A3F886207047C8130020F3
S31508003E580378427843EA0223827843EA0243C07821
S31508003E6843EA006070470870C0F307234B70C0F335
S31508003E7807438B70000EC8707047000010B5064CD3
S31508003E88002384F88130FFF7D1FFFF23237001232D
S31508003E98A4F8863010BD00BFC8130020074BFF22C0
S31508003EA81A7000225A7093F882109970DA701A718B
S31508003EB85A710622A3F88620704700BFC813002047
S31508003EC808B50020FFF7BAFF08BD000010B5094C71
S31508003ED8FF232370084BC4F8883000236370A37047
S31508003EE8E370211D0720FFF7BEFF0823A4F88630D4
S31508003EF810BD00BFC8130020609A000810B5064C0C
S31508003F08FF2323700430FFF7A3FFC4F888000123B2
S31508003F18A4F8863010BD00BFC813002008B53120A4
S31508003F28FFF78CFF08BD08B52020FFF787FF08BDF7
S31508003F3838B5084CFF23237000256570A570FFF770
S31508003F48A7FBE07025716571A5710723A4F886306B
S31508003F5838BD00BFC813002038B5FFF757FCF8B1BD
S31508003F68FFF764FF104C012584F88150FF2323705E
S31508003F780023637010226270A370FFF789FBE07054
S31508003F88FFF794FB2071FFF791FBC0F307206071D8
S31508003F98A571E5710823A4F88630FFF751F838BDEE
S31508003FA81020FFF74BFFFAE7C813002038B5044678
S31508003FB8FFF76EFB6278904212D90B4DD5F8881038
S31508003FC8681CFEF72DFEFF232B70D5F8883062781B
S31508003FD81344C5F8883063780133A5F8863038BDA8
S31508003FE82220FFF72BFFFAE7C813002038B5044646
S31508003FF8FFF74EFB6378984217D9201DFFF728FF6D
S3150800400801460C4DC5F888006278681CFEF708FE5C
S31508004018FF232B70D5F8883062781344C5F88830A2
S3150800402863780133A5F8863038BD2220FFF706FFE6
S31508004038FAE700BFC8130020F8B505461746002456
S3150800404806E015F8013B1C44E4B2FFF747FB314686
S315080040584E1E0029F5D13C600120F8BD30B583B065
S31508004068002501950B4CFF2323700430FFF7F0FE5B
S31508004078014601AAD4F88800FFF7DEFF6070211D03
S315080040880198FFF7F0FEA570E5700823A4F88630B6
S3150800409803B030BDC813002038B504460E4BD3F814
S315080040A88850FFF7F5FA621C411E2846FEF7CCFF32
S315080040B870B1094CFF232370FFF7EAFAD4F8883061
S315080040C801380344C4F888300123A4F8863038BD7B
S315080040D83120FFF7B3FEFAE7C813002010B50446E7
S315080040E8FFF7D6FA01386378984216DD134BFF2294
S315080040F81A700122A3F88620617891B1A21C0F4B89
S31508004108D3F88800FEF7A0FF98B10C4AD2F8883091
S3150800411861780B44C2F8883010BD2220FFF78EFE5E
S31508004128FAE7FEF7A1FF0028F6D13120FFF786FE49
S31508004138F2E73120FFF782FEEEE700BFC81300203A
S3150800414810B50B4BD3F888400430FFF781FE0146BB
S315080041582046FEF77DFF30B1054BFF221A70012273
S31508004168A3F8862010BD3120FFF768FEFAE700BFDE
S31508004178C813002008B5FEF733FD034BFF221A7053
S315080041880122A3F8862008BDC813002008B589B2FD
S31508004198FFF75CFA08BD0000074B002283F8812068
S315080041A8C3F8882083F88420A3F8862083F8832018
S315080041B883F88220704700BFC8130020024B93F883
S315080041C8810000B101207047C8130020024B002265
S315080041D883F88420704700BFC813002008B5037801
S315080041E8FF2B24D0364A92F88120012A2BD1C93BC5
S315080041F8352B56D8DFE803F04055554F55554C43EF
S315080042084946555555555555555555555555555563
S315080042185555555555555555555555555555555538
S315080042285255312B282E5555553455373A3DFFF7F3
S3150800423893FE234B93F88430012B36D0204BB3F9E1
S315080042488610002935DC08BDFFF7B0FEF1E7FFF751
S31508004258CDFEEEE7FFF752FEEBE7FFF7FFFEE8E7CE
S31508004268FFF734FEE5E7FFF72BFEE2E7FFF716FE52
S31508004278DFE7FFF703FEDCE7FFF70EFFD9E7FFF7EF
S315080042882DFFD6E7FFF754FED3E7FFF759FFD0E728
S31508004298FFF770FFCDE7FFF741FECAE7FFF743FED2
S315080042A8C7E72020FFF7CAFDC3E71020FFF7C6FDBA
S315080042B8C4E71846012380F88430FFF767FFC2E78A
S315080042C8C81300204278007840EA02207047C3786D
S315080042D8827842EA0322437843EA0223007840EACE
S315080042E8032070470170090A417070470170C1F3CD
S315080042F807234370C1F307438370090EC1707047DB
S31508004308002070470020704702398369023B8B42B8
S3150800431804D9C36A428901FB0230704700207047F6
S3150800432870B506460D4601F11A00FFF7CBFF33783C
S31508004338032B00D070BD044605F11400FFF7C2FF31
S3150800434844EA0040F6E770B506460C46154691B2AB
S3150800435804F11A00FFF7C6FF3378032B00D070BDA7
S31508004368290C04F11400FFF7BDFFF8E72DE9F04121
S3150800437880460E4601F11A00FFF7A4FF58BB3578A8
S3150800438825F04005013D05EB450305EB83050127A7
S31508004398002404E04FF6FF73984221D101340C2C0F
S315080043A80DD8134B185D3044FFF78CFF002FF1D05A
S315080043B8FF2D13D828F8150007460135EEE7337898
S315080043C813F0400F0ED07FB1FF2D0FD8002328F821
S315080043D81530012000E00020BDE8F0810020FBE749
S315080043E80020F9E70120F7E70120F5E70020F3E7C1
S315080043F8E89A00082DE9F84380460F4691464B731C
S315080044080F23CB7200240C73214607F11A00FFF715
S3150800441869FF09F1FF3606EB460306EB83062546D0
S3150800442802E001340C2C11D84FF6FF739D4202D0D6
S3150800443838F8165001360C4B185D29463844FFF7EC
S3150800444851FF002DEDD14FF6FF75EAE74FF6FF73DA
S315080044589D4202D038F816300BB949F0400987F85A
S315080044680090BDE8F88300BFE89A000801464FF0B7
S315080044780B0C0020C30143EA50030A78013152FAAB
S3150800448883F3D8B2BCF1010CF4D170470146006831
S3150800449820B30246137801321F2B01D93A2BF9D1DA
S315080044A83A2B01D0002070470378A3F1300C5FFA45
S315080044B88CFCBCF1090F0ED80230904202D04FF09E
S315080044C8FF307047A3F13000002802DD4FF0FF30B7
S315080044D870470A6070474FF0FF3070474FF0FF305B
S315080044E8704738B50D46044698B103689BB11A78E3
S315080044F8A2B18188DA88914203D0092000242C6069
S3150800450838BD5878FEF714F810F0010009D1246868
S31508004518F5E70920F3E71C460920F0E709200024F7
S31508004528EDE709200024EAE770B505790DB92846AC
S3150800453870BD044600F134060123026B3146407803
S31508004548FEF748F8054688B900232371216B636A84
S31508004558CB1AE2699342EAD2E378022BE7D1012320
S315080045680A4431466078FEF735F8E0E70125DEE7C4
S3150800457870B5036B8B4202D10026304670BD0446DF
S315080045880D46FFF7D1FF06460028F6D101232A462D
S3150800459804F134016078FDF7D5FF10B101264FF014
S315080045A8FF352563E9E7000038B50446002303719B
S315080045B84FF0FF330363FFF7DBFF00285AD104F2F5
S315080045C83220FFF77FFE054694F83430EB2B09D0E6
S315080045D8E92B07D0E82B05D04AF655239D4247D044
S315080045E8032038BD4AF655239D4237D004F13F00CB
S315080045F8FFF768FE94F84120431E1842ECD1B0F53F
S31508004608007FE9D3E8D8002AE6D0531E1A42E3D138
S3150800461804F14200FFF756FE0028DDD094F844302E
S31508004628013B012BD8D804F14500FFF74BFE0028BB
S31508004638D2D004F14700FFF745FE7F2806D804F1D3
S315080046485400FFF744FEB0F5803FC5D304F14A008D
S31508004658FFF738FE0028BFD00020C2E7082206491F
S3150800466804F1860004F01CFF0028BFD10020B8E733
S315080046780220B6E70420B4E77C98000870B584B031
S3150800468806460D460021FFF78FFF022803D02BD8D0
S3150800469855B3002400E00024032C0ED806F1340094
S315080046A8230103F5E3731844FFF711FE04AB03EB84
S315080046B8840343F8100C0134EEE70DB16C1E0AE0CA
S315080046C82C4608E03046FFF76FFF6DB901280BD96D
S315080046D80134032C08D804AB03EB840353F8101CE5
S315080046E80029EFD10320F0E704B070BD2DE9F84F93
S315080046F80D46164600230B60FFF7C8FE0028C0F2D1
S315080047081C81A24B53F82040002C00F01A812C601B
S3150800471806F0FE06237873B16078FDF709FF10F0F6
S31508004728010508D1002E00F0098110F0040F00F0E9
S3150800473805810A2502E1002323706078FDF750FEFB
S3150800474810F0010540F0FF801EB110F0040F40F08C
S31508004758FC8000212046FFF791FF042800F0F78027
S31508004768012800F2F680266B04F13F00FFF7AAFD40
S31508004778B0F5007F40F0EF8004F14A00FFF7A2FD8C
S31508004788074620B904F15800FFF7A1FD0746E76177
S3150800479894F84420E270531EDBB2012B00F2DD8048
S315080047A807FB02F894F84190A4F80A90B9F1000FAB
S315080047B800F0D58009F1FF3319EA030F40F0D180DC
S315080047C804F14500FFF77EFD8246208110F00F0FA1
S315080047D840F0C98004F14700FFF774FD834620B905
S315080047E804F15400FFF773FD834604F14200FFF70E
S315080047F869FD0246002800F0B88000EB080303EBC1
S315080048081A139B45C0F0B380ABEB030BBBFBF9F15E
S31508004818CB45C0F0AE805E48814206D84FF6F570A3
S31508004828814241D84FF0020B01E04FF0000B40F6E9
S31508004838F57081423BD9BBF1000F00F09C8001F16D
S315080048480209C4F818902662324462623344E36265
S31508004858BBF1030F2ED0BAF1000F00F09280424444
S31508004868A262BBF1020F36D009EB490309F0010928
S3150800487809EB530909F2FF13B7EB532FC0F08380EE
S315080048884FF0FF336361236180236371BBF1030F24
S3150800489824D084F800B03F4A138801339BB21380AA
S315080048A8E3803D4BE36049E04FF0030BC3E74FF065
S315080048B8010BC4E704F15E00FFF704FD00285CD18C
S315080048C8BAF1000F5BD104F16000FFF700FDA062A2
S315080048D84FEA8909CEE74FEA4909CBE704F16400AC
S315080048E8FFF7F0FC0128D4D1711C2046FFF740FEDB
S315080048F80028CED10023637104F23220FFF7E2FCC8
S315080049084AF655239842C4D104F13400FFF7DFFC70
S31508004918224B9842BDD104F50670FFF7D8FC204B08
S315080049289842B6D104F50770FFF7D1FC606104F523
S315080049380870FFF7CCFC2061ABE70B252846BDE8D5
S31508004948F88F0C25FAE70325F8E70A25F6E701257F
S31508004958F4E70D25F2E70D25F0E70D25EEE70D2519
S31508004968ECE70D25EAE70D25E8E70D25E6E70D2529
S31508004978E4E70D25E2E70D25E0E70D25DEE70D2539
S31508004988DCE70D25DAE70D25D8E700BF581600201D
S31508004998F5FFFF0F541600205414002052526141A7
S315080049A8727241612DE9F047012975D907460C4607
S315080049B8164683698B4273D90378022B3ED0032B9C
S315080049C84FD0012B6ED101EB5108416A01EB5821F2
S315080049D8FFF7CEFD054600285FD107F1340A08F12E
S315080049E80109C8F3080814F001041DD01AF808309C
S315080049F803F00F0343EA0613DBB20AF8083001236B
S31508004A083B71796A01EB59213846FFF7B1FD05462E
S31508004A18002842D1C9F3080944B1C6F307130AF8AE
S31508004A28093001233B7138E0F3B2E6E71AF8093092
S31508004A38C6F3032223F00F031343F0E7416A01EB99
S31508004A481421FFF795FD054638BB07F134006400C5
S31508004A5804F4FF74B1B22044FFF744FC01233B7108
S31508004A681BE0416A01EBD411FFF782FD0546A0B9A0
S31508004A7826F0704607F13403A40004F4FE741C44B7
S31508004A882046FFF724FC00F0704131432046FFF723
S31508004A982DFC01233B7100E002252846BDE8F08776
S31508004AA80225FAE70225F8E7F8B50568012954D971
S31508004AB80C46AB698B4252D92B78022B2BD0032B89
S31508004AC839D0012B4DD101EB5106696A01EB562104
S31508004AD82846FFF74DFD10B14FF0FF303EE0771C32
S31508004AE8C6F308062E4496F83460696A01EB57211E
S31508004AF82846FFF73DFDB0BBC7F308072F4497F8CC
S31508004B08343046EA032014F0010F01D0000925E0E5
S31508004B18C0F30B0022E0696A01EB14212846FFF767
S31508004B2827FD18BB05F13400640004F4FF7420441B
S31508004B38FFF7C8FB12E0696A01EBD4112846FFF7AC
S31508004B4817FDB0B905F13400A40004F4FE74204436
S31508004B58FFF7BDFB20F0704000E00120F8BD0120FA
S31508004B68FCE70120FAE74FF0FF30F7E74FF0FF3090
S31508004B78F4E74FF0FF30F1E72DE9F041D0F800806F
S31508004B88B1F5001F3FD207460E4611F01F0F3DD15B
S31508004B9801618468E4B998F80030022B01D9D8F87D
S31508004BA82840ACB9B8F80830B3EB561F30D9D8F84E
S31508004BB82830BB617C61BB6993B303EB5623BB61A1
S31508004BC808F13408C6F308014144F96100201BE0DE
S31508004BD8B8F80A506D02AE420FD321463846FFF799
S31508004BE863FF0446B0F1FF3F14D0012814D9D8F85A
S31508004BF81830834212D9761BEDE721464046FFF75F
S31508004C0883FBB861D6E70220BDE8F0810220FBE7FE
S31508004C180220F9E70120F7E70220F5E70220F3E783
S31508004C280220F1E72DE9F84306460768884631B9B0
S31508004C383D698DB1BB69AB420FD801250DE0FFF779
S31508004C4833FF0346012878D9B0F1FF3F6FD0BA6918
S31508004C5882426CD8454600E001257B69002B66D060
S31508004C68454506D04FF00009B9F1000F3AD12C4650
S31508004C782FE005F10109BB694B4501D84FF0020938
S31508004C8849463046FFF710FF034601284FD0B0F1D2
S31508004C98FF3F4CD00028E7D03B69012B05D9BA69F4
S31508004CA89A4205D84FF00009DEE74FF00009DBE71E
S31508004CB81D464FF00009D7E721463046FFF7F4FEB0
S31508004CC8034670B1012832D0B0F1FF3F2FD0AC426D
S31508004CD837D00134BB69A342EED8012D2FD9022457
S31508004CE8EAE7A1464FF0FF3249463846FFF75AFE2B
S31508004CF80346C8B9B8F1000F0FD1ABB9C7F8109079
S31508004D087A69BB69023B9A4201D8013A7A617B798A
S31508004D1843F001037B714B4609E04A46414638464B
S31508004D28FFF740FE0346E8E7012B03D001231846A0
S31508004D38BDE8F8834FF0FF33F9E70123F7E74B4659
S31508004D48F5E74B46F3E7F8B50C46056801292ED969
S31508004D5806461146AB69A3422BD94AB14FF0FF3232
S31508004D682846FFF71FFE074610B123E0A24221D9BD
S31508004D78274621463046FFF797FE0446E0B1012844
S31508004D881CD0B0F1FF3F1BD0002239462846FFF752
S31508004D9809FE074670B96B69AA69911E8B42E5D266
S31508004DA801336B616B7943F001036B71DEE7022708
S31508004DB800E002273846F8BD0027FBE70227F9E78F
S31508004DC80127F7E7F8B505460C46FFF7ADFB08B126
S31508004DD80120F8BD21462846FFF796FA06462863B5
S31508004DE805F134074FF400720021384604F068FBD1
S31508004DF8002400E001346B89A34207D90123A219CC
S31508004E0839466878FDF7E6FB0028F3D06889001B61
S31508004E1818BF0120DDE72DE9F843044688460768E8
S31508004E2805692035B5F5001F01D300238361A369F9
S31508004E38002B46D0C5F308063EB90133A36161695C
S31508004E4879B93B89B3EB551F07D9256107F13403AF
S31508004E583344E3610020BDE8F8830023A3610420F6
S31508004E68F9E77B89013B13EA5523EED12046FFF77C
S31508004E781BFE8146012826D9B0F1FF3F25D0BB691C
S31508004E88834212D8B8F1000F17D061692046FFF798
S31508004E98C9FE8146D8B101281BD0B0F1FF3F1AD008
S31508004EA801463846FFF78EFFB8B9C4F81490494644
S31508004EB83846FFF729FAA061C7E70023A36104204B
S31508004EC8C9E70420C7E70220C5E70120C3E707208A
S31508004ED8C1E70220BFE70120BDE70120BBE7F8B517
S31508004EE804460E4607680021FFF746FE0246C0B983
S31508004EF8002508E00135B54213D001212046FFF701
S31508004F088AFF024668B9A1693846FFF731FB0246A7
S31508004F1838B9E3691B78E52BECD0002BEAD00025D5
S31508004F28EBE7042A01D01046F8BD0722FBE72DE96E
S31508004F38F8430446884607684FF0FF094E46042595
S31508004F482EE00F2B19D112F0400F06D091F80D90CC
S31508004F5802F0BF022369E3621646B24201D0FF2671
S31508004F6818E04B7B4B4501D0FF2613E0F868FFF79E
S31508004F78FDF988B3013EF6B20CE026B90846FFF7F4
S31508004F8875FA48452BD04FF0FF33E36227E0FF2632
S31508004F9800E0FF2600212046FFF73DFF0546F0B949
S31508004FA8A169E1B13846FFF7E3FA0546B8B9E169F8
S31508004FB80A789AB1CB7A03F03F03A371E52AE6D0BB
S31508004FC82E2AE6D023F02000082814BF0020012046
S31508004FD84045B6D0FF26DDE7FF26DBE704250DB1F9
S31508004FE80023A3612846BDE8F88370B5044605681A
S31508004FF80669C16AB1F1FF3F1AD10023B3B9A1699D
S315080050082846FFF7B5FA034670B9E269E521117033
S3150800501801222A712269B24206D200212046FFF7E8
S31508005028FAFE03460028EAD0042B05D0184670BDB8
S31508005038FFF7A2FD0346E1E70223F7E738B504467A
S315080050480D464C22002104F03BFA256038BD38B5D8
S315080050580D46144640F2B51101F070F9FF2809D932
S31508005068012C01D8002038BDC0F307232B706870BF
S315080050780220F8E718B124B128700120F3E70020C8
S31508005088F1E72046EFE72DE9F843D0F8009000232A
S315080050988B758369002B72D005460C46C36AB3F133
S315080050A8FF3F2BD04FF00008464647460DE006F16D
S315080050B810012144C6F1FF02063140EA0840FFF70D
S315080050C8C6FF98B106444FF00008D9F80C3033F8F3
S315080050D8170060B10137B8F1000FE8D100F5205381
S315080050E89BB2B3F5006FE2D28046EEE70646B8F102
S315080050F8000F00D0002626440023B3750022134665
S3150800510805E009290ED0A018437201320B460A2B6E
S315080051180FD8E869591CC35C202BF7D0052BF0D1AA
S31508005128E523EEE70B2AEED8A0182E26467201329A
S31508005138E9E7A31800215972A37D63B9002A38D173
S31508005148511C22443F239375214400238B75EB6930
S315080051581B7B03B96372EB69DB7A03F03F0323729F
S31508005168E8691C30FFF7B3F82060E8691630FFF7DE
S31508005178A9F8E080E8691830FFF7A4F8A080BDE828
S31508005188F883102763189E7501320131A3185B7AD4
S31508005198002BD9D01E462E2BF3D0A3F1410080B29E
S315080051A81928EFD8E869007B3842EBD003F12006C6
S315080051B8E8E7082700210A46E8E7F8B50546066835
S315080051C8374617F8014B2046FFF79AF840B1B71C3F
S315080051D876783046FFF796F888B106EB0424A4B229
S315080051E814B920462F60F8BD40F2B511204601F0E3
S315080051F8C5F804460028F4D14FF0FF30F3E74FF01E
S31508005208FF30F0E72DE9F04F85B0074689460B6869
S3150800521803930368DD68002405E0FE2C00F21C8170
S3150800522825F81460013403A8FFF7C7FFB0F1FF3F5C
S3150800523800F01081B0F5803F03D3030C25F814302D
S31508005248013486B21F2E0DD92F2E0BD05C2E09D00D
S315080052587F2EE2D83146814804F03AF90028DCD096
S3150800526806209CE01F2E07D84FF00408039BC9F8B0
S31508005278003010E001330393039B1A782F2AF9D0DC
S315080052885C2AF7D01F2A02D94FF00008EEE74FF03C
S315080052980408EBE7013C44B104F10043013B35F847
S315080052A81330202BF6D02E2BF4D0002325F81430F3
S315080052B814B9062073E0013335F81320202AFAD0EA
S315080052C80BB92E2A01D148F0030844B104F100426B
S315080052D8013A35F812202E2A01D0013CF5E74FF09D
S315080052E820323A627A62C7F827204FF0080B4FF047
S315080052F8000ACDF800A003F1010935F8136056B382
S31508005308202E1BD02E2E17D0DA451BD24C4519D085
S315080053187F2E54D82EB13146514804F0D9F80028C2
S3150800532879D048F003085F2607EB0A0383F820605C
S315080053384B460AF1010ADEE74C45E5D048F0030872
S315080053484B46D8E7BBF10B0F2CD04C4501D048F09B
S3150800535803084C4529D297F82030E52B71D0BBF1C4
S31508005368080F72D0009A02F00C030C2B03D002F037
S315080053780303032B01D148F0020818F0020F0BD1DA
S31508005388009B13F0010F01D048F01008009B13F09A
S31508005398040F01D048F0080887F82B80002005B0CC
S315080053A8BDE8F08F48F00308D5E7009B9B00DBB201
S315080053B8009323464FF00B0B4FF0080A9BE748F07B
S315080053C80203019340F2B511304600F0B7FF0646CE
S315080053D810F0800F06D000F07F06224B9E5DDDF8A0
S315080053E8048097E7FF2813D90BF1FF3353450AD9E9
S315080053F8C0F3072307EB0A0282F820300AF1010AEC
S31508005408DDF8048090E748F003084B46DA4672E769
S31508005418DDF804807EE7A6F141039BB2192B03D871
S31508005428009B43F002030093A6F161039BB2192B74
S315080054383FF67AAF009B43F001030093203EB6B2CD
S3150800544872E7052387F8203089E7009B9B00DBB2C3
S31508005458009387E70620A2E70620A0E788980008B1
S3150800546894980008689A00082DE9F04781460F467F
S3150800547801F11A00FEF726FFC8BB3E7806F03F067C
S31508005488013E06EB460306EB83064FF001080025A6
S3150800549806E000202CE04FF6FF7398422AD1013522
S315080054A80C2D18D8174B585D3844FEF70BFF0446E1
S315080054B8B8F1000FEFD0FF2EEBD800F075FF804645
S315080054C806F1010A39F8160000F06EFF8045E0D1AA
S315080054D8A0465646E3E73B7813F0400F0CD0B8F1E0
S315080054E8000F0BD039F8163053B9012000E0002018
