S01D000062696E2F6F70656E626C745F73746D3332663432392E737265638E
S31508000000000003207D020008CD020008CD0200088A
S31508000010CD020008CD020008CD020008000000004D
S31508000020000000000000000000000000CD020008EB
S31508000030CD02000800000000CD0200083D3200088D
S31508000040CD020008CD020008CD020008CD02000846
S31508000050CD020008CD020008CD020008CD02000836
S31508000060CD020008CD020008CD020008CD02000826
S31508000070CD020008CD020008CD020008CD02000816
S31508000080CD020008CD020008CD020008CD02000806
S31508000090CD020008CD020008CD020008CD020008F6
S315080000A0CD020008CD020008CD020008CD020008E6
S315080000B0CD020008CD020008CD020008CD020008D6
S315080000C0CD020008CD020008CD020008CD020008C6
S315080000D0CD020008CD020008CD020008CD020008B6
S315080000E0CD020008CD020008CD020008CD020008A6
S315080000F0CD020008CD020008CD020008CD02000896
S31508000100CD020008CD020008CD020008CD02000885
S31508000110CD020008CD020008CD020008CD02000875
S31508000120CD020008CD020008CD020008CD02000865
S31508000130CD020008CD020008CD020008CD02000855
S31508000140CD020008CD020008CD020008CD02000845
S31508000150CD020008CD020008CD020008CD02000835
S31508000160CD020008CD020008CD020008CD02000825
S31508000170CD020008CD020008CD02000800000000EC
S31508000180CD020008CD020008CD020008CD02000805
S31508000190CD020008CD020008CD020008CD020008F5
S311080001A0CD020008CD020008CD020008C0
S315080001AC53B94AB9002908BF00281CBF4FF0FF31C4
S315080001BC4FF0FF3000F00CB8ADF1080C6DE904CE29
S315080001CC08F01AFFDDF804E0DDE9022304B07047F5
S315080001DC704700BF034613F8012B002AFBD1181AE7
S315080001EC013870470348044B834202D0034B03B1D2
S315080001FC18477047CC000020CC00002000000000F7
S3150800020C0548064B1B1AD90F01EBA301491002D05E
S3150800021C034B03B118477047CC000020CC000020D4
S3150800022C0000000010B5064C237843B9FFF7DAFF37
S3150800023C044B13B10448AFF300800123237010BD9F
S3150800024CE0000020000000005493000808B5054B98
S3150800025C1BB105490548AFF30080BDE80840FFF718
S3150800026CCFBF00BF00000000E40000205493000834
S3150800027CDFF834D0002103E00C4B5B5843500431B3
S3150800028C0B480C4B42189A42F6D30B4A02E0002351
S3150800029C42F8043B094B9A42F9D300F013F809F0DB
S315080002AC21F802F091FE704700000320049700081D
S315080002BC40000020CC000020E0000020D056002092
S315080002CCFEE70000054BD3F8882042F47002C3F809
S315080002DC88204FF000629A60704700BF00ED00E07E
S315080002EC30B484B01F4B1D78002D38D11E4BD3F873
S315080002FC102A0192D3F8142A0292D3F8183A0393C7
S3150800030C184B01221A702846294615E03732D2B204
S3150800031C164C62540131C9B20133DBB2012B09D830
S3150800032C03F110026A4412F8102C092AEED830325E
S3150800033CD2B2EDE70130C0B20B280DD800F110038C
S3150800034C6B4413F80C3C1A098DF8002003F00F03C4
S3150800035C8DF801302B46E1E7044B00225A5404B0C1
S3150800036C30BC7047FC0000200070FF1F54000020B2
S3150800037C00487047509500080048704730950008AB
S3150800038C004870470C950008012918D108B5944601
S3150800039C1378C3F34113022B01D0002008BD537800
S315080003AC012B01D00020F9E79388072B01D00020F8
S315080003BCF4E79E23034A614606F022FDEEE7012088
S315080003CC704700BF6C94000810B50446FFF788FF09
S315080003DC6CB9134B1B681A88124B5A800120431CA4
S315080003EC5B009BB20F4843F44073038010BD032C8B
S315080003FC14D80B4B53F824402046FFF7EBFEC0B23B
S3150800040C1F2800D91F20002305E05A1CE15C054B68
S3150800041C23F81210D3B29842F7D8E0E70020E5E7A4
S3150800042C440000200001002008B503F0FBFC08BDC1
S3150800043C0023072B13D801229A400A4909680A4255
S3150800044C02D00133DBB2F4E70A4306490A604FF4DB
S3150800045CC46202FB03F02030034B1844704700209B
S3150800046C704700BF600D0020800D00200022072A6F
S3150800047C14D84FF4C46302FB03F3203308490B4426
S3150800048C834202D00132D2B2F1E7012303FA02F217
S3150800049C04490B6823EA02030B607047704700BFD8
S315080004AC800D0020600D00200023012B11D801229D
S315080004BC9A40094909680A4202D00133DBB2F4E7CB
S315080004CC0A4305490A6003EB43035802034B1844D5
S315080004DC70470020704700BF4001002060010020D3
S315080004EC0023012B11D803EB4301084A02EB4122E6
S315080004FC824202D00133DBB2F3E701229A40044967
S3150800050C0B6823EA02030B607047704760010020F2
S3150800051C400100200020704708B503F083FC08BD95
S3150800052C08B513460A460146034801F0EAFB00B92A
S3150800053C08BD4FF0FF30FBE7E83F002008B513462F
S3150800054C0A460146034801F004FC00B908BD4FF001
S3150800055CFF30FBE7E83F002008B5024801F0ACFC89
S3150800056C002008BDE83F002070B59AB0642200212F
S3150800057C01A808F0AFFE264B08221A7000225A7002
S3150800058C27229A706922DA705B221A7145225A71EF
S3150800059C2048214A026043604FF4000383601F4BD6
S315080005ACC3601F4B03614FF4C063436101F018FA33
S315080005BC1C4C1D49204600F073F9204600F08FF9B3
S315080005CC204600F0F4F9042807D0052809D003289A
S315080005DC19D14FF48045002605E000254FF4006636
S315080005EC01E000252E460B4C01A9204601F0D7FB4D
S315080005FC0796069501A9204601F04FFC204601F006
S3150800060C65FA1AB070BD4FF480454FF40066EAE7F8
S3150800061CA03E0020E83F002000800240A83E0020B3
S3150800062C483F0020803E002070000020074A1178C1
S3150800063C074B19705178597091789970D178D9708F
S3150800064C1179197152795A71704700BFA03E002072
S3150800065CD4520020064B1A7802705A7842709A784F
S3150800066C8270DA78C2701A7902715B7943717047B5
S3150800067CA03E002030B583B00023019301A914488D
S3150800068C01F0C6FAF8B9019C0CB1002506E0002564
S3150800069C1AE004F12000FFF7E9FE2468A4B1A28849
S315080006AC002AF6D0E388002BF3D09A42F1D8B3F59A
S315080006BCBE6FEED804F120010648284408F036FE31
S315080006CCA3881D44E5E70025284603B030BD00BFC6
S315080006DCE83F0020E04C002030B593B038220021CA
S315080006EC04A808F0F7FD0023019302930393FFF780
S315080006FCDBFEE0B104460F4D2A880F4908F016FEBA
S3150800070C01942B88029300220392212104914FF421
S3150800071C400109910892059301AB06931194FA22AC
S3150800072C04A9064801F00FFA2046FFF7D9FE13B0C4
S3150800073C30BD00BFD44C0020E04C0020E83F002020
S3150800074C10B50446FFF774FE206010BD30B4A2F154
S3150800075C2004002542F8205C22F81A5C22F81C3C7E
S3150800076C026822B10A6814600C60026805E004602D
S3150800077CFAE7D1881944D1801268002AF9D130BC1D
S3150800078C70470000F0B58DB00023079308930993C2
S3150800079C0A930B9302683D4B9A4201D00DB0F0BDFB
S315080007AC00240094A3F590431A6B42F000721A6366
S315080007BC1A6B02F000720092009A01941A6B42F0BE
S315080007CC80621A631A6B02F080620192019A029493
S315080007DC1A6B42F000621A631A6B02F000620292FC
S315080007EC029A03941A6B42F004021A631A6B02F00B
S315080007FC04020392039A04941A6B42F001021A63D8
S3150800080C1A6B02F001020492049A05941A6B42F0D0
S3150800081C02021A631A6B02F002020592059A0694F2
S3150800082C1A6B42F040021A631B6B03F040030693E3
S3150800083C069B322307930227089703260A960B254D
S3150800084C0B9507A9124802F01BF8862307930897FD
S3150800085C09940A960B9507A90E4802F011F84FF45D
S3150800086C00530793089709940A960B9507A90A4803
S3150800087C02F006F84FF420530793089709940A9642
S3150800088C0B9507A9054801F0FBFF87E70080024096
S3150800089C0008024000000240000402400018024012
S315080008AC88B1CA6892B18A689AB10A69A2B10A680B
S315080008BC82604A68C260CA6842618A6802610A69CB
S315080008CC8261002070474FF0FF3070474FF0FF30C1
S315080008DC70474FF0FF3070474FF0FF30704770B5D8
S315080008EC82B00546002301934468002C4AD18368DC
S315080008FC03B1984720232B60002602E06FF004060C
S3150800090C01341F2C0DD86B6901AA12212046984771
S3150800091C0028F3DB019B03F01F03A342F0D12C60E4
S3150800092C002628681F2826D8002E37D12B694FF4A5
S3150800093C004200219847002833DB6B6901AA002185
S3150800094C2868984700282FDBAB6998470446019B13
S3150800095C13F4004F11D0AB699847001BB0F5FA7F1A
S3150800096C0DD86B6901AA0021286898470028EEDA89
S3150800097C6FF0040601E06FF002067EB903E06FF033
S3150800098C0106FAE70026AB6998470446AB6998470F
S3150800099C031BB3F5FA6FF9D901236B60304602B025
S315080009AC70BD6FF00306F9E76FF00406F6E710B5AD
S315080009BC82B0044600230193436901AA0121006809
S315080009CC9847002839DB636901AA012120689847F2
S315080009DC002835DB019B13F0040F34D0636901AA98
S315080009EC002120689847002830DB019B13F4805FB0
S315080009FC0CD103F40452B2F5045F2AD013F4005F49
S31508000A0C29D113F4807F28D004201DE0636901AA3C
S31508000A1C1F2120689847002821DB019B13F4805F6F
S31508000A2C20D003F01C03182B1ED0082B1ED0142B19
S31508000A3C01D0052008E0042006E06FF0040003E06E
S31508000A4C6FF0040000E0012002B010BD6FF0040046
S31508000A5CFAE70220F8E70320F6E70520F4E76FF03B
S31508000A6C0400F1E70620EFE70220EDE70320EBE7A9
S31508000A7C10B40A490C6924F440740C610C6944F4EA
S31508000A8C40740C610C6944F001040C610260BFF3FC
S31508000A9C6F8F43605DF8044B704700BF003C024003
S31508000AAC074B1A6922F440721A611A6942F40072E9
S31508000ABC1A611A6942F001021A610160704700BF97
S31508000ACC003C0240074B1A6922F440721A611A69F3
S31508000ADC42F480721A611A6942F001021A610180A5
S31508000AEC704700BF003C0240064B1A6922F440725C
S31508000AFC1A611A691A611A6942F001021A610170BF
S31508000B0C704700BF003C0240274BDB6813F0100F00
S31508000B1C07D0264AD36943F01003D361224B10221F
S31508000B2CDA60214BDB6813F0200F07D01F4AD36914
S31508000B3C43F00803D3611C4B2022DA601A4BDB689E
S31508000B4C13F0400F07D0194AD36943F00403D36155
S31508000B5C154B4022DA60144BDB6813F0800F07D074
S31508000B6C124AD36943F00203D3610F4B8022DA6031
S31508000B7C0D4BDB6813F4807F08D00C4AD36943F01D
S31508000B8C0103D361084B4FF48072DA60064BDB68BD
S31508000B9C13F0020F07D0054AD36943F02003D3613B
S31508000BAC014B0222DA607047003C024084000020A8
S31508000BBC094B1B69002B01DB00207047064B074AC3
S31508000BCC5A6002F188325A601B69002B01DB00203F
S31508000BDC70470120704700BF003C0240230167455F
S31508000BEC034A136943F0004313610020704700BFA2
S31508000BFC003C024038B50446144B0022DA6103F077
S31508000C0C19F90546124BDB6813F4803F0AD0B4F188
S31508000C1CFF3FF7D024B103F00DF9401BA042F1D9E0
S31508000C2C03200DE00A4BDB6813F0010F02D0084BCA
S31508000C3C0122DA60064BDB6813F4F97F01D1002038
S31508000C4C38BDFFF761FF0120FAE700BF84000020DA
S31508000C5C003C0240F8B516461B4A127E012A30D0D3
S31508000C6C04460D461F46184B01221A764CF2503094
S31508000C7CFFF7C0FF90B9ACB1012C18D0022C1BD0D1
S31508000C8C32463B462846FFF7F3FE4CF25030FFF748
S31508000C9CB1FF0E4A136923F0010313610A4B0022B4
S31508000CAC1A76F8BDF1B22846FFF71EFFEDE7B1B28A
S31508000CBC2846FFF707FFE8E731462846FFF7F0FE18
S31508000CCCE3E70220EDE700BF84000020003C024069
S31508000CDC002800F0E08170B582B00446036813F072
S31508000CEC010F3BD09F4B9B6803F00C03042B2CD0B5
S31508000CFC9C4B9B6803F00C03082B21D06368B3F557
S31508000D0C803F4FD0B3F5A02F52D0964B1A6822F4D9
S31508000D1C80321A601A6822F480221A606368002BE3
S31508000D2C50D003F087F805468E4B1B6813F4003F2A
S31508000D3C14D103F07FF8401B6428F5D90320B1E1E0
S31508000D4C884B5B6813F4800FD8D0864B1B6813F45A
S31508000D5C003F03D06368002B00F09F81236813F0D3
S31508000D6C020F54D07F4B9B6813F00C0F3ED07D4B73
S31508000D7C9B6803F00C03082B33D0E368002B68D070
S31508000D8C794B01221A6003F055F80546754B1B681A
S31508000D9C13F0020F54D103F04DF8401B0228F5D975
S31508000DAC03207FE16F4A136843F480331360B5E779
S31508000DBC6C4B1A6842F480221A601A6842F4803224
S31508000DCC1A60ABE703F036F80546664B1B6813F456
S31508000DDC003FC3D003F02EF8401B6428F5D9032036
S31508000DEC60E1604B5B6813F4800FC6D15D4B1B68E2
S31508000DFC13F0020F03D0E368012B40F05081594AD7
S31508000E0C136823F0F803216943EAC10313602368C6
S31508000E1C13F0080F42D063696BB3534B0122C3F826
S31508000E2C802E03F007F805464E4B5B6F13F0020F46
S31508000E3C34D102F0FFFF401B0228F5D9032031E11B
S31508000E4C484A136823F0F803216943EAC10313607F
S31508000E5CDDE7454B00221A6002F0ECFF0546414BD4
S31508000E6C1B6813F0020FD2D002F0E4FF401B0228D5
S31508000E7CF5D9032016E13C4B0022C3F8802E02F06C
S31508000E8CD9FF0546374B5B6F13F0020F06D002F0FD
S31508000E9CD1FF401B0228F5D9032003E1236813F080
S31508000EAC040F77D02F4B1B6C13F0805F33D10023C4
S31508000EBC01932C4B1A6C42F080521A641B6C03F08B
S31508000ECC80530193019B0125284B1B6813F4807FE3
S31508000EDC23D0A368012B34D0052B38D0214B1A6F9D
S31508000EEC22F001021A671A6F22F004021A67A36825
S31508000EFC002B3DD002F09EFF06461A4B1B6F13F0D3
S31508000F0C020F46D102F096FF801B41F288339842B5
S31508000F1CF3D90320C6E00025D6E7144A136843F430
S31508000F2C8073136002F086FF0646104B1B6813F499
S31508000F3C807FCED102F07EFF801B0228F5D90320D4
S31508000F4CB0E0084A136F43F001031367CFE7054B6C
S31508000F5C1A6F42F004021A671A6F42F001021A67F6
S31508000F6CC5E700BF00380240000047420070004049
S31508000F7C02F060FF0646524B1B6F13F0020F08D0A7
S31508000F8C02F058FF801B41F288339842F3D90320AC
S31508000F9C88E0EDB9A369002B00F08380484A926873
S31508000FAC02F00C02082A51D0022B17D0454B00220E
S31508000FBC1A6602F03FFF0446414B1B6813F0007F8C
S31508000FCC42D002F037FF001B0228F5D9032069E04E
S31508000FDC3B4A136C23F080531364DBE7394B00222E
S31508000FEC1A6602F027FF0546354B1B6813F0007F7F
S31508000FFC06D002F01FFF401B0228F5D9032051E04A
S3150800100CE369226A1343626A43EA8213A26A5208A4
S3150800101C013A43EA0243E26A43EA0263284A536006
S3150800102C284B01221A6602F005FF0446244B1B685E
S3150800103C13F0007F06D102F0FDFE001B0228F5D93D
S3150800104C03202FE000202DE000202BE0012B2BD0D5
S3150800105C1B4B5B6803F48001E269914226D103F0CD
S3150800106C3F02216A8A4223D1616A47F6C0721A4046
S3150800107CB2EB811F1ED103F44031A26A5208013A21
S3150800108CB1EB024F18D103F07063E26AB3EB026F4F
S3150800109C14D1002006E001207047012002E001204F
S315080010AC00E0002002B070BD0120FBE70120F9E743
S315080010BC0120F7E70120F5E70120F3E70120F1E726
S315080010CC003802400000474208B5334B9B6803F0D2
S315080010DC0C03042B5BD0082B5BD12F4B5A6802F000
S315080010EC3F025B6813F4800F2CD02B4B5868C0F367
S315080010FC88104FEA401CBCEB000C6EEB0E0E4FEA48
S3150800110C8E1343EA9C634FEA8C11B1EB0C0163EB2B
S3150800111C0E03DB0043EA5173C90011EB000C43F1D3
S3150800112C0003590200234FEA4C2041EADC51FFF731
S3150800113C37F8194B5B68C3F3014301335B00B0FB0B
S3150800114CF3F008BD144B5868C0F388104FEA401CDE
S3150800115CBCEB000C6EEB0E0E4FEA8E1343EA9C6347
S3150800116C4FEA8C11B1EB0C0163EB0E03DB0043EA7F
S3150800117C5173C90011EB000C43F1000399020023CB
S3150800118C4FEA8C2041EA9C51FFF70AF8D1E703484D
S3150800119CD7E70348D5E700BF0038024000127A00AB
S315080011AC0024F400002800F09B8070B50D46044618
S315080011BC4F4B1B6803F00F038B4208D2CBB24C4A39
S315080011CC1370136803F00F038B4240F08B8023686F
S315080011DC13F0020F17D013F0040F04D0454A936886
S315080011EC43F4E0539360236813F0080F04D0414A84
S315080011FC936843F4604393603E4A936823F0F00384
S3150800120CA1680B439360236813F0010F32D063680F
S3150800121C012B21D09A1E012A25D9364A126812F0BA
S3150800122C020F61D033498A6822F0030213438B609C
S3150800123C02F000FE06462F4B9B6803F00C0362680F
S3150800124CB3EB820F16D002F0F5FD801B41F2883302
S3150800125C9842F0D9032042E0264A126812F4003F5D
S3150800126CE0D101203BE0234A126812F0007FD9D165
S3150800127C012034E01E4B1B6803F00F03AB4207D961
S3150800128CEAB21B4B1A701B6803F00F03AB422DD145
S3150800129C236813F0040F06D0164A936823F4E05318
S315080012ACE1680B439360236813F0080F07D0114AC3
S315080012BC936823F46043216943EAC1039360FFF7FB
S315080012CC03FF0C4B9B68C3F303130B4AD35CD84040
S315080012DC0A4B18600A4B186801F0A8FC002070BD70
S315080012EC012070470120FAE70120F8E70120F6E70C
S315080012FC003C02400038024074930008400000206D
S3150800130CA8000020014B1868704700BF4000002059
S3150800131C034B9B68C3F30313024AD35CD84070474C
S3150800132C0038024074930008034B9B68C3F382236E
S3150800133C024AD35CD8407047003802406C930008C8
S3150800134C034B9B68C3F34233024AD35CD8407047BD
S3150800135C003802406C9300080F4B5B6803F480035B
S3150800136C23B90E4B082803D0002070470C4BF9E71D
S3150800137C094A516801F03F01B3FBF1F05368C3F316
S3150800138C881303FB00F05368C3F3014301335B0076
S3150800139CB0FBF3F0704700BF003802400024F4009D
S315080013AC00127A0008B5084B9B6803F00C03042B53
S315080013BC05D0082B05D10820FFF7CEFF08BD03483A
S315080013CCFCE70348FAE700BF0038024000127A002F
S315080013DC0024F40010B50446FFF7E4FF2060FFF77D
S315080013EC97FF6060FFF7A0FFA0606068FFF7A8FF93
S315080013FCE06010BD2DE9F04182B00546002301934B
S3150800140CD0F8688008F1120350F82340C66E0127FD
S3150800141C14E001A8FFF794F9019B13B12362A360AA
S3150800142C11E000270FE06B6943F48043636015E015
S3150800143C03F1120255F82240013E9846CEB1C7B1C7
S3150800144C236A002BE5D0002FF8D0AB6D002BEAD120
S3150800145C6B6943F0004343F480436360236843F0AD
S3150800146C0043236008F10103032BE1D9A8F1030318
S3150800147CDEE7EB6EB34211D008F1030303F0030366
S3150800148CBFF35F8F2A6903EB830302EBC3022B6856
S3150800149C03F580539A60C5F86880EE6602B0BDE81D
S315080014ACF08100005079137943EA002307480B5062
S315080014BCD07893781B0443EA0063507843EA0023F8
S315080014CC12781343024A8B50704700BF4080024083
S315080014DC4480024030B4002208E0C468DC6051F84D
S315080014EC0C3043F4400341F80C300132032A1FD860
S315080014FCC16802EB82034FEAC30C01EBC303002459
S3150800150C41F80C405C609C60DC60941D40F824300B
S3150800151C51F80C4044F4801441F80C40022ADCD8EB
S3150800152C541C04EB8404C56805EBC404DC60D6E7DC
S3150800153C00238362C268036803F580531A6130BCC2
S3150800154C704710B4002202E00169D9600132032AFF
S3150800155C28D8046902EB82034FEAC30C04EBC303D5
S3150800156C002144F80C1059609960D96019625962C7
S3150800157C4FF0004144F80C10416941F48041596020
S3150800158C596821F00041596002F1120140F82130E6
S3150800159C022AD9D80469511C01EB810104EBC10458
S315080015ACDC60D3E70023C36503668366C36683657D
S315080015BC0269036803F58053DA605DF8044B7047DB
S315080015CCF0B5856A00EB85039B698C681E68002E4E
S315080015DCC0F2B3802E1D00EB8606F669002E40F08D
S315080015ECAE8026689E605E686FF30C0667683E439D
S315080015FC5E600E6816F0010F05D01E6826F44006CC
S3150800160C4F693E431E600E6816F0200F05D01E6803
S3150800161C26F040660F693E431E60096811F0040FF8
S3150800162C03D0196841F080011960196841F080519E
S3150800163C19602F4600264FF0010E27E0196821F095
S3150800164C804119602EE000EB8C039B691968002910
S3150800165C30DB0CF1040100EB8101C96951BB196837
S3150800166C21F0805119600EF1010EA4682168996069
S3150800167C59686FF30C016768394359600136BFF333
S3150800168C5F8F196841F0004119606746A16851B32C
S3150800169C196821F000511960002ACFD0196841F059
S315080016AC8041196007F1010CBCF1030FCBD9A7F1E6
S315080016BC030CC8E700EB85039969002204E000EBEC
S315080016CC8301896901321D4672450AD2BFF35F8FC1
S315080016DC0B6823F000430B606B1C032BEFD9EB1E36
S315080016ECEDE70220F0BD1AB31A6842F080421A6080
S315080016FC1A6842F000521A6000EB8505AA69BFF316
S3150800170C5F8F136843F000431360C26B3B1D00EBFD
S3150800171C8303DA618762EFF31082012383F310885F
S3150800172C036C33440133036482F310880020D9E731
S3150800173C1A6822F080421A60DAE70220D2E7022001
S3150800174CD0E7000070B505460C46026813683C499C
S3150800175C1940A37B5B06207C002861D14FF400005E
S3150800176C0343607C00285DD14FF480000343A068D6
S3150800177C0343E07F43EA004360690343A07F0028E4
S3150800178C52D14FF400500343207F43EA0033A0693B
S3150800179C0343207943EA802394F82000002845D196
S315080017AC4FF400700343E07B43EAC013606A0343BB
S315080017BC94F8280043EA00130B4313602B681E6841
S315080017CC012001F073FA2B681E6029688A6922F0D9
S315080017DCBE021204120CA36C1B0494F84C0038BB02
S315080017EC80200343206D034394F85500012821D02B
S315080017FC0020034394F8560001281DD0002003430B
S3150800180C94F85400012819D00020034313438B6124
S3150800181C2B689C69012001F049FA2B689C6170BD04
S3150800182C00209DE70020A1E70020ACE70020B9E7DF
S3150800183C0020D6E70820DCE70420E0E70220E4E7EE
S3150800184C0F8120FD70B505460C46026802F58053DB
S3150800185C9B692B491940237B002B4DD14FF0806394
S3150800186C607B43EA4063607F002847D14FF48010C1
S3150800187C0343A07B43EA405360690343207F43EA52
S3150800188CC013A07F43EA8013206A034394F824000C
S3150800189C43EA80030B4302F5805293612B6803F5E8
S315080018AC80539E69012001F001FA2B6803F58053D9
S315080018BC9E612279A36843EA4263A26913432269AB
S315080018CC134394F8252043EAC213A26A43EA820317
S315080018DC226813432A6843F4000302F58052136006
S315080018EC2B6803F580531C68012001F0DFF92B687F
S315080018FC03F580531C6070BD0023B1E70020B7E7E1
S3150800190C233FDEF870B5A4B0064601258DF83C5089
S3150800191C8DF83D5000240D948DF84B408DF84A50A7
S3150800192C8DF848408DF83A508DF830508DF84C406B
S3150800193C8DF83B4014948DF854401D948DF87840DE
S3150800194C1F948DF882408DF880404FF48043109395
S3150800195C4FF4006311938DF881400BA9FFF7F2FE43
S3150800196C8DF80C508DF80D508DF81D508DF80E50C5
S3150800197C05948DF81C408DF81E4008948DF824505B
S3150800198C8DF804504FF4803302934FF4800306937A
S3150800199C4FF4005304938DF825500A940094694625
S315080019AC3046FFF74FFF24B070BD10B582B0044621
S315080019BC00230193036803F580539A6942F4801255
S315080019CC9A61036803F580539B690193012001F022
S315080019DC6DF92368019A03F580539A6102B010BD1C
S315080019EC00286CD030B583B00446D0F88430002B70
S315080019FC34D000230193334B5A6C42F480425A6418
S31508001A0C5B6C03F480430193019B2F4B5A6822F4B9
S31508001A1C00025A605A68A1680A435A605B682368D0
S31508001A2C03F580531A6842F001021A6002F002FAB2
S31508001A3C0546236803F580531B6813F0010F13D072
S31508001A4C02F0F8F9401BB0F5FA7FF2D90423C4F872
S31508001A5C8830E023C4F8843001202EE02023C0F817
S31508001A6C8430FEF78FFEC4E72046FFF74BFF20466F
S31508001A7CFFF730FD2046FFF764FD6268002120461B
S31508001A8CFFF710FD2268D36B43F40273D363226805
S31508001A9CD2F80C3143F4003343F06003C2F80C312E
S31508001AAC2268D2F8103143F40313C2F8103100201F
S31508001ABCC4F888001023C4F8843003B030BD012064
S31508001ACC704700BF003802400038014038B5D0F8DE
S31508001ADC8430102B01D0012038BD04462023C0F8D1
S31508001AEC84300423C366FFF785FC2268136843F029
S31508001AFC0803136023681D68012001F0D7F82368D2
S31508001B0C1D602268136843F00403136023681D687C
S31508001B1C012001F0CBF823681D602046FFF745FF2E
S31508001B2C236803F580539A6942F400529A61236834
S31508001B3C03F580539A6942F002029A614023C4F86D
S31508001B4C84300020C8E7F8B5044631B11546D4F8F8
S31508001B5C8430402B09D00120F8BDD0F8883043F0EA
S31508001B6C0103C0F888300120F6E700222046FFF76B
S31508001B7C27FD002835D1BFF34F8FA36A9A1D54F859
S31508001B8C22605A1CA262032A01D9033BA362A26AE9
S31508001B9C2368063254F8222003F580535A6002F063
S31508001BAC49F907463368002B30DA236803F5805267
S31508001BBC526912F4005F1CD1B5F1FF3FF2D002F066
S31508001BCC39F9C01BA84201D8002DEBD1D4F88830BE
S31508001BDC43F00403C4F888304FF0405333600120B7
S31508001BECBAE7D4F8883043F00203C4F888300120E9
S31508001BFCB2E7D4F8882042F00802C4F8882003F526
S31508001C0C80535B69C4F88C300120A5E70020A3E754
S31508001C1C2DE9F84F044681B18A46D0F88430402B1A
S31508001C2C6CD1C76D07F1120350F82350C36EC3F17C
S31508001C3C04094FF00008464634E0D0F8883043F0E3
S31508001C4C0103C0F88830012059E02B6813F4007F93
S31508001C5C02D00023236663662B68C3F30D4B2B68EF
S31508001C6C13F4807F03D02B6823674FF00108AA680A
S31508001C7C2A625B4604F1800104F17C00FEF766FDDE
S31508001C8C236E01332366636E5B44636600232B6203
S31508001C9C7B1C032B00D9FB1E03F1120254F82250AD
S31508001CAC01361F462B68002B14DB4E4512D2B8F1B1
S31508001CBC000F0FD12B6813F4807F03D0EB69A36751
S31508001CCCAB6963672B6813F4007FBED1E36F002BF7
S31508001CDCBBD1DDE7E36E3344E3662BB9E765B8F1B0
S31508001CEC000F05D101200AE02046FFF783FBF5E734
S31508001CFCE36FCAF800300020E06700E00120BDE879
S31508001D0CF88FF8B505461E460068036903F01C03F0
S31508001D1CC90289B21943940104F4F8640C4344F0DB
S31508001D2C0104046102F086F8074601E02B681C6979
S31508001D3C14F0010F07D002F07DF8C01BB0F5803FF8
S31508001D4CF4D3012004E02B685B699BB23360002056
S31508001D5CF8BD70B505460668306900F01C00C90266
S31508001D6C89B20143940104F4F8640C4344F0030467
S31508001D7C9BB273612B681C6102F05CF8064601E0A5
S31508001D8C2B681C6914F0010F07D002F053F8801B5E
S31508001D9CB0F5803FF4D3012000E0002070BD002987
S31508001DAC79D002681268C2F3001281F828200268FA
S31508001DBC126802F060024A620268126812F4007F26
S31508001DCC0CBF0122002281F8202002681268C2F397
S31508001DDC0042CA770268126812F4005F0CBF01222F
S31508001DEC00228A7702681268C2F300320A77026800
S31508001DFC126802F400628A610268126802F4804270
S31508001E0C4A610268126812F4800F0CBF0122002284
S31508001E1C4A740268126812F4000F0CBF01220022E1
S31508001E2C0A7402681268C2F3C012CA73026812688E
S31508001E3C02F460228A6002681268C2F380220A7170
S31508001E4C02681268C2F340628A7302689269C2F326
S31508001E5C400281F854200268926912F0800F0CBF78
S31508001E6C0122002281F84C200268926902F03002A5
S31508001E7C0A6502689269120C8A6402689269C2F34E
S31508001E8C800281F8562002689269C2F3C00281F872
S31508001E9C5520002070470120704751B108B5D0F87D
S31508001EAC8430102B01D0012008BDFFF74BFC002015
S31508001EBCFAE701207047000038B5054603681C6927
S31508001ECC24F01C04FFF71EFA0C4B984204D844F075
S31508001EDC08042B681C6138BD094B984202D244F0A1
S31508001EEC0C04F6E7074B9842F3D9074B984202D8ED
S31508001EFC44F00404EDE744F01004EAE7BF0E1602BA
S31508001F0C00879303FFE0F5057FD1F00803461148D7
S31508001F1C026922F44072026103290ED0012913D0FA
S31508001F2C0C490A6942F400420A610A4A106940EAF5
S31508001F3C032040F4803010617047026942F4004275
S31508001F4C42F004020261F0E702490A6942F004020F
S31508001F5C0A61EAE7003C0240012905D0022906D0AD
S31508001F6C39B14FF4407104E04FF4807101E04FF43D
S31508001F7C00710B2800D904300B4B1A6922F44072F5
S31508001F8C1A611A690A431A611A6922F0F8021A6167
S31508001F9C1A6942EAC00242F002021A611A6942F44C
S31508001FAC80321A61704700BF003C0240164B1B6812
S31508001FBC13F4007F10D0144B1A6822F400721A60BE
S31508001FCC1A6842F400621A601A6822F400621A60EF
S31508001FDC1A6842F400721A600B4B1B6813F4806F74
S31508001FEC10D0094B1A6822F480621A601A6842F4F7
S31508001FFC80521A601A6822F480521A601A6842F4DF
S3150800200C80621A60704700BF003C0240F8B5234B4B
S3150800201C1B7E012B40D004460E46204B01221A7615
S3150800202C4CF25030FEF7E6FD074680BB4FF0FF3307
S3150800203C33602368012B16D0A568E368A26813449D
S3150800204CAB4222D9217C2846FFF786FF4CF250304A
S3150800205CFEF7D0FD124A136923F0FA0313610746FB
S3150800206C90B90135E9E76168207CFFF74FFF4CF220
S3150800207C5030FEF7BFFD0746094A136923F400439F
S3150800208C23F00403136100E03560FFF78FFF034B61
S3150800209C00221A763846F8BD0227FBE78400002092
S315080020AC003C02407047002800F0A18038B5044671
S315080020BC90F82030D3B12268136843F001031360FB
S315080020CC01F0B8FE054623685A6812F0010F10D1C4
S315080020DC01F0B0FE401B0A28F5D9636A43F40033B5
S315080020EC6362052384F82030012038BDFFF7DAFF38
S315080020FCE1E71A6822F002021A6001F09BFE054617
S3150800210C23685A6812F0020F0DD001F093FE401B9B
S3150800211C0A28F5D9636A43F400336362052384F805
S3150800212C20300120E1E7227E012A3DD01A6822F0F0
S3150800213C80021A60637E012B3BD02268136823F059
S3150800214C40031360A37E012B39D02268136823F051
S3150800215C20031360E37E012B37D02268136843F003
S3150800216C10031360237F012B35D02268136823F0E4
S3150800217C08031360637F012B33D02268136823F09E
S3150800218C04031360A368E268134322691343626964
S3150800219C13436268013A21681343CB6100206062DD
S315080021AC012384F82030A0E71A6842F080021A60EE
S315080021BCC0E72268136843F040031360C2E722683D
S315080021CC136843F020031360C4E72268136823F0EE
S315080021DC10031360C6E72268136843F008031360FC
S315080021ECC8E72268136843F004031360CAE70120A2
S315080021FC7047000090F82030013BDBB2012B05D963
S3150800220C436A43F4802343620120704730B5464B3A
S3150800221CD3F8002242F00102C3F80022D3F80022B8
S3150800222C22F47C52C3F80022D3F80022486A42EA08
S3150800223C0022C3F800224A6902F01F02012000FAA4
S3150800224C02F2D3F81C026FEA020C20EA0200C3F869
S3150800225C1C02CB69C3B9344BD3F80C020CEA000048
S3150800226CC3F80C028C884869CD6844EA05444830A2
S3150800227C43F830408C68088840EA04404C6904F1FD
S3150800228C480E03EBCE035860CB69012B1ED08B6925
S3150800229C002B33D12448D0F804320CEA0303C0F8D7
S315080022AC04320B698BBB2048D0F814320CEA0303B2
S315080022BCC0F814320B6A012B2ED01B4AD2F8003206
S315080022CC23F00103C2F80032002030BD164BD3F8B8
S315080022DC0C021043C3F80C028C8848690D6844EA52
S315080022EC0544483043F8304088894C698D6840EA83
S315080022FC0540483403EBC4035860C8E70A48D0F8CD
S3150800230C04321343C0F80432CBE70748D0F814322A
S3150800231C1343C0F81432CDE70349D1F81C321343E2
S3150800232CC1F81C32C9E700BF0064004070B504460A
S3150800233C90F82050EDB2012D06D0436A43F40023E1
S3150800234C43620125284670BD022380F820300268B6
S3150800235C136823F00103136001F06CFD064623682D
S3150800236C5B6813F0010F0CD001F064FD831B0A2B7C
S3150800237CF5D9636A43F400336362052384F8203085
S3150800238CE0E700256562DDE730B590F820C0046803
S3150800239CA4680CF1FF3C5FFA8CFCBCF1010F62D807
S315080023AC14F0E05F59D0C4F3016C012404FA0CF460
S315080023BC1C608B68002B3DD10D68CB68046843EA1A
S315080023CC45550CF118031B01E55003680C690CF113
S315080023DC180E03EB0E135C600B7D012B35D0D179EF
S315080023EC93791B0443EA0163517943EA012314796F
S315080023FC0168234301EB0C11C1F88C31D178937821
S3150800240C1B0443EA0163517843EA012311780268F5
S3150800241C0B4302EB0C12C2F8883102680CF1180C4B
S3150800242C4FEA0C1C52F80C3043F0010342F80C30FE
S3150800243C00201DE04C6843EAC403CC6823430CF126
S3150800244C1804240105682B51BFE7036803EB0E1328
S3150800245C596841F480715960C1E7436A43F4001323
S3150800246C4362012004E0436A43F48023436201205B
S3150800247C30BD90F82030013BDBB2012B01D900208E
S3150800248C704703689B6803EA8163B3EB816F01D0DD
S3150800249C012070470020704790F820C00CF1FF3CD3
S315080024AC5FFA8CFCBCF1010F00F2A58030B451B96F
S315080024BC0468E46814F0030F10D1436A43F400135C
S315080024CC436201207EE00468246914F0030F05D1E9
S315080024DC436A43F400134362012073E0056801F173
S315080024EC1B0424012C5904F004049460002C6BD1B1
S315080024FC056801F11B0424012C59640D1460046849
S3150800250C01F11B0C4FEA0C1C54F80C4004F00204A5
S3150800251CD4600468A444DCF8045015F0080F5BD0AA
S3150800252C08241461046801F11B0C04EB0C14646890
S3150800253CC4F307249461046804EB0C146468240C33
S3150800254C5461026802EB0112D2F8B8211A700268BB
S3150800255C02EB0112D2F8B821C2F307225A700268AC
S3150800256C02EB0112D2F8B821C2F307429A7002683C
S3150800257C02EB0112D2F8B821120EDA70026802EBDD
S3150800258C0112D2F8BC211A71026802EB0112D2F8B8
S3150800259CBC21C2F307225A71026802EB0112D2F867
S315080025ACBC21C2F307429A71026802EB0112D2F8F7
S315080025BCBC21120EDA71C1B90268D36843F0200344
S315080025CCD360002030BC7047056801F11B04240158
S315080025DC2C59E408546092E701F11B0504EB051429
S315080025EC646804F00F0414619CE70268136943F0ED
S315080025FC20031361E5E7436A43F480234362012011
S3150800260C7047000010B50446B2F5004F2FD04FF0B6
S3150800261C000C48184CEB0C0C40184CF1000C4FEA0B
S3150800262CCC0C4CEA507CC00040184FEA83024FEAA7
S3150800263C93734CF10001FDF7B3FD2449A1FB00236C
S3150800264C5B091A0192B24FF0640C0CFB13031B01C5
S3150800265C3233A1FB0313C3F34F1303F0F0010A44FF
S3150800266C92B203F00F0313449BB2A36010BD4FF054
S3150800267C000C48184CEB0C02401842F10002D20030
S3150800268C42EA5072C000401842F10001DA184CEBCD
S3150800269C0C03FDF785FD0D49A1FB00235B091A0107
S315080026AC92B24FF0640C0CFB1303DB003233A1FB24
S315080026BC0313C3F34F13590001F4F8710A4492B289
S315080026CC03F0070313449BB2A360CFE71F85EB51B6
S315080026DCC36813F4005F01D00120704730B585B08C
S315080026EC04460D46C36823F4164323F00C034A68C4
S315080026FCC9680A4329690A43A9690A431343C3608B
S3150800270CAB68026922F44052134303616B69426950
S3150800271C22F44072134343616846FEF75BFE1B4B7B
S3150800272C9C4216D01A4B9C4219D01A4B9C4218D074
S3150800273C194B9C4217D0194B9C4216D0184B9C42ED
S3150800274C15D0184B9C4214D0174B9C4213D0012021
S3150800275C1AE00399B9B12B687BB9012014E00299E8
S3150800276CF8E70299F6E70399F4E70299F2E7029972
S3150800277CF0E70299EEE70299ECE7AA692046FFF71B
S3150800278C41FF002000E0012005B030BD00100140DB
S3150800279C004400400048004000140140004C004032
S315080027AC0050004000780040007C0040002808DB00
S315080027BC0901C9B200F1604000F5614080F80013C8
S315080027CC704700F00F000901C9B2014B1954704744
S315080027DC14ED00E000B500F00700C0F1070CBCF1E1
S315080027EC040F28BF4FF0040C031D062B0FD9C31E6C
S315080027FC4FF0FF3E0EFA0CF021EA000199400EFA52
S3150800280C03FE22EA0E0241EA02005DF804FB0023ED
S3150800281CEEE70000074AD36823F4E0631B041B0C9D
S3150800282C000200F4E060034343F0BF6343F4003353
S3150800283CD360704700ED00E010B50446054BD86828
S3150800284CC0F30220FFF7C6FF01462046FFF7AEFF8E
S3150800285C10BD00BF00ED00E00138B0F1807F0BD24F
S3150800286C4FF0E0235861054AF02182F82310002026
S3150800287C986107221A6170470120704700ED00E045
S3150800288C00230F2B00F2F68070B582B066E08568DF
S3150800289C4FEA430E032404FA0EF425EA0405CC6821
S315080028AC04FA0EF42C438460446824EA02044A6849
S315080028BCC2F300129A40224342605DE0DC080834F9
S315080028CC50F8242003F00705AD004FF00F0E0EFA52
S315080028DC05FE22EA0E0E0A69AA4042EA0E0240F8E2
S315080028EC24205DE0092200E0002202FA0EF22A43B7
S315080028FC0234614D45F82420604A94686FEA0C024C
S3150800290C24EA0C054E6816F4801F01D04CEA04051F
S3150800291C5A4CA560E46802EA04054E6816F4001FD2
S3150800292C01D04CEA0405554CE560646802EA0405D6
S3150800293C4E6816F4003F01D04CEA04054F4C65600E
S3150800294C246822404D6815F4803F01D04CEA0402F5
S3150800295C4A4C226001330F2B00F28A8001229A40DE
S3150800296C0C6804EA020C32EA0404F3D14C6804F04D
S3150800297C0304013C012C8AD94A6802F00302032A93
S3150800298C09D0C4685D000322AA4024EA02048A68B6
S3150800299CAA402243C2604A6802F00302022A8DD07A
S315080029AC04684FEA430E032202FA0EF224EA0204E2
S315080029BC4A6802F0030202FA0EF2224302604A68DF
S315080029CC12F4403FC6D0002201922D4A546C44F4AE
S315080029DC80445464526C02F480420192019A9C0819
S315080029ECA51C254A52F8255003F0030E4FEA8E0E05
S315080029FC0F2202FA0EF225EA0205224A90423FF409
S31508002A0C73AF02F58062904222D002F58062904242
S31508002A1C20D002F5806290421ED002F58062904268
S31508002A2C1CD002F5806290421AD002F58062904260
S31508002A3C18D002F58062904216D002F58062904258
S31508002A4C14D002F5806290423FF44CAF0A224CE750
S31508002A5C01224AE7022248E7032246E7042244E712
S31508002A6C052242E7062240E707223EE708223CE712
S31508002A7C02B070BD704700BF00380140003C0140F1
S31508002A8C003802400000024000230F2B00F29B8006
S31508002A9CF0B52DE0092500E0002505FA0CF5A54250
S31508002AAC75D004685D004FF0030C0CFA05FC24EA9B
S31508002ABC0C0404604FEAD30E0EF1080E50F82E40A3
S31508002ACC03F00706B6000F25B54024EA050440F8BE
S31508002ADC2E40C46824EA0C04C460446824EA020242
S31508002AEC4260826822EA0C02826001330F2B69D895
S31508002AFC01229A4002EA010632EA0104F5D14FEAAC
S31508002B0C930E0EF10205304C54F8254003F0030CD5
S31508002B1C4FEA8C0C0F2505FA0CF73C402B4DA842B6
S31508002B2CBAD005F58065A84221D005F58065A8427E
S31508002B3C1FD005F58065A8421DD005F58065A8420D
S31508002B4C1BD005F58065A84219D005F58065A84205
S31508002B5C17D005F58065A84215D005F58065A842FD
S31508002B6C13D005F58065A84294D00A2595E701256A
S31508002B7C93E7022591E703258FE704258DE70525BD
S31508002B8C8BE7062589E7072587E7082585E7104C8F
S31508002B9C256825EA06052560656825EA0605656043
S31508002BACE56825EA0605E560A56825EA0605A56033
S31508002BBC054E0EF1020456F8245025EA070546F888
S31508002BCC24506EE7F0BD7047003801400000024003
S31508002BDC003C01400369194201D0012070470020CE
S31508002BEC70470AB18161704709048161704700001A
S31508002BFC10B50A4B0A4A1A6200241C62094A5A6220
S31508002C0C5C62094A1A611C61C1225A615C61012223
S31508002C1C9A619C6100F0ACFA204610BD003802405F
S31508002C2CFFC9FEF633797704FF17E02210B5044680
S31508002C3C0E4B1A784FF47A73B3FBF2F30C4A1068FE
S31508002C4CB0FBF3F0FFF708FE68B90F2C01D9012089
S31508002C5C0AE0002221464FF0FF30FFF7EDFD054B49
S31508002C6C1C60002000E0012010BD00BFA40000205D
S31508002C7C40000020A800002008B50B4B1A6842F447
S31508002C8C00721A601A6842F480621A601A6842F472
S31508002C9C80721A600320FFF7BDFD0020FFF7C6FF00
S31508002CAC00F0ACF9002008BD003C024038B50446DB
S31508002CBC01F0C0F80546B4F1FF3F02D0044B1B786F
S31508002CCC1C4401F0B7F8401BA042FAD338BD00BF2C
S31508002CDCA400002038B501F0ADF80446564A13682E
S31508002CEC43F001031360544B1B6813F0020F06D113
S31508002CFC01F0A0F8001B0228F5D9032038BD4E4D6B
S31508002D0C2B6843F080032B6001F094F804460023EB
S31508002D1CAB60494B9B6813F00C0F08D001F08AF88E
S31508002D2C001B41F288339842F3D90320E6E701F0F9
S31508002D3C81F80446404A136823F4502313603E4B2B
S31508002D4C1B6813F4003F06D001F074F8001B6428C6
S31508002D5CF5D90320D2E701F06DF80446364A136814
S31508002D6C23F080731360344B1B6813F0007F06D076
S31508002D7C01F060F8001B0228F5D90320BEE701F024
S31508002D8C59F804462C4A136823F0806313602A4BBF
S31508002D9C1B6813F0006F06D001F04CF8001B0228D4
S31508002DACF5D90320AAE701F045F80446224A136828
S31508002DBC23F080531360204B1B6813F0005F06D07A
S31508002DCC01F038F8001B0228F5D9032096E71A4BB0
S31508002DDC1A4A5A601A4AC3F88420C3F88820DA6853
S31508002DEC22F4F852DA60DA6822F40052DA60DA6809
S31508002DFC22F48042DA60DA6842F41F02DA60DA6892
S31508002E0C42F40012DA60DA6842F48002DA605A6F29
S31508002E1C22F001025A675A6F42F080725A67094BC0
S31508002E2C094A1A60094B1868FFF700FF00283FF497
S31508002E3C65AF012062E700BF00380240103000047D
S31508002E4C00300024400000200024F400A8000020D4
S31508002E5C70477047014B1880704700BFA040002090
S31508002E6C08B500F0DFFF0F4B1B68984210D30E4BCA
S31508002E7C1B7873B901220C4B1A7080210B48FFF78B
S31508002E8CB0FE00F0CFFF0A4B1B880344054A1360BB
S31508002E9C08BD0022044B1A7080210448FFF7A1FED6
S31508002EACEFE700BF9C400020984000200004024039
S31508002EBCA040002008B5002280210248FFF791FEA9
S31508002ECC08BD00BF0004024008B54FF40051054880
S31508002EDCFFF780FE012803D0FFF7ECFF012008BDA1
S31508002EEC0020FCE70008024008B56420FFF7B2FF93
S31508002EFC08BD08B5FFF7B4FF08BD704770477047A3
S31508002F0C00B595B03022002108A806F0E3F9002395
S31508002F1C039304930593069307930193244A116C20
S31508002F2C41F080511164126C02F080520192019AA0
S31508002F3C0293204B1A6842F440421A601B6803F449
S31508002F4C40430293029B012308934FF4A023099351
S31508002F5C02230E934FF480020F92082210924FF41C
S31508002F6CA872119212930723139308A8FDF7B0FEC3
S31508002F7C98B90F23039302230493002305934FF464
S31508002F8CA05306934FF480530793052103A8FEF725
S31508002F9C09F938B915B05DF804FB9721064800F015
S31508002FACB7F9E6E7A621044800F0B2F9F2E700BF44
S31508002FBC0038024000700040A893000808B5FFF7D7
S31508002FCC5BFEFFF79DFF08BD00B583B000248DF8A6
S31508002FDC0740FFF7F3FF00F06FF900F0A5F90DF1C4
S31508002FEC0701204600F080F99DF80730012B02D026
S31508002FFC00F0A8F9FCE700F0A7FAF9E72DE9F04389
S3150800300C91B000250195554C236C43F080532364ED
S3150800301C236C03F080530193019B0295636C43F474
S3150800302C80436364636C03F480430293029B0395A9
S3150800303C236B43F001032363236B03F00103039310
S3150800304C039B0495236B43F002032363236B03F062
S3150800305C02030493049B0595236B43F00403236333
S3150800306C236B03F004030593059B0695236B43F02A
S3150800307C08032363236B03F008030693069B079543
S3150800308C236B43F040032363236B03F0400307933E
S3150800309C079B0895236C43F480232364236C03F461
S315080030AC80230893089B0995236C43F000732364CB
S315080030BC236C03F000730993099B80260B96012356
S315080030CC0C930D950E95DFF8A4800BA94046FFF7D7
S315080030DCD7FB2A4631464046FFF783FD4FF400538B
S315080030EC0B930C950D950BA91D48FFF7C9FB4FF4CF
S315080030FC4079CDF82C9002270C970D9503260E9641
S3150800310C07230F930BA91748FFF7BAFBCDF82C909A
S3150800311C0C970D950E9609230F930BA94046FFF7AE
S3150800312CAFFB4FF4C0530B930C970D950E960A23D1
S3150800313C0F930BA90C48FFF7A3FB636B43F08003B3
S3150800314C63630A95636C43F480436364636C03F4AA
S3150800315C80430A930A9B11B0BDE8F08300380240FD
S3150800316C00080240000C0240000002400004024025
S3150800317C38B5FFF7AFFD2B4D002280212846FFF707
S3150800318C30FD80212846FFF77FFC4FF40051264876
S3150800319CFFF77AFC254C4FF400612046FFF774FCC8
S315080031AC4FF480512046FFF76FFC04F56054636BAF
S315080031BC23F0800363634FF480712846FFF764FCA1
S315080031CC4FF400712846FFF75FFC236C23F000735D
S315080031DC236405F500654FF480712846FFF754FC07
S315080031EC4FF400712846FFF74FFC236C23F4802319
S315080031FC2364236B23F008032363236B23F0040354
S3150800320C2363236B23F002032363236B23F001034D
S3150800321C2363236C23F080532364636C23F4804369
S3150800322C636438BD000402400008024000000240F6
S3150800323C704700000C4B1B68C3F3072252FA83F243
S3150800324CC3F3074010441B0E13FA80F080B2002318
S3150800325C05E0054A1A441279104480B20133372B1B
S3150800326CF7D9404280B270470000002008B5FFF736
S3150800327CE1FF044B9B8F984201D0002008BD01202A
S3150800328CFCE700BF0000002008B5054B1A68054B83
S3150800329C9A4201D0002008BDFFF7E8FFFBE700BF04
S315080032AC00000020A2E742CE08B5FFF7C3FF014B8A
S315080032BC988708BD0000002008B5FFF7E5FF68B938
S315080032CC074B084A1A60002304E0054A1A440021F1
S315080032DC11710133372BF8D9FFF7E6FF08BD00BF8C
S315080032EC00000020A2E742CE38B504460D46FFF78B
S315080032FCCBFF40B1372C05D835B1044B23441B7989
S3150800330C2B7000E0002038BD0020FCE700000020F0
S3150800331C08B500F005F8FCE708B5FFF7E5FD08BDAC
S3150800332C08B5FFF7E6FD08BD08B501F00FF9FFF77C
S3150800333CF3FF00F0EFFC01F023FA00F057F800F069
S3150800334C49F808BD08B5FFF7EBFF00F043FD00F0A0
S3150800335C61F800F001F808BD08B500F0EFF801288F
S3150800336C03D00B4B1B78012B00D008BD00F05AFD7F
S3150800337C084B1B68084A1268134403F5FA739842FB
S3150800338CF3D3034B00221A7001F0E4F8EDE700BF03
S3150800339CAC400020A4400020A8400020014B186037
S315080033AC704700BFA4400020014B1868704700BF47
S315080033BCA440002008B5054B1B78012B00D008BD8E
S315080033CC00F030FD024B1860F9E700BFAC40002056
S315080033DCA840002008B5044B01221A70FFF7EAFF33
S315080033ECFFF7BAFF08BD00BFAC40002010B500F0CF
S315080033FCFBFB00F015FE064C0223237000F042FD81
S3150800340C0023237001F0F0F80323237010BD00BFCE
S3150800341CAC00002000B583B00DF10701204800F080
S3150800342C7BFE012817D00DF107011D4800F064FD3D
S3150800343C012819D00DF10701194801F043F90128A3
S3150800344C1BD00DF10701164800F0B8F901281DD05C
S3150800345C03B05DF804FB134B02221A709DF8071093
S3150800346C0F4800F0E3FBDEE70E4B00221A709DF8BE
S3150800347C07100B4800F0DAFBDCE70A4B03221A703C
S3150800348C9DF80710064800F0D1FBDAE7054B042235
S3150800349C1A709DF80710024800F0C8FBD8E700BF61
S315080034ACB0400020AC00002008B501F0CFF808BDEC
S315080034BC38B504460D46124B1B78022B0DD0104B13
S315080034CC1B7873B10E4B1B78032B0FD00C4B1B7848
S315080034DC042B10D000F0A2FB38BDC9B200F0F6FDE3
S315080034ECEDE7E9B2204600F0EBFCEBE7E9B2204643
S315080034FC01F0B8F8EAE7E9B2204600F03BF9E9E74B
S3150800350CAC000020054B1B78022B03D0032B03D1F0
S3150800351C3F2070470820704781207047AC00002078
S3150800352C054B1B78022B03D0032B03D13F20704786
S3150800353C0820704781207047AC00002008B500F0C1
S3150800354C65FB00B1012008BD08B500F003F9034B73
S3150800355C04221A70FFF72EFF08BD00BFAC0000202E
S3150800356C10B5FDF787F8B8B900F05CFC464B1B683C
S3150800357C984209D303F5FA73434A13600024002CC6
S3150800358C37D00024002C4AD000F04CFC3F4B1B686B
S3150800359C984259D2002460E03D4A10803D4B9C89E4
S315080035AC4FF4006001F0CEF9844213D0394B9C8954
S315080035BC40F6060001F0C6F98442D5D102F02AF984
S315080035CC334B1B88002BCFD0FDF786F8304B0022E7
S315080035DC1A80C9E7012001F0EFF92D4B1B88002B47
S315080035ECC2D002F087F9FDF777F8294B00221A802A
S315080035FCBAE7AC22284B02FB0433284A1360022094
S3150800360C01F0DAF9224B1B880BB90134B7E702F043
S3150800361C71F9FDF761F81E4B00221A80F5E7204B6D
S3150800362C03EB84131F4A1360052001F0C5F9184BE8
S3150800363C1B880BB90134A5E702F05CF9FDF74CF8C9
S3150800364C134B00221A80F5E703F51C5310330F4A67
S3150800365C136002F0AFF89DE70134A4B9AC220E4B07
S3150800366C02FB04330D4A1360032001F0A5F9084B3D
S3150800367C1B88002BF0D002F03DF9FDF72DF8044B12
S3150800368C00221A80E8E710BD404100203C4100208A
S3150800369CD44C0020E04C0020204C0020CC4C0020C0
S315080036ACD84B0020184C0020224B1B7803B17047CE
S315080036BC10B582B0FCF758FF00F0B4FB00F5FA70B1
S315080036CC1D4B186000F0AEFB00F51C5010301B4B60
S315080036DC186001F0DFF80023ADF80430ADF80630B9
S315080036EC174A13805380174A13805380164A13803F
S315080036FC53804EF6030001F00DF9FCF797FF134CB7
S3150800370C2046FCF7A7FF0621204602F0D1FA02F064
S3150800371CEDFAFFF749FE42F20F73984204D90C4BA7
S3150800372C01221A7002B010BD42F21070FFF736FE75
S3150800373CF5E700BFAD000020404100203C410020C9
S3150800374CE4520020DC520020E052002034410020D4
S3150800375C3141002008B5054B00221A70044B1B7822
S3150800376C03B108BDFFF7A0FFFBE700BFAD000020C3
S3150800377C314100200F4B1B78012B00D0704730B419
S3150800378C0D4B1C68E5692562002307E01A1D10F825
S3150800379C03C0224482F820C001339BB29942F5D863
S315080037AC0431A4F8A610012384F8A8301D44E56159
S315080037BC30BC704731410020CC4C002008B5044B76
S315080037CC1B78012B01D0002008BDFFF7C9FEFAE7CC
S315080037DC3141002010B5284B1C68284B1B7813F078
S315080037EC400F29D113F0010F02D0002284F8A9202A
S315080037FC13F0040F03D094F8A930012B26D01F4BD5
S3150800380C1B7813F0080F03D094F8A830012B24D09A
S3150800381C1A4B1B7813F0020F17D0194B19888529E8
S3150800382C13D894F8A93083B9164B18680439C9B259
S3150800383C043000F0FBF908E00123E3610023A4F847
S3150800384CA63084F8A83084F8A93010BDB4F8A610B0
S3150800385C04F1200001F014FFD1E7002384F8A83006
S3150800386CB4F8A6100029D3D0012384F8A93004F1A2
S3150800387C200001F005FFCBE7CC4C0020D04C0020F3
S3150800388CD44C0020DC4C0020024B002283F882200A
S3150800389C704700BF44410020034BFE221A70587033
S315080038AC0222A3F886207047444100200378427808
S315080038BC43EA0223827843EA0243C07843EA00606B
S315080038CC70470870C0F307234B70C0F307438B701F
S315080038DC000EC8707047000010B5064C002384F81B
S315080038EC8130FFF7D1FFFF2323700123A4F886301C
S315080038FC10BD00BF44410020074BFF221A7000225E
S3150800390C5A7093F882109970DA701A715A710622E5
S3150800391CA3F88620704700BF4441002008B5002054
S3150800392CFFF7BAFF08BD000010B5094CFF2323703A
S3150800393C084BC4F8883000236370A370E370211D0C
S3150800394C0720FFF7BEFF0823A4F8863010BD00BF7A
S3150800395C444100206495000810B5064CFF232370DB
S3150800396C0430FFF7A3FFC4F888000123A4F88630B7
S3150800397C10BD00BF4441002008B53120FFF78CFF6D
S3150800398C08BD08B52020FFF787FF08BD38B5084CD9
S3150800399CFF23237000256570A570FFF7B3FDE07053
S315080039AC25716571A5710723A4F8863038BD00BF4B
S315080039BC4441002038B5FFF767FF0F4C012584F802
S315080039CC8150FF2323700023637010226270A3704A
S315080039DCFFF798FDE070FFF7A3FD2071FFF7A0FD38
S315080039ECC0F307206071A571E5710823A4F8863029
S315080039FC00F0C6FE38BD00BF4441002038B5044669
S31508003A0CFFF780FD6278904212D90B4DD5F88810D5
S31508003A1C681C00F0C5FDFF232B70D5F8883062783A
S31508003A2C1344C5F8883063780133A5F8863038BD59
S31508003A3C2220FFF731FFFAE74441002038B5044647
S31508003A4CFFF760FD6378984217D9201DFFF72EFF04
S31508003A5C01460C4DC5F888006278681C00F0A0FD7C
S31508003A6CFF232B70D5F8883062781344C5F8883054
S31508003A7C63780133A5F8863038BD2220FFF70CFF92
S31508003A8CFAE700BF44410020F8B50546174600245E
S31508003A9C06E015F8013B1C44E4B2FFF741FC31463D
S31508003AAC4E1E0029F5D13C600120F8BD30B583B017
S31508003ABC002501950B4CFF2323700430FFF7F6FE07
S31508003ACC014601AAD4F88800FFF7DEFF6070211DB5
S31508003ADC0198FFF7F6FEA570E5700823A4F8863062
S31508003AEC03B030BD4441002038B504460E4BD3F81C
S31508003AFC8850FFF707FD621C411E284600F044FE5D
S31508003B0C70B1094CFF232370FFF7FCFCD4F88830FE
S31508003B1C01380344C4F888300123A4F8863038BD2C
S31508003B2C3120FFF7B9FEFAE74441002010B50446E8
S31508003B3CFFF7E8FC01386378984216DD134BFF2231
S31508003B4C1A700122A3F88620617891B1A21C0F4B3A
S31508003B5CD3F8880000F018FE98B10C4AD2F88830D1
S31508003B6C61780B44C2F8883010BD2220FFF794FE0A
S31508003B7CFAE700F019FE0028F6D13120FFF78CFE83
S31508003B8CF2E73120FFF788FEEEE700BF444100203C
S31508003B9C10B50B4BD3F888400430FFF787FE014667
S31508003BAC204600F0F5FD30B1054BFF221A700122B4
S31508003BBCA3F8862010BD3120FFF76EFEFAE700BF8A
S31508003BCC4441002008B500F0C5FC034BFF221A70CF
S31508003BDC0122A3F8862008BD4441002008B589B205
S31508003BECFFF766FC08BD0000074B002283F881200E
S31508003BFCC3F8882083F88420A3F8862083F88320CA
S31508003C0C83F88220704700BF44410020024B93F88A
S31508003C1C810000B10120704744410020024B00226C
S31508003C2C83F88420704700BF4441002008B5037808
S31508003C3CFF2B24D0364A92F88120012A2BD1C93B76
S31508003C4C352B56D8DFE803F04055554F55554C43A0
S31508003C5C4946555555555555555555555555555515
S31508003C6C55555555555555555555555555555555EA
S31508003C7C5255312B282E5555553455373A3DFFF7A5
S31508003C8C99FE234B93F88430012B36D0204BB3F98D
S31508003C9C8610002935DC08BDFFF7B0FEF1E7FFF703
S31508003CACCDFEEEE7FFF758FEEBE7FFF7FFFEE8E77A
S31508003CBCFFF73AFEE5E7FFF731FEE2E7FFF71CFEF2
S31508003CCCDFE7FFF709FEDCE7FFF70EFFD9E7FFF79B
S31508003CDC2DFFD6E7FFF75AFED3E7FFF759FFD0E7D4
S31508003CECFFF770FFCDE7FFF747FECAE7FFF749FE78
S31508003CFCC7E72020FFF7D0FDC3E71020FFF7CCFD60
S31508003D0CC4E71846012380F88430FFF767FFC2E73B
S31508003D1C4441002082B01A4B5A6C42F001025A6494
S31508003D2C5A6C02F001020192019A164A12689968B5
S31508003D3CC1F342311448415CCA409B6813F4604F86
S31508003D4C1BD1012302FB03F3104A012111604FF624
S31508003D5CFF71D1625B090E49A1FB0313DB09013B19
S31508003D6C9362536943F0010353610A4B00211960AE
S31508003D7C526A094B1A8002B070470223E2E700BF69
S31508003D8C00380240400000206C93000800000140F7
S31508003D9CC55A7C0AD4410020D04100200C4B5A6AE3
S31508003DAC42F001025A625A6A22F001025A625A6CAD
S31508003DBC22F001025A644FF0E02300221A615A617C
S31508003DCC9A6103F550634FF000725A60704700BF52
S31508003DDC003802400F4B5B6A9BB20F4A11885B1A7C
S31508003DEC9BB2632B15D910B40C4AA2FB03235A09B0
S31508003DFC0B4C206800EB5310206002EB820303EB9C
S31508003E0C83039A0092B21144034B19805DF8044B54
S31508003E1C7047704700000140D04100201F85EB51C8
S31508003E2CD441002008B5FFF7D5FF014B186808BD2B
S31508003E3CD441002008B5FFF7F5FF08BD054B1B68F4
S31508003E4C13F0200F01D100207047024B5B680370FA
S31508003E5C012070470048004010B5094B5860FFF721
S31508003E6CE1FF00F10A04064B1B6813F0800F05D11D
S31508003E7CFFF756FAFFF7D6FFA042F4D910BD00BFDC
S31508003E8C0048004010B588B00C4CE36823F4005386
S31508003E9CE3604FF461430193002302930393049365
S31508003EAC0C2205920693079301A92046FEF710FCEF
S31508003EBCE36843F40053E36008B010BD00480040C3
S31508003ECC70B506460D46812904D82846FFF7C4FF67
S31508003EDC00240BE086210748FFF71AFAF5E7FFF7E7
S31508003EEC1FFA305DFFF7B8FF0134A4B2A542F6D825
S31508003EFC70BD00BFB093000870B5254B1C78BCB9D3
S31508003F0C2448FFF79BFF012801D0204670BD214BA2
S31508003F1C1B78013BDBB2802BF7D8FFF783FF1E4BD0
S31508003F2C18601E4B00221A70194B01221A70ECE706
S31508003F3C06460D46194B1B78013316481844FFF7ED
S31508003F4C7DFF0446012815D1144B1A780132D2B2DA
S31508003F5C1A70104B1B789A4201D00024D5E71049E9
S31508003F6C304600F01DFB0A4B00221A700B4B1B78CF
S31508003F7C2B70CAE7FFF756FF074B1B68C8339842E6
S31508003F8C03D90024024B1C70BFE70024BDE700BF11
S31508003F9C64420020E0410020DC410020D84100208A
S31508003FACE14100202DE9F04184B004460D46174640
S31508003FBC98466846FDF70EFA0299174BA3FB013192
S31508003FCC8909002301E00133DBB2112B1FD8134AF0
S31508003FDC12F8130002EB4302527800EB020C0CFBAE
S31508003FEC044CB1FBFCFE0CFB1E16002EEBD11FFA83
S31508003FFC8EFCA5F800C00CF1FF3C1FFA8CFCBCF536
S3150800400C806FE0D2387088F80020012000E000208C
S3150800401C04B0BDE8F08100BFD34D62106C95000862
S3150800402C70B58CB00023ADF82E308DF82D308DF888
S3150800403C2C300BAB0DF12D020DF12E014FF4FA704D
S3150800404CFFF7B0FF002835D01D4C1E4B236000250A
S3150800405C25766576A5760126E67625776577A560B5
S3150800406CE5609DF82D30013B1B0423619DF82C302F
S3150800407C013B1B056361BDF82E3063602046FEF7D5
S3150800408C12F80695079508964CF6E04301930295A7
S3150800409C4FF6E073039304230493059509960E23B0
S315080040AC0A9301A92046FEF7A5F82046FEF73EF925
S315080040BC0CB070BDB5210448FFF72AF9C4E700BF58
S315080040CC6842002000640040D893000810B588B0F8
S315080040DC024640F2E173029300230493059306917A
S315080040EC01AB02A90B48FEF74FF908B108B010BD91
S315080040FCFFF798FE00F1320401990648FEF7B9F964
S3150800410C0028F3D0FFF70CF9FFF78CFEA042F3D981
S3150800411CECE700BF6842002010B588B003460C4691
S3150800412C01AA00210848FEF7B7F950B9019A40F2DE
S3150800413C67639A4206D1039B23B9059B237001201A
S3150800414C00E0002008B010BD6842002038B50546CE
S3150800415C002401E00134E4B2142C15D8FFF7E0F87A
S3150800416C04EB4403094A52F82330AB42F2D804EB69
S3150800417C440102EB810252681344AB42EAD9034B61
S3150800418C03EB8103187A00E0FF2038BD90950008F0
S3150800419C08B5C1F3080353B903688B4209D040F834
S315080041AC041B4FF4007200F0FBF9012008BD002037
S315080041BCFCE70120FAE72DE9F0410746FCF7F8FC85
S315080041CC00247F2C15D83E6806EB840807EB84037D
S315080041DC5D68FFF7A5F82A46002341460220FCF73E
S315080041EC39FD804640B956F82430AB4206D1013425
S315080041FCE7E74FF0010801E04FF00008FCF7F0FC88
S3150800420C4046BDE8F081000038B50D460C4B984287
S3150800421C11D004460B4B994207D1094C2946204626
S3150800422CFFF7B6FF48B1204638BDFFF7C4FF002894
S3150800423CF4D10024F7E7044CF0E70024F3E700BFB9
S3150800424C9042002000C00008944400202DE9F0415B
S3150800425C06460C4617461D4621F4FF7828F0010839
S3150800426C0368B3F1FF3F07D0336843450AD1336877
S3150800427CE41A3444043414E04146FFF789FF002855
S3150800428CF2D120E041463046FFF7BEFF064600282D
S3150800429CEDD1002017E017F8013B04F8013B013D6E
S315080042AC10D0FFF73DF8311D611AB1F5007FF2D336
S315080042BC316801F500713046FFF7A6FF064620B1B6
S315080042CC041DE8E70120BDE8F0810020FBE70000AB
S315080042DC002312E0FFF724F82B68B3F1FF3F2CD12B
S315080042EC04350134B4EB960F03D214F0FF0FF3D157
S315080042FCF0E7012070BD0133DBB2142B1BD803EB9E
S3150800430C43010F4A02EB8102127A8242F3D170B54D
S3150800431C0B4A52F8215002EB8102566815F0030F2E
S3150800432C02D116F0030F04D04FF42E710548FEF790
S3150800433CEFFF0024D6E7002070470020DAE700BF1D
S3150800434C9095000800940008F0B587B004460E4610
S3150800435C0023009388420FD80125022C25D9172E45
S3150800436C27D8012D22D1002301930223059301237B
S3150800437C0493FCF71DFC03E00025EEE70134E4B2D8
S3150800438CB4420FD82046FFF7A3FF07460028F5D1FD
S3150800439CFEF7C6FF0394694601A8FDF737FE002809
S315080043ACECD03D46FCF71CFC00E00025284607B07F
S315080043BCF0BD0025FAE700004FF0FF33024A136000
S315080043CC024A1360704700BF9444002090420020B4
S315080043DC70B50D460139144B1B1A994201D90020A8
S315080043EC70BD04461646FFF7B1FEFF2813D02819F0
S315080043FC0138FFF7ABFEFF280DD024F4FF7222F02C
S3150800440C01020A4B9A4208D02B46324621460848E6
S3150800441CFFF71CFFE4E70020E2E72B46324621466D
S3150800442C0448FFF713FFDBE7FFFF1F0800C000086F
S3150800443C94440020904200204A1E0E4B1B1A9A42A6
S3150800444C01D90020704770B505460C46FFF77EFE6D
S3150800445C06462C44601EFFF779FE0146FF2E05D052
S3150800446CFF2805D03046FFF76FFF70BD0020FCE72C
S3150800447C0020FAE7FFFF1F0800B583B0002301935D
S3150800448C134B1B68B3F1FF3F20D0114A53680193B5
S3150800449C91680B440193D1680B44019311690B4441
S315080044AC019351690B44019391690B440193D269A9
S315080044BC13440193DA4301925B42019301AA042146
S315080044CC0448FFF785FF03B05DF804FB0120FAE703
S315080044DC90420020ACC100080A4B1A68596811446E
S315080044EC9A681144DA6811441A6911445A691144D4
S315080044FC9A690A44D3F8AC31D34201D000207047EC
S3150800450C0120704700C0000808B50C4B1B68B3F1B6
S3150800451CFF3F06D10A4B1B68B3F1FF3F07D10120B9
S3150800452C08BD0648FFF747FE0028F3D1F8E704480C
S3150800453CFFF741FE0028F3D00120F1E79042002056
S3150800454C944400200048704700C0000808B500F0E5
S3150800455C33F908BD10B500F01FF9C8B1FEF7B4FC65
S3150800456CC8B1FEF7A1FFFEF743FBFFF717FC00F0F7
S3150800457C17F920F0604020F07F00084B986000F097
S3150800458C0FF9446800F01AF9A047FEF7DDFF10BDD5
S3150800459CFEF7DAFFFBE7FEF7D7FFF8E700ED00E0DA
S315080045AC70B50D46044606E015F8013B04F8013BC8
S315080045BCFEF7B6FE3246531E9EB2002AF4D170BDE3
S315080045CC10B50446002001F057FF08B9002010BDAD
S315080045DC01222146002001F05FFF012801D00020AE
S315080045ECF5E70120F3E7000010B582B015484FF047
S315080045FCA0440460FEF72CFC134A536843F00203EC
S3150800460C5360A36B43F40013A363A36B23F4002337
S3150800461CA363A36B23F48023A36301238DF80430CF
S3150800462C00208DF8050001A902F05AFEFEF7BCFE23
S3150800463CB0F5FA6F01D302B010BD4FF4FA60FEF76D
S3150800464CADFEF8E7E04600200008005008B502F079
S3150800465C35FE03484FF0A0430360FEF7FAFB08BD8E
S3150800466CE046002010B582B004468DF80710CBB290
S3150800467C3F2B16D801220DF10701002001F020FF6F
S3150800468C012813D19DF807202146002001F018FFB8
S3150800469C9DF8073083420ED1002001F025FF02B0A9
S315080046AC10BD9F210648FEF733FEE3E7A321044815
S315080046BCFEF72EFEE6E7A6210148FEF729FEEBE7F4
S315080046CC2894000870B506460D46002004F02AFA10
S315080046DC00214FF0FF3003F0C1FA1C4B1C789CB933
S315080046EC1B48FFF76DFF012801D0204670BD184BFB
S315080046FC1B78013BDBB23E2BF7D8144B01221A7000
S3150800470C144B00221A70F0E7124B1B780133104831
S3150800471C1844FFF755FF0446012801D00024E4E7A6
S3150800472C0C4B1A780132D2B21A70094B1B789A4282
S3150800473C01D00024D9E708493046FFF731FF034B6F
S3150800474C00221A70034B1B782B70CEE7DC46002030
S3150800475C9C460020984600209D46002008B501205E
S3150800476CFEF7CBFB08BD08B50020FEF7C6FB08BD57
S3150800477C08B5FEF7C3FB08BD08B5FEF7C0FB08BDB8
S3150800478C08B5FFF719FE08BD08B5FFF721FE08BDE9
S3150800479C08B5FFF751FE08BD08B5FFF79DFE08BD25
S315080047AC08B5FFF7CFFE08BD08B5FFF765FE00B9DB
S315080047BC08BDFFF7A9FEFBE772B6704762B67047ED
S315080047CC013A0A4400E0023191420CD291F800C039
S315080047DC4B7803EB0C239BB2184480B28342F2D974
S315080047EC013080B2EFE700D070470B7800EB03205E
S315080047FC80B2B0EB032FF7D2013080B2F4E7000099
S3150800480C10B5C2780A44D2B2164CE270837803EB20
S3150800481C1123DBB2A37090F801C084F801C090F89C
S3150800482C00E084F800E0B3EB112F09D20CF1010C6F
S3150800483C5FFA8CF0607018B90EF1010E84F800E07E
S3150800484CC9B28A420CDA0133DBB2064A93703BB919
S3150800485C53780133DBB2537013B9137801331370E1
S3150800486C10BD00BFC84B002010B50146074C206888
S3150800487C0830FFF7C5FF2368054A11781972517875
S3150800488C597291789972D278DA7210BDCC4C002094
S3150800489CC84B00201A4B00221A7006E0194A002150
S315080048AC22F813100133164A1370154B1B78002B7C
S315080048BCF4D0134B00221A7008E0134AAC2101FB02
S315080048CC03220021517601330D4A13700C4B1B78C9
S315080048DC002BF2D00D4B4FF480621A80084B002245
S315080048EC1A7007E00A4A02EB831200219180013301
S315080048FC034A1370024B1B78002BF3D0704700BF8A
S3150800490CC74B00201C4C0020204C0020CC4B002010
S3150800491CD84B0020094B00221A7002E00133074AD3
S3150800492C1370064B1B7843B9054A32F81320002A34
S3150800493CF4D1034A22F8130070477047C74B00207E
S3150800494C1C4C0020030243EA102080B2704700007A
S3150800495C08B5142205490020FFF732FF10B1FFF7FE
S3150800496CF1FF08BD4FF6FF70FBE700BFEE4C0020C9
S3150800497C38B50D4D2B7C6C7C04EB0324A4B2143C8B
S3150800498CA4B22044082205F11A0180B2FFF718FFD9
S3150800499C224605F12201FFF713FF10B1FFF7D2FFEC
S315080049AC38BD4FF6FF70FBE7E04C002008B5062033
S315080049BCFFF7DEFF08BD000038B5984B1C680428C5
S315080049CC00F05781964B974A1360974A1360032851
S315080049DC59D0022800F0A280052800F03381934BA9
S315080049EC9B7B452B56D1914B1A7C5B7C03EB0220A7
S315080049FC8F49098888424DDC85B28D4B1D808B4BBF
S31508004A0C1B7D13F03F0F45D1884B5B7D002B41D1A5
S31508004A1C884B1C880CB95B884BB1844BDB8B9C424E
S31508004A2C38D1824B1A8C834B5B889A4232D1FFF76A
S31508004A3C8FFF4FF6FF7398422CD17C4BDB7D062BF0
S31508004A4C00F05C81112B00F08281012B22D1774B6F
S31508004A5C93F82230082B1DD1744B002283F82220A0
S31508004A6C9B8C4FF6F672934240F2788109336F4A63
S31508004A7C93846E4B5A8BDA839A8B1A845C836D4AB1
S31508004A8C52889A8336E1637E03F00F03032B01D118
S31508004A9C238A2BB10023664A1380674A137038BDE4
S31508004AAC654B08221A70FEF795FE634B1B7813F0BC
S31508004ABC200F40F0A58413F0100F40F0F6845F4ADF
S31508004ACC128882B113F0010F01D000232382238AA6
S31508004ADC002B40F0F784638A9A4201D9574A13800F
S31508004AEC564B1B8823820023E3764F4B1A684D4B93
S31508004AFC1A60524B1B881BB1238A002B40F0E684A4
S31508004B0C4D4B1B7813F0020FC4D0494B28221A8040
S31508004B1C464B102283F82F2000F07DBC484AD378E8
S31508004B2C0133DBB2D37063B993780133DBB293707C
S31508004B3C3BB953780133DBB2537013B9137801338D
S31508004B4C137000233A4A13803C4A1380637E072B62
S31508004B5C34D0052B32D0002B9CD0228A002A51D077
S31508004B6CA27E511EA176002A94D1E27E082A31D063
S31508004B7C591EC9B201292BD91046042A28BF04206C
S31508004B8C03218140A1760132E27603F00F03013B43
S31508004B9C072B3FF67FAF01A252F823F017500008F7
S31508004BACFB4B0008054C000857530008A14A00089F
S31508004BBC57530008A14A000857530008A37E01332F
S31508004BCCDBB2A376782B7FF465AF0023637661E7B7
S31508004BDC052AD1D100236376174B80221A70FEF76B
S31508004BECF9FD124B142283F82F2000F011BC0F4B41
S31508004BFC002283F82F200CE20F4B04221A70FEF7C2
S31508004C0CE9FD72E703F00F03032B7FF443AF0A4B5E
S31508004C1C08221A70FEF7DEFD47E700BFCC4C0020D1
S31508004C2C164D0020DC4C0020D84C0020E04C00200F
S31508004C3CD44C0020E4520020D04C0020D24C00204A
S31508004C4CD04B0020964B1B689B88002B3FF422AF59
S31508004C5C0023944A1360944A94490A6094490A605A
S31508004C6C944A1380944A1380944B08221A7001F0C4
S31508004C7C9BF9904B1A88002A3FF40CAF02F11C01E1
S31508004C8C89B28D4B19808E4B080A1874597484494D
S31508004C9C0968087A98751120D875083290B2C2F34B
S31508004CAC072242EA0022DA8400221A858A885A8464
S31508004CBCCA889A84834A1088588352889A830A88A1
S31508004CCCDA834A881A843633784A13607C4C45232F
S31508004CDCA3730022E273627522757B490B88013334
S31508004CEC9BB20B80190AA174E3742283FFF730FE7A
S31508004CFCC0432083714B00221A70D0E6FFF756FE8C
S31508004D0C4FF6FF7398427FF4C5AE704C6F4B9C42BE
S31508004D1C68D96B4B93F82F3003F03F03022B40F006
S31508004D2C3682674B998C6A4B19806A4B00221A702B
S31508004D3C684B1B78002B40F02A82674A32F81320FE
S31508004D4C914200F0CF800133624A1370F0E71C3DA4
S31508004D5C594B1D80524B614A1A6012E00833584A67
S31508004D6C938486E61A880AB9598829B34FF6FF71CF
S31508004D7C8A421ED05249498B8A422DD04033484A22
S31508004D8C1360474B1B68564A9342BFF483AE9A8806
S31508004D9C002AF3D04A49898C8A42EFD1DA88002A4C
S31508004DACE0D04749498C8A42DCD0B2F58A4FE5D126
S31508004DBCD8E758888842DDD100233A4A13603F4A1F
S31508004DCC02211170384A39490A6039490A60394A48
S31508004DDC138001F0E9F84CE7394A918B5A889142CD
S31508004DECCCD1E9E7617E21B1354B9A8CA3889A42DE
S31508004DFC01D0AC348AE7324B5A8CE3889A42F8D104
S31508004E0C2F4B5A8B23889A42F3D12D4B9A8B638856
S31508004E1C9A42EED1234B1C60284B00221A70284B61
S31508004E2C93F82F2012F0040F40F00D81244B93F8C1
S31508004E3C2E301B099B0027480370EB1A9BB2143BB8
S31508004E4C9BB21D48038001F00F01022900F0038173
S31508004E5C13B912F0030F0BD0194BD98C238999422D
S31508004E6C40F08B83164B198D6389994240F08583E4
S31508004E7C12F0100F03D0218A002940F0F280627ECE
S31508004E8C02F00F03013B072B3FF604AEDFE813F0E5
S31508004E9C38016A013702350367038A03750326034B
S31508004EAC184C0020CC4C00200A4D0020DC4C00206D
S31508004EBCD84C0020D24C0020D44C0020D04C0020DA
S31508004ECCE04C0020E4520020D44B0020204C00205B
S31508004EDCC44B0020C74B00201C4C0020D84B00208C
S31508004EEC184C00200024944B1C7040E0934C01FB9A
S31508004EFC0344934B1C600323A37623760023A375E4
S31508004F0C0422E275E3768F4DAB8CA3806B8CE38021
S31508004F1C6B8B2380AB8B6380012060768A4B1A7867
S31508004F2C22735A7862739A78A273DB78E3732082B9
S31508004F3C95F82930E37295F82830A37295F827303E
S31508004F4C637295F826302372FFF78EFC95F82E10AF
S31508004F5C01F0F003502B58D9774B00221A702CE02D
S31508004F6CAC22764C02FB03440133734A1370724B22
S31508004F7C1B789BB9714AAC2101FB0322527E002A8D
S31508004F8CB4D0072AF0D1002CEAD06C4AAC2101FB2C
S31508004F9C0322917EA27E9142E6D9E1E7002CA8D1A4
S31508004FAC78E50133644A137007E003F13702654864
S31508004FBC825C52B31A44604B1A705F4B1B780A0911
S31508004FCC053AB3EB820F20DA03F136025D48825CB0
S31508004FDC5E480270CAB1012AE3D0022AE5D103F170
S31508004FEC37025848825C042ADFD103F13801415C48
S31508004FFC3933C35C43EA0123554A138040F2BA524B
S3150800500C934228BF13466382A3824E4B102283F821
S3150800501C2F204C4B93F82F2042F0020283F82F20B6
S3150800502C022283F83620042283F83720052283F8D7
S3150800503C3820BA2283F83920464A2C21118060225E
S3150800504C83F82E20EBE100236376434B20221A705B
S3150800505CFEF7C0FB1EE502F03F0112297FF4F8AEFD
S3150800506C06E704F10C00FFF7CBFB364B93F82A3016
S3150800507C3A4A107883427FF402AF324B93F82B30BE
S3150800508C51788B427FF4FBAE2E4B93F82C309278EA
S3150800509C93427FF4F4AE2B4B93F82D502F4BDB78C1
S315080050AC9D427FF4ECAE20736173A273E373E37EC7
S315080050BCF3B994F818C0A17EACEB0102D2B2A57D67
S315080050CCE808A2EBD50253B255FA82F2D2B2A2750F
S315080050DC002B03DAA1EB0C0143185BB2E17DA3EBC1
S315080050EC910351FA83F3DBB2E37503EBD203237610
S315080050FC194B01221A70237EA37600232382BEE65F
S3150800510C154B1B7813F0010F3FF4C4AC03236376DD
S3150800511C114B40221A70002323820E4B188828B98B
S3150800512C0F4B00221A80FEF755FBBEE40A4B4222AF
S3150800513C1A70FFF799FBF3E7C74B0020204C0020A9
S3150800514CCC4C0020E04C0020D04B0020C64B002055
S3150800515CC44B0020D44C0020D04C0020C84B002057
S3150800516CD24C00209C4B1B7813F0010F06D09B4B9E
S3150800517C93F82F3003F03F03122B62D0964B202264
S3150800518C1A70FEF727FB964B1B6800225A76934B30
S3150800519C93F82F3013F0040F7FF47CAC8F4B14224A
S315080051AC83F82F208F4A28211180502283F82E202D
S315080051BC93F829008C4D287093F82D2083F8292014
S315080051CC83F82D0093F82810297093F82C2083F86F
S315080051DC282083F82C1093F827202A7093F82B4054
S315080051EC83F8274083F82B2093F826402C7093F8E5
S315080051FC2A5083F8265083F82A400130C0B283F827
S3150800520C2D0068B94B1CDBB2744981F82C303BB9BC
S3150800521C531CDBB281F82B3013B9013481F82A40C0
S3150800522C6E4B5A8C71490A80998C59849A845A8B7C
S3150800523CDA839A8B1A846E4A1188598352889A8310
S3150800524C20E1664B93F82E1001F0F003502B37D95A
S3150800525C654B00221A700BE00133634A137007E0A2
S3150800526C03F137025D48825C52B31A445E4B1A70DE
S3150800527C5D4B1B780A09053AB3EB820F20DA03F16A
S3150800528C36025648825C5B480270CAB1012AE3D0E2
S3150800529C022AE5D103F137025048825C042ADFD191
S315080052AC03F13801415C3933C35C43EA01234F4AA5
S315080052BC138040F2BA52934228BF13466382A382E4
S315080052CC03236376454B93F82620227293F82720FE
S315080052DC627293F82820A27293F82930E37201209F
S315080052ECFFF7C2FA3C4B42221A70002323823D4A2E
S315080052FC1380414A1380FEF76DFAFFF7D6BB374B7E
S3150800530C93F82F3013F0010F24D012F0100F21D17F
S3150800531C238A002B7FF4BEAB324D2888013080B22D
S3150800532CFFF7A2FA2C4A137843F0100111702A8859
S3150800533C1AB143F01203284A1370FEF74BFA0123ED
S3150800534C2382082363760023E376244B112283F801
S3150800535C2F205DE013F0200F0FD0204B93F834006C
S3150800536C93F8353043EA002C244D296861442960AA
S3150800537C63461C480188CB1A03801A4B188810B14F
S3150800538C12F0100F1FD0154B93F8302093F83130CC
S3150800539C03EB02239BB2154A1380A28A934200D8C8
S315080053AC0BB9124B1A80114B1B8863820A4B1B785C
S315080053BC13F0030F3FF46EAB0F4B00221A80FEF767
S315080053CC09FAFFF772BB044A137843F00203137009
S315080053DCFFF74AFAD7E700BFD04C0020E04C002074
S315080053ECCC4C0020D44C0020C74B0020C44B0020CA
S315080053FCE4520020C64B0020D24C0020DC4C002086
S3150800540C0023724A13806376714B142283F82F207B
S3150800541C704B28221A806E4B502283F82E20227A43
S3150800542C6B4B83F82A20627A83F82B20A27A83F8AE
S3150800543C2C20E27A83F82D20227B83F82620627BA7
S3150800544C83F82720A27B83F82820E27B83F829207F
S3150800545C0622DA75A2885A84E2889A845E4A1188EA
S3150800546C598352889A832288DA8362881A84637EDF
S3150800547C13F0100F00F0A280554B002283F8312050
S3150800548C83F83020524C4023A375524B1B881A0ABA
S3150800549C22746374002384F8353084F834306386B8
S315080054ACFFF784FAC043608610E40023474A13804A
S315080054BC0122228204226276E376454B112283F876
S315080054CC2F20A5E7414A1380FFF70DBB2833414A25
S315080054DC13803F4B182283F82F209CE73F4B1B78F1
S315080054EC13F0010F3FF4D6AA002363763B4B102228
