S02000006F70656E626C745F6F6C696D65785F73746D3332703430352E7372656302
S3150800000080210020197E0008317E0008357E000810
S31508000010397E00083D7E0008417E00080000000089
S31508000020000000000000000000000000457E0008F7
S31508000030497E0008000000004D7E0008616900083E
S31508000040517E0008557E0008597E00085D7E00082E
S31508000050617E0008657E0008697E00086D7E0008DE
S31508000060717E0008757E0008797E00087D7E00088E
S31508000070817E0008857E0008897E00088D7E00083E
S31508000080917E0008957E0008997E00089D7E0008EE
S31508000090A17E0008A57E0008A97E0008AD7E00089E
S315080000A0B17E0008B57E0008B97E0008BD7E00084E
S315080000B0C17E0008C57E0008C97E0008CD7E0008FE
S315080000C0D17E0008D57E0008D97E0008DD7E0008AE
S315080000D0E17E0008E57E0008E97E0008ED7E00085E
S315080000E0F17E0008F57E0008F97E0008FD7E00080E
S315080000F0017F0008057F0008097F00080D7F0008BA
S31508000100117F0008157F0008197F00081D7F000869
S31508000110217F0008257F0008297F00082D7F000819
S31508000120317F0008357F0008397F00083D7F0008C9
S31508000130417F00080000000000000000457F00081D
S31508000140497F00084D7F0008517F0008557F000849
S31508000150597F00085D7F0008617F0008657F0008F9
S31508000160697F00086D7F0008717F0008757F0008A9
S31508000170797F00087D7F000800000000000000006D
S31508000180817F0008857F00084178007807E0C178FC
S31508000190827842EA01224178007841EA022140EA5F
S315080001A0012070470170090A417070470170090AF9
S315080001B04170090A8170090AC170704738B504464A
S315080001C00025207990B1226B00F012F868B92071E9
S315080001D0616A206BE269411A914207D2E378022BE1
S315080001E004D1121800F004F800E00125284632BDB3
S315080001F06078012304F1340101F0D4BF70B50446D8
S315080002000D46206B0026854210D02046FFF7D6FF04
S3150800021006000BD1607801232A4604F1340101F067
S3150800022088FF10B14FF0FF3501262563304670BDB3
S3150800023038B50446FFF7C2FF050030D120780328F9
S3150800024004BF6079012823D100F0D4F94AF6552174
S3150800025004F23220FFF7A6FF124904F13400FFF733
S31508000260A5FF114904F50670FFF7A0FF616904F5BB
S315080002700770FFF79BFF216904F50870FFF796FFE3
S31508000280226A6078521C2263FFF7B3FF0020607170
S3150800029000226078002101F0CEFF00B10125284632
S315080002A032BD000052526141727241618269891EF3
S315080002B0921E914201D300207047C26A408901FB11
S315080002C00021084670472DE9F0410C460568012CC7
S315080002D04AD9A9698C4247D2287801284FF0FF36B7
S315080002E004D041D303282FD01FD33DE0696A04EB1D
S315080002F0540700F0CFFC002837D105F13400C7F3C6
S3150800030008017F1C10F80180696A00F0C3FC60BB15
S3150800031005F13400C7F30807C15D48EA0126E0077E
S3150800032054BFC6F30B0636091FE0696A01EB1421B0
S3150800033000F0B2FCC8B905F13400240600EBD4502D
S31508000340FFF722FF064610E0696A01EBD41100F0B8
S31508000350A3FC50B905F13400640600EBD450FFF74E
S3150800036016FF20F0704600E001263046BDE8F08111
S315080003702DE9F0410F46012F044615464FF00208B5
S315080003806AD9A069874267D22178012904D063D344
S31508000390032948D036D35FE0616A07EB570601EBBD
S315080003A0562101F03DF85FEA000855D104F1340002
S315080003B0C6F30801761C0844FA0743BF017801F022
S315080003C00F0141EA051129460170012020712046D6
S315080003D0616A01EB5621FFF711FF5FEA00083BD17E
S315080003E004F13400C6F308068119FA0748BF2D0937
S315080003F004D408782D0A65F3030005460D7001211B
S31508000400217129E0616A01EB172101F009F85FEA19
S31508000410000821D104F134003F06A9B200EBD750F9
S31508000420FFF7C0FE16E0616A01EBD71100F0F8FF8E
S315080004305FEA000810D104F134007F0600EBD757B5
S315080004403846FFF7A4FE000F60F31F7529463846A5
S31508000450FFF7ACFE012020714046BDE8F081F8B5F3
S3150800046005460E462F68012E114629D9B8698642D7
S3150800047026D229B14FF0FF3200F096F8010024D1B8
S3150800048031462846FFF71FFF04001DD0012C17D060
S3150800049014F1010F16D00022314600F085F801004C
S315080004A013D1B8697969821E914205D2491C7961CE
S315080004B0797941F00101797126468642E0D303E055
S315080004C00220F2BD0120F2BD0020F2BD2DE9F04167
S315080004D080460C00D8F8007006D13E6916B1B86996
S315080004E086420ED301260CE0FFF7EDFE012898BFE1
S315080004F0012057D910F1010F54D0B969884251D358
S315080005002646786968B3A64217D1B869751C85422C
S3150800051028BF022529464046FFF7D5FE012818BF01
S3150800052010F1010F3ED038B13869012805D9B969EB
S31508000530884202D2064600E0ADB93546B8696D1C58
S31508000540854202D30225012E0BD929464046FFF7DC
S31508000550BAFE40B1012818BF10F1010F22D0B542EA
S31508000560ECD100201EE04FF0FF32294600F01CF8BF
S3150800057090B924B12A46214600F016F860B9B9693F
S3150800058078693D61891E814224BF401E7861787969
S3150800059040F00100787104E001280CBF4FF0FF35E8
S315080005A001252846BDE8F0813846E1E670B50446DF
S315080005B00D46FFF703FED8B929462046FFF776FE13
S315080005C00546256300F016F8002600E0761C6089CB
S315080005D0864208D260780123721904F1340101F0C9
S315080005E0E1FD0028F2D06089864201D1002070BD65
S315080005F0012070BD4FF4007104F1340001F0F8BE1B
S315080006002DE9F04105460E462F68B6F5001F2ED295
S3150800061016F01F0F2BD1AC682E6154B93878032811
S3150800062001DBBC6A2CB93989700988421FD2B86ABD
S3150800063019E0B7F80A8006E0022C18D3B869844294
S3150800064015D2A6EB4826B6EB482F214608D32846EE
S31508000650FFF739FE044614F1010FEDD1012012E02F
S315080006603846FFF723FEA8616C61A86908B902201D
S3150800067009E000EB5620A861C6F30806B81900F190
S315080006803401E9610020BDE8F0812DE9F041064614
S315080006908846346937682034B4F5001F20D2B0691B
S315080006A000B3E1053CD1401C7169B06121B93989B3
S315080006B06009884234D313E07889401E10EA542F23
S315080006C02ED13046FFF7FFFD0546012D16D915F147
S315080006D0010F1DD0B86985421CD3B8F1000F03D1AC
S315080006E00020B061042023E071693046FFF7EEFE72
S315080006F0050008BF07201BD0012D01D1022017E0F5
S3150800070015F1010F04D029463846FFF74FFF08B107
S3150800071001200DE0756129463846FFF7C7FDB0612F
S315080007203461C4F30804381900F13401F16100207A
S31508000730BDE8F08170B504460D4605F11A00FFF7CD
S3150800074023FD21780329064605D105F11400FFF794
S315080007501BFD46EA0046304670BD70B504460D4698
S315080007601646B1B205F11A00FFF71CFD21780329D8
S3150800077005D1310C05F11400BDE8704012E570BDD5
S31508000780024600200B210306C00100EB536012F855
S31508000790013BC018491EF6D1C0B270472DE9F24F89
S315080007A0064682B030680090FF274FF00409B84625
S315080007B0B169002969D00098FFF720FD5FEA0009B2
S315080007C063D1F4692078A0B3E17A01F03F01B171F1
S315080007D0E52818BF2E285ED021F02002082A14BF6B
S315080007E000220122029B9A4255D10F295CD141066B
S315080007F006D594F80D803169F16200F0BF0007460E
S31508000800F9B2884204BF617B884544D1009800F05C
S31508000810FAF800283FD1207820F04000401E0D2528
S3150800082045430FF2604001904FF0010A4FF0000B6C
S3150800083002E04FF004092BE0019810F80B1060183D
S31508000840FFF7A2FCBAF1000F08D0B5F5807F3EBFCE
S31508000850824629F815A06D1C04D31CE04FF6FF71DB
S31508000860884218D10BF1010BBBF10D0FE4D32078A8
S31508000870410608D5BAF1000F05D0B5F5807F0AD232
S31508000880002029F815007F1E06E05FEA090001D05E
S315080008900020B061B4E0FF2700213046FFF7F5FEDF
S315080008A05FEA000984D0F0E74FF0FF35FFB20FB1D9
S315080008B0F562EFE72046FFF763FF8045EAD0F7E7E2
S315080008C02DE9FE4F0646002132680192FFF798FE91
S315080008D05FEA000942D1FF2000904FF0FF31FF2761
S315080008E0F162B1690198FFF789FC5FEA000935D121
S315080008F0F469207880B3E17A01F03F01E528B17107
S3150800090072D00A072BD50F296ED196F82B104A06F6
S315080009106ED4410606D5627B009200F0BF003169AD
S31508000920F1620746F9B2884202BF0098617B8842A5
S3150800093045D1019800F067F8002840D1207800F0EA
S315080009403F00401E0D2101FB00F80FF238300290DF
S315080009504FF0010B002505E04FF0040950E00F2980
S315080009602FD1D2E70298415D6018FFF70DFCBBF165
S31508000970000F824610D0B8F5807F20D201F08AFD9C
S31508000980834639F8180001F085FD08F1010883450A
S3150800099008BFD34604D012E04FF6FF7082450ED149
S315080009A06D1C0D2DDED32078410606D5BBF1000F50
S315080009B01CBF39F81800002801D17F1E18E0FF2750
S315080009C016E0FFB22FB9009F2046FFF7D9FE8742EF
S315080009D016D096F82B00C10706D4F0690B2206F14B
S315080009E0200101F099FD58B14FF0FF30FF27F06262
S315080009F000213046FFF749FE5FEA00093FF471AF70
S31508000A004846BDE8FE8FD0F80C9004F11A00FFF7AF
S31508000A10BBBB00002DE9F04F044687B094F82B00C5
S31508000A20256810F0A00F18BF062040F02881002680
S31508000A3000E0761CE96831F816000028F9D104F1BF
S31508000A40200090E88C0002A981E88C009DF81370BC
S31508000A50F80765D5402184F82B104FF00108D5F822
S31508000A600CB00B2202A904F1200001F065FDC24674
S31508000A70BAF1060F15D310E03BF8021B102001F05F
S31508000A80010303EB4A0A49085FEACA3244BF8AF4FB
S31508000A90883282F0210A401EF1D1BBF800000028F6
S31508000AA0EAD10721504600F00F02303200093A2AEF
S31508000AB0A8BFD21D0DF80120491E18BF0028F2D183
S31508000AC07E200DF8010004F12002002000E0401C01
S31508000AD0884202D2135C202BF9D10246501C072902
S31508000AE09ABF1DF80130491C202304F1200C072861
S31508000AF00CF80230F1D92046FFF7E2FE824620B90B
S31508000B0008F10108B8F1640FA9D3B8F1640F08BF5A
S31508000B10072000F0B480042840F0B08084F82B70D9
S31508000B20B80705D50C360D21B6FBF1F6761C00E0A4
S31508000B300126276800212046FFF762FD010018D12B
S31508000B404FF00008A1693846FFF758FB010010D19D
S31508000B50E1690978E5291CBF00294FF0000803D18F
S31508000B6008F10108B04507D0012100F0BBF80100E3
S31508000B70E8D0042808BF07200028824664D1761EDC
S31508000B80019664D021696FF01F0000FB061120460C
S31508000B90FFF736FD0028824656D104F12000FFF7FC
S31508000BA0EFFD8DF800004FF6FF76A16900F074F8A6
S31508000BB00028824648D1D4F81C80E868019F9DF831
S31508000BC00010059088F80D100F2088F80B000021FA
S31508000BD088F80C1008F11A00FFF7E4FAF8B2401E7C
S31508000BE00D2101FB00F900BF26A0069001E0B345E0
S31508000BF004D0059830F819B009F10109069810F8DB
S31508000C000A20594608EB0200FFF7CCFABBF1000FA1
S31508000C1008BFB3460AF1010ABAF10C0FE7D9B34582
S31508000C201DBF059931F81900002847F0400788F8D4
S31508000C3000700120287100F054F8824620B9019806
S31508000C40401E0190B1D102E0BAF1000F16D1A16998
S31508000C5000F022F8824688B9E069202101F078FC84
S31508000C60E0690B2204F1200101F066FC94F82B00E0
S31508000C70E16900F01800087301202871504607B092
S31508000C80BDE8F08F01030507090E10121416181C8B
S31508000C901E00000001EB57212846FFF7AFBA70B5D2
S31508000CA00446E16A2568266911F1010F0CBF002088
S31508000CB0FFF7A6FC010013D1A169FFF7EDFF0100BC
S31508000CC00BD1E269E521117001232B712169B1422B
S31508000CD006D200F006F80100EED0042808BF02206C
S31508000CE070BD00212046D0E42DE9F84F05460E4692
S31508000CF02F680021B175A869002800F09F80E86A6E
S31508000D0010F1010F40D0884689468A4600E082469F
S31508000D10F86830F8190068B3BAF1000F09F101094B
S31508000D2004D1A0F55842B2F5006FF0D306F11603C8
S31508000D3003EB080B40F2B51140EA0A4001F078FBD4
S31508000D40B0F5807FC8F1FF0409DB012C81BF010AD9
S31508000D508BF800108BF80100022005D808E038B19E
S31508000D6034B10BF8010B012080444FF0000ACFE79D
S31508000D704FF00008BAF1000F18BF4FF0000806F14F
S31508000D801601002001F808000020002106F10904D8
S31508000D90EA69525C491C202A0DD0052A08BFE522BB
S31508000DA0092904D10C2802D22E232354401C06F10B
S31508000DB009031A54401C0B29EAD306F10903002239
S31508000DC01A54B17D31BB18B93F20B075012218E01D
S31508000DD00023082410E02E2808BF1024A0F14101A2
S31508000DE01A2904D2EF69397B214218BF203006F14F
S31508000DF016015B1C8854521C06F10900C05C0028C9
S31508000E00E9D106F1160100208854EA69107B08B971
S31508000E1000217172E869C17A01F03F013172E8690F
S31508000E201C30FFF7B4F93060E8691630FFF7ACF903
S31508000E30F080E8691830FFF7A7F9B080BDE8F18FB0
S31508000E402DE9F04F054685B028680390894601E0EC
S31508000E5009F1010999F800002F2818BF5C28F7D076
S31508000E600020A86099F80010202913D2802285F85E
S31508000E702B20284605B0BDE8F04F0021FFF7C0BB80
S31508000E8029690398C1F30801421802F13401FFF7F2
S31508000E9051FCA860002728680FF22428C66812E0CB
S31508000EA02F2C18BF5C2C23D07F2C06DC214640460D
S31508000EB001F052FB002840F0FC80FF2F80F0F980FB
S31508000EC026F817407F1C19F8014B40F2B510ADF80B
S31508000ED000002CB10146204601F0C7FA040022D0D2
S31508000EE014F1010F1FD0202CDADA0BE009F1010901
S31508000EF099F800002F2818BF5C28F7D020284FF053
S31508000F00000801D24FF00408384600E0401E30B110
S31508000F10B11E31F81010202918BF2E29F6D000214D
S31508000F2026F81010002800F0C480002700E07F1C77
S31508000F3036F817102029FAD048F00301B7B18846C9
S31508000F400446B01E30F814102E2901D0641EF9D1BB
S31508000F5020220B2105F1200001F00AFB04964FF030
S31508000F60000B4FF0080A0194002604E032882E2A66
S31508000F70E6D1E4E78846049830F817407F1C002C31
S31508000F8064D0202C48F00301F4D02E2C02D1019A0B
S31508000F909742EFD1D34547D2019B9F4244D07F2C3D
S31508000FA00EDDBDF80010204601F042FA0446200680
S31508000FB048F0020804D5DFF8E01904F07F040C5D58
S31508000FC048F00300B4F5807F02900FDBAAF1010018
S31508000FD0834503D3DDF80880D346CCE705F1200125
S31508000FE0200A01F80B000BF1010B16E094B121461B
S31508000FF036A001F0B1FA68B9A4F141001A2838BF41
S3150800100046F00206A4F161001A2806D246F0010647
S31508001010203C02E0DDF808805F2405F1200000F896
S315080010200B400BF1010BA6E7BAF10B0F0DD0019A95
S31508001030974218BF8846BA4221BF17464FF0080B99
S315080010404FF00B0AB60096D200E0884695F82010B5
S31508001050E52904BF052285F82020BAF1080F08BF44
S31508001060B600F0B200F00C010C291ABF00F003001C
S31508001070032848F002085FEA887007D4F10748BFDA
S3150800108048F01008700748BF48F0080885F82B8014
S315080010902846FFF715FC95F82B1002000BD14907D7
S315080010A004D4A879C1063FF5EBAE052005B0BDE826
S315080010B0F08F0620FAE70428F8D14907F6D4F4E7B2
S315080010C02A3A3C3E7C223F7F000000002B2C3B3D09
S315080010D05B5D000001464FF0FF300A68130000D13F
S315080010E0704730B513F8014B202C02D33A2CF9D1AE
S315080010F001E03A2C0CD11478A4F130050A2D08D257
S31508001100921C9A4205D1303C03DC20460B6030BD68
S31508001110002030BDF8B5044600224FF0FF33227197
S315080011202363FFF76BF808B10420F2BD04F23220FE
S31508001130FFF72AF804F13406054630784AF65527AB
S31508001140EB281CBFE928E8283AD1BD4206D1082277
S315080011501EA104F1860001F0DFF978B304F13F001F
S31508001160FFF712F80146707B4A1E114208BFB1F517
S31508001170007F25D120B3411E084221D104F1420047
S31508001180FFF702F8E0B1307C401E022818D204F1BD
S315080011904500FEF7F9FF98B104F14700FEF7F4FFA2
S315080011A0802806DA04F15400FEF7F1FFB0F5803F17
S315080011B006D304F14A00FEF7E7FF08B10020F2BDA6
S315080011C0BD4201D10220F2BD0320F2BD464154338F
S315080011D032202020000000002DE9FF410F460021A3
S315080011E039601546FFF776FF002848BF0B2006D45E
S315080011F0DFF8A86706EB800044680CB90C200CE100
S315080012003C6005F0FE05207848B1607800F08BFF59
S31508001210C10704D4002D01D040070CD4FCE00020FF
S315080012202070607800F040FEC10748BF032003D451
S315080012301DB1400701D50A20EFE000212046FFF73F
S3150800124069FF022814D1002704EB071000F5FD708A
S31508001250FEF79DFF4DF827007F1C032FF4D90027C2
S315080012605DF8271041B12046FFF754FF012804D83E
S31508001270042806D10120D0E003207F1C032FEFD9D4
S31508001280F6E7012818D8276B04F13F00FEF77CFF24
S31508001290B0F5007F10D104F14A00FEF775FF18B9C2
S315080012A004F15800FEF773FF04F14101E061CA78C2
S315080012B0E270012A18BF022A6FD150438046087887
S315080012C06081020069D0411E084266D104F14500DA
S315080012D0FEF75AFF2081207A10F00F0F5DD104F136
S315080012E04700FEF751FF050004D104F15400FEF74C
S315080012F04EFF054604F14200FEF746FF00284CD093
S31508001300218908EB000303EB11139D4245D362893B
S31508001310ED1AB5FBF2F2002A3FD00025DFF8A4C883
S31508001320624538BF03254FF6F67C624538BF02256D
S3150800133040F6F67C624538BF012500D36DB3921C92
S31508001340C019DB19032DA26127626062E36210D11E
S3150800135004F15E00FEF718FF002804BF2089002864
S315080013601BD104F16000FEF712FFA062A06980009D
S315080013700DE091B1606A4044A062022DA0690FBFDA
S31508001380400000EB400100F0010000EB5100E1696C
S3150800139000F2FF10B1EB502F01D20D203DE04FF0C7
S315080013A0FF30606120618020032D60712CD104F12B
S315080013B06400FEF7E9FE012826D1791C00F030F812
S315080013C010BB607104F23220FEF7DEFE4AF65521A4
S315080013D0884219D104F13400FEF7D9FEDFF8E81780
S315080013E0884211D104F50670FEF7D1FEDFF8DC1746
S315080013F0884209D104F50770FEF7C9FE606104F555
S315080014000870FEF7C4FE2061257006F108013088D1
S31508001410E160401CE0803080002004B0BDE8F08127
S315080014202046FEF7EBBE70B5044609260D46002C8D
S315080014301CBF206800280DD0017859B1A188C28840
S31508001440914207D1407800F06EFEC00702D42068AA
S31508001450002600E000202860304670BD1BB581B02C
S31508001460144600916846FFF735FE010048BF0B2079
S3150800147018D4DFF8280500EB8102506810B1002364
S3150800148053600370019828B14170002101980170DA
S31508001490019951600CB9002004E0002201A902A8B4
S315080014A0FFF79AFE04B010BD2DE9F2418DB0040095
S315080014B008BF092000F0D68002F03F073A46694681
S315080014C00DA8FFF789FE060055D100980D990190E1
S315080014D001A8FFF7B5FC060004D19DF82F00010608
S315080014E048BF062617F01C0F00F09580300000F064
S315080014F08880042E3FD101A8FFF78CFA06463000F3
S3150800150047F0080736D138073AD50898DFF8C057A4
S3150800151029460E30FEF74AFE089829461630FEF789
S3150800152045FEDDF8208000984146FFF703F9054699
S31508001530202088F80B00002208990098FFF70DF97B
S31508001540089800211C30FEF731FE00F041FB9DB1E2
S315080015500098D0F830800022294601A8FEF77FFFC0
S31508001560060007D100984146FEF748FE0646009851
S315080015706D1E0561300072D1380748BF47F0400735
S315080015800098016B216208986062089D00982946B8
S31508001590FFF7D0F8A06005F11C00FEF7F8FDE06043
S315080015A0009820600099C888A08000216174E161D4
S315080015B0616127744FF4007104F1280000F018FFE8
S315080015C0B8064ED5E568002D4BD065610098478969
S315080015D0A1687F02AF420CD22046FEF774FE014690
S315080015E0012926D911F1010F25D0ED1B3000F1D0C4
S315080015F026E0E805A16134D000F08DF910BB02267B
S315080016002DE09DF80A0010F0110F10D178077FF52C
S315080016107AAF082623E03000ACD19DF80A00C1064F
S3150800162048BF04261BD4B907A6D5C007A4D50726E4
S3150800163015E0022604E04FF0FF300126A0610EE017
S31508001640A1610CE000EB5520E06102460098407865
S31508001650012304F1280100F06CFD10B101260020D9
S31508001660206030460EB0BDE8F0812DE9FC471646ED
S3150800167000F04AF900F094F8010001D1687C0100F5
S3150800168040F08C80287CC10758BF072040F186802F
S31508001690EC686869241AB4422FD934462DE0660AE4
S315080016A007EB000848D000984089F119884238BFEE
S315080016B0C61B0098407833464246514600F039FD2D
S315080016C0002867D1287C01060CD5E869A0EB080339
S315080016D0B34207D24FF4007205F128010AEB432002
S315080016E000F02AFF7602D9F800003018C9F8000081
S315080016F0A41B6969B24476186E61002C4DD06869DE
S31508001700C10536D100994F897F1E17EA50270CD19B
S3150800171000280FBFA868A9692846FEF7D4FD012846
S3150800172008D910F1010F35D0A861A96900F0F3F8BE
S315080017300100B4D102202EE0EA69424517D0287C80
S3150800174001060BD500984078012305F1280100F021
S3150800175029FDF8B9287C00F07F0028740123009839
S315080017604078424605F1280100F0E3FC90B9C5F837
S315080017701C806869C0F30800C0F5007126468C42D3
S3150800178088BF0E4605F1280101443246504600F04E
S31508001790D3FEA8E70120687400E00020BDE8F687BC
S315080017A0054669463FE62DE9FC47144600F0ACF8C5
S315080017B00646FFF7F6FF010001D1707C010040F0F4
S315080017C0A180307C810758BF072040F19B80706953
S315080017D02118814228D24FF0FF34241A24E0C6F893
S315080017E01C807069C0F30800C0F5007127468C425A
S315080017F088BF0F4606F128033A465146184400F0BA
S315080018009BFE307C40F080003074E41BD9F8000061
S315080018103818C9F80000BA4471697F187761F0680A
S31508001820B84238BF3846F060002C66D07069C105EA
S31508001830D7D100994D896D1E15EA502513D118B9CF
S31508001840B06828B9002100E0B1693046FEF73EFECF
S31508001850002852D0012839D010F1010F4AD0B061C2
S31508001860B16801B9B060307C010607D50098F26905
S3150800187000F035F900283DD100F02CF9B16900F0E7
S315080018804AF8010022D0670A05EB000820D0009824
S3150800189040897919884238BF471B009840783B46EB
S315080018A04246514600F07EFC20BBF069A0EB0800DA
S315080018B0B84209D20AEB40214FF4007206F128001B
S315080018C000F03AFE00F006F97F029EE7022012E0D9
S315080018D0F169414583D07069F1688842BFF47FAFEA
S315080018E0009840780123424606F1280100F021FCC1
S315080018F00028EFD00120707404E0307C40F04000EE
S3150800190030740020BDE8F687994600228A46C9F851
S315080019100020704701460098FEF7C8BC38B500F0AD
S31508001920E4F8010036D1217C4A0633D5080608D5E5
S3150800193000F0FCF808B1012032BD207C00F07F00E1
S315080019402074216A0098FEF759FC010022D1656AC5
S31508001950E87A40F02000E8722946A2682068FEF777
S31508001960FCFEE16805F11C00FEF720FCDFF86013B9
S3150800197005F11600FEF71AFC002105F11200FEF724
S3150800198011FC00F025F90098FEF752FC217C01F0C5
S31508001990BF01217432BD0000887A0008C00C0020FF
S315080019A01CB50446FFF7BAFF010007D16946204671
S315080019B0FFF739FD010004BF0021216016BD2DE99E
S315080019C0FC410C460646FFF7ECFE5FEA000808BF36
S315080019D096F811805FEA080074D1F068A04203D235
S315080019E0317C8A0758BF044670690025002C75614A
S315080019F047D000994F897F0268B1401E631EB0FB2D
S31508001A00F7F2B3FBF7F3934205D3791E8843706167
S31508001A10241AB0690CE0B06848B900213046FEF7D0
S31508001A2055FD012851D010F1010F51D0B060B061B9
S31508001A3060B926E0FEF747FC10F1010F48D00128EF
S31508001A4043D900998A6990423FD2B061A7420DD224
S31508001A507169327C79187161E41B91070146304639
S31508001A60E8D5FEF733FD0028E6D100247169611830
S31508001A70E205716105D0FFF74DFF050025D000EBA3
S31508001A8054257069F168814204D2317CF06041F0D6
S31508001A9040013174C0051CBFF269954212D0307CF2
S31508001AA0010605D5009800F01AF888B900F012F872
S31508001AB00123009840782A4606F1280100F039FBF0
S31508001AC030B9F5614046BDE8F68102207074FAE740
S31508001AD00120FBE7307C00F07F00307470474078C7
S31508001AE0012306F1280100F05DBB044669469AE425
S31508001AF031B58CB00C46002269460CA8FFF76CFB82
S31508001B00050010D10C996846FFF79AF905000AD125
S31508001B109DF82B00010648BF062504D41CB12146B2
S31508001B206846FFF7E1F828460DB030BD0098E2692F
S31508001B304078012304F1280100F034BB31B59AB08E
S31508001B40022269461AA8FFF747FB010038D1009818
S31508001B501A99019001A8FFF773F9010030D19DF891
S31508001B602F00010648BF06202AD49DF80A50E80728
S31508001B7015D408990098FEF7DDFD0446E80612D547
S31508001B8000990D910F9400210DA8FEF739FD01006B
S31508001B9016D100210DA8FEF701FE010001D107208C
S31508001BA00EE004280CD101A8FFF779F8010002D14C
S31508001BB01CB100F011F8010002D10098FEF738FBBD
S31508001BC01BB030BDF6FFFF0F525261417272416180
S31508001BD000990120087170470022214601A8FEF7E6
S31508001BE03EBC2DE9FC410546904600242F464E1E74
S31508001BF0B44211DA6B46012201A94046FFF735FDCA
S31508001C000098012808D19DF804000D28F2D0641C1C
S31508001C100A2807F8010BEBD10020387004B9002513
S31508001C202846BDE8F681F8B50D4604460A2D04BFD8
S31508001C300D21FFF7F8FF6668002E16D4A76804F191
S31508001C400C008555761C3C2E0CDB20686B4632460C
S31508001C5004F10C01FFF7A7FD0098B0420CBF00265F
S31508001C604FF0FF367F1C6660A760F1BD1CB50446C1
S31508001C706268002A0DD420686B4604F10C01FFF750
S31508001C8092FD002802BF60680099884201D1A068C9
S31508001C9016BD4FF0FF3016BD38B50D4604464C212B
S31508001CA000F0A6FB256031BD18B593B0044668461A
S31508001CB0FFF7F2FF04E014F8011B6846FFF7B3FFCD
S31508001CC020780028F7D16846FFF7D0FF14B010BD7A
S31508001CD0000021548161704709048161704780685A
S31508001CE000F00100704770B5DFF8E856287300F079
S31508001CF0BBFC002400F132062846FFF7F0FF38B98E
S31508001D0000F0D0FC00F0B0FC8642F5D2204670BD4B
S31508001D102C7BFBE710B5044600F082F8207010BD56
S31508001D2038B500F0A1FC00F5FA7400F079F805461C
S31508001D3000F0B8FCFF2D05D000F096FCA042F4D3C5
S31508001D40002032BD012032BD80B54FF48051DFF846
S31508001D508806FFF7BFFFBDE80240FF20C3E780B54E
S31508001D604FF48051DFF87006FFF7B6FF00F058F819
S31508001D70FFF7D6FF08B1012002BDFFF7E5FF0020F7
S31508001D8002BDF8B505460C4600F06EFC00F1640687
S31508001D9000F046F8074600F085FCFF2F04D100F056
S31508001DA063FCB042F4D301E0FE2F01D00020F2BD5F
S31508001DB02846FFF7AFFF6D1C2846FFF7ABFF00F07C
S31508001DC071FC6D1CA41EF3D100F02AF800F028F867
S31508001DD00120F2BD38B505460C46FFF7A1FFD8B17C
S31508001DE02046FFF780FFFD2C18D04FF48074287822
S31508001DF0FFF779FF6878FFF776FF00F053FCAD1C14
S31508001E00641EF4D100F00CF800F00AF800F008F8A7
S31508001E1000F01F00052801D0002032BD012032BD88
S31508001E20FF2060E770B5044620060E4608D5002157
S31508001E303720FFF7F7FF022804F07F04054631DA5A
S31508001E40FFF782FFFFF78BFF08B9FF2070BD44F04C
S31508001E504000FFF748FF300EFFF745FF3002000E3F
S31508001E60FFF741FF3004000EFFF73DFFF0B2FFF722
S31508001E703AFF0120210008BF952002D0082C08BF90
S31508001E808720FFF730FF0C2C04BFFF20FFF72BFF3E
S31508001E900A24FFF7C5FF054600F004FC280601D50D
S31508001EA0641EF6D1284670BD2DE9F84797B008B1EB
S31508001EB0012035E1DFF824552878810700F12F81C4
S31508001EC0DFF81C05DFF810450268DFF8086542F000
S31508001ED0020202604FF48057016801F00201019185
S31508001EE04FF482780199026942F480420261012125
S31508001EF0006900F480400190022201980797089132
S31508001F00099200210A910B91204607A900F04CFC82
S31508001F100221A76108914FF4604000210A910B91B4
S31508001F200790052103220C91099207A9204600F083
S31508001F303BFC00210D910F910022119110921492F1
S31508001F4015923021139107224FF400791692CDF895
S31508001F503880CDF848900DA9304600F09DFC706891
S31508001F6020F0100070600222316841F040013160B3
S31508001F70A76101214FF400470197029103920021BE
S31508001F8004910591204601A900F00EFCA7610A24D8
S31508001F9000F06AFB00F1640AB068800703D400F019
S31508001FA063FB8245F8D2FF20307300F05DFB00F139
S31508001FB0640AB068C00703D400F056FB8245F8D21D
S31508001FC0641EE5D1019702210291032200210491A2
S31508001FD0059103920521069101A9DFF8FC432046E5
S31508001FE000F0E2FB4FF080500021A06100240020A1
S31508001FF0FFF718FF012865D100F036FB00F57A7760
S315080020004FF4D5710820FFF70DFF012838D1A246F5
S31508002010FFF706FF5FFA8AF10AF1010A0DF80100D7
S315080020205FFA8AF00428F3DB9DF80200012804BF52
S315080020309DF80300AA2845D100F016FBB84206D23F
S315080020404FF08041A920FFF7EDFE0028F4D100F0FB
S315080020500BFBB84236D200213A20FFF7E3FE88BBD5
S31508002060FFF7DEFEE1B2641C0DF80100E0B20428B9
S31508002070F6DB9DF80000410654BF04240C2421E039
S315080020800021A920FFF7CEFE0228A7BF0124A246F9
S3150800209002244FF0A90A01E000F004FB00F0E4FA7C
S315080020A0B84205D200215046FFF7BCFE0028F3D1FE
S315080020B000F0DAFAB84204D249461020FFF7B2FE19
S315080020C000B100246C60FFF73FFE002C287823D06F
S315080020D000F0FE0028700021326822F040023260CB
S315080020E00191039100220591049208920992082110
S315080020F0079107220A92CDF80880CDF8189001A911
S31508002100304600F0C9FB706820F010007060316836
S3150800211041F04001316002E040F001002870287863
S3150800212018B0BDE8F08708B101207047AB480078C1
S31508002130704738B50D4611461C4600B90CB904203F
S3150800214032BDA6480278D30701D5032032BD0079EF
S31508002150020758BF4902012C08D11120FFF762FE79
S31508002160A8B900F01BF890B1002410E01220FFF780
S3150800217059FE60B900F012F828B100F093FA641E0F
S3150800218005F50075F6D100210C20FFF74BFEFFF789
S31508002190DBFD200018BF0120C0B232BD4FF400712C
S315080021A02846EEE570B50D4616461C4600B90CB92C
S315080021B0042070BD89480178CA0701D5032070BD7F
S315080021C001784A0701D5022070BD4068010758BF4B
S315080021D07602012C0BD131461820FFF723FE18BBD7
S315080021E0FE212846FFF7F6FDF0B100241CE010F0AA
S315080021F0060F03D021469720FFF714FE3146192013
S31508002200FFF710FE80B9FC212846FFF7E3FD28B149
S3150800221000F048FA641E05F50075F4D1FD2100208A
S31508002220FFF7D8FD00B90124FFF78EFD200018BF7F
S315080022300120C0B270BDBFB5154608B10420C6E07E
S31508002240664C2078C20748BF0320F8D46268012785
S3150800225002F0040099B1012914D0032945D00A29AE
S3150800226000F083800B2900F082800C2900F084801E
S315080022700D2900F088800E2900F09680A3E0FFF76C
S315080022806EFD9DE000F0B1F8002834D100F0AAF800
S31508002290002836D09DF800309DF807009DF80810F4
S315080022A09DF809209B09012B06D102EB012101EBC0
S315080022B00041491C890256E0800000EB91119DF807
S315080022C006009DF80A30520000F0030002F00602EC
S315080022D001EB80219DF8050000F00F0000EBD310FC
S315080022E01218491CD01F81403DE0B8B100218D204D
S315080022F0FFF798FD002867D1FFF792FD00F072F806
S31508002300002861D03024FFF78BFD641EFBD19DF8B1
S315080023100A10102009098840286052E000F065F884
S31508002320002851D100F05EF800284DD022799DF89A
S315080023300B009DF80A1093070BD549009DF80D2050
S3150800234001F07E0101EBD0119209491C501E814013
S3150800235009E0C20002F01802C1F3840102EB501032
S31508002360491C401C414329602BE02A7029E000F0F3
S315080023703CF8002828D104E000210A20FFF752FD86
S3150800238010BB102119E000213A20FFF74BFDD8B900
S315080023900024FFF745FDE1B2641C685400F082F999
S315080023A0E0B20428F5DB0CE070B100218D20FFF7C0
S315080023B039FD48B9FFF734FD40212846FFF7E1FC0F
S315080023C010B1002700E00427FFF7BEFC384604B02A
S315080023D0B0BD00000038004000040240880000201C
S315080023E03038024010216846CBE40021092019E55F
S315080023F0002200F0C1B830B5016884684218416807
S3150800240002EB5103C90703D54C4401E0491C08D126
S315080024109A4218BF12F9011B01D10C3030BD12F8CF
S31508002420015B002904F8015BF0D4491EF7D5EFE7F4
S3150800243010B502460020802A38BF104613D3B2F5DD
S31508002440803F10D240F2B51399420CD1304984B27C
S3150800245031F814309A4203D0401C81B28029F5DB4A
S31508002460803000F0FF0080B210BD024600201346FF
S31508002470802B01DA1046704740F2B512914208D116
S31508002480B3F5807F05DA224800EB4301A1F5807297
S3150800249010887047B0F5803F00D3704730B580B2DA
S315080024A0B0F5805F1B4B05DB03F5FA7302E009B94B
S315080024B003EB44031A8842B3904226DB5C88210A60
S315080024C004F0FF041B1DA518A842F0DA821A082991
S315080024D01BD8DFE801F005080C0E101214161800B8
S315080024E033F8120011E002F00102801A0DE01038EC
S315080024F00BE0203809E0303807E01A3805E00830E4
S3150800250003E0503801E0A0F5E35080B230BD00008A
S315080025103C7800087874000803000020521E22BF89
S3150800252013F8010B11F801CBB0EB0C00F6D0521CD6
S3150800253008BF1046704709044AB1000011F8013B6C
S31508002540521E00F8013B1CBF11F8013BF8E7704723
S31508002550002200F0D3B90000C9B202788A421AB143
S315080025601CBF10F8012FF9E718BF002070470000BC
S3150800257062F30F2262F31F4200B500BF13009646AE
S315080025809446103928BFA0E80C50FAD85FEA417C77
S3150800259028BF0CC048BF40F8042BC90728BF20F83D
S315080025A0022B48BF00F8012B00BD000018B53248C1
S315080025B0324BC16B41F00101C163C16B01F00101EE
S315080025C00091009A02682E490968C2F342329A5C61
S315080025D00068D14010F4604F0CBF01200220294A40
S315080025E041430123284813604FF6FF74B1FBF0F00E
S315080025F0D462401E90620021506940F0010050618B
S3150800260022484160526A028011BD2148016841F0A2
S31508002610010101600023026852085200026000228C
S31508002620016A49084900016200211A4801604260AE
S3150800263083604FF0007018490860704717481349BF
S3150800264000680A88801A80B2642800D2704710B5DC
S3150800265064234C68B0FBF3F3642014FA83F4434311
S315080026604C609818088010BD80B500E080B5FFF76B
S31508002670E5FF0648406802BD08380240287E000883
S31508002680BC00002000000140A0860100701900204F
S315080026902438024010E000E004ED00E02400014088
S315080026A000F041B900F042B910B50021344B354A63
S315080026B0984207D1106840F0010010601468640859
S315080026C064004BE0304B984207D1106840F0020096
S315080026D01060146824F0020440E02C4B984207D19D
S315080026E0106840F004001060146824F0040435E013
S315080026F0274B984207D1106840F00800106014680C
S3150800270024F008042AE0234B984207D1106840F0C9
S3150800271010001060146824F010041FE01E4B984245
S3150800272007D1106840F020001060146824F02004D7
S3150800273014E01A4B984207D1106840F04000106028
S31508002740146824F0400409E0154B984208D1106833
S3150800275040F080001060146824F0800414600CE0D7
S31508002760104B984208D1106840F4807010601368C6
S3150800277023F48073136000E00121084610BD0000B1
S3150800278000000240103802400004024000080240DF
S31508002790000C0240001002400014024000180240DB
S315080027A0001C024000200240F0B50246086890FA74
S315080027B0A0F0B0FA80F30F2468E0000A90FAA0F0BF
S315080027C0B0FA80F0D2F824E0800004FA00F52EEA88
S315080027D005050CFA00F040EA050CC2F824C04DE0E5
S315080027E001209840284050D090FAA0F5B5FA85F512
S315080027F06E000327B740D1F804C0FF43BCF1010FB0
S3150800280018BFBCF1020F17D1D1F808C0D2F808E0FA
S3150800281007EA0E0E0CFA06FC4CEA0E0CC2F808C0C3
S31508002820D2F804C0D1F80CE02CEA000C0EFB00FE2E
S315080028304EEA0C0CC2F804C0D1F810C0D2F80CE06D
S3150800284007EA0E0E0CFA06FC4CEA0E0CC2F80CC08F
S31508002850D1F804C0BCF1020F10D1D1F814C0082D6C
S31508002860ABD2D2F820E0A80004FA00F52EEA050556
S315080028700CFA00F040EA050CC2F820C04868156852
S315080028802F4000FA06F63E4316605B1C0D6835FAC3
S3150800289003F0A5D1F0BD000030B5036801225C063F
S315080028A023D40568144A0B684C6815401D438A688A
S315080028B0CB68254315430A691D434B6915438A6945
S315080028C01D43CB6915430A6A1D43154305604368D2
S315080028D04A6923F0040343EA124343600A6AB2F5DD
S315080028E0005F04BF898C01610022C16921F400617F
S315080028F0C161104630BD00004000FFFF4018491C6A
S315080029001CBFB1F1010100F8012DF9D17047000093
S3150800291080B557480068C10701D5002002BD00F000
S31508002920E8F8012002BD642000F0C6B800F0C7B878
S31508002930F0B5504F504D0446387887B04FF40066CE
S31508002940B0B94E48016841F00401016001210068F0
S3150800295000F0040000902846009A02910022049193
S3150800296003920592019601A9FFF71EFF01223A700C
S31508002970012C06BF4FF00060A861AE6107B0F0BD3C
S315080029807047704780B5C6B04FF48C710022684610
S31508002990FFF7B4FF4FEA0D013FA0FFF7A9F838B9D2
S315080029A0009828B19DF80800C10658BF012000D537
S315080029B0002047B000BD000037A0704710B5304C66
S315080029C031A1002384F828320A222046FEF76CFD3E
S315080029D010B9012084F8280210BD000010B5284857
S315080029E090F82812012908BFFEF7DAFFFFF73CFE28
S315080029F000F1640423480068410603D4FFF734FE57
S31508002A008442F7D2BDE8104023A0FFF797B81C48C8
S31508002A1090F82812012908BFFEF7C2BF704770B5A3
S31508002A20174D044695F8280201281CD12946204648
S31508002A30FFF73AF9002816D5002085F82802284617
S31508002A40FEF7AEFF0FE00F4D6860FFF70DFE00F1D1
S31508002A500A062868000605D4FFF724FEFFF704FED9
S31508002A608642F6D2641C20780028ECD170BD00009E
S31508002A701000024079190020000802403038024050
S31508002A80940A0020004400402F626F6F746C6F67D1
S31508002A902E747874000000002F64656D6F70726F75
S31508002AA0675F6F6C696D65785F73746D3332703408
S31508002AB030352E737265630010494880704710B52B
S31508002AC0FFF7D2FD0D4C6168884211D320780C4976
S31508002AD020B94FF0805201200A6003E04FF480537A
S31508002AE000200B602070FFF7BFFD6188401860600A
S31508002AF010BD03494FF480500860704768190020DC
S31508002B001808024000F00100704780B5DFF8241A63
S31508002B10887801F02DF8012002BD00002DE9F84360
S31508002B20DFF8106A8046B078FF280C4658D1002C8A
S31508002B30DFF8047A04D13868C2074CD500BE4AE0EB
S31508002B402C21DFF8EC09FFF753FC0020307006F162
S31508002B50100001F00CFE06F10C00B060701C01F0CC
S31508002B600CFE70607078401CB0F5807F04DB386816
S31508002B70C10730D500BE2EE00025DFF8489A01E0EF
S31508002B8080476D1C7078421CE9B2D2B2914216D2C7
S31508002B90814205D27068EBB224214B43184404E005
S31508002BA0281AC0B2002805D1484600281CBF40682C
S31508002BB00028E5D13868C1070DD500BE0BE086F8B8
S31508002BC002802146404600F061FF002805D138689A
S31508002BD0C10700D500BE002003E0404600F0A6FF6E
S31508002BE00120BDE8F2830000F8B504460025DFF8A9
S31508002BF0D469DFF8407903E0C968204688476D1C28
S31508002C007878421CE9B2D2B2914213D2814205D2F7
S31508002C107868EBB224214B43C11804E0281AC0B2E5
S31508002C20002802D131460029E6D100F07DFC14D5F2
S31508002C3000BEF1BDDFF8F8482C212046FFF7D8FB87
S31508002C40FF221021201DFFF793FC04F11400BDE8B4
S31508002C50F840FF220C21FFF78BBCF1BD80B5FFF7CA
S31508002C60C3FFBDE8014001F00ABE00007FB5DFF8EA
S31508002C70C458A878FF2817D17FBD9DF80110DFF842
S31508002C80B868DFF8AC48491E072900F2BA80DFE8C1
S31508002C9001F0041AB19AA4215DAA9DF80000FFF775
S31508002CA0DDFF9DF80400A0700020AC682168884705
S31508002CB06946201D01F01FFD064621680120884748
S31508002CC0002EDAD17FBD9DF80000FFF7C7FF01F09F
S31508002CD0F1FEE9E72878002833D029784A1E2A70B9
S31508002CE028780028E0D1217841F00101217001A956
S31508002CF094F8200000F0FE0084F8200094F82000E4
S31508002D0000F0FB0084F8200094F8210000F0FE0093
S31508002D1084F8210094F8210000F0FB0084F82100D3
S31508002D209DF8000000F080F80028BDD19DF800004D
S31508002D30002100F0DDFF9DF80000802100F0D8FF9B
S31508002D40B2E73068C10797D500BE7FBD9DF804106D
S31508002D5001F00F0004EB400404EBD11212F8203FF7
S31508002D6003F0FE03137092F800C00CF0FB0C82F817
S31508002D7000C09DF80520029B20B99DF8000001F0CF
S31508002D8091FD91E704EBD11090F814C0687884455A
S31508002D9006D26868242414FB0CFC00EB0C0406E03D
S31508002DA0ACEB0000C0B2002808D1DFF89448002C2C
S31508002DB004D09DF80000A469A04775E73068C107EC
S31508002DC000D500BE7FBD2078C10705D52078C0088C
S31508002DD000F0010001F071FE66E72078C107FBD517
S31508002DE001F06DFE60E701980028FBD00298019972
S31508002DF0884759E7E078C107FBD5019801F063FEDB
S31508002E0052E73068C107FBD500BE4DE770B50D46E1
S31508002E1004466869164601F036FD6B693246204657
S31508002E20BDE87040012118472DE9F84380460E4653
S31508002E30002001F028FD3278DFF8FC56C2F3411075
S31508002E40022804DD2868C10740D500BE3EE009D146
S31508002E50DFF86C0801F017FD32460121404601F003
S31508002E6039FE4DE0DFF8CCE6DFF85817DEF8043017
S31508002E70DFF8BC7612F01F004FF0240C05D00228AC
S31508002E8000F0C680C0F09B801DE1C2F34110012806
S31508002E9016D13079102819D23A1D105C9EF80120F7
S31508002EA0904204D21CFB00FC03EB0C0102E0801AE2
S31508002EB0C0B258B951B132464046FFF7A7FF1FE0E6
S31508002EC0002805D02868C10700D500BE002017E0F5
S31508002ED07178387809296DD8DFE801F0605A6C53A3
S31508002EE06C054C6C141E304601F0D0FC7188C9B2D2
S31508002EF0404600F01DFE387840F002003870012088
S31508002F00BDE8F28378788DF8000001236A463146D9
S31508002F10404601F07BFCF2E774887978E2B2914288
S31508002F2023D0787868B10021404600F02FFE40464D
S31508002F3000F056FE97F802904046FFF755FE87F8D0
S31508002F4002907C70E0B210B901F0B4FD0DE0E1B278
S31508002F50404600F0BDF8002805D178702968C807F2
S31508002F60B4D500BEB2E701F0A2FD3146404601F0F5
S31508002F7012FCC4E73146404600F04EF90028BED19F
S31508002F80BEE771880129A1D140F008003870ECE746
S31508002F90718801299AD100F0F700F7E7410901F095
S31508002FA00101C0F3C00008B141F00201ADF80010FC
S31508002FB00223ABE72868C10700D500BE86E730794B
S31508002FC01028FBD23A1D105C9EF80120904204D2CC
S31508002FD01CFB00FC03EB0C0103E0821AD2B2002AA8
S31508002FE0ECD10029EAD032464046FFF70FFF002809
S31508002FF0C5D13078C0F34110002806D101F043FC52
S3150800300071780A2902D00B29AFD05FE700207AE74A
S31508003010B08800F00F04062C04D32868C10700D531
S3150800302000BE53E707EB44044FEA006904EBD97482
S3150800303094F814909EF801E00024F14504D21CFB94
S3150800304009FC03EB0C0404E0A9EB0E03DBB203B99D
S315080030500C46C2F3411121B1002CE2D0324621467A
S315080030602AE77278110004D0012A18BF032A09D06A
S3150800307024E0C1B2404600F017FB00B10120ADF8CC
S31508003080000095E7718841B9012AC1B2404602D1CC
S3150800309000F0EBFA01E000F0D5FA002C3FF42FAF70
S315080030A0324621464046FFF7B1FE002001F0EBFB11
S315080030B097F82100C1073FF522AF56E72868C107F0
S315080030C000D500BE02E72868C107FBD500BEFDE6AD
S315080030D02DE9F84F8246481EC0B201F0F7FC0028D9
S315080030E0DFF8545402D04178022904D02868C10771
S315080030F000D500BE8BE0DFF83814C3790A78DFF80C
S31508003100C4B4DFF830445B0902F0EF0203F00103B0
S3150800311042EA03120A7002F0DF02C3799B0903F040
S31508003120010342EA43120A7000F10906418808447D
S315080031300090009886426CD270780B284FF00109EF
S3150800314003D196F80390307806447178042905D19E
S315080031500098801BD0460027824612E02868C107DF
S3150800316055D500BE53E01B691FFA8AF23146404620
S3150800317098470146092903D31FFA8AF088421ADAC2
S315080031807F1C6078421CF9B2D2B2914234D2814295
S3150800319005D26068FBB224214B43034404E0381A85
S315080031A0C0B2002802D15B46002BDCD12868C107D3
S315080031B02DD500BE2BE0DFF87803C24600228846EC
S315080031C0031D01E05F54521CD1B249450CDAB178AF
S315080031D05118C9B213F801C0BCF1FF0FF2D0286824
S315080031E0C10714D500BE12E0FBB242463146143080
S315080031F001F07FFD464400E0C2466078401CFFB2FD
S31508003200C0B2874295D32968C80700D500BE0020FA
S3150800321000E00120BDE8F28F70B50D4604466888C7
S31508003220DFF81463010A01290AD0022919D00329F3
S3150800323029D006292CD0072913D00F290CD032E023
S3150800324001F042FC0246002A04D13068C1072AD59B
S3150800325000BE28E0122320E001F03AFC002823D023
S315080032600EE00229C0B208D101F030FC002807D1CF
S315080032703068C10717D500BE15E001F089FE98B180
S31508003280811C0B8808E0A988C0B201F044FC01E063
S3150800329001F080FE40B10378024629462046BDE883
S315080032A0704001F0B3BA002070BD00002DE9FE4F52
S315080032B004460D466078DFF88062DFF80873DFF8A9
S315080032C07492DFF80024801E05284FF0240816D8CB
S315080032D0DFE800F0031F0E16A2A8117801F0FE0120
S315080032E011700021107800F0FD00107051700BE08D
S315080032F01178C80706D5117841F004011170CEE09F
S315080033001078C10740F1E980107800F0FB001070D2
S31508003310C5E04FF0000A16E0AAEB0000C0B280B97B
S31508003320384606E08142F7D2D9F8040018FB01F1C5
S31508003330084400281CBF026A002A02D06168207867
S3150800334090470AF1010A99F80100421C5FFA8AF1CE
S31508003350D2B29142E6D3DFF86C733878C0F38000B6
S3150800336080B397F800C00FF26C310CF0FB0C87F8AD
S3150800337000C0684691E80C4080E80C402078D9F8EF
S3150800338008808DF80000280003D1D8F80010002026
S315080033908847694608F1040001F0C1F98246280009
S315080033A003D1D8F8001001208847BAF1000F04D1DC
S315080033B03068C10706D500BE04E000F0BFF82A460B
S315080033C001F0EAFDF878C00720D50FF2143191E82C
S315080033D08C00684680E88C0020788DF800006068CC
S315080033E0D9F808400190280002D1216800208847B2
S315080033F06946201D01F093F90746280002D1216885
S3150800340001208847002F04D13068C10765D500BE62
S3150800341063E000F093F85DE099F80000401C89F835
S3150800342000003CE0217911F00F004FEAD11A36D09E
S3150800343002EB400B0BEB0A0099F80120007D904245
S3150800344006D2D9F8042018FB00F802EB080702E0B8
S31508003450801AC0B218BB002F1CBFF86900281ED0FE
S315080034600BEB0A0010F8202F02F0FE0202700BEB9D
S315080034700A0010F8203F03F0FB0303706279A36883
S315080034802078FF69B84740BB0BEB0A0000F0E7F865
S315080034900BEB0A0010F8202F42F0040202702800F5
S315080034A0D9F8087002D13968002088472146381DA6
S315080034B001F035F98046280002D13968012088478D
S315080034C0B8F1000F04D13068C10706D500BE04E084
S315080034D0617820782A4601F05FFDBDE8F78FDFF8AE
S315080034E0E81189780028084618BF00F01FBB00F0CD
S315080034F01EBB10B5DFF8D441002801BF606800285C
S31508003500216888476068401C606010BDDFF8BC21F0
S31508003510516841B1491E5160002808BF002902D1EF
S31508003520116801200847704703480168CA077047B1
S31508003530F818002030010020F0ED00E09DF8011099
S315080035409DF800007047000070B55F48604E8478AB
S315080035500D46A87800F00F00062804DB3068C1077E
S315080035600DD500BE0BE0574B99780022284601F08E
S3150800357079FB002805D13068C10700D500BE0020B8
S3150800358070BD29462046BDE8704000F017BB38B527
S3150800359000F00DF8BDE83440002101F039BB38B51C
S315080035A000F005F8BDE83440002101F04ABB454A61
S315080035B0084600F00F0302EB430404EBD01505F1AF
S315080035C0200070471C7D0008F8B500F02BF80AD4D7
S315080035D000F010F800F05DFB50B900F014F800D5C3
S315080035E000BE0020F2BD3068C107FAD500BEF8E774
S315080035F00120F2BD281910F8207F47F0010707704F
S31508003600314FB8787047281910F8201F01F0FE01CD
S31508003610017028192030027802F0FB020270306827
S31508003620C107704701F00F00264DCC0905EB400590
S3150800363005EB0400264E90F82070F8077047000046
S315080036401C7D000838B500F020F800F051FB00F0AA
S3150800365022F842F002020A7000F001F831BD10F8B3
S31508003660201F41F001010170704738B500F00DF8D0
S3150800367000F050FB00F00FF802F0FD020A7010F897
S31508003680201F01F0FE01017031BD0F4A907801F04C
S315080036900F04CD0970470B4901EB4400431903F1A8
S315080036A0200128440A787047064801F00F0200EB0B
S315080036B0420303EBD11191F820004008FFF722BA24
S315080036C0D54A0008F8180020300100204C010020D7
S315080036D0F0ED00E00005000000000000000000001A
S315080036E0000300000000000000000000F0B50446DA
S315080036F0022CA8BF00200FF6A035000105EB041622
S315080037002B58377ADFF8584B01F00F00B84204DB24
S315080037102068C10733D500BE31E0D21C9208C9091A
S31508003720DFF8405B12D1C2F30D02BA18520010320C
S31508003730586A92B2904230D2A988914204DA206837
S31508003740C1071CD500BE1AE05A6226E0717A49B153
S31508003750AE798E4204D32068C10710D500BE0EE0AC
S31508003760761CAE7199680E0658BF5200A9885F6A22
S31508003770BF18B94205D22068C10700D500BE00208F
S31508003780F0BD891AA980002889B241EA02410EBF14
S31508003790996203EB8000C0F800110120F0BD0146D4
S315080037A00A46022AA8BF00210FF6EC23090103EBFB
S315080037B002125958137A5B0030334B628B6CD2680D
S315080037C0920893B243EA0343CB658021DFF8943A23
S315080037D09A8040228AE7F0B50228A8BF00200FF693
S315080037E0B8228F880001C7F30A0713588878DFF8CC
S315080037F0782A00F00F04C00902EB441202EB001C01
S3150800380003F60806ACF80A700127326891F806E054
S31508003810C2F341021AB9AEF1010207FA02FE0FF627
S3150800382098228CF80CE0CD781268DFF8401A11401F
S31508003830BCF80A201143AA0402F44022114305F0F9
S31508003840030541F4004E012D18BF4EF0805E002896
S315080038501DBF2EF0707141EA845E00214FF400719D
S31508003860194401EB4411C1F800E900B91034706934
S3150800387007FA04F404437461F0BD30B50228A8BF02
S3150800388000200FF6142300011B5801F00F00C90988
S3150800389014BF00244FF400741C4404EB401404F5D0
S315080038A010640AB14FF400120029216820D00029BB
S315080038B005D421680A4342F00062226010E02568B8
S315080038C045F000652560A1684D06FCD521680A43C8
S315080038D042F080422260A1688A07FCD50221A160D5
S315080038E0800140F02000186118698206FCD430BDBA
S315080038F0002900D518B921680A43226030BDD3F8DB
S31508003900040840F40070C3F8040858690106FCD599
S315080039102068024342F080422260A0688107FCD5F5
S315080039200220A060D3F8041841F48061C3F8041893
S3150800393030BD2DE9F84F0228A8BF00200FF658120F
S3150800394000018A4652F80090DFF8242909EB4A1349
S3150800395003F5106702EB4A143D69ED0000220026C4
S31508003960884617E022685B464146484601F06DFCEA
S3150800397023685B4423600BE060685A440028009281
S31508003980F0D009EB0A315A4601F5805100F0C5FE20
S31508003990009A761CB0B2B0EB955F0EDAD7F810B085
S315080039A060891FFA8BFB834588BF8346B869DFF8B1
S315080039B0C41801EA80015945DED290B2BDE8F28FFB
S315080039C0F8B50346012BC8BF00230C460FF6C801FD
S315080039D0DFF894581B0105EB4415CF58134605EB41
S315080039E00315012A0CBF00264FF400763E4406EB69
S315080039F0441101F5106C21000CD1DFF8686836F81F
S31508003A0013E07146402988BF4021AEEB010E26F827
S31508003A1013E008E029896B895E18761EB6FBF3F376
S31508003A209EB2002E00D101230FF69006366861F388
S31508003A30120663F3DC46CCF8106007F60806DCF8D5
S31508003A4000E04EF0044ECEF38143012B08D13368D3
S31508003A50C3F30023002B14BF4EF0805E4EF0005EC9
S31508003A60BB6CCCF800E0012A0FD171B12146FFF7F3
S31508003A7060FF210009D02989081A002805DDF06AA7
S31508003A80012101FA04F40443F462F1BD70B5044659
S31508003A900228A8BF00200FF60001DFF8C82700019A
S31508003AA00D580020C2E900000121284601F0FCFA61
S31508003AB00646A86C00223146204601F0FFFA002887
S31508003AC005D100F0DBF800D500BE002070BDD5F8A2
S31508003AD00008800880003EB1A96CC1F38111022953
S31508003AE004D140F4804001E040F0030040F00400B7
S31508003AF0C5F80008204600F03BF8E968022060F3A4
S31508003B005E71E960286820F0100040F0C000286067
S31508003B10A969DFF864070143A9612046A96841F04D
S31508003B208001A96000F018F8012070BD7047704741
S31508003B300246022AA8BF00220FF25C7312019A58A5
S31508003B40D2F8003823F4FE6343EA0113C2F80038BA
S31508003B500022002380219CE00228A8BF00200FF243
S31508003B60387100010858D0F8041821F002010AE05B
S31508003B700228A8BF00200FF2207100010858D0F8CB
S31508003B80041841F00201C0F8041870470228A8BFBB
S31508003B9000200FF20472DFF8CC3600011058D971F4
S31508003BA031B108214161826942F008028261704799
S31508003BB0816921F0080181617047000038B50D461A
S31508003BC00446AA88A978C2F30A02FFF78FFD0028DF
S31508003BD005D100F053F800D500BE002032BD52E0F2
S31508003BE0F8B5044622460128C8BF00220FF2A8618C
S31508003BF012018D5801EB001100200E7AFFF779FCAF
S31508003C00DFF86006002181714FF00112C5F81C2803
S31508003C1001201EE0002105EB401303EB412303F5C9
S31508003C201063D3F800C0BCF1000F05D5D3F800C067
S31508003C304CF0904CC3F800C04F42DFF82C3603EB2B
S31508003C40401303EB0712491C002301295383E2DDC5
S31508003C50401CB042DEDB4FF4846028612869810687
S31508003C60FCD4102028612869C106FCD42046FFF739
S31508003C7096FDBDE8F2400020FFF748BCDFF8E005F6
S31508003C800168CA07704729462046FFF7A4FD0120A8
S31508003C9032BD2DE9F04701F00F089A46CD09DFF845
S31508003CA0C8150446A94601EB4813164603EB09173F
S31508003CB00020FFF71EFC788908B9002412E03E6050
S31508003CC000207860A7F808A05FEA0801387B7873B7
S31508003CD004BFDFF8900520F819A02A462046FFF70A
S31508003CE06FFE01240020FFF711FC2046BDE8F0878F
S31508003CF038B505460C46022DA8BF00250122FFF758
S31508003D00BCFD14F00F0F04D10FF28C502D01415950
S31508003D10886C31BD0228A8BF00200FF27C52000132
S31508003D20CB09105883F0010300EB432201F00F0181
S31508003D3002EB411000F51060016821F400110160E2
S31508003D40026842F08052026070472DE9F84F024639
S31508003D5086B0012AC8BF00220FF23C5312019B58B5
S31508003D609A6C9A6C920A02F00F02521C012907BF3C
S31508003D700025A84610254FF40078984408F5106BDE
S31508003D800027DFF8E0448DF800108046059304927A
S31508003D9023E00722DFF8E4048DF804808DF8052077
S31508003DA08DF80870415A039100208DF80900012109
S31508003DB001A8FFF77BFA0FE048F221021640012E10
S31508003DC00AD1F8B20028E4D120880028E1D00022E0
S31508003DD000214046FFF7F4FD7F1C0498F9B28142A2
S31508003DE07CDA059BD3F818087A19D040C307F3D5AF
S31508003DF049010BF108020BF10800565846509DF888
S31508003E000020012A48D140460128C8BF00200FF2E9
S31508003E108842000152F80090DFF84C0409EB0103D0
S31508003E200844F20703F5106A00F110011BD5F8B231
S31508003E3038B9608828B1012200214046FFF7C0FD45
S31508003E4011E0098903910722002147F080038DF8C4
S31508003E5009108DF805208DF808308DF804800121A9
S31508003E6001A8FFF723FAC6F3C0100028B4D0D9F882
S31508003E703408F840C107AFD5F9B24046FFF759FDF7
S31508003E80DAF810004103A7D1D9F834080121B9405E
S31508003E908843C9F834089FE7C6F3C00000288BD0CA
S31508003EA040460128C8BF00200FF2EC31000108582F
S31508003EB0D0F80019002904D5002280214046FFF7D2
S31508003EC0DCFC06218DF8051002A804F108018DF81E
S31508003ED00480D1E90023C0E9002368E707B0BDE8FC
S31508003EE0F08F2DE9F04F85B0814601900128C8BFB3
S31508003EF000200FF2A43BDFF8708300015BF8006036
S31508003F00B76970690740F90478D54FF48052726131
S31508003F100120FFF7EEFA019948460129C8BF00209B
S31508003F200001C0215BF80040D4F848A04FEA9A2067
S31508003F3000F00F00451C4046FEF75AFAC948002211
S31508003F40C280002004F5306105E04201401C8B5810
S31508003F5043F000638B50A842F7DB002004F510629B
S31508003F6009E002EB41110B68002B03D50B6843F0FF
S31508003F7090430B60401CC1B2A942F2DB04F5006015
S31508003F804FF00111C16109224261092101614FF413
S31508003F908460206120698106FCD410202061206994
S31508003FA0C106FCD44846FFF7FAFB04F50060016831
S31508003FB021F4FE610160D4F8000980088000C4F885
S31508003FC0000904F53060016889088900016040210C
S31508003FD0D4F80029C4F8002903680360A8F80A1071
S31508003FE0A8F81A10A16C026942F0C0420261A069E1
S31508003FF040F4E010A0610120FFF788FAB8044FF4F6
S31508004000006422D54FF4005171617461B06940F4BF
S315080040100060B061484601990129C8BF0020000127
S315080040205BF80000D0F80808400810F0030004D038
S3150800403002280CBF0121002100E0022101228DF88F
S315080040400C108DF8092000F020F9380506D57461A2
S315080040500421B06920F4006000F014F9002F08D597
S315080040604FF0004171610521B06940F4006000F02D
S3150800407009F9780706D57468600702D5022100F0A9
S3150800408002F97460380716D508217161B069754A56
S3150800409040F40060B061D6F80808C0F30D21D07965
S315080040A018B9B06920F00800B061032203918DF8B1
S315080040B0092000F0EAF8F8065AD5B16921F010018E
S315080040C0B1618DF8009001999DF800000129C8BFDB
S315080040D0002000015BF800301A6A02F00F094FEA67
S315080040E0491003F530652C18550C05F00F05022DFF
S315080040F003F5805104D0042D27D0062D2AD02EE0B2
S31508004100C2F30A1ABAF1000F08EB00050FD008F13E
S31508004110040210580028524602D000F026FB06E09A
S315080041202968184601F076F82868504428606A8994
S31508004130924514D229892069091AB9F1000F2981F3
S315080041400DD148490020088009E0206940F0C040A8
S31508004150206104E043480A6882600968C1607069A2
S31508004160C106B0D49DF80090B06940F01000B06167
S31508004170380303D500214846FFF7E7FD780303D542
S3150800418001214846FFF7E1FDF80265D54FF4801195
S3150800419071614846019A012AC8BF0020000100241F
S315080041A05BF800600FF2181AD6F80808B76CBF0A51
S315080041B0C0F3002007F00F07CB467F1C814619E0A5
S315080041C044F080050022E9B25846FFF756FB07215E
S315080041D08DF801100122002102918DF805208DF835
S315080041E000B08DF8045001216846FFF75FF800E03B
S315080041F00A60641CBC422FDA06F5106101EB441113
S315080042000A68D00FF5D0C2F38140012804BFC2F373
S3150800421000404845EDD108F1100000EB4413587BE7
S315080042200028CDD0401E58735D89DAF800001B8936
S3150800423000F0604018432B445B1EB3FBF5F3104DAA
S3150800424005EAC34318430861B9F1000F14BF42F0E9
S31508004250805242F00052CBE705B0BDE8F08F00006F
S31508004260F0ED00E04C190020C81500200078F3FF97
S31508004270D8150020FCFF030004300080D01500206C
S315080042800000F81FB0618DF809108DF8089001211B
S3150800429002A8FFF70BB8000000000050430000001A
S315080042A00400000000050000000004404D00000066
S315080042B006000000001000000000000000000000DA
S315080042C00000000030B548F20105AA4201DB0020D3
S315080042D030BD039C016082800022C18863F30E0111
S315080042E0C180C17901F07F0141EAC411C171002181
S315080042F041810281012030BD1CB5930802E00C689B
S3150800430040F8044B1C46631EA4B2002CF7D112F0E9
S31508004310030204D00B6800936946FEF70DF913BD36
S315080043201CB50446900802E051F8043B2360034696
S31508004330581E9BB2002BF7D112F0030205D000934A
S315080043406846FEF7F9F80099216013BD521893B232
S315080043508B4203D391B2B1EB400F03DB4FF6FE71EC
S3150800436010FB012290B2704738B50C469A422FBF0F
S31508004370D11A8188C3EB4101511889B209B90020C5
S3150800438032BD85888D4207DAAA422CBF521BAA186D
S315080043904281134600E05B1B99B2A942FBD2C18851
S315080043A00068C1F30E019BB20A464B43C11820466A
S315080043B0FEF7C2F8012032BD2DE9FC470A9CA6B2D9
S315080043C00546B3422FBF1E1BAF88C4EB47069E198E
S315080043D0B0B2002800F08A80B5F804C0B7B2BC4570
S315080043E007D263452CBFA3EB0C0363446B811C46C1
S315080043F06646B6B2964203D9164601E0A4EB0C040B
S31508004400A2B26245FAD20B98EB88D5F800E0ACEB7D
S315080044100402A4B292B2A6EB0208C3F30E0318FB79
S3150800442003F95C43C0B203FB02F70EEB040800284D
S31508004430BFB20C4647D0012857D1B24204DB16FB5F
S3150800444003F292B241463AE04FF6FC7000EA070AD8
S31508004450524641462046FFF763FF17F0030708EB6D
S315080044600A0126D03846C0F104001FFA89F280B244
S31508004470824288BF0246D0B2A9EB00090023009306
S31508004480684603E011F8013B00F8013B3B465F1E16
S31508004490DBB2002BF6D1296803E011F8013B00F8DE
S315080044A0013B13465A1EDBB2002BF6D1009820605A
S315080044B000E029681FFA89F0B8B11FFA89F2204688
S315080044C0FFF72EFF11E0B24204DB03FB06F241467A
S315080044D0204608E03A4641462046FEF72DF8296868
S315080044E01FFA89F2E019FEF727F83046BDE8F68785
S315080044F02DE9F84F170008BF002000F0BC800446DD
S315080045008B46B4F80880B4F80AC0E079A588C009D3
S31508004510A8EB0C011E4619D1E0452EBF8C46CCEB04
S31508004520450CC4441FFA8CF0A842B4BFA5EB000C96
S315080045304FF0000C1FFA8CF18F4204D36746B8B2CD
S31508004540002800F09780A08843461FE0AF420AD3B0
S31508004550300005D1E088521BC0F30E004243934455
S315080045602F46E046EBE7E0453CBFCCEB450141442E
S3150800457012FA81F0B0EB450FE5DBEA1B92B2614611
S315080045802846FFF7E3FE8046DDE71B1A9AB2824209
S31508004590FBD2E188C01A80B2C1F30E0101FB00F21A
S315080045A01FFA82F93A1A12FB01F522689BB24B43AD
S315080045B002EB030A002EBBB244D0012E54D1984216
S315080045C005DB17FB01F292B25946504637E04FF623
S315080045D0FC7606EA0906324659465046FFF78CFE2F
S315080045E019F003090AEB060124D04846C0F1040075
S315080045F0AAB280B2824288BF0246DBF80030009336
S31508004600D0B22D1A6B4603E013F8010B01F8010B23
S315080046104846A0F10109C0B20028F5D12068114624
S315080046204A1EC9B200291CBF13F8011B00F8011B5A
S31508004630F5D100E02068A9B2B1B1AAB25946FFF790
S315080046405BFE11E0984204DB01FB03F25946504633
S3150800465008E04A4659465046FDF76EFF2068AAB25A
S315080046600BEB0901FDF768FFA088BAB24146FFF7D0
S315080046706DFE2081B8B2BDE8F28F3EB5044660896A
S315080046800193009020462389FFF796FE00F03EF836
S31508004690608128463EBD014648890A898988824242
S315080046A02EBF101AC0EB4100101880B2884288BF8E
S315080046B008467047418902898388104688422EBF7A
S315080046C0511AC1EB4301511889B299428041C0433E
S315080046D0C00F7047014648890A89898882422EBFD9
S315080046E0101AC0EB4100101880B28842B4BF081AED
S315080046F0002080B2704738B5044663892289FFF7DF
S3150800470033FE00F003F86081284632BD618905460C
S31508004710A0882A461AE60023AFE70123ADE770B55D
S3150800472004460D462689FFF7C5FF10B1E079C00992
S3150800473018D0A188304600E0401A82B28A42FBD2DD
S31508004740E3882946256880B2C3F30E0358431A4600
S315080047502844FDF7F1FEA08801223146FFF7F6FD51
S315080047602081012070BD0023C2E60123C0E6002196
S31508004770418100220281012070470021017000203A
S31508004780704700000978C90981F001010023002259
S31508004790C901FEF719BFF8B504466E4E0D463046F8
S315080047A00822FDF7C9FE0027B760F76029462046AC
S315080047B0BDE8F440E6E7F8B5664EB4890546F089E3
S315080047C0241AA4B2402C88BF402430780027C00998
S315080047D00ED0802784B12200B1680AD009B1412AD7
S315080047E001D30020F2BD06F11400FDF7A5FE00E096
S315080047F014B106F1140200E0002223463946284681
S3150800480001B0BDE8F040FEF7DFBE00002DE9F84331
S31508004810804614464F4D0E461F4628460822FDF789
S315080048208BFEAC604FF00009A5F80E90F088874221
S3150800483088BF0746AF81F088474D88B137B1002C4D
S3150800484004D12868C10715D500BE13E04046FFF716
S31508004850B2FF002810D12868C1070BD500BE09E0B1
S3150800486031464046FFF78EFF002805D12868C10764
S3150800487000D500BE002000E00120BDE8F283142127
S315080048803448FDF7B5BD33490861704738B5014668
S31508004890304C20460822FDF74FFE0025A560E5604E
S315080048A031BD0000F8B52B4E2B4F05463078C009B0
S315080048B0C90981421C4612D0002C04D03868C107A9
S315080048C045D500BE43E03146284600F0EDFC336985
S315080048D01BB132460321284698470120F2BD30B95C
S315080048E0B068A0B3224606F11401FDF725FEF0894B
S315080048F0B168F2882018F081214480B28242B16002
S3150800490001D0402C1AD2336923B1324602212846F7
S31508004910984750B131462846FFF734FF0028DCD1C6
S315080049203868C10713D500BE11E000212846FFF7F5
S31508004930DFF980212846FFF7DBF9CEE72846FFF79F
S315080049403AFF0028C9D13868C10700D500BE002043
S31508004950F2BD000060180020F0ED00E010B54748F1
S315080049604FF0A044046000F0A0FC4548016841F0FF
S3150800497002010160A06B00BF52A140F40010A063C1
S31508004980A06B20F40020A063A06B20F48020A06315
S315080049900020FEF7C3F800F0B4FCB0F5FA6F05D2B4
S315080049A0BDE810404FF4FA6000F0A8BC10BD80B511
S315080049B0FEF7ABF831484FF0A0410160BDE8024070
S315080049C000F0A4BC32B5402905462E4C03DB9F21D6
S315080049D0204600F09CFC01226946002000F0B7FC46
S315080049E0012803D0A321204600F091FC9DF8002061
S315080049F02946002000F0ABFC9DF80010884203D041
S31508004A00A621204600F083FC002000F0A8FC31BD5A
S31508004A1070B505460E460020FFF763FA00214FF0F1
S31508004A20FF30FEF723F9184C607870B9201D00F0A6
S31508004A302DF8012807D1207928B1402803DA01206A
S31508004A40002160702170002070BD2178601D084427
S31508004A5000F01CF80128F6D122782179521CD0B230
S31508004A6088422270EFD1D2B2611D284600F094FD2B
S31508004A700020217860703170012070BD540100203B
S31508004A8004080050007C0008B418002038B5044615
S31508004A90002000F04DFC002538B1012221460020F7
S31508004AA000F04DFC012808BF0125284632BD01202B
S31508004AB0FDF73EBF0020FDF73BBFFDF761BFFDF7E1
S31508004AC060BF00000100704744A0704748A07047C7
S31508004AD03E4870471CB50129144601D0012016BD71
S31508004AE02178C1F34111022901BF61780129A18802
S31508004AF007290ED1364A02F108010B788DF80030E5
S31508004B004B788DF801302146BDF80030FFF77EFE60
S31508004B1016BD002016BDF8B52E4C217884B00022AB
S31508004B2039BB2D490B68019301234D6802958968A5
S31508004B3003912370002101AD6D5C2E0905F00F0568
S31508004B408DF801508DF8006000251DF805600A2EC5
S31508004B5034BF30363736271DD3B2521C6D1CFE546F
S31508004B60022DF2D3491C0C29E5D3231DD2B200210C
S31508004B709954010008D1206E027804F122010A70C6
S31508004B8042784A70022019E0042828BF00201BD268
S31508004B9004F1600151F82050284600F00FFDC0B21C
S31508004BA02028A8BF1F20002104F1220303E06A5C25
S31508004BB023F81120491C8142F9DB4000801C40F48F
S31508004BC04070208404F1200005B0F0BDF87C000890
S31508004BD0E8790008C0000020107AFF1F12010102C0
S31508004BE000000040501DAC600001010203010000F6
S31508004BF009022000010100804B0904000002FF00A1
S31508004C000000070501024000000705810240000078
S31508004C1001460878C20712D40878C0F3800070B934
S31508004C200878C2070BD40878800800F0010090F0D5
S31508004C30010003D00B7843F004030B707047002083
S31508004C40704701460878C0F3800000281EBF087820
S31508004C5000F0010090F0010003D00B7803F0FB038D
S31508004C600B70704770B5C6788388DFF8004306F086
S31508004C700306012EC3F30A034FF4806504D036D326
S31508004C80032E2BD00BD332E0022918BF40F2FF3592
S31508004C909D4214D22068C10729D500BE27E0022903
S31508004CA007D1B3F5007F0AD02068C1071FD500BE1B
S31508004CB01DE032B1B3F5007F03D140218180012088
S31508004CC070BD082B18BF102BF9D0202B18BF402B0E
S31508004CD0F5D02068C1070AD500BE08E0022918BF2A
S31508004CE040259D42EBD22068C10700D500BE0020B2
S31508004CF070BD70B50A440BE04C78052C06D18C784B
S31508004D0004F00F0500EB4506E40933550C782144F9
S31508004D109142F1D370BDF8B505462F780698079AE3
S31508004D20089E099C07F0FE0739432970009301463F
S31508004D30012392B205F10800FFF7C4FA6E606C8091
S31508004D400120F2BD0120704770B50D46044628784B
S31508004D5081074CBF40F2FF113F212B8A6E8AB3426E
S31508004D6019D1C2B10A4216D1C20714D469782046AD
S31508004D70FEF70DFC00280ED02878C10707D46978FD
S31508004D80002300222046FEF71FFC002805D100F06C
S31508004D903AF800D500BE002070BD012070BD0000A5
S31508004DA070B504460D4605F10800FFF774FC48B3D4
S31508004DB02878C10725D469782046FEF7E8FB00B3B2
S31508004DC06A88696805F10800FFF7A5FC0646287891
S31508004DD0002E10D0C00707D46A6869783346204683
S31508004DE0FEF7F2FB002804D100F00DF809D500BE45
S31508004DF007E0304670BDC00703D469782046FEF741
S31508004E00CEFB002070BD59480168CA0770470000EC
S31508004E10F8B51C0005460E46174625D0B08928BBAE
S31508004E203178CA0720D471782846FEF7B0FBD8B186
S31508004E307088844288BF0446706822463946FDF762
S31508004E407BFB3078C1070BD4A0B2002814BF726868
S31508004E5000227178A3B22846FEF7B6FB00281FD1B8
S31508004E60FFF7D1FF00D500BE0020F2BDA2B2394639
S31508004E7006F10800FFF777FC0446307881074CBF37
S31508004E804FF40077402706F10800FFF704FCB84204
S31508004E9002D2B089B84203D231462846FFF780FFCE
S31508004EA02046F2BD2DE9F0410D468046A8892F4ED1
S31508004EB0E8B92978CA0756D469784046FEF767FBE9
S31508004EC0002850D028786B88C10709D4180014BF69
S31508004ED06A68002269784046FEF776FB002804D106
S31508004EE03068C1073FD500BE3DE068883CE02878B9
S31508004EF081074CBF4FF40074402405F10800FFF702
S31508004F00E9FBA0422FD32878C1072CD469784046FC
S31508004F10FEF73DFB38B305F10800FFF7DBFB297800
S31508004F20A042074619D36A88601E8743974288BFFE
S31508004F301746C9070AD4380014BF6A680022697878
S31508004F403B464046FEF740FB002804D13068C107BF
S31508004F5009D500BE07E0384606E0C80703D46978D5
S31508004F604046FEF71CFB0020BDE8F081F0ED00E0AE
S31508004F7070B50D46044611469AB205F10800FFF7CA
S31508004F80CAFB064629462046FFF78CFF304670BD09
S31508004F900020704700207047704700000029816B89
S31508004FA00BD18B4A41F480319042816308D18948FC
S31508004FB0016821F080410160704721F480318163E6
S31508004FC0704700293DD18449844A0968914228BF1F
S31508004FD04FF4C05130D2824A914228BF4FF4E05173
S31508004FE02AD2804A914228BF4FF4005124D27E4AE1
S31508004FF0914228BF4FF410511ED27C4A914228BFD5
S315080050004FF4205118D27A4A914228BF4FF43051B2
S3150800501012D2784A914228BF4FF440510CD2764AB0
S31508005020914228BF4FF4505106D2744A91422CBF80
S315080050304FF460514FF47051C26822F47052114314
S31508005040C160704701690029FCD5016C026942F00C
S315080050500102026189B244F20A22914203D201692D
S31508005060CA07FCD408E001698A00FCD50169490829
S31508005070490041F00051016101690029FCD57047DA
S31508005080006C5F49000C000488421FBF5D4A9042CD
S315080050905D49884206D05D480268D10700D500BE42
S315080050A00020704701207047012901D10020704770
S315080050B0806CC0F3811000B1012070472DE9F041E2
S315080050C00E4614460228A8BF002000BF6EA10001A4
S315080050D00D582846FFF7D4FF002806D14B4801682B
S315080050E0CA0700D500BE002070E0A8684008400046
S315080050F0A860002EEE6831D0D5F84880286DC0F338
S315080051008130002814BF10270827C8F38110022809
S3150800511026F0400604D13E48064046F0100607E051
S3150800512026F01006102F0CBF46F0080626F00806D3
S31508005130EE60C8F381112846FFF730FF2846FFF7CF
S3150800514081FF26F47056102F0CBF4FF4A0504FF471
S3150800515010500643EE60C8F381110EE046F0400693
S31508005160EE6000212846FFF719FF2846FFF76AFF79
S31508005170052060F38D26EE6000212846FFF721FF03
S31508005180E86840F00700E8604FF48461D5F8000E3F
S3150800519000090001C5F8000E296128698106FCD4BA
S315080051A0102028612869C106FCD44FF0FF306861D9
S315080051B068600020A86124B1A86840F02600A860AD
S315080051C003E0A86940F01000A8610120BDE8F0815D
S315080051D00000044050380240BC0000200048E801A6
S315080051E0E09DA30100366E0140A44C01002D31015B
S315080051F0A0491A01807306010024F400C0E1E40006
S315080052000000544F0000315500003255F0ED00E023
S3150800521077FFC5FF30B593084FF4805402E005596F
S3150800522041F8045B1D466B1EADB2002DF7D112F096
S31508005230030209D000590870012AC4BF030A4B703B
S31508005240022AC4BF000C887030BD10B500EB0130CF
S3150800525000F58050990802E052F8044B04600C46A9
S31508005260611EA4B2002CF7D113F003030BD01178FA
S31508005270012BC4BF547841EA0421022BC4BF92789B
S3150800528041EA0241016010BD0000005043000000E1
S315080052900400000000050000000004404D00000066
S315080052A006000000001000007047704710B5164C45
S315080052B001202070FDF7D8F96060BDE8104010B5F0
S315080052C000F0F6F9012818D000F00EFAA8B10E4C35
S315080052D02078012811D1FDF7C7F9A26861688A18F4
S315080052E002F5FA72904208D30020207000F003FA03
S315080052F018B9BDE8104000F02FB910BD0249886002
S3150800530070470148806870475C190020704780B56F
S31508005310FDF7C8F9FCE7000008B100207047884986
S3150800532091F85900002806BF4879002801207047DF
S31508005330002804BF8348FFF7AEB90020704713461C
S3150800534008B1002070470A467F49FFF711BE08B129
S315080053500020704793B20A467C49FFF759BD0028DA
S3150800536004BF7A49FFF71CBD002070471FB5744C6F
S31508005370AC212046FDF73CF8402204F1AC0304F1C9
S315080053806C010392029301920091002300220021EE
S3150800539004F15800FFF7BFFC402004F1EC0104F1CA
S315080053A01803039002910190009301220023002123
S315080053B0201DFFF7B0FC1FBD10B5614C04F1580065
S315080053C0FFF7C0FC201DFFF7BDFC012010BD10B57E
S315080053D05B4C01212046FDF70BF804F16000FFF74E
S315080053E0C6F9002084F8590004F10C00FFF7BFF94C
S315080053F00020607110BD00002DE9F8430D46814676
S315080054006879FF28904657D129786E180020FFF74B
S3150800541083FF002850D14A4FA8783870A84407F16E
S31508005420580416E0B078C0092CD0787978B9B078E5
S31508005430787100F047F814BF00200220397901F08E
S31508005440FD0108433871391D4846FFF7A9FC307835
S315080054500644464532D23178314488452ED3707891
S31508005460042818BF0B2829D00528F0D1314648460C
S31508005470FEF76AF80028D5D135480168CA071BD552
S3150800548000BE19E060780028E1D1B078607000F0BD
S3150800549019F80CBF02200020217801F0FD0108430D
S315080054A0207021464846FFF7FDFC0028CFD1284842
S315080054B00168CA0700D500BE002001E0751BA8B226
S315080054C0BDE8F283B188C1F30A01B1F5007F7047E0
S315080054D070B51B4E96F85920044670791D469142C0
S315080054E018BF814201D0002070BD914215D106F146
S315080054F05C01088928B10968AAB206F16000FFF7BD
